{"contracts/NFTCollection.sol":{"NFTCollection":{"abi":[{"inputs":[],"stateMutability":"nonpayable","type":"constructor"},{"inputs":[],"name":"ApprovalCallerNotOwnerNorApproved","type":"error"},{"inputs":[],"name":"ApprovalQueryForNonexistentToken","type":"error"},{"inputs":[],"name":"BalanceQueryForZeroAddress","type":"error"},{"inputs":[],"name":"MintERC2309QuantityExceedsLimit","type":"error"},{"inputs":[],"name":"MintToZeroAddress","type":"error"},{"inputs":[],"name":"MintZeroQuantity","type":"error"},{"inputs":[],"name":"NotCompatibleWithSpotMints","type":"error"},{"inputs":[{"internalType":"address","name":"owner","type":"address"}],"name":"OwnableInvalidOwner","type":"error"},{"inputs":[{"internalType":"address","name":"account","type":"address"}],"name":"OwnableUnauthorizedAccount","type":"error"},{"inputs":[],"name":"OwnerQueryForNonexistentToken","type":"error"},{"inputs":[],"name":"OwnershipNotInitializedForExtraData","type":"error"},{"inputs":[],"name":"SequentialMintExceedsLimit","type":"error"},{"inputs":[],"name":"SequentialUpToTooSmall","type":"error"},{"inputs":[],"name":"SpotMintTokenIdTooSmall","type":"error"},{"inputs":[],"name":"TokenAlreadyExists","type":"error"},{"inputs":[],"name":"TransferCallerNotOwnerNorApproved","type":"error"},{"inputs":[],"name":"TransferFromIncorrectOwner","type":"error"},{"inputs":[],"name":"TransferToNonERC721ReceiverImplementer","type":"error"},{"inputs":[],"name":"TransferToZeroAddress","type":"error"},{"inputs":[],"name":"URIQueryForNonexistentToken","type":"error"},{"anonymous":false,"inputs":[{"indexed":true,"internalType":"address","name":"owner","type":"address"},{"indexed":true,"internalType":"address","name":"approved","type":"address"},{"indexed":true,"internalType":"uint256","name":"tokenId","type":"uint256"}],"name":"Approval","type":"event"},{"anonymous":false,"inputs":[{"indexed":true,"internalType":"address","name":"owner","type":"address"},{"indexed":true,"internalType":"address","name":"operator","type":"address"},{"indexed":false,"internalType":"bool","name":"approved","type":"bool"}],"name":"ApprovalForAll","type":"event"},{"anonymous":false,"inputs":[{"indexed":true,"internalType":"uint256","name":"fromTokenId","type":"uint256"},{"indexed":false,"internalType":"uint256","name":"toTokenId","type":"uint256"},{"indexed":true,"internalType":"address","name":"from","type":"address"},{"indexed":true,"internalType":"address","name":"to","type":"address"}],"name":"ConsecutiveTransfer","type":"event"},{"anonymous":false,"inputs":[{"indexed":true,"internalType":"address","name":"previousOwner","type":"address"},{"indexed":true,"internalType":"address","name":"newOwner","type":"address"}],"name":"OwnershipTransferred","type":"event"},{"anonymous":false,"inputs":[{"indexed":true,"internalType":"address","name":"from","type":"address"},{"indexed":true,"internalType":"address","name":"to","type":"address"},{"indexed":true,"internalType":"uint256","name":"tokenId","type":"uint256"}],"name":"Transfer","type":"event"},{"inputs":[{"internalType":"address[]","name":"recipients","type":"address[]"}],"name":"airdrop","outputs":[],"stateMutability":"nonpayable","type":"function"},{"inputs":[{"internalType":"address","name":"to","type":"address"},{"internalType":"uint256","name":"tokenId","type":"uint256"}],"name":"approve","outputs":[],"stateMutability":"payable","type":"function"},{"inputs":[{"internalType":"address","name":"owner","type":"address"}],"name":"balanceOf","outputs":[{"internalType":"uint256","name":"","type":"uint256"}],"stateMutability":"view","type":"function"},{"inputs":[],"name":"collectionURI","outputs":[{"internalType":"string","name":"","type":"string"}],"stateMutability":"view","type":"function"},{"inputs":[{"internalType":"uint256","name":"tokenId","type":"uint256"}],"name":"getApproved","outputs":[{"internalType":"address","name":"","type":"address"}],"stateMutability":"view","type":"function"},{"inputs":[{"internalType":"string","name":"name_","type":"string"},{"internalType":"string","name":"symbol_","type":"string"},{"internalType":"string","name":"baseTokenURI_","type":"string"},{"internalType":"uint256","name":"maxSupply_","type":"uint256"},{"internalType":"uint256","name":"mintPrice_","type":"uint256"},{"internalType":"uint256","name":"maxPerWallet_","type":"uint256"},{"internalType":"uint256","name":"mintStart_","type":"uint256"},{"internalType":"uint256","name":"mintEnd_","type":"uint256"},{"internalType":"address","name":"owner_","type":"address"},{"internalType":"address","name":"platformAddress_","type":"address"}],"name":"initialize","outputs":[],"stateMutability":"nonpayable","type":"function"},{"inputs":[{"internalType":"address","name":"owner","type":"address"},{"internalType":"address","name":"operator","type":"address"}],"name":"isApprovedForAll","outputs":[{"internalType":"bool","name":"","type":"bool"}],"stateMutability":"view","type":"function"},{"inputs":[],"name":"maxPerWallet","outputs":[{"internalType":"uint96","name":"","type":"uint96"}],"stateMutability":"view","type":"function"},{"inputs":[],"name":"maxSupply","outputs":[{"internalType":"uint96","name":"","type":"uint96"}],"stateMutability":"view","type":"function"},{"inputs":[],"name":"mint","outputs":[],"stateMutability":"payable","type":"function"},{"inputs":[],"name":"mintEnd","outputs":[{"internalType":"uint64","name":"","type":"uint64"}],"stateMutability":"view","type":"function"},{"inputs":[{"internalType":"uint256","name":"quantity","type":"uint256"}],"name":"mintMultiple","outputs":[],"stateMutability":"payable","type":"function"},{"inputs":[],"name":"mintPrice","outputs":[{"internalType":"uint96","name":"","type":"uint96"}],"stateMutability":"view","type":"function"},{"inputs":[],"name":"mintStart","outputs":[{"internalType":"uint64","name":"","type":"uint64"}],"stateMutability":"view","type":"function"},{"inputs":[],"name":"name","outputs":[{"internalType":"string","name":"","type":"string"}],"stateMutability":"view","type":"function"},{"inputs":[],"name":"owner","outputs":[{"internalType":"address","name":"","type":"address"}],"stateMutability":"view","type":"function"},{"inputs":[{"internalType":"uint256","name":"tokenId","type":"uint256"}],"name":"ownerOf","outputs":[{"internalType":"address","name":"","type":"address"}],"stateMutability":"view","type":"function"},{"inputs":[],"name":"platformAddress","outputs":[{"internalType":"address","name":"","type":"address"}],"stateMutability":"view","type":"function"},{"inputs":[],"name":"renounceOwnership","outputs":[],"stateMutability":"nonpayable","type":"function"},{"inputs":[{"internalType":"address","name":"from","type":"address"},{"internalType":"address","name":"to","type":"address"},{"internalType":"uint256","name":"tokenId","type":"uint256"}],"name":"safeTransferFrom","outputs":[],"stateMutability":"payable","type":"function"},{"inputs":[{"internalType":"address","name":"from","type":"address"},{"internalType":"address","name":"to","type":"address"},{"internalType":"uint256","name":"tokenId","type":"uint256"},{"internalType":"bytes","name":"_data","type":"bytes"}],"name":"safeTransferFrom","outputs":[],"stateMutability":"payable","type":"function"},{"inputs":[{"internalType":"address","name":"operator","type":"address"},{"internalType":"bool","name":"approved","type":"bool"}],"name":"setApprovalForAll","outputs":[],"stateMutability":"nonpayable","type":"function"},{"inputs":[{"internalType":"string","name":"newBaseURI","type":"string"}],"name":"setBaseURI","outputs":[],"stateMutability":"nonpayable","type":"function"},{"inputs":[{"internalType":"uint256","name":"newMintPrice","type":"uint256"}],"name":"setMintPrice","outputs":[],"stateMutability":"nonpayable","type":"function"},{"inputs":[{"internalType":"bytes4","name":"interfaceId","type":"bytes4"}],"name":"supportsInterface","outputs":[{"internalType":"bool","name":"","type":"bool"}],"stateMutability":"view","type":"function"},{"inputs":[],"name":"symbol","outputs":[{"internalType":"string","name":"","type":"string"}],"stateMutability":"view","type":"function"},{"inputs":[{"internalType":"uint256","name":"tokenId","type":"uint256"}],"name":"tokenURI","outputs":[{"internalType":"string","name":"","type":"string"}],"stateMutability":"view","type":"function"},{"inputs":[],"name":"totalMinted","outputs":[{"internalType":"uint256","name":"","type":"uint256"}],"stateMutability":"view","type":"function"},{"inputs":[],"name":"totalSupply","outputs":[{"internalType":"uint256","name":"result","type":"uint256"}],"stateMutability":"view","type":"function"},{"inputs":[{"internalType":"address","name":"from","type":"address"},{"internalType":"address","name":"to","type":"address"},{"internalType":"uint256","name":"tokenId","type":"uint256"}],"name":"transferFrom","outputs":[],"stateMutability":"payable","type":"function"},{"inputs":[{"internalType":"address","name":"newOwner","type":"address"}],"name":"transferOwnership","outputs":[],"stateMutability":"nonpayable","type":"function"},{"inputs":[],"name":"withdraw","outputs":[],"stateMutability":"nonpayable","type":"function"}],"evm":{"bytecode":{"linkReferences":{},"object":"60806040523480156200001157600080fd5b503360405180602001604052806000815250604051806020016040528060008152508160029081620000449190620004b3565b508060039081620000569190620004b3565b50620000676200013c60201b60201c565b6000819055506200007d6200013c60201b60201c565b6200008d6200014160201b60201c565b1015620000ad57620000ac63fed8210f60e01b6200016960201b60201c565b5b5050600073ffffffffffffffffffffffffffffffffffffffff168173ffffffffffffffffffffffffffffffffffffffff1603620001245760006040517f1e4fbdf70000000000000000000000000000000000000000000000000000000081526004016200011b9190620005df565b60405180910390fd5b62000135816200017360201b60201c565b50620005fc565b600090565b60007fffffffffffffffffffffffffffffffffffffffffffffffffffffffffffffffff905090565b8060005260046000fd5b6000600960009054906101000a900473ffffffffffffffffffffffffffffffffffffffff16905081600960006101000a81548173ffffffffffffffffffffffffffffffffffffffff021916908373ffffffffffffffffffffffffffffffffffffffff1602179055508173ffffffffffffffffffffffffffffffffffffffff168173ffffffffffffffffffffffffffffffffffffffff167f8be0079c531659141344cd1fd0a4f28419497f9722a3daafe3b4186f6b6457e060405160405180910390a35050565b600081519050919050565b7f4e487b7100000000000000000000000000000000000000000000000000000000600052604160045260246000fd5b7f4e487b7100000000000000000000000000000000000000000000000000000000600052602260045260246000fd5b60006002820490506001821680620002bb57607f821691505b602082108103620002d157620002d062000273565b5b50919050565b60008190508160005260206000209050919050565b60006020601f8301049050919050565b600082821b905092915050565b6000600883026200033b7fffffffffffffffffffffffffffffffffffffffffffffffffffffffffffffffff82620002fc565b620003478683620002fc565b95508019841693508086168417925050509392505050565b6000819050919050565b6000819050919050565b6000620003946200038e62000388846200035f565b62000369565b6200035f565b9050919050565b6000819050919050565b620003b08362000373565b620003c8620003bf826200039b565b84845462000309565b825550505050565b600090565b620003df620003d0565b620003ec818484620003a5565b505050565b5b81811015620004145762000408600082620003d5565b600181019050620003f2565b5050565b601f82111562000463576200042d81620002d7565b6200043884620002ec565b8101602085101562000448578190505b620004606200045785620002ec565b830182620003f1565b50505b505050565b600082821c905092915050565b6000620004886000198460080262000468565b1980831691505092915050565b6000620004a3838362000475565b9150826002028217905092915050565b620004be8262000239565b67ffffffffffffffff811115620004da57620004d962000244565b5b620004e68254620002a2565b620004f382828562000418565b600060209050601f8311600181146200052b576000841562000516578287015190505b62000522858262000495565b86555062000592565b601f1984166200053b86620002d7565b60005b8281101562000565578489015182556001820191506020850194506020810190506200053e565b8683101562000585578489015162000581601f89168262000475565b8355505b6001600288020188555050505b505050505050565b600073ffffffffffffffffffffffffffffffffffffffff82169050919050565b6000620005c7826200059a565b9050919050565b620005d981620005ba565b82525050565b6000602082019050620005f66000830184620005ce565b92915050565b61371b806200060c6000396000f3fe6080604052600436106101e35760003560e01c8063729ad39e11610102578063b88d4fde11610095578063e985e9c511610064578063e985e9c51461065a578063ea2b4ab214610697578063f2fde38b146106c2578063f4a0a528146106eb576101e3565b8063b88d4fde146105ab578063c87b56dd146105c7578063d5abeb0114610604578063dbe55e561461062f576101e3565b8063a22cb465116100d1578063a22cb46514610510578063a2309ff814610539578063a5097ebf14610564578063abbb5a551461058f576101e3565b8063729ad39e146104685780638da5cb5b1461049157806395053efa146104bc57806395d89b41146104e5576101e3565b80633ccfd60b1161017a5780636352211e116101495780636352211e146103ac5780636817c76c146103e957806370a0823114610414578063715018a614610451576101e3565b80633ccfd60b1461032557806342842e0e1461033c578063453c23101461035857806355f804b314610383576101e3565b80631249c58b116101b65780631249c58b146102a957806318160ddd146102b357806323b872dd146102de578063255e4685146102fa576101e3565b806301ffc9a7146101e857806306fdde0314610225578063081812fc14610250578063095ea7b31461028d575b600080fd5b3480156101f457600080fd5b5061020f600480360381019061020a91906123b1565b610714565b60405161021c91906123f9565b60405180910390f35b34801561023157600080fd5b5061023a6107a6565b60405161024791906124a4565b60405180910390f35b34801561025c57600080fd5b50610277600480360381019061027291906124fc565b610838565b604051610284919061256a565b60405180910390f35b6102a760048036038101906102a291906125b1565b610896565b005b6102b16108a6565b005b3480156102bf57600080fd5b506102c86108b2565b6040516102d59190612600565b60405180910390f35b6102f860048036038101906102f3919061261b565b6108ff565b005b34801561030657600080fd5b5061030f610bc0565b60405161031c9190612691565b60405180910390f35b34801561033157600080fd5b5061033a610bda565b005b6103566004803603810190610351919061261b565b610de0565b005b34801561036457600080fd5b5061036d610e00565b60405161037a91906126d3565b60405180910390f35b34801561038f57600080fd5b506103aa60048036038101906103a59190612823565b610e1e565b005b3480156103b857600080fd5b506103d360048036038101906103ce91906124fc565b610e39565b6040516103e0919061256a565b60405180910390f35b3480156103f557600080fd5b506103fe610e4b565b60405161040b91906126d3565b60405180910390f35b34801561042057600080fd5b5061043b6004803603810190610436919061286c565b610e69565b6040516104489190612600565b60405180910390f35b34801561045d57600080fd5b50610466610f00565b005b34801561047457600080fd5b5061048f600480360381019061048a91906128f9565b610f14565b005b34801561049d57600080fd5b506104a6610fef565b6040516104b3919061256a565b60405180910390f35b3480156104c857600080fd5b506104e360048036038101906104de9190612946565b611019565b005b3480156104f157600080fd5b506104fa6111ef565b60405161050791906124a4565b60405180910390f35b34801561051c57600080fd5b5061053760048036038101906105329190612aa5565b611281565b005b34801561054557600080fd5b5061054e61138c565b60405161055b9190612600565b60405180910390f35b34801561057057600080fd5b5061057961139b565b60405161058691906124a4565b60405180910390f35b6105a960048036038101906105a491906124fc565b61142d565b005b6105c560048036038101906105c09190612b86565b6116df565b005b3480156105d357600080fd5b506105ee60048036038101906105e991906124fc565b611731565b6040516105fb91906124a4565b60405180910390f35b34801561061057600080fd5b506106196117ae565b60405161062691906126d3565b60405180910390f35b34801561063b57600080fd5b506106446117cc565b604051610651919061256a565b60405180910390f35b34801561066657600080fd5b50610681600480360381019061067c9190612c09565b6117f2565b60405161068e91906123f9565b60405180910390f35b3480156106a357600080fd5b506106ac611886565b6040516106b99190612691565b60405180910390f35b3480156106ce57600080fd5b506106e960048036038101906106e4919061286c565b6118a0565b005b3480156106f757600080fd5b50610712600480360381019061070d91906124fc565b611926565b005b60006301ffc9a760e01b827bffffffffffffffffffffffffffffffffffffffffffffffffffffffff1916148061076f57506380ac58cd60e01b827bffffffffffffffffffffffffffffffffffffffffffffffffffffffff1916145b8061079f5750635b5e139f60e01b827bffffffffffffffffffffffffffffffffffffffffffffffffffffffff1916145b9050919050565b6060600c80546107b590612c78565b80601f01602080910402602001604051908101604052809291908181526020018280546107e190612c78565b801561082e5780601f106108035761010080835404028352916020019161082e565b820191906000526020600020905b81548152906001019060200180831161081157829003601f168201915b5050505050905090565b600061084382611962565b6108585761085763cf4700e460e01b611a0e565b5b6006600083815260200190815260200160002060000160009054906101000a900473ffffffffffffffffffffffffffffffffffffffff169050919050565b6108a282826001611a18565b5050565b6108b0600161142d565b565b60006108bc611b47565b600154600054030390507fffffffffffffffffffffffffffffffffffffffffffffffffffffffffffffffff6108ef611b4c565b146108fc57600854810190505b90565b600061090a82611b74565b905073ffffffffffffffffffffffffffffffffffffffff8473ffffffffffffffffffffffffffffffffffffffff161693508373ffffffffffffffffffffffffffffffffffffffff168173ffffffffffffffffffffffffffffffffffffffff161461097f5761097e63a114810060e01b611a0e565b5b60008061098b84611c8d565b915091506109a1818761099c611cb4565b611cbc565b6109cc576109b6866109b1611cb4565b6117f2565b6109cb576109ca6359c896be60e01b611a0e565b5b5b6109d98686866001611d00565b80156109e457600082555b600560008773ffffffffffffffffffffffffffffffffffffffff1673ffffffffffffffffffffffffffffffffffffffff168152602001908152602001600020600081546001900391905081905550600560008673ffffffffffffffffffffffffffffffffffffffff1673ffffffffffffffffffffffffffffffffffffffff1681526020019081526020016000206000815460010191905081905550610ab285610a8e888887611d06565b7c020000000000000000000000000000000000000000000000000000000017611d2e565b600460008681526020019081526020016000208190555060007c0200000000000000000000000000000000000000000000000000000000841603610b385760006001850190506000600460008381526020019081526020016000205403610b36576000548114610b35578360046000838152602001908152602001600020819055505b5b505b600073ffffffffffffffffffffffffffffffffffffffff8673ffffffffffffffffffffffffffffffffffffffff161690508481887fddf252ad1be2c89b69c2b068fc378daa952ba7f163c4a11628f55a4df523b3ef600080a460008103610baa57610ba963ea553b3460e01b611a0e565b5b610bb78787876001611d59565b50505050505050565b600b600c9054906101000a900467ffffffffffffffff1681565b610be2611d5f565b600047905060008111610c2a576040517f08c379a0000000000000000000000000000000000000000000000000000000008152600401610c2190612cf5565b60405180910390fd5b6000612710603283610c3c9190612d44565b610c469190612db5565b905060008183610c569190612de6565b90506000600f60009054906101000a900473ffffffffffffffffffffffffffffffffffffffff1673ffffffffffffffffffffffffffffffffffffffff1683604051610ca090612e4b565b60006040518083038185875af1925050503d8060008114610cdd576040519150601f19603f3d011682016040523d82523d6000602084013e610ce2565b606091505b5050905080610d26576040517f08c379a0000000000000000000000000000000000000000000000000000000008152600401610d1d90612eac565b60405180910390fd5b6000610d30610fef565b73ffffffffffffffffffffffffffffffffffffffff1683604051610d5390612e4b565b60006040518083038185875af1925050503d8060008114610d90576040519150601f19603f3d011682016040523d82523d6000602084013e610d95565b606091505b5050905080610dd9576040517f08c379a0000000000000000000000000000000000000000000000000000000008152600401610dd090612f18565b60405180910390fd5b5050505050565b610dfb838383604051806020016040528060008152506116df565b505050565b600b60009054906101000a90046bffffffffffffffffffffffff1681565b610e26611d5f565b80600e9081610e3591906130e4565b5050565b6000610e4482611b74565b9050919050565b600a600c9054906101000a90046bffffffffffffffffffffffff1681565b60008073ffffffffffffffffffffffffffffffffffffffff168273ffffffffffffffffffffffffffffffffffffffff1603610eaf57610eae638f4eb60460e01b611a0e565b5b67ffffffffffffffff600560008473ffffffffffffffffffffffffffffffffffffffff1673ffffffffffffffffffffffffffffffffffffffff16815260200190815260200160002054169050919050565b610f08611d5f565b610f126000611de6565b565b610f1c611d5f565b6000828290509050600a60009054906101000a90046bffffffffffffffffffffffff166bffffffffffffffffffffffff1681610f56611eac565b610f6091906131b6565b1115610fa1576040517f08c379a0000000000000000000000000000000000000000000000000000000008152600401610f9890613236565b60405180910390fd5b60005b81811015610fe957610fde848483818110610fc257610fc1613256565b5b9050602002016020810190610fd7919061286c565b6001611ef5565b806001019050610fa4565b50505050565b6000600960009054906101000a900473ffffffffffffffffffffffffffffffffffffffff16905090565b600960149054906101000a900460ff1615611069576040517f08c379a0000000000000000000000000000000000000000000000000000000008152600401611060906132d1565b60405180910390fd5b6001600960146101000a81548160ff02191690831515021790555089600c908161109391906130e4565b5088600d90816110a391906130e4565b506110ad82611de6565b87600e90816110bc91906130e4565b5086600a60006101000a8154816bffffffffffffffffffffffff02191690836bffffffffffffffffffffffff16021790555085600a600c6101000a8154816bffffffffffffffffffffffff02191690836bffffffffffffffffffffffff16021790555084600b60006101000a8154816bffffffffffffffffffffffff02191690836bffffffffffffffffffffffff16021790555083600b600c6101000a81548167ffffffffffffffff021916908367ffffffffffffffff16021790555082600b60146101000a81548167ffffffffffffffff021916908367ffffffffffffffff16021790555080600f60006101000a81548173ffffffffffffffffffffffffffffffffffffffff021916908373ffffffffffffffffffffffffffffffffffffffff16021790555050505050505050505050565b6060600d80546111fe90612c78565b80601f016020809104026020016040519081016040528092919081815260200182805461122a90612c78565b80156112775780601f1061124c57610100808354040283529160200191611277565b820191906000526020600020905b81548152906001019060200180831161125a57829003601f168201915b5050505050905090565b806007600061128e611cb4565b73ffffffffffffffffffffffffffffffffffffffff1673ffffffffffffffffffffffffffffffffffffffff16815260200190815260200160002060008473ffffffffffffffffffffffffffffffffffffffff1673ffffffffffffffffffffffffffffffffffffffff16815260200190815260200160002060006101000a81548160ff0219169083151502179055508173ffffffffffffffffffffffffffffffffffffffff1661133b611cb4565b73ffffffffffffffffffffffffffffffffffffffff167f17307eab39ab6107e8899845ad3d59bd9653f200f220920489ca2b5937696c318360405161138091906123f9565b60405180910390a35050565b6000611396611eac565b905090565b6060600e80546113aa90612c78565b80601f01602080910402602001604051908101604052809291908181526020018280546113d690612c78565b80156114235780601f106113f857610100808354040283529160200191611423565b820191906000526020600020905b81548152906001019060200180831161140657829003601f168201915b5050505050905090565b60008111611470576040517f08c379a00000000000000000000000000000000000000000000000000000000081526004016114679061333d565b60405180910390fd5b600a60009054906101000a90046bffffffffffffffffffffffff166bffffffffffffffffffffffff16816114a2611eac565b6114ac91906131b6565b11156114ed576040517f08c379a00000000000000000000000000000000000000000000000000000000081526004016114e4906133a9565b60405180910390fd5b600b60009054906101000a90046bffffffffffffffffffffffff166bffffffffffffffffffffffff16816115203361207b565b61152a91906131b6565b111561156b576040517f08c379a000000000000000000000000000000000000000000000000000000000815260040161156290613415565b60405180910390fd5b80600a600c9054906101000a90046bffffffffffffffffffffffff166bffffffffffffffffffffffff1661159f9190612d44565b3410156115e1576040517f08c379a00000000000000000000000000000000000000000000000000000000081526004016115d890613481565b60405180910390fd5b600b600c9054906101000a900467ffffffffffffffff1667ffffffffffffffff16421015611644576040517f08c379a000000000000000000000000000000000000000000000000000000000815260040161163b906134ed565b60405180910390fd5b6000600b60149054906101000a900467ffffffffffffffff1667ffffffffffffffff1614806116935750600b60149054906101000a900467ffffffffffffffff1667ffffffffffffffff164211155b6116d2576040517f08c379a00000000000000000000000000000000000000000000000000000000081526004016116c990613559565b60405180910390fd5b6116dc3382611ef5565b50565b6116ea8484846108ff565b60008373ffffffffffffffffffffffffffffffffffffffff163b1461172b57611715848484846120d2565b61172a5761172963d1a57ed660e01b611a0e565b5b5b50505050565b606061173c82611962565b6117515761175063a14c4b5060e01b611a0e565b5b600061175b612201565b9050600081510361177b57604051806020016040528060008152506117a6565b8061178584612293565b6040516020016117969291906135b5565b6040516020818303038152906040525b915050919050565b600a60009054906101000a90046bffffffffffffffffffffffff1681565b600f60009054906101000a900473ffffffffffffffffffffffffffffffffffffffff1681565b6000600760008473ffffffffffffffffffffffffffffffffffffffff1673ffffffffffffffffffffffffffffffffffffffff16815260200190815260200160002060008373ffffffffffffffffffffffffffffffffffffffff1673ffffffffffffffffffffffffffffffffffffffff16815260200190815260200160002060009054906101000a900460ff16905092915050565b600b60149054906101000a900467ffffffffffffffff1681565b6118a8611d5f565b600073ffffffffffffffffffffffffffffffffffffffff168173ffffffffffffffffffffffffffffffffffffffff160361191a5760006040517f1e4fbdf7000000000000000000000000000000000000000000000000000000008152600401611911919061256a565b60405180910390fd5b61192381611de6565b50565b61192e611d5f565b80600a600c6101000a8154816bffffffffffffffffffffffff02191690836bffffffffffffffffffffffff16021790555050565b60008161196d611b47565b11611a085761197a611b4c565b8211156119a45761199d60046000848152602001908152602001600020546122e3565b9050611a09565b600054821015611a075760005b60006004600085815260200190815260200160002054915081036119e057826119d9906135d9565b92506119b1565b60007c01000000000000000000000000000000000000000000000000000000008216149150505b5b5b919050565b8060005260046000fd5b6000611a2383610e39565b9050818015611a6557508073ffffffffffffffffffffffffffffffffffffffff16611a4c611cb4565b73ffffffffffffffffffffffffffffffffffffffff1614155b15611a9157611a7b81611a76611cb4565b6117f2565b611a9057611a8f63cfb3b94260e01b611a0e565b5b5b836006600085815260200190815260200160002060000160006101000a81548173ffffffffffffffffffffffffffffffffffffffff021916908373ffffffffffffffffffffffffffffffffffffffff160217905550828473ffffffffffffffffffffffffffffffffffffffff168273ffffffffffffffffffffffffffffffffffffffff167f8c5be1e5ebec7d5bd14f71427d1e84f3dd0314c0f7b2291e5b200ac8c7c3b92560405160405180910390a450505050565b600090565b60007fffffffffffffffffffffffffffffffffffffffffffffffffffffffffffffffff905090565b600081611b7f611b47565b11611c775760046000838152602001908152602001600020549050611ba2611b4c565b821115611bc757611bb2816122e3565b611c8857611bc663df2d9b4260e01b611a0e565b5b60008103611c4e576000548210611be957611be863df2d9b4260e01b611a0e565b5b5b60046000836001900393508381526020019081526020016000205490506000810315611c495760007c010000000000000000000000000000000000000000000000000000000082160315611c8857611c4863df2d9b4260e01b611a0e565b5b611bea565b60007c010000000000000000000000000000000000000000000000000000000082160315611c88575b611c8763df2d9b4260e01b611a0e565b5b919050565b60008060006006600085815260200190815260200160002090508092508254915050915091565b600033905090565b600073ffffffffffffffffffffffffffffffffffffffff8316925073ffffffffffffffffffffffffffffffffffffffff821691508382148383141790509392505050565b50505050565b60008060e883901c905060e8611d1d868684612324565b62ffffff16901b9150509392505050565b600073ffffffffffffffffffffffffffffffffffffffff83169250814260a01b178317905092915050565b50505050565b611d6761232d565b73ffffffffffffffffffffffffffffffffffffffff16611d85610fef565b73ffffffffffffffffffffffffffffffffffffffff1614611de457611da861232d565b6040517f118cdaa7000000000000000000000000000000000000000000000000000000008152600401611ddb919061256a565b60405180910390fd5b565b6000600960009054906101000a900473ffffffffffffffffffffffffffffffffffffffff16905081600960006101000a81548173ffffffffffffffffffffffffffffffffffffffff021916908373ffffffffffffffffffffffffffffffffffffffff1602179055508173ffffffffffffffffffffffffffffffffffffffff168173ffffffffffffffffffffffffffffffffffffffff167f8be0079c531659141344cd1fd0a4f28419497f9722a3daafe3b4186f6b6457e060405160405180910390a35050565b6000611eb6611b47565b6000540390507fffffffffffffffffffffffffffffffffffffffffffffffffffffffffffffffff611ee5611b4c565b14611ef257600854810190505b90565b60008054905060008203611f1457611f1363b562e8dd60e01b611a0e565b5b611f216000848385611d00565b611f4183611f326000866000611d06565b611f3b85612335565b17611d2e565b6004600083815260200190815260200160002081905550600160406001901b178202600560008573ffffffffffffffffffffffffffffffffffffffff1673ffffffffffffffffffffffffffffffffffffffff16815260200190815260200160002060008282540192505081905550600073ffffffffffffffffffffffffffffffffffffffff8473ffffffffffffffffffffffffffffffffffffffff1616905060008103611ff957611ff8632e07630060e01b611a0e565b5b60008383019050600083905061200d611b4c565b600183031115612028576120276381647e3a60e01b611a0e565b5b5b808360007fddf252ad1be2c89b69c2b068fc378daa952ba7f163c4a11628f55a4df523b3ef600080a481816001019150810361202957816000819055505050506120766000848385611d59565b505050565b600067ffffffffffffffff6040600560008573ffffffffffffffffffffffffffffffffffffffff1673ffffffffffffffffffffffffffffffffffffffff16815260200190815260200160002054901c169050919050565b60008373ffffffffffffffffffffffffffffffffffffffff1663150b7a026120f8611cb4565b8786866040518563ffffffff1660e01b815260040161211a9493929190613657565b6020604051808303816000875af192505050801561215657506040513d601f19601f8201168201806040525081019061215391906136b8565b60015b6121ae573d8060008114612186576040519150601f19603f3d011682016040523d82523d6000602084013e61218b565b606091505b5060008151036121a6576121a563d1a57ed660e01b611a0e565b5b805181602001fd5b63150b7a0260e01b7bffffffffffffffffffffffffffffffffffffffffffffffffffffffff1916817bffffffffffffffffffffffffffffffffffffffffffffffffffffffff191614915050949350505050565b6060600e805461221090612c78565b80601f016020809104026020016040519081016040528092919081815260200182805461223c90612c78565b80156122895780601f1061225e57610100808354040283529160200191612289565b820191906000526020600020905b81548152906001019060200180831161226c57829003601f168201915b5050505050905090565b606060a060405101806040526020810391506000825281835b6001156122ce57600184039350600a81066030018453600a81049050806122ac575b50828103602084039350808452505050919050565b60007c0100000000000000000000000000000000000000000000000000000000821673ffffffffffffffffffffffffffffffffffffffff8316119050919050565b60009392505050565b600033905090565b60006001821460e11b9050919050565b6000604051905090565b600080fd5b600080fd5b60007fffffffff0000000000000000000000000000000000000000000000000000000082169050919050565b61238e81612359565b811461239957600080fd5b50565b6000813590506123ab81612385565b92915050565b6000602082840312156123c7576123c661234f565b5b60006123d58482850161239c565b91505092915050565b60008115159050919050565b6123f3816123de565b82525050565b600060208201905061240e60008301846123ea565b92915050565b600081519050919050565b600082825260208201905092915050565b60005b8381101561244e578082015181840152602081019050612433565b60008484015250505050565b6000601f19601f8301169050919050565b600061247682612414565b612480818561241f565b9350612490818560208601612430565b6124998161245a565b840191505092915050565b600060208201905081810360008301526124be818461246b565b905092915050565b6000819050919050565b6124d9816124c6565b81146124e457600080fd5b50565b6000813590506124f6816124d0565b92915050565b6000602082840312156125125761251161234f565b5b6000612520848285016124e7565b91505092915050565b600073ffffffffffffffffffffffffffffffffffffffff82169050919050565b600061255482612529565b9050919050565b61256481612549565b82525050565b600060208201905061257f600083018461255b565b92915050565b61258e81612549565b811461259957600080fd5b50565b6000813590506125ab81612585565b92915050565b600080604083850312156125c8576125c761234f565b5b60006125d68582860161259c565b92505060206125e7858286016124e7565b9150509250929050565b6125fa816124c6565b82525050565b600060208201905061261560008301846125f1565b92915050565b6000806000606084860312156126345761263361234f565b5b60006126428682870161259c565b93505060206126538682870161259c565b9250506040612664868287016124e7565b9150509250925092565b600067ffffffffffffffff82169050919050565b61268b8161266e565b82525050565b60006020820190506126a66000830184612682565b92915050565b60006bffffffffffffffffffffffff82169050919050565b6126cd816126ac565b82525050565b60006020820190506126e860008301846126c4565b92915050565b600080fd5b600080fd5b7f4e487b7100000000000000000000000000000000000000000000000000000000600052604160045260246000fd5b6127308261245a565b810181811067ffffffffffffffff8211171561274f5761274e6126f8565b5b80604052505050565b6000612762612345565b905061276e8282612727565b919050565b600067ffffffffffffffff82111561278e5761278d6126f8565b5b6127978261245a565b9050602081019050919050565b82818337600083830152505050565b60006127c66127c184612773565b612758565b9050828152602081018484840111156127e2576127e16126f3565b5b6127ed8482856127a4565b509392505050565b600082601f83011261280a576128096126ee565b5b813561281a8482602086016127b3565b91505092915050565b6000602082840312156128395761283861234f565b5b600082013567ffffffffffffffff81111561285757612856612354565b5b612863848285016127f5565b91505092915050565b6000602082840312156128825761288161234f565b5b60006128908482850161259c565b91505092915050565b600080fd5b600080fd5b60008083601f8401126128b9576128b86126ee565b5b8235905067ffffffffffffffff8111156128d6576128d5612899565b5b6020830191508360208202830111156128f2576128f161289e565b5b9250929050565b600080602083850312156129105761290f61234f565b5b600083013567ffffffffffffffff81111561292e5761292d612354565b5b61293a858286016128a3565b92509250509250929050565b6000806000806000806000806000806101408b8d03121561296a5761296961234f565b5b60008b013567ffffffffffffffff81111561298857612987612354565b5b6129948d828e016127f5565b9a505060208b013567ffffffffffffffff8111156129b5576129b4612354565b5b6129c18d828e016127f5565b99505060408b013567ffffffffffffffff8111156129e2576129e1612354565b5b6129ee8d828e016127f5565b98505060606129ff8d828e016124e7565b9750506080612a108d828e016124e7565b96505060a0612a218d828e016124e7565b95505060c0612a328d828e016124e7565b94505060e0612a438d828e016124e7565b935050610100612a558d828e0161259c565b925050610120612a678d828e0161259c565b9150509295989b9194979a5092959850565b612a82816123de565b8114612a8d57600080fd5b50565b600081359050612a9f81612a79565b92915050565b60008060408385031215612abc57612abb61234f565b5b6000612aca8582860161259c565b9250506020612adb85828601612a90565b9150509250929050565b600067ffffffffffffffff821115612b0057612aff6126f8565b5b612b098261245a565b9050602081019050919050565b6000612b29612b2484612ae5565b612758565b905082815260208101848484011115612b4557612b446126f3565b5b612b508482856127a4565b509392505050565b600082601f830112612b6d57612b6c6126ee565b5b8135612b7d848260208601612b16565b91505092915050565b60008060008060808587031215612ba057612b9f61234f565b5b6000612bae8782880161259c565b9450506020612bbf8782880161259c565b9350506040612bd0878288016124e7565b925050606085013567ffffffffffffffff811115612bf157612bf0612354565b5b612bfd87828801612b58565b91505092959194509250565b60008060408385031215612c2057612c1f61234f565b5b6000612c2e8582860161259c565b9250506020612c3f8582860161259c565b9150509250929050565b7f4e487b7100000000000000000000000000000000000000000000000000000000600052602260045260246000fd5b60006002820490506001821680612c9057607f821691505b602082108103612ca357612ca2612c49565b5b50919050565b7f4e6f2062616c616e636520746f20776974686472617700000000000000000000600082015250565b6000612cdf60168361241f565b9150612cea82612ca9565b602082019050919050565b60006020820190508181036000830152612d0e81612cd2565b9050919050565b7f4e487b7100000000000000000000000000000000000000000000000000000000600052601160045260246000fd5b6000612d4f826124c6565b9150612d5a836124c6565b9250828202612d68816124c6565b91508282048414831517612d7f57612d7e612d15565b5b5092915050565b7f4e487b7100000000000000000000000000000000000000000000000000000000600052601260045260246000fd5b6000612dc0826124c6565b9150612dcb836124c6565b925082612ddb57612dda612d86565b5b828204905092915050565b6000612df1826124c6565b9150612dfc836124c6565b9250828203905081811115612e1457612e13612d15565b5b92915050565b600081905092915050565b50565b6000612e35600083612e1a565b9150612e4082612e25565b600082019050919050565b6000612e5682612e28565b9150819050919050565b7f506c6174666f726d20666565207472616e73666572206661696c656400000000600082015250565b6000612e96601c8361241f565b9150612ea182612e60565b602082019050919050565b60006020820190508181036000830152612ec581612e89565b9050919050565b7f4f776e6572207472616e73666572206661696c65640000000000000000000000600082015250565b6000612f0260158361241f565b9150612f0d82612ecc565b602082019050919050565b60006020820190508181036000830152612f3181612ef5565b9050919050565b60008190508160005260206000209050919050565b60006020601f8301049050919050565b600082821b905092915050565b600060088302612f9a7fffffffffffffffffffffffffffffffffffffffffffffffffffffffffffffffff82612f5d565b612fa48683612f5d565b95508019841693508086168417925050509392505050565b6000819050919050565b6000612fe1612fdc612fd7846124c6565b612fbc565b6124c6565b9050919050565b6000819050919050565b612ffb83612fc6565b61300f61300782612fe8565b848454612f6a565b825550505050565b600090565b613024613017565b61302f818484612ff2565b505050565b5b818110156130535761304860008261301c565b600181019050613035565b5050565b601f8211156130985761306981612f38565b61307284612f4d565b81016020851015613081578190505b61309561308d85612f4d565b830182613034565b50505b505050565b600082821c905092915050565b60006130bb6000198460080261309d565b1980831691505092915050565b60006130d483836130aa565b9150826002028217905092915050565b6130ed82612414565b67ffffffffffffffff811115613106576131056126f8565b5b6131108254612c78565b61311b828285613057565b600060209050601f83116001811461314e576000841561313c578287015190505b61314685826130c8565b8655506131ae565b601f19841661315c86612f38565b60005b828110156131845784890151825560018201915060208501945060208101905061315f565b868310156131a1578489015161319d601f8916826130aa565b8355505b6001600288020188555050505b505050505050565b60006131c1826124c6565b91506131cc836124c6565b92508282019050808211156131e4576131e3612d15565b5b92915050565b7f4d617820737570706c7920726561636865640000000000000000000000000000600082015250565b600061322060128361241f565b915061322b826131ea565b602082019050919050565b6000602082019050818103600083015261324f81613213565b9050919050565b7f4e487b7100000000000000000000000000000000000000000000000000000000600052603260045260246000fd5b7f416c726561647920696e697469616c697a656400000000000000000000000000600082015250565b60006132bb60138361241f565b91506132c682613285565b602082019050919050565b600060208201905081810360008301526132ea816132ae565b9050919050565b7f5175616e74697479206d757374206265203e2030000000000000000000000000600082015250565b600061332760148361241f565b9150613332826132f1565b602082019050919050565b600060208201905081810360008301526133568161331a565b9050919050565b7f45786365656473206d617820737570706c790000000000000000000000000000600082015250565b600061339360128361241f565b915061339e8261335d565b602082019050919050565b600060208201905081810360008301526133c281613386565b9050919050565b7f45786365656473206d6178207065722077616c6c657400000000000000000000600082015250565b60006133ff60168361241f565b915061340a826133c9565b602082019050919050565b6000602082019050818103600083015261342e816133f2565b9050919050565b7f496e73756666696369656e74207061796d656e74000000000000000000000000600082015250565b600061346b60148361241f565b915061347682613435565b602082019050919050565b6000602082019050818103600083015261349a8161345e565b9050919050565b7f4d696e74206e6f74207374617274656400000000000000000000000000000000600082015250565b60006134d760108361241f565b91506134e2826134a1565b602082019050919050565b60006020820190508181036000830152613506816134ca565b9050919050565b7f4d696e7420656e64656400000000000000000000000000000000000000000000600082015250565b6000613543600a8361241f565b915061354e8261350d565b602082019050919050565b6000602082019050818103600083015261357281613536565b9050919050565b600081905092915050565b600061358f82612414565b6135998185613579565b93506135a9818560208601612430565b80840191505092915050565b60006135c18285613584565b91506135cd8284613584565b91508190509392505050565b60006135e4826124c6565b9150600082036135f7576135f6612d15565b5b600182039050919050565b600081519050919050565b600082825260208201905092915050565b600061362982613602565b613633818561360d565b9350613643818560208601612430565b61364c8161245a565b840191505092915050565b600060808201905061366c600083018761255b565b613679602083018661255b565b61368660408301856125f1565b8181036060830152613698818461361e565b905095945050505050565b6000815190506136b281612385565b92915050565b6000602082840312156136ce576136cd61234f565b5b60006136dc848285016136a3565b9150509291505056fea2646970667358221220dcb2a3c4e9f1bc97ca7be07145649e5744cb6ec1f56cc453f031bac975a1bd9464736f6c63430008140033","opcodes":"PUSH1 0x80 PUSH1 0x40 MSTORE CALLVALUE DUP1 ISZERO PUSH3 0x11 JUMPI PUSH1 0x0 DUP1 REVERT JUMPDEST POP CALLER PUSH1 0x40 MLOAD DUP1 PUSH1 0x20 ADD PUSH1 0x40 MSTORE DUP1 PUSH1 0x0 DUP2 MSTORE POP PUSH1 0x40 MLOAD DUP1 PUSH1 0x20 ADD PUSH1 0x40 MSTORE DUP1 PUSH1 0x0 DUP2 MSTORE POP DUP2 PUSH1 0x2 SWAP1 DUP2 PUSH3 0x44 SWAP2 SWAP1 PUSH3 0x4B3 JUMP JUMPDEST POP DUP1 PUSH1 0x3 SWAP1 DUP2 PUSH3 0x56 SWAP2 SWAP1 PUSH3 0x4B3 JUMP JUMPDEST POP PUSH3 0x67 PUSH3 0x13C PUSH1 0x20 SHL PUSH1 0x20 SHR JUMP JUMPDEST PUSH1 0x0 DUP2 SWAP1 SSTORE POP PUSH3 0x7D PUSH3 0x13C PUSH1 0x20 SHL PUSH1 0x20 SHR JUMP JUMPDEST PUSH3 0x8D PUSH3 0x141 PUSH1 0x20 SHL PUSH1 0x20 SHR JUMP JUMPDEST LT ISZERO PUSH3 0xAD JUMPI PUSH3 0xAC PUSH4 0xFED8210F PUSH1 0xE0 SHL PUSH3 0x169 PUSH1 0x20 SHL PUSH1 0x20 SHR JUMP JUMPDEST JUMPDEST POP POP PUSH1 0x0 PUSH20 0xFFFFFFFFFFFFFFFFFFFFFFFFFFFFFFFFFFFFFFFF AND DUP2 PUSH20 0xFFFFFFFFFFFFFFFFFFFFFFFFFFFFFFFFFFFFFFFF AND SUB PUSH3 0x124 JUMPI PUSH1 0x0 PUSH1 0x40 MLOAD PUSH32 0x1E4FBDF700000000000000000000000000000000000000000000000000000000 DUP2 MSTORE PUSH1 0x4 ADD PUSH3 0x11B SWAP2 SWAP1 PUSH3 0x5DF JUMP JUMPDEST PUSH1 0x40 MLOAD DUP1 SWAP2 SUB SWAP1 REVERT JUMPDEST PUSH3 0x135 DUP2 PUSH3 0x173 PUSH1 0x20 SHL PUSH1 0x20 SHR JUMP JUMPDEST POP PUSH3 0x5FC JUMP JUMPDEST PUSH1 0x0 SWAP1 JUMP JUMPDEST PUSH1 0x0 PUSH32 0xFFFFFFFFFFFFFFFFFFFFFFFFFFFFFFFFFFFFFFFFFFFFFFFFFFFFFFFFFFFFFFFF SWAP1 POP SWAP1 JUMP JUMPDEST DUP1 PUSH1 0x0 MSTORE PUSH1 0x4 PUSH1 0x0 REVERT JUMPDEST PUSH1 0x0 PUSH1 0x9 PUSH1 0x0 SWAP1 SLOAD SWAP1 PUSH2 0x100 EXP SWAP1 DIV PUSH20 0xFFFFFFFFFFFFFFFFFFFFFFFFFFFFFFFFFFFFFFFF AND SWAP1 POP DUP2 PUSH1 0x9 PUSH1 0x0 PUSH2 0x100 EXP DUP2 SLOAD DUP2 PUSH20 0xFFFFFFFFFFFFFFFFFFFFFFFFFFFFFFFFFFFFFFFF MUL NOT AND SWAP1 DUP4 PUSH20 0xFFFFFFFFFFFFFFFFFFFFFFFFFFFFFFFFFFFFFFFF AND MUL OR SWAP1 SSTORE POP DUP2 PUSH20 0xFFFFFFFFFFFFFFFFFFFFFFFFFFFFFFFFFFFFFFFF AND DUP2 PUSH20 0xFFFFFFFFFFFFFFFFFFFFFFFFFFFFFFFFFFFFFFFF AND PUSH32 0x8BE0079C531659141344CD1FD0A4F28419497F9722A3DAAFE3B4186F6B6457E0 PUSH1 0x40 MLOAD PUSH1 0x40 MLOAD DUP1 SWAP2 SUB SWAP1 LOG3 POP POP JUMP JUMPDEST PUSH1 0x0 DUP2 MLOAD SWAP1 POP SWAP2 SWAP1 POP JUMP JUMPDEST PUSH32 0x4E487B7100000000000000000000000000000000000000000000000000000000 PUSH1 0x0 MSTORE PUSH1 0x41 PUSH1 0x4 MSTORE PUSH1 0x24 PUSH1 0x0 REVERT JUMPDEST PUSH32 0x4E487B7100000000000000000000000000000000000000000000000000000000 PUSH1 0x0 MSTORE PUSH1 0x22 PUSH1 0x4 MSTORE PUSH1 0x24 PUSH1 0x0 REVERT JUMPDEST PUSH1 0x0 PUSH1 0x2 DUP3 DIV SWAP1 POP PUSH1 0x1 DUP3 AND DUP1 PUSH3 0x2BB JUMPI PUSH1 0x7F DUP3 AND SWAP2 POP JUMPDEST PUSH1 0x20 DUP3 LT DUP2 SUB PUSH3 0x2D1 JUMPI PUSH3 0x2D0 PUSH3 0x273 JUMP JUMPDEST JUMPDEST POP SWAP2 SWAP1 POP JUMP JUMPDEST PUSH1 0x0 DUP2 SWAP1 POP DUP2 PUSH1 0x0 MSTORE PUSH1 0x20 PUSH1 0x0 KECCAK256 SWAP1 POP SWAP2 SWAP1 POP JUMP JUMPDEST PUSH1 0x0 PUSH1 0x20 PUSH1 0x1F DUP4 ADD DIV SWAP1 POP SWAP2 SWAP1 POP JUMP JUMPDEST PUSH1 0x0 DUP3 DUP3 SHL SWAP1 POP SWAP3 SWAP2 POP POP JUMP JUMPDEST PUSH1 0x0 PUSH1 0x8 DUP4 MUL PUSH3 0x33B PUSH32 0xFFFFFFFFFFFFFFFFFFFFFFFFFFFFFFFFFFFFFFFFFFFFFFFFFFFFFFFFFFFFFFFF DUP3 PUSH3 0x2FC JUMP JUMPDEST PUSH3 0x347 DUP7 DUP4 PUSH3 0x2FC JUMP JUMPDEST SWAP6 POP DUP1 NOT DUP5 AND SWAP4 POP DUP1 DUP7 AND DUP5 OR SWAP3 POP POP POP SWAP4 SWAP3 POP POP POP JUMP JUMPDEST PUSH1 0x0 DUP2 SWAP1 POP SWAP2 SWAP1 POP JUMP JUMPDEST PUSH1 0x0 DUP2 SWAP1 POP SWAP2 SWAP1 POP JUMP JUMPDEST PUSH1 0x0 PUSH3 0x394 PUSH3 0x38E PUSH3 0x388 DUP5 PUSH3 0x35F JUMP JUMPDEST PUSH3 0x369 JUMP JUMPDEST PUSH3 0x35F JUMP JUMPDEST SWAP1 POP SWAP2 SWAP1 POP JUMP JUMPDEST PUSH1 0x0 DUP2 SWAP1 POP SWAP2 SWAP1 POP JUMP JUMPDEST PUSH3 0x3B0 DUP4 PUSH3 0x373 JUMP JUMPDEST PUSH3 0x3C8 PUSH3 0x3BF DUP3 PUSH3 0x39B JUMP JUMPDEST DUP5 DUP5 SLOAD PUSH3 0x309 JUMP JUMPDEST DUP3 SSTORE POP POP POP POP JUMP JUMPDEST PUSH1 0x0 SWAP1 JUMP JUMPDEST PUSH3 0x3DF PUSH3 0x3D0 JUMP JUMPDEST PUSH3 0x3EC DUP2 DUP5 DUP5 PUSH3 0x3A5 JUMP JUMPDEST POP POP POP JUMP JUMPDEST JUMPDEST DUP2 DUP2 LT ISZERO PUSH3 0x414 JUMPI PUSH3 0x408 PUSH1 0x0 DUP3 PUSH3 0x3D5 JUMP JUMPDEST PUSH1 0x1 DUP2 ADD SWAP1 POP PUSH3 0x3F2 JUMP JUMPDEST POP POP JUMP JUMPDEST PUSH1 0x1F DUP3 GT ISZERO PUSH3 0x463 JUMPI PUSH3 0x42D DUP2 PUSH3 0x2D7 JUMP JUMPDEST PUSH3 0x438 DUP5 PUSH3 0x2EC JUMP JUMPDEST DUP2 ADD PUSH1 0x20 DUP6 LT ISZERO PUSH3 0x448 JUMPI DUP2 SWAP1 POP JUMPDEST PUSH3 0x460 PUSH3 0x457 DUP6 PUSH3 0x2EC JUMP JUMPDEST DUP4 ADD DUP3 PUSH3 0x3F1 JUMP JUMPDEST POP POP JUMPDEST POP POP POP JUMP JUMPDEST PUSH1 0x0 DUP3 DUP3 SHR SWAP1 POP SWAP3 SWAP2 POP POP JUMP JUMPDEST PUSH1 0x0 PUSH3 0x488 PUSH1 0x0 NOT DUP5 PUSH1 0x8 MUL PUSH3 0x468 JUMP JUMPDEST NOT DUP1 DUP4 AND SWAP2 POP POP SWAP3 SWAP2 POP POP JUMP JUMPDEST PUSH1 0x0 PUSH3 0x4A3 DUP4 DUP4 PUSH3 0x475 JUMP JUMPDEST SWAP2 POP DUP3 PUSH1 0x2 MUL DUP3 OR SWAP1 POP SWAP3 SWAP2 POP POP JUMP JUMPDEST PUSH3 0x4BE DUP3 PUSH3 0x239 JUMP JUMPDEST PUSH8 0xFFFFFFFFFFFFFFFF DUP2 GT ISZERO PUSH3 0x4DA JUMPI PUSH3 0x4D9 PUSH3 0x244 JUMP JUMPDEST JUMPDEST PUSH3 0x4E6 DUP3 SLOAD PUSH3 0x2A2 JUMP JUMPDEST PUSH3 0x4F3 DUP3 DUP3 DUP6 PUSH3 0x418 JUMP JUMPDEST PUSH1 0x0 PUSH1 0x20 SWAP1 POP PUSH1 0x1F DUP4 GT PUSH1 0x1 DUP2 EQ PUSH3 0x52B JUMPI PUSH1 0x0 DUP5 ISZERO PUSH3 0x516 JUMPI DUP3 DUP8 ADD MLOAD SWAP1 POP JUMPDEST PUSH3 0x522 DUP6 DUP3 PUSH3 0x495 JUMP JUMPDEST DUP7 SSTORE POP PUSH3 0x592 JUMP JUMPDEST PUSH1 0x1F NOT DUP5 AND PUSH3 0x53B DUP7 PUSH3 0x2D7 JUMP JUMPDEST PUSH1 0x0 JUMPDEST DUP3 DUP2 LT ISZERO PUSH3 0x565 JUMPI DUP5 DUP10 ADD MLOAD DUP3 SSTORE PUSH1 0x1 DUP3 ADD SWAP2 POP PUSH1 0x20 DUP6 ADD SWAP5 POP PUSH1 0x20 DUP2 ADD SWAP1 POP PUSH3 0x53E JUMP JUMPDEST DUP7 DUP4 LT ISZERO PUSH3 0x585 JUMPI DUP5 DUP10 ADD MLOAD PUSH3 0x581 PUSH1 0x1F DUP10 AND DUP3 PUSH3 0x475 JUMP JUMPDEST DUP4 SSTORE POP JUMPDEST PUSH1 0x1 PUSH1 0x2 DUP9 MUL ADD DUP9 SSTORE POP POP POP JUMPDEST POP POP POP POP POP POP JUMP JUMPDEST PUSH1 0x0 PUSH20 0xFFFFFFFFFFFFFFFFFFFFFFFFFFFFFFFFFFFFFFFF DUP3 AND SWAP1 POP SWAP2 SWAP1 POP JUMP JUMPDEST PUSH1 0x0 PUSH3 0x5C7 DUP3 PUSH3 0x59A JUMP JUMPDEST SWAP1 POP SWAP2 SWAP1 POP JUMP JUMPDEST PUSH3 0x5D9 DUP2 PUSH3 0x5BA JUMP JUMPDEST DUP3 MSTORE POP POP JUMP JUMPDEST PUSH1 0x0 PUSH1 0x20 DUP3 ADD SWAP1 POP PUSH3 0x5F6 PUSH1 0x0 DUP4 ADD DUP5 PUSH3 0x5CE JUMP JUMPDEST SWAP3 SWAP2 POP POP JUMP JUMPDEST PUSH2 0x371B DUP1 PUSH3 0x60C PUSH1 0x0 CODECOPY PUSH1 0x0 RETURN INVALID PUSH1 0x80 PUSH1 0x40 MSTORE PUSH1 0x4 CALLDATASIZE LT PUSH2 0x1E3 JUMPI PUSH1 0x0 CALLDATALOAD PUSH1 0xE0 SHR DUP1 PUSH4 0x729AD39E GT PUSH2 0x102 JUMPI DUP1 PUSH4 0xB88D4FDE GT PUSH2 0x95 JUMPI DUP1 PUSH4 0xE985E9C5 GT PUSH2 0x64 JUMPI DUP1 PUSH4 0xE985E9C5 EQ PUSH2 0x65A JUMPI DUP1 PUSH4 0xEA2B4AB2 EQ PUSH2 0x697 JUMPI DUP1 PUSH4 0xF2FDE38B EQ PUSH2 0x6C2 JUMPI DUP1 PUSH4 0xF4A0A528 EQ PUSH2 0x6EB JUMPI PUSH2 0x1E3 JUMP JUMPDEST DUP1 PUSH4 0xB88D4FDE EQ PUSH2 0x5AB JUMPI DUP1 PUSH4 0xC87B56DD EQ PUSH2 0x5C7 JUMPI DUP1 PUSH4 0xD5ABEB01 EQ PUSH2 0x604 JUMPI DUP1 PUSH4 0xDBE55E56 EQ PUSH2 0x62F JUMPI PUSH2 0x1E3 JUMP JUMPDEST DUP1 PUSH4 0xA22CB465 GT PUSH2 0xD1 JUMPI DUP1 PUSH4 0xA22CB465 EQ PUSH2 0x510 JUMPI DUP1 PUSH4 0xA2309FF8 EQ PUSH2 0x539 JUMPI DUP1 PUSH4 0xA5097EBF EQ PUSH2 0x564 JUMPI DUP1 PUSH4 0xABBB5A55 EQ PUSH2 0x58F JUMPI PUSH2 0x1E3 JUMP JUMPDEST DUP1 PUSH4 0x729AD39E EQ PUSH2 0x468 JUMPI DUP1 PUSH4 0x8DA5CB5B EQ PUSH2 0x491 JUMPI DUP1 PUSH4 0x95053EFA EQ PUSH2 0x4BC JUMPI DUP1 PUSH4 0x95D89B41 EQ PUSH2 0x4E5 JUMPI PUSH2 0x1E3 JUMP JUMPDEST DUP1 PUSH4 0x3CCFD60B GT PUSH2 0x17A JUMPI DUP1 PUSH4 0x6352211E GT PUSH2 0x149 JUMPI DUP1 PUSH4 0x6352211E EQ PUSH2 0x3AC JUMPI DUP1 PUSH4 0x6817C76C EQ PUSH2 0x3E9 JUMPI DUP1 PUSH4 0x70A08231 EQ PUSH2 0x414 JUMPI DUP1 PUSH4 0x715018A6 EQ PUSH2 0x451 JUMPI PUSH2 0x1E3 JUMP JUMPDEST DUP1 PUSH4 0x3CCFD60B EQ PUSH2 0x325 JUMPI DUP1 PUSH4 0x42842E0E EQ PUSH2 0x33C JUMPI DUP1 PUSH4 0x453C2310 EQ PUSH2 0x358 JUMPI DUP1 PUSH4 0x55F804B3 EQ PUSH2 0x383 JUMPI PUSH2 0x1E3 JUMP JUMPDEST DUP1 PUSH4 0x1249C58B GT PUSH2 0x1B6 JUMPI DUP1 PUSH4 0x1249C58B EQ PUSH2 0x2A9 JUMPI DUP1 PUSH4 0x18160DDD EQ PUSH2 0x2B3 JUMPI DUP1 PUSH4 0x23B872DD EQ PUSH2 0x2DE JUMPI DUP1 PUSH4 0x255E4685 EQ PUSH2 0x2FA JUMPI PUSH2 0x1E3 JUMP JUMPDEST DUP1 PUSH4 0x1FFC9A7 EQ PUSH2 0x1E8 JUMPI DUP1 PUSH4 0x6FDDE03 EQ PUSH2 0x225 JUMPI DUP1 PUSH4 0x81812FC EQ PUSH2 0x250 JUMPI DUP1 PUSH4 0x95EA7B3 EQ PUSH2 0x28D JUMPI JUMPDEST PUSH1 0x0 DUP1 REVERT JUMPDEST CALLVALUE DUP1 ISZERO PUSH2 0x1F4 JUMPI PUSH1 0x0 DUP1 REVERT JUMPDEST POP PUSH2 0x20F PUSH1 0x4 DUP1 CALLDATASIZE SUB DUP2 ADD SWAP1 PUSH2 0x20A SWAP2 SWAP1 PUSH2 0x23B1 JUMP JUMPDEST PUSH2 0x714 JUMP JUMPDEST PUSH1 0x40 MLOAD PUSH2 0x21C SWAP2 SWAP1 PUSH2 0x23F9 JUMP JUMPDEST PUSH1 0x40 MLOAD DUP1 SWAP2 SUB SWAP1 RETURN JUMPDEST CALLVALUE DUP1 ISZERO PUSH2 0x231 JUMPI PUSH1 0x0 DUP1 REVERT JUMPDEST POP PUSH2 0x23A PUSH2 0x7A6 JUMP JUMPDEST PUSH1 0x40 MLOAD PUSH2 0x247 SWAP2 SWAP1 PUSH2 0x24A4 JUMP JUMPDEST PUSH1 0x40 MLOAD DUP1 SWAP2 SUB SWAP1 RETURN JUMPDEST CALLVALUE DUP1 ISZERO PUSH2 0x25C JUMPI PUSH1 0x0 DUP1 REVERT JUMPDEST POP PUSH2 0x277 PUSH1 0x4 DUP1 CALLDATASIZE SUB DUP2 ADD SWAP1 PUSH2 0x272 SWAP2 SWAP1 PUSH2 0x24FC JUMP JUMPDEST PUSH2 0x838 JUMP JUMPDEST PUSH1 0x40 MLOAD PUSH2 0x284 SWAP2 SWAP1 PUSH2 0x256A JUMP JUMPDEST PUSH1 0x40 MLOAD DUP1 SWAP2 SUB SWAP1 RETURN JUMPDEST PUSH2 0x2A7 PUSH1 0x4 DUP1 CALLDATASIZE SUB DUP2 ADD SWAP1 PUSH2 0x2A2 SWAP2 SWAP1 PUSH2 0x25B1 JUMP JUMPDEST PUSH2 0x896 JUMP JUMPDEST STOP JUMPDEST PUSH2 0x2B1 PUSH2 0x8A6 JUMP JUMPDEST STOP JUMPDEST CALLVALUE DUP1 ISZERO PUSH2 0x2BF JUMPI PUSH1 0x0 DUP1 REVERT JUMPDEST POP PUSH2 0x2C8 PUSH2 0x8B2 JUMP JUMPDEST PUSH1 0x40 MLOAD PUSH2 0x2D5 SWAP2 SWAP1 PUSH2 0x2600 JUMP JUMPDEST PUSH1 0x40 MLOAD DUP1 SWAP2 SUB SWAP1 RETURN JUMPDEST PUSH2 0x2F8 PUSH1 0x4 DUP1 CALLDATASIZE SUB DUP2 ADD SWAP1 PUSH2 0x2F3 SWAP2 SWAP1 PUSH2 0x261B JUMP JUMPDEST PUSH2 0x8FF JUMP JUMPDEST STOP JUMPDEST CALLVALUE DUP1 ISZERO PUSH2 0x306 JUMPI PUSH1 0x0 DUP1 REVERT JUMPDEST POP PUSH2 0x30F PUSH2 0xBC0 JUMP JUMPDEST PUSH1 0x40 MLOAD PUSH2 0x31C SWAP2 SWAP1 PUSH2 0x2691 JUMP JUMPDEST PUSH1 0x40 MLOAD DUP1 SWAP2 SUB SWAP1 RETURN JUMPDEST CALLVALUE DUP1 ISZERO PUSH2 0x331 JUMPI PUSH1 0x0 DUP1 REVERT JUMPDEST POP PUSH2 0x33A PUSH2 0xBDA JUMP JUMPDEST STOP JUMPDEST PUSH2 0x356 PUSH1 0x4 DUP1 CALLDATASIZE SUB DUP2 ADD SWAP1 PUSH2 0x351 SWAP2 SWAP1 PUSH2 0x261B JUMP JUMPDEST PUSH2 0xDE0 JUMP JUMPDEST STOP JUMPDEST CALLVALUE DUP1 ISZERO PUSH2 0x364 JUMPI PUSH1 0x0 DUP1 REVERT JUMPDEST POP PUSH2 0x36D PUSH2 0xE00 JUMP JUMPDEST PUSH1 0x40 MLOAD PUSH2 0x37A SWAP2 SWAP1 PUSH2 0x26D3 JUMP JUMPDEST PUSH1 0x40 MLOAD DUP1 SWAP2 SUB SWAP1 RETURN JUMPDEST CALLVALUE DUP1 ISZERO PUSH2 0x38F JUMPI PUSH1 0x0 DUP1 REVERT JUMPDEST POP PUSH2 0x3AA PUSH1 0x4 DUP1 CALLDATASIZE SUB DUP2 ADD SWAP1 PUSH2 0x3A5 SWAP2 SWAP1 PUSH2 0x2823 JUMP JUMPDEST PUSH2 0xE1E JUMP JUMPDEST STOP JUMPDEST CALLVALUE DUP1 ISZERO PUSH2 0x3B8 JUMPI PUSH1 0x0 DUP1 REVERT JUMPDEST POP PUSH2 0x3D3 PUSH1 0x4 DUP1 CALLDATASIZE SUB DUP2 ADD SWAP1 PUSH2 0x3CE SWAP2 SWAP1 PUSH2 0x24FC JUMP JUMPDEST PUSH2 0xE39 JUMP JUMPDEST PUSH1 0x40 MLOAD PUSH2 0x3E0 SWAP2 SWAP1 PUSH2 0x256A JUMP JUMPDEST PUSH1 0x40 MLOAD DUP1 SWAP2 SUB SWAP1 RETURN JUMPDEST CALLVALUE DUP1 ISZERO PUSH2 0x3F5 JUMPI PUSH1 0x0 DUP1 REVERT JUMPDEST POP PUSH2 0x3FE PUSH2 0xE4B JUMP JUMPDEST PUSH1 0x40 MLOAD PUSH2 0x40B SWAP2 SWAP1 PUSH2 0x26D3 JUMP JUMPDEST PUSH1 0x40 MLOAD DUP1 SWAP2 SUB SWAP1 RETURN JUMPDEST CALLVALUE DUP1 ISZERO PUSH2 0x420 JUMPI PUSH1 0x0 DUP1 REVERT JUMPDEST POP PUSH2 0x43B PUSH1 0x4 DUP1 CALLDATASIZE SUB DUP2 ADD SWAP1 PUSH2 0x436 SWAP2 SWAP1 PUSH2 0x286C JUMP JUMPDEST PUSH2 0xE69 JUMP JUMPDEST PUSH1 0x40 MLOAD PUSH2 0x448 SWAP2 SWAP1 PUSH2 0x2600 JUMP JUMPDEST PUSH1 0x40 MLOAD DUP1 SWAP2 SUB SWAP1 RETURN JUMPDEST CALLVALUE DUP1 ISZERO PUSH2 0x45D JUMPI PUSH1 0x0 DUP1 REVERT JUMPDEST POP PUSH2 0x466 PUSH2 0xF00 JUMP JUMPDEST STOP JUMPDEST CALLVALUE DUP1 ISZERO PUSH2 0x474 JUMPI PUSH1 0x0 DUP1 REVERT JUMPDEST POP PUSH2 0x48F PUSH1 0x4 DUP1 CALLDATASIZE SUB DUP2 ADD SWAP1 PUSH2 0x48A SWAP2 SWAP1 PUSH2 0x28F9 JUMP JUMPDEST PUSH2 0xF14 JUMP JUMPDEST STOP JUMPDEST CALLVALUE DUP1 ISZERO PUSH2 0x49D JUMPI PUSH1 0x0 DUP1 REVERT JUMPDEST POP PUSH2 0x4A6 PUSH2 0xFEF JUMP JUMPDEST PUSH1 0x40 MLOAD PUSH2 0x4B3 SWAP2 SWAP1 PUSH2 0x256A JUMP JUMPDEST PUSH1 0x40 MLOAD DUP1 SWAP2 SUB SWAP1 RETURN JUMPDEST CALLVALUE DUP1 ISZERO PUSH2 0x4C8 JUMPI PUSH1 0x0 DUP1 REVERT JUMPDEST POP PUSH2 0x4E3 PUSH1 0x4 DUP1 CALLDATASIZE SUB DUP2 ADD SWAP1 PUSH2 0x4DE SWAP2 SWAP1 PUSH2 0x2946 JUMP JUMPDEST PUSH2 0x1019 JUMP JUMPDEST STOP JUMPDEST CALLVALUE DUP1 ISZERO PUSH2 0x4F1 JUMPI PUSH1 0x0 DUP1 REVERT JUMPDEST POP PUSH2 0x4FA PUSH2 0x11EF JUMP JUMPDEST PUSH1 0x40 MLOAD PUSH2 0x507 SWAP2 SWAP1 PUSH2 0x24A4 JUMP JUMPDEST PUSH1 0x40 MLOAD DUP1 SWAP2 SUB SWAP1 RETURN JUMPDEST CALLVALUE DUP1 ISZERO PUSH2 0x51C JUMPI PUSH1 0x0 DUP1 REVERT JUMPDEST POP PUSH2 0x537 PUSH1 0x4 DUP1 CALLDATASIZE SUB DUP2 ADD SWAP1 PUSH2 0x532 SWAP2 SWAP1 PUSH2 0x2AA5 JUMP JUMPDEST PUSH2 0x1281 JUMP JUMPDEST STOP JUMPDEST CALLVALUE DUP1 ISZERO PUSH2 0x545 JUMPI PUSH1 0x0 DUP1 REVERT JUMPDEST POP PUSH2 0x54E PUSH2 0x138C JUMP JUMPDEST PUSH1 0x40 MLOAD PUSH2 0x55B SWAP2 SWAP1 PUSH2 0x2600 JUMP JUMPDEST PUSH1 0x40 MLOAD DUP1 SWAP2 SUB SWAP1 RETURN JUMPDEST CALLVALUE DUP1 ISZERO PUSH2 0x570 JUMPI PUSH1 0x0 DUP1 REVERT JUMPDEST POP PUSH2 0x579 PUSH2 0x139B JUMP JUMPDEST PUSH1 0x40 MLOAD PUSH2 0x586 SWAP2 SWAP1 PUSH2 0x24A4 JUMP JUMPDEST PUSH1 0x40 MLOAD DUP1 SWAP2 SUB SWAP1 RETURN JUMPDEST PUSH2 0x5A9 PUSH1 0x4 DUP1 CALLDATASIZE SUB DUP2 ADD SWAP1 PUSH2 0x5A4 SWAP2 SWAP1 PUSH2 0x24FC JUMP JUMPDEST PUSH2 0x142D JUMP JUMPDEST STOP JUMPDEST PUSH2 0x5C5 PUSH1 0x4 DUP1 CALLDATASIZE SUB DUP2 ADD SWAP1 PUSH2 0x5C0 SWAP2 SWAP1 PUSH2 0x2B86 JUMP JUMPDEST PUSH2 0x16DF JUMP JUMPDEST STOP JUMPDEST CALLVALUE DUP1 ISZERO PUSH2 0x5D3 JUMPI PUSH1 0x0 DUP1 REVERT JUMPDEST POP PUSH2 0x5EE PUSH1 0x4 DUP1 CALLDATASIZE SUB DUP2 ADD SWAP1 PUSH2 0x5E9 SWAP2 SWAP1 PUSH2 0x24FC JUMP JUMPDEST PUSH2 0x1731 JUMP JUMPDEST PUSH1 0x40 MLOAD PUSH2 0x5FB SWAP2 SWAP1 PUSH2 0x24A4 JUMP JUMPDEST PUSH1 0x40 MLOAD DUP1 SWAP2 SUB SWAP1 RETURN JUMPDEST CALLVALUE DUP1 ISZERO PUSH2 0x610 JUMPI PUSH1 0x0 DUP1 REVERT JUMPDEST POP PUSH2 0x619 PUSH2 0x17AE JUMP JUMPDEST PUSH1 0x40 MLOAD PUSH2 0x626 SWAP2 SWAP1 PUSH2 0x26D3 JUMP JUMPDEST PUSH1 0x40 MLOAD DUP1 SWAP2 SUB SWAP1 RETURN JUMPDEST CALLVALUE DUP1 ISZERO PUSH2 0x63B JUMPI PUSH1 0x0 DUP1 REVERT JUMPDEST POP PUSH2 0x644 PUSH2 0x17CC JUMP JUMPDEST PUSH1 0x40 MLOAD PUSH2 0x651 SWAP2 SWAP1 PUSH2 0x256A JUMP JUMPDEST PUSH1 0x40 MLOAD DUP1 SWAP2 SUB SWAP1 RETURN JUMPDEST CALLVALUE DUP1 ISZERO PUSH2 0x666 JUMPI PUSH1 0x0 DUP1 REVERT JUMPDEST POP PUSH2 0x681 PUSH1 0x4 DUP1 CALLDATASIZE SUB DUP2 ADD SWAP1 PUSH2 0x67C SWAP2 SWAP1 PUSH2 0x2C09 JUMP JUMPDEST PUSH2 0x17F2 JUMP JUMPDEST PUSH1 0x40 MLOAD PUSH2 0x68E SWAP2 SWAP1 PUSH2 0x23F9 JUMP JUMPDEST PUSH1 0x40 MLOAD DUP1 SWAP2 SUB SWAP1 RETURN JUMPDEST CALLVALUE DUP1 ISZERO PUSH2 0x6A3 JUMPI PUSH1 0x0 DUP1 REVERT JUMPDEST POP PUSH2 0x6AC PUSH2 0x1886 JUMP JUMPDEST PUSH1 0x40 MLOAD PUSH2 0x6B9 SWAP2 SWAP1 PUSH2 0x2691 JUMP JUMPDEST PUSH1 0x40 MLOAD DUP1 SWAP2 SUB SWAP1 RETURN JUMPDEST CALLVALUE DUP1 ISZERO PUSH2 0x6CE JUMPI PUSH1 0x0 DUP1 REVERT JUMPDEST POP PUSH2 0x6E9 PUSH1 0x4 DUP1 CALLDATASIZE SUB DUP2 ADD SWAP1 PUSH2 0x6E4 SWAP2 SWAP1 PUSH2 0x286C JUMP JUMPDEST PUSH2 0x18A0 JUMP JUMPDEST STOP JUMPDEST CALLVALUE DUP1 ISZERO PUSH2 0x6F7 JUMPI PUSH1 0x0 DUP1 REVERT JUMPDEST POP PUSH2 0x712 PUSH1 0x4 DUP1 CALLDATASIZE SUB DUP2 ADD SWAP1 PUSH2 0x70D SWAP2 SWAP1 PUSH2 0x24FC JUMP JUMPDEST PUSH2 0x1926 JUMP JUMPDEST STOP JUMPDEST PUSH1 0x0 PUSH4 0x1FFC9A7 PUSH1 0xE0 SHL DUP3 PUSH28 0xFFFFFFFFFFFFFFFFFFFFFFFFFFFFFFFFFFFFFFFFFFFFFFFFFFFFFFFF NOT AND EQ DUP1 PUSH2 0x76F JUMPI POP PUSH4 0x80AC58CD PUSH1 0xE0 SHL DUP3 PUSH28 0xFFFFFFFFFFFFFFFFFFFFFFFFFFFFFFFFFFFFFFFFFFFFFFFFFFFFFFFF NOT AND EQ JUMPDEST DUP1 PUSH2 0x79F JUMPI POP PUSH4 0x5B5E139F PUSH1 0xE0 SHL DUP3 PUSH28 0xFFFFFFFFFFFFFFFFFFFFFFFFFFFFFFFFFFFFFFFFFFFFFFFFFFFFFFFF NOT AND EQ JUMPDEST SWAP1 POP SWAP2 SWAP1 POP JUMP JUMPDEST PUSH1 0x60 PUSH1 0xC DUP1 SLOAD PUSH2 0x7B5 SWAP1 PUSH2 0x2C78 JUMP JUMPDEST DUP1 PUSH1 0x1F ADD PUSH1 0x20 DUP1 SWAP2 DIV MUL PUSH1 0x20 ADD PUSH1 0x40 MLOAD SWAP1 DUP2 ADD PUSH1 0x40 MSTORE DUP1 SWAP3 SWAP2 SWAP1 DUP2 DUP2 MSTORE PUSH1 0x20 ADD DUP3 DUP1 SLOAD PUSH2 0x7E1 SWAP1 PUSH2 0x2C78 JUMP JUMPDEST DUP1 ISZERO PUSH2 0x82E JUMPI DUP1 PUSH1 0x1F LT PUSH2 0x803 JUMPI PUSH2 0x100 DUP1 DUP4 SLOAD DIV MUL DUP4 MSTORE SWAP2 PUSH1 0x20 ADD SWAP2 PUSH2 0x82E JUMP JUMPDEST DUP3 ADD SWAP2 SWAP1 PUSH1 0x0 MSTORE PUSH1 0x20 PUSH1 0x0 KECCAK256 SWAP1 JUMPDEST DUP2 SLOAD DUP2 MSTORE SWAP1 PUSH1 0x1 ADD SWAP1 PUSH1 0x20 ADD DUP1 DUP4 GT PUSH2 0x811 JUMPI DUP3 SWAP1 SUB PUSH1 0x1F AND DUP3 ADD SWAP2 JUMPDEST POP POP POP POP POP SWAP1 POP SWAP1 JUMP JUMPDEST PUSH1 0x0 PUSH2 0x843 DUP3 PUSH2 0x1962 JUMP JUMPDEST PUSH2 0x858 JUMPI PUSH2 0x857 PUSH4 0xCF4700E4 PUSH1 0xE0 SHL PUSH2 0x1A0E JUMP JUMPDEST JUMPDEST PUSH1 0x6 PUSH1 0x0 DUP4 DUP2 MSTORE PUSH1 0x20 ADD SWAP1 DUP2 MSTORE PUSH1 0x20 ADD PUSH1 0x0 KECCAK256 PUSH1 0x0 ADD PUSH1 0x0 SWAP1 SLOAD SWAP1 PUSH2 0x100 EXP SWAP1 DIV PUSH20 0xFFFFFFFFFFFFFFFFFFFFFFFFFFFFFFFFFFFFFFFF AND SWAP1 POP SWAP2 SWAP1 POP JUMP JUMPDEST PUSH2 0x8A2 DUP3 DUP3 PUSH1 0x1 PUSH2 0x1A18 JUMP JUMPDEST POP POP JUMP JUMPDEST PUSH2 0x8B0 PUSH1 0x1 PUSH2 0x142D JUMP JUMPDEST JUMP JUMPDEST PUSH1 0x0 PUSH2 0x8BC PUSH2 0x1B47 JUMP JUMPDEST PUSH1 0x1 SLOAD PUSH1 0x0 SLOAD SUB SUB SWAP1 POP PUSH32 0xFFFFFFFFFFFFFFFFFFFFFFFFFFFFFFFFFFFFFFFFFFFFFFFFFFFFFFFFFFFFFFFF PUSH2 0x8EF PUSH2 0x1B4C JUMP JUMPDEST EQ PUSH2 0x8FC JUMPI PUSH1 0x8 SLOAD DUP2 ADD SWAP1 POP JUMPDEST SWAP1 JUMP JUMPDEST PUSH1 0x0 PUSH2 0x90A DUP3 PUSH2 0x1B74 JUMP JUMPDEST SWAP1 POP PUSH20 0xFFFFFFFFFFFFFFFFFFFFFFFFFFFFFFFFFFFFFFFF DUP5 PUSH20 0xFFFFFFFFFFFFFFFFFFFFFFFFFFFFFFFFFFFFFFFF AND AND SWAP4 POP DUP4 PUSH20 0xFFFFFFFFFFFFFFFFFFFFFFFFFFFFFFFFFFFFFFFF AND DUP2 PUSH20 0xFFFFFFFFFFFFFFFFFFFFFFFFFFFFFFFFFFFFFFFF AND EQ PUSH2 0x97F JUMPI PUSH2 0x97E PUSH4 0xA1148100 PUSH1 0xE0 SHL PUSH2 0x1A0E JUMP JUMPDEST JUMPDEST PUSH1 0x0 DUP1 PUSH2 0x98B DUP5 PUSH2 0x1C8D JUMP JUMPDEST SWAP2 POP SWAP2 POP PUSH2 0x9A1 DUP2 DUP8 PUSH2 0x99C PUSH2 0x1CB4 JUMP JUMPDEST PUSH2 0x1CBC JUMP JUMPDEST PUSH2 0x9CC JUMPI PUSH2 0x9B6 DUP7 PUSH2 0x9B1 PUSH2 0x1CB4 JUMP JUMPDEST PUSH2 0x17F2 JUMP JUMPDEST PUSH2 0x9CB JUMPI PUSH2 0x9CA PUSH4 0x59C896BE PUSH1 0xE0 SHL PUSH2 0x1A0E JUMP JUMPDEST JUMPDEST JUMPDEST PUSH2 0x9D9 DUP7 DUP7 DUP7 PUSH1 0x1 PUSH2 0x1D00 JUMP JUMPDEST DUP1 ISZERO PUSH2 0x9E4 JUMPI PUSH1 0x0 DUP3 SSTORE JUMPDEST PUSH1 0x5 PUSH1 0x0 DUP8 PUSH20 0xFFFFFFFFFFFFFFFFFFFFFFFFFFFFFFFFFFFFFFFF AND PUSH20 0xFFFFFFFFFFFFFFFFFFFFFFFFFFFFFFFFFFFFFFFF AND DUP2 MSTORE PUSH1 0x20 ADD SWAP1 DUP2 MSTORE PUSH1 0x20 ADD PUSH1 0x0 KECCAK256 PUSH1 0x0 DUP2 SLOAD PUSH1 0x1 SWAP1 SUB SWAP2 SWAP1 POP DUP2 SWAP1 SSTORE POP PUSH1 0x5 PUSH1 0x0 DUP7 PUSH20 0xFFFFFFFFFFFFFFFFFFFFFFFFFFFFFFFFFFFFFFFF AND PUSH20 0xFFFFFFFFFFFFFFFFFFFFFFFFFFFFFFFFFFFFFFFF AND DUP2 MSTORE PUSH1 0x20 ADD SWAP1 DUP2 MSTORE PUSH1 0x20 ADD PUSH1 0x0 KECCAK256 PUSH1 0x0 DUP2 SLOAD PUSH1 0x1 ADD SWAP2 SWAP1 POP DUP2 SWAP1 SSTORE POP PUSH2 0xAB2 DUP6 PUSH2 0xA8E DUP9 DUP9 DUP8 PUSH2 0x1D06 JUMP JUMPDEST PUSH29 0x200000000000000000000000000000000000000000000000000000000 OR PUSH2 0x1D2E JUMP JUMPDEST PUSH1 0x4 PUSH1 0x0 DUP7 DUP2 MSTORE PUSH1 0x20 ADD SWAP1 DUP2 MSTORE PUSH1 0x20 ADD PUSH1 0x0 KECCAK256 DUP2 SWAP1 SSTORE POP PUSH1 0x0 PUSH29 0x200000000000000000000000000000000000000000000000000000000 DUP5 AND SUB PUSH2 0xB38 JUMPI PUSH1 0x0 PUSH1 0x1 DUP6 ADD SWAP1 POP PUSH1 0x0 PUSH1 0x4 PUSH1 0x0 DUP4 DUP2 MSTORE PUSH1 0x20 ADD SWAP1 DUP2 MSTORE PUSH1 0x20 ADD PUSH1 0x0 KECCAK256 SLOAD SUB PUSH2 0xB36 JUMPI PUSH1 0x0 SLOAD DUP2 EQ PUSH2 0xB35 JUMPI DUP4 PUSH1 0x4 PUSH1 0x0 DUP4 DUP2 MSTORE PUSH1 0x20 ADD SWAP1 DUP2 MSTORE PUSH1 0x20 ADD PUSH1 0x0 KECCAK256 DUP2 SWAP1 SSTORE POP JUMPDEST JUMPDEST POP JUMPDEST PUSH1 0x0 PUSH20 0xFFFFFFFFFFFFFFFFFFFFFFFFFFFFFFFFFFFFFFFF DUP7 PUSH20 0xFFFFFFFFFFFFFFFFFFFFFFFFFFFFFFFFFFFFFFFF AND AND SWAP1 POP DUP5 DUP2 DUP9 PUSH32 0xDDF252AD1BE2C89B69C2B068FC378DAA952BA7F163C4A11628F55A4DF523B3EF PUSH1 0x0 DUP1 LOG4 PUSH1 0x0 DUP2 SUB PUSH2 0xBAA JUMPI PUSH2 0xBA9 PUSH4 0xEA553B34 PUSH1 0xE0 SHL PUSH2 0x1A0E JUMP JUMPDEST JUMPDEST PUSH2 0xBB7 DUP8 DUP8 DUP8 PUSH1 0x1 PUSH2 0x1D59 JUMP JUMPDEST POP POP POP POP POP POP POP JUMP JUMPDEST PUSH1 0xB PUSH1 0xC SWAP1 SLOAD SWAP1 PUSH2 0x100 EXP SWAP1 DIV PUSH8 0xFFFFFFFFFFFFFFFF AND DUP2 JUMP JUMPDEST PUSH2 0xBE2 PUSH2 0x1D5F JUMP JUMPDEST PUSH1 0x0 SELFBALANCE SWAP1 POP PUSH1 0x0 DUP2 GT PUSH2 0xC2A JUMPI PUSH1 0x40 MLOAD PUSH32 0x8C379A000000000000000000000000000000000000000000000000000000000 DUP2 MSTORE PUSH1 0x4 ADD PUSH2 0xC21 SWAP1 PUSH2 0x2CF5 JUMP JUMPDEST PUSH1 0x40 MLOAD DUP1 SWAP2 SUB SWAP1 REVERT JUMPDEST PUSH1 0x0 PUSH2 0x2710 PUSH1 0x32 DUP4 PUSH2 0xC3C SWAP2 SWAP1 PUSH2 0x2D44 JUMP JUMPDEST PUSH2 0xC46 SWAP2 SWAP1 PUSH2 0x2DB5 JUMP JUMPDEST SWAP1 POP PUSH1 0x0 DUP2 DUP4 PUSH2 0xC56 SWAP2 SWAP1 PUSH2 0x2DE6 JUMP JUMPDEST SWAP1 POP PUSH1 0x0 PUSH1 0xF PUSH1 0x0 SWAP1 SLOAD SWAP1 PUSH2 0x100 EXP SWAP1 DIV PUSH20 0xFFFFFFFFFFFFFFFFFFFFFFFFFFFFFFFFFFFFFFFF AND PUSH20 0xFFFFFFFFFFFFFFFFFFFFFFFFFFFFFFFFFFFFFFFF AND DUP4 PUSH1 0x40 MLOAD PUSH2 0xCA0 SWAP1 PUSH2 0x2E4B JUMP JUMPDEST PUSH1 0x0 PUSH1 0x40 MLOAD DUP1 DUP4 SUB DUP2 DUP6 DUP8 GAS CALL SWAP3 POP POP POP RETURNDATASIZE DUP1 PUSH1 0x0 DUP2 EQ PUSH2 0xCDD JUMPI PUSH1 0x40 MLOAD SWAP2 POP PUSH1 0x1F NOT PUSH1 0x3F RETURNDATASIZE ADD AND DUP3 ADD PUSH1 0x40 MSTORE RETURNDATASIZE DUP3 MSTORE RETURNDATASIZE PUSH1 0x0 PUSH1 0x20 DUP5 ADD RETURNDATACOPY PUSH2 0xCE2 JUMP JUMPDEST PUSH1 0x60 SWAP2 POP JUMPDEST POP POP SWAP1 POP DUP1 PUSH2 0xD26 JUMPI PUSH1 0x40 MLOAD PUSH32 0x8C379A000000000000000000000000000000000000000000000000000000000 DUP2 MSTORE PUSH1 0x4 ADD PUSH2 0xD1D SWAP1 PUSH2 0x2EAC JUMP JUMPDEST PUSH1 0x40 MLOAD DUP1 SWAP2 SUB SWAP1 REVERT JUMPDEST PUSH1 0x0 PUSH2 0xD30 PUSH2 0xFEF JUMP JUMPDEST PUSH20 0xFFFFFFFFFFFFFFFFFFFFFFFFFFFFFFFFFFFFFFFF AND DUP4 PUSH1 0x40 MLOAD PUSH2 0xD53 SWAP1 PUSH2 0x2E4B JUMP JUMPDEST PUSH1 0x0 PUSH1 0x40 MLOAD DUP1 DUP4 SUB DUP2 DUP6 DUP8 GAS CALL SWAP3 POP POP POP RETURNDATASIZE DUP1 PUSH1 0x0 DUP2 EQ PUSH2 0xD90 JUMPI PUSH1 0x40 MLOAD SWAP2 POP PUSH1 0x1F NOT PUSH1 0x3F RETURNDATASIZE ADD AND DUP3 ADD PUSH1 0x40 MSTORE RETURNDATASIZE DUP3 MSTORE RETURNDATASIZE PUSH1 0x0 PUSH1 0x20 DUP5 ADD RETURNDATACOPY PUSH2 0xD95 JUMP JUMPDEST PUSH1 0x60 SWAP2 POP JUMPDEST POP POP SWAP1 POP DUP1 PUSH2 0xDD9 JUMPI PUSH1 0x40 MLOAD PUSH32 0x8C379A000000000000000000000000000000000000000000000000000000000 DUP2 MSTORE PUSH1 0x4 ADD PUSH2 0xDD0 SWAP1 PUSH2 0x2F18 JUMP JUMPDEST PUSH1 0x40 MLOAD DUP1 SWAP2 SUB SWAP1 REVERT JUMPDEST POP POP POP POP POP JUMP JUMPDEST PUSH2 0xDFB DUP4 DUP4 DUP4 PUSH1 0x40 MLOAD DUP1 PUSH1 0x20 ADD PUSH1 0x40 MSTORE DUP1 PUSH1 0x0 DUP2 MSTORE POP PUSH2 0x16DF JUMP JUMPDEST POP POP POP JUMP JUMPDEST PUSH1 0xB PUSH1 0x0 SWAP1 SLOAD SWAP1 PUSH2 0x100 EXP SWAP1 DIV PUSH12 0xFFFFFFFFFFFFFFFFFFFFFFFF AND DUP2 JUMP JUMPDEST PUSH2 0xE26 PUSH2 0x1D5F JUMP JUMPDEST DUP1 PUSH1 0xE SWAP1 DUP2 PUSH2 0xE35 SWAP2 SWAP1 PUSH2 0x30E4 JUMP JUMPDEST POP POP JUMP JUMPDEST PUSH1 0x0 PUSH2 0xE44 DUP3 PUSH2 0x1B74 JUMP JUMPDEST SWAP1 POP SWAP2 SWAP1 POP JUMP JUMPDEST PUSH1 0xA PUSH1 0xC SWAP1 SLOAD SWAP1 PUSH2 0x100 EXP SWAP1 DIV PUSH12 0xFFFFFFFFFFFFFFFFFFFFFFFF AND DUP2 JUMP JUMPDEST PUSH1 0x0 DUP1 PUSH20 0xFFFFFFFFFFFFFFFFFFFFFFFFFFFFFFFFFFFFFFFF AND DUP3 PUSH20 0xFFFFFFFFFFFFFFFFFFFFFFFFFFFFFFFFFFFFFFFF AND SUB PUSH2 0xEAF JUMPI PUSH2 0xEAE PUSH4 0x8F4EB604 PUSH1 0xE0 SHL PUSH2 0x1A0E JUMP JUMPDEST JUMPDEST PUSH8 0xFFFFFFFFFFFFFFFF PUSH1 0x5 PUSH1 0x0 DUP5 PUSH20 0xFFFFFFFFFFFFFFFFFFFFFFFFFFFFFFFFFFFFFFFF AND PUSH20 0xFFFFFFFFFFFFFFFFFFFFFFFFFFFFFFFFFFFFFFFF AND DUP2 MSTORE PUSH1 0x20 ADD SWAP1 DUP2 MSTORE PUSH1 0x20 ADD PUSH1 0x0 KECCAK256 SLOAD AND SWAP1 POP SWAP2 SWAP1 POP JUMP JUMPDEST PUSH2 0xF08 PUSH2 0x1D5F JUMP JUMPDEST PUSH2 0xF12 PUSH1 0x0 PUSH2 0x1DE6 JUMP JUMPDEST JUMP JUMPDEST PUSH2 0xF1C PUSH2 0x1D5F JUMP JUMPDEST PUSH1 0x0 DUP3 DUP3 SWAP1 POP SWAP1 POP PUSH1 0xA PUSH1 0x0 SWAP1 SLOAD SWAP1 PUSH2 0x100 EXP SWAP1 DIV PUSH12 0xFFFFFFFFFFFFFFFFFFFFFFFF AND PUSH12 0xFFFFFFFFFFFFFFFFFFFFFFFF AND DUP2 PUSH2 0xF56 PUSH2 0x1EAC JUMP JUMPDEST PUSH2 0xF60 SWAP2 SWAP1 PUSH2 0x31B6 JUMP JUMPDEST GT ISZERO PUSH2 0xFA1 JUMPI PUSH1 0x40 MLOAD PUSH32 0x8C379A000000000000000000000000000000000000000000000000000000000 DUP2 MSTORE PUSH1 0x4 ADD PUSH2 0xF98 SWAP1 PUSH2 0x3236 JUMP JUMPDEST PUSH1 0x40 MLOAD DUP1 SWAP2 SUB SWAP1 REVERT JUMPDEST PUSH1 0x0 JUMPDEST DUP2 DUP2 LT ISZERO PUSH2 0xFE9 JUMPI PUSH2 0xFDE DUP5 DUP5 DUP4 DUP2 DUP2 LT PUSH2 0xFC2 JUMPI PUSH2 0xFC1 PUSH2 0x3256 JUMP JUMPDEST JUMPDEST SWAP1 POP PUSH1 0x20 MUL ADD PUSH1 0x20 DUP2 ADD SWAP1 PUSH2 0xFD7 SWAP2 SWAP1 PUSH2 0x286C JUMP JUMPDEST PUSH1 0x1 PUSH2 0x1EF5 JUMP JUMPDEST DUP1 PUSH1 0x1 ADD SWAP1 POP PUSH2 0xFA4 JUMP JUMPDEST POP POP POP POP JUMP JUMPDEST PUSH1 0x0 PUSH1 0x9 PUSH1 0x0 SWAP1 SLOAD SWAP1 PUSH2 0x100 EXP SWAP1 DIV PUSH20 0xFFFFFFFFFFFFFFFFFFFFFFFFFFFFFFFFFFFFFFFF AND SWAP1 POP SWAP1 JUMP JUMPDEST PUSH1 0x9 PUSH1 0x14 SWAP1 SLOAD SWAP1 PUSH2 0x100 EXP SWAP1 DIV PUSH1 0xFF AND ISZERO PUSH2 0x1069 JUMPI PUSH1 0x40 MLOAD PUSH32 0x8C379A000000000000000000000000000000000000000000000000000000000 DUP2 MSTORE PUSH1 0x4 ADD PUSH2 0x1060 SWAP1 PUSH2 0x32D1 JUMP JUMPDEST PUSH1 0x40 MLOAD DUP1 SWAP2 SUB SWAP1 REVERT JUMPDEST PUSH1 0x1 PUSH1 0x9 PUSH1 0x14 PUSH2 0x100 EXP DUP2 SLOAD DUP2 PUSH1 0xFF MUL NOT AND SWAP1 DUP4 ISZERO ISZERO MUL OR SWAP1 SSTORE POP DUP10 PUSH1 0xC SWAP1 DUP2 PUSH2 0x1093 SWAP2 SWAP1 PUSH2 0x30E4 JUMP JUMPDEST POP DUP9 PUSH1 0xD SWAP1 DUP2 PUSH2 0x10A3 SWAP2 SWAP1 PUSH2 0x30E4 JUMP JUMPDEST POP PUSH2 0x10AD DUP3 PUSH2 0x1DE6 JUMP JUMPDEST DUP8 PUSH1 0xE SWAP1 DUP2 PUSH2 0x10BC SWAP2 SWAP1 PUSH2 0x30E4 JUMP JUMPDEST POP DUP7 PUSH1 0xA PUSH1 0x0 PUSH2 0x100 EXP DUP2 SLOAD DUP2 PUSH12 0xFFFFFFFFFFFFFFFFFFFFFFFF MUL NOT AND SWAP1 DUP4 PUSH12 0xFFFFFFFFFFFFFFFFFFFFFFFF AND MUL OR SWAP1 SSTORE POP DUP6 PUSH1 0xA PUSH1 0xC PUSH2 0x100 EXP DUP2 SLOAD DUP2 PUSH12 0xFFFFFFFFFFFFFFFFFFFFFFFF MUL NOT AND SWAP1 DUP4 PUSH12 0xFFFFFFFFFFFFFFFFFFFFFFFF AND MUL OR SWAP1 SSTORE POP DUP5 PUSH1 0xB PUSH1 0x0 PUSH2 0x100 EXP DUP2 SLOAD DUP2 PUSH12 0xFFFFFFFFFFFFFFFFFFFFFFFF MUL NOT AND SWAP1 DUP4 PUSH12 0xFFFFFFFFFFFFFFFFFFFFFFFF AND MUL OR SWAP1 SSTORE POP DUP4 PUSH1 0xB PUSH1 0xC PUSH2 0x100 EXP DUP2 SLOAD DUP2 PUSH8 0xFFFFFFFFFFFFFFFF MUL NOT AND SWAP1 DUP4 PUSH8 0xFFFFFFFFFFFFFFFF AND MUL OR SWAP1 SSTORE POP DUP3 PUSH1 0xB PUSH1 0x14 PUSH2 0x100 EXP DUP2 SLOAD DUP2 PUSH8 0xFFFFFFFFFFFFFFFF MUL NOT AND SWAP1 DUP4 PUSH8 0xFFFFFFFFFFFFFFFF AND MUL OR SWAP1 SSTORE POP DUP1 PUSH1 0xF PUSH1 0x0 PUSH2 0x100 EXP DUP2 SLOAD DUP2 PUSH20 0xFFFFFFFFFFFFFFFFFFFFFFFFFFFFFFFFFFFFFFFF MUL NOT AND SWAP1 DUP4 PUSH20 0xFFFFFFFFFFFFFFFFFFFFFFFFFFFFFFFFFFFFFFFF AND MUL OR SWAP1 SSTORE POP POP POP POP POP POP POP POP POP POP POP JUMP JUMPDEST PUSH1 0x60 PUSH1 0xD DUP1 SLOAD PUSH2 0x11FE SWAP1 PUSH2 0x2C78 JUMP JUMPDEST DUP1 PUSH1 0x1F ADD PUSH1 0x20 DUP1 SWAP2 DIV MUL PUSH1 0x20 ADD PUSH1 0x40 MLOAD SWAP1 DUP2 ADD PUSH1 0x40 MSTORE DUP1 SWAP3 SWAP2 SWAP1 DUP2 DUP2 MSTORE PUSH1 0x20 ADD DUP3 DUP1 SLOAD PUSH2 0x122A SWAP1 PUSH2 0x2C78 JUMP JUMPDEST DUP1 ISZERO PUSH2 0x1277 JUMPI DUP1 PUSH1 0x1F LT PUSH2 0x124C JUMPI PUSH2 0x100 DUP1 DUP4 SLOAD DIV MUL DUP4 MSTORE SWAP2 PUSH1 0x20 ADD SWAP2 PUSH2 0x1277 JUMP JUMPDEST DUP3 ADD SWAP2 SWAP1 PUSH1 0x0 MSTORE PUSH1 0x20 PUSH1 0x0 KECCAK256 SWAP1 JUMPDEST DUP2 SLOAD DUP2 MSTORE SWAP1 PUSH1 0x1 ADD SWAP1 PUSH1 0x20 ADD DUP1 DUP4 GT PUSH2 0x125A JUMPI DUP3 SWAP1 SUB PUSH1 0x1F AND DUP3 ADD SWAP2 JUMPDEST POP POP POP POP POP SWAP1 POP SWAP1 JUMP JUMPDEST DUP1 PUSH1 0x7 PUSH1 0x0 PUSH2 0x128E PUSH2 0x1CB4 JUMP JUMPDEST PUSH20 0xFFFFFFFFFFFFFFFFFFFFFFFFFFFFFFFFFFFFFFFF AND PUSH20 0xFFFFFFFFFFFFFFFFFFFFFFFFFFFFFFFFFFFFFFFF AND DUP2 MSTORE PUSH1 0x20 ADD SWAP1 DUP2 MSTORE PUSH1 0x20 ADD PUSH1 0x0 KECCAK256 PUSH1 0x0 DUP5 PUSH20 0xFFFFFFFFFFFFFFFFFFFFFFFFFFFFFFFFFFFFFFFF AND PUSH20 0xFFFFFFFFFFFFFFFFFFFFFFFFFFFFFFFFFFFFFFFF AND DUP2 MSTORE PUSH1 0x20 ADD SWAP1 DUP2 MSTORE PUSH1 0x20 ADD PUSH1 0x0 KECCAK256 PUSH1 0x0 PUSH2 0x100 EXP DUP2 SLOAD DUP2 PUSH1 0xFF MUL NOT AND SWAP1 DUP4 ISZERO ISZERO MUL OR SWAP1 SSTORE POP DUP2 PUSH20 0xFFFFFFFFFFFFFFFFFFFFFFFFFFFFFFFFFFFFFFFF AND PUSH2 0x133B PUSH2 0x1CB4 JUMP JUMPDEST PUSH20 0xFFFFFFFFFFFFFFFFFFFFFFFFFFFFFFFFFFFFFFFF AND PUSH32 0x17307EAB39AB6107E8899845AD3D59BD9653F200F220920489CA2B5937696C31 DUP4 PUSH1 0x40 MLOAD PUSH2 0x1380 SWAP2 SWAP1 PUSH2 0x23F9 JUMP JUMPDEST PUSH1 0x40 MLOAD DUP1 SWAP2 SUB SWAP1 LOG3 POP POP JUMP JUMPDEST PUSH1 0x0 PUSH2 0x1396 PUSH2 0x1EAC JUMP JUMPDEST SWAP1 POP SWAP1 JUMP JUMPDEST PUSH1 0x60 PUSH1 0xE DUP1 SLOAD PUSH2 0x13AA SWAP1 PUSH2 0x2C78 JUMP JUMPDEST DUP1 PUSH1 0x1F ADD PUSH1 0x20 DUP1 SWAP2 DIV MUL PUSH1 0x20 ADD PUSH1 0x40 MLOAD SWAP1 DUP2 ADD PUSH1 0x40 MSTORE DUP1 SWAP3 SWAP2 SWAP1 DUP2 DUP2 MSTORE PUSH1 0x20 ADD DUP3 DUP1 SLOAD PUSH2 0x13D6 SWAP1 PUSH2 0x2C78 JUMP JUMPDEST DUP1 ISZERO PUSH2 0x1423 JUMPI DUP1 PUSH1 0x1F LT PUSH2 0x13F8 JUMPI PUSH2 0x100 DUP1 DUP4 SLOAD DIV MUL DUP4 MSTORE SWAP2 PUSH1 0x20 ADD SWAP2 PUSH2 0x1423 JUMP JUMPDEST DUP3 ADD SWAP2 SWAP1 PUSH1 0x0 MSTORE PUSH1 0x20 PUSH1 0x0 KECCAK256 SWAP1 JUMPDEST DUP2 SLOAD DUP2 MSTORE SWAP1 PUSH1 0x1 ADD SWAP1 PUSH1 0x20 ADD DUP1 DUP4 GT PUSH2 0x1406 JUMPI DUP3 SWAP1 SUB PUSH1 0x1F AND DUP3 ADD SWAP2 JUMPDEST POP POP POP POP POP SWAP1 POP SWAP1 JUMP JUMPDEST PUSH1 0x0 DUP2 GT PUSH2 0x1470 JUMPI PUSH1 0x40 MLOAD PUSH32 0x8C379A000000000000000000000000000000000000000000000000000000000 DUP2 MSTORE PUSH1 0x4 ADD PUSH2 0x1467 SWAP1 PUSH2 0x333D JUMP JUMPDEST PUSH1 0x40 MLOAD DUP1 SWAP2 SUB SWAP1 REVERT JUMPDEST PUSH1 0xA PUSH1 0x0 SWAP1 SLOAD SWAP1 PUSH2 0x100 EXP SWAP1 DIV PUSH12 0xFFFFFFFFFFFFFFFFFFFFFFFF AND PUSH12 0xFFFFFFFFFFFFFFFFFFFFFFFF AND DUP2 PUSH2 0x14A2 PUSH2 0x1EAC JUMP JUMPDEST PUSH2 0x14AC SWAP2 SWAP1 PUSH2 0x31B6 JUMP JUMPDEST GT ISZERO PUSH2 0x14ED JUMPI PUSH1 0x40 MLOAD PUSH32 0x8C379A000000000000000000000000000000000000000000000000000000000 DUP2 MSTORE PUSH1 0x4 ADD PUSH2 0x14E4 SWAP1 PUSH2 0x33A9 JUMP JUMPDEST PUSH1 0x40 MLOAD DUP1 SWAP2 SUB SWAP1 REVERT JUMPDEST PUSH1 0xB PUSH1 0x0 SWAP1 SLOAD SWAP1 PUSH2 0x100 EXP SWAP1 DIV PUSH12 0xFFFFFFFFFFFFFFFFFFFFFFFF AND PUSH12 0xFFFFFFFFFFFFFFFFFFFFFFFF AND DUP2 PUSH2 0x1520 CALLER PUSH2 0x207B JUMP JUMPDEST PUSH2 0x152A SWAP2 SWAP1 PUSH2 0x31B6 JUMP JUMPDEST GT ISZERO PUSH2 0x156B JUMPI PUSH1 0x40 MLOAD PUSH32 0x8C379A000000000000000000000000000000000000000000000000000000000 DUP2 MSTORE PUSH1 0x4 ADD PUSH2 0x1562 SWAP1 PUSH2 0x3415 JUMP JUMPDEST PUSH1 0x40 MLOAD DUP1 SWAP2 SUB SWAP1 REVERT JUMPDEST DUP1 PUSH1 0xA PUSH1 0xC SWAP1 SLOAD SWAP1 PUSH2 0x100 EXP SWAP1 DIV PUSH12 0xFFFFFFFFFFFFFFFFFFFFFFFF AND PUSH12 0xFFFFFFFFFFFFFFFFFFFFFFFF AND PUSH2 0x159F SWAP2 SWAP1 PUSH2 0x2D44 JUMP JUMPDEST CALLVALUE LT ISZERO PUSH2 0x15E1 JUMPI PUSH1 0x40 MLOAD PUSH32 0x8C379A000000000000000000000000000000000000000000000000000000000 DUP2 MSTORE PUSH1 0x4 ADD PUSH2 0x15D8 SWAP1 PUSH2 0x3481 JUMP JUMPDEST PUSH1 0x40 MLOAD DUP1 SWAP2 SUB SWAP1 REVERT JUMPDEST PUSH1 0xB PUSH1 0xC SWAP1 SLOAD SWAP1 PUSH2 0x100 EXP SWAP1 DIV PUSH8 0xFFFFFFFFFFFFFFFF AND PUSH8 0xFFFFFFFFFFFFFFFF AND TIMESTAMP LT ISZERO PUSH2 0x1644 JUMPI PUSH1 0x40 MLOAD PUSH32 0x8C379A000000000000000000000000000000000000000000000000000000000 DUP2 MSTORE PUSH1 0x4 ADD PUSH2 0x163B SWAP1 PUSH2 0x34ED JUMP JUMPDEST PUSH1 0x40 MLOAD DUP1 SWAP2 SUB SWAP1 REVERT JUMPDEST PUSH1 0x0 PUSH1 0xB PUSH1 0x14 SWAP1 SLOAD SWAP1 PUSH2 0x100 EXP SWAP1 DIV PUSH8 0xFFFFFFFFFFFFFFFF AND PUSH8 0xFFFFFFFFFFFFFFFF AND EQ DUP1 PUSH2 0x1693 JUMPI POP PUSH1 0xB PUSH1 0x14 SWAP1 SLOAD SWAP1 PUSH2 0x100 EXP SWAP1 DIV PUSH8 0xFFFFFFFFFFFFFFFF AND PUSH8 0xFFFFFFFFFFFFFFFF AND TIMESTAMP GT ISZERO JUMPDEST PUSH2 0x16D2 JUMPI PUSH1 0x40 MLOAD PUSH32 0x8C379A000000000000000000000000000000000000000000000000000000000 DUP2 MSTORE PUSH1 0x4 ADD PUSH2 0x16C9 SWAP1 PUSH2 0x3559 JUMP JUMPDEST PUSH1 0x40 MLOAD DUP1 SWAP2 SUB SWAP1 REVERT JUMPDEST PUSH2 0x16DC CALLER DUP3 PUSH2 0x1EF5 JUMP JUMPDEST POP JUMP JUMPDEST PUSH2 0x16EA DUP5 DUP5 DUP5 PUSH2 0x8FF JUMP JUMPDEST PUSH1 0x0 DUP4 PUSH20 0xFFFFFFFFFFFFFFFFFFFFFFFFFFFFFFFFFFFFFFFF AND EXTCODESIZE EQ PUSH2 0x172B JUMPI PUSH2 0x1715 DUP5 DUP5 DUP5 DUP5 PUSH2 0x20D2 JUMP JUMPDEST PUSH2 0x172A JUMPI PUSH2 0x1729 PUSH4 0xD1A57ED6 PUSH1 0xE0 SHL PUSH2 0x1A0E JUMP JUMPDEST JUMPDEST JUMPDEST POP POP POP POP JUMP JUMPDEST PUSH1 0x60 PUSH2 0x173C DUP3 PUSH2 0x1962 JUMP JUMPDEST PUSH2 0x1751 JUMPI PUSH2 0x1750 PUSH4 0xA14C4B50 PUSH1 0xE0 SHL PUSH2 0x1A0E JUMP JUMPDEST JUMPDEST PUSH1 0x0 PUSH2 0x175B PUSH2 0x2201 JUMP JUMPDEST SWAP1 POP PUSH1 0x0 DUP2 MLOAD SUB PUSH2 0x177B JUMPI PUSH1 0x40 MLOAD DUP1 PUSH1 0x20 ADD PUSH1 0x40 MSTORE DUP1 PUSH1 0x0 DUP2 MSTORE POP PUSH2 0x17A6 JUMP JUMPDEST DUP1 PUSH2 0x1785 DUP5 PUSH2 0x2293 JUMP JUMPDEST PUSH1 0x40 MLOAD PUSH1 0x20 ADD PUSH2 0x1796 SWAP3 SWAP2 SWAP1 PUSH2 0x35B5 JUMP JUMPDEST PUSH1 0x40 MLOAD PUSH1 0x20 DUP2 DUP4 SUB SUB DUP2 MSTORE SWAP1 PUSH1 0x40 MSTORE JUMPDEST SWAP2 POP POP SWAP2 SWAP1 POP JUMP JUMPDEST PUSH1 0xA PUSH1 0x0 SWAP1 SLOAD SWAP1 PUSH2 0x100 EXP SWAP1 DIV PUSH12 0xFFFFFFFFFFFFFFFFFFFFFFFF AND DUP2 JUMP JUMPDEST PUSH1 0xF PUSH1 0x0 SWAP1 SLOAD SWAP1 PUSH2 0x100 EXP SWAP1 DIV PUSH20 0xFFFFFFFFFFFFFFFFFFFFFFFFFFFFFFFFFFFFFFFF AND DUP2 JUMP JUMPDEST PUSH1 0x0 PUSH1 0x7 PUSH1 0x0 DUP5 PUSH20 0xFFFFFFFFFFFFFFFFFFFFFFFFFFFFFFFFFFFFFFFF AND PUSH20 0xFFFFFFFFFFFFFFFFFFFFFFFFFFFFFFFFFFFFFFFF AND DUP2 MSTORE PUSH1 0x20 ADD SWAP1 DUP2 MSTORE PUSH1 0x20 ADD PUSH1 0x0 KECCAK256 PUSH1 0x0 DUP4 PUSH20 0xFFFFFFFFFFFFFFFFFFFFFFFFFFFFFFFFFFFFFFFF AND PUSH20 0xFFFFFFFFFFFFFFFFFFFFFFFFFFFFFFFFFFFFFFFF AND DUP2 MSTORE PUSH1 0x20 ADD SWAP1 DUP2 MSTORE PUSH1 0x20 ADD PUSH1 0x0 KECCAK256 PUSH1 0x0 SWAP1 SLOAD SWAP1 PUSH2 0x100 EXP SWAP1 DIV PUSH1 0xFF AND SWAP1 POP SWAP3 SWAP2 POP POP JUMP JUMPDEST PUSH1 0xB PUSH1 0x14 SWAP1 SLOAD SWAP1 PUSH2 0x100 EXP SWAP1 DIV PUSH8 0xFFFFFFFFFFFFFFFF AND DUP2 JUMP JUMPDEST PUSH2 0x18A8 PUSH2 0x1D5F JUMP JUMPDEST PUSH1 0x0 PUSH20 0xFFFFFFFFFFFFFFFFFFFFFFFFFFFFFFFFFFFFFFFF AND DUP2 PUSH20 0xFFFFFFFFFFFFFFFFFFFFFFFFFFFFFFFFFFFFFFFF AND SUB PUSH2 0x191A JUMPI PUSH1 0x0 PUSH1 0x40 MLOAD PUSH32 0x1E4FBDF700000000000000000000000000000000000000000000000000000000 DUP2 MSTORE PUSH1 0x4 ADD PUSH2 0x1911 SWAP2 SWAP1 PUSH2 0x256A JUMP JUMPDEST PUSH1 0x40 MLOAD DUP1 SWAP2 SUB SWAP1 REVERT JUMPDEST PUSH2 0x1923 DUP2 PUSH2 0x1DE6 JUMP JUMPDEST POP JUMP JUMPDEST PUSH2 0x192E PUSH2 0x1D5F JUMP JUMPDEST DUP1 PUSH1 0xA PUSH1 0xC PUSH2 0x100 EXP DUP2 SLOAD DUP2 PUSH12 0xFFFFFFFFFFFFFFFFFFFFFFFF MUL NOT AND SWAP1 DUP4 PUSH12 0xFFFFFFFFFFFFFFFFFFFFFFFF AND MUL OR SWAP1 SSTORE POP POP JUMP JUMPDEST PUSH1 0x0 DUP2 PUSH2 0x196D PUSH2 0x1B47 JUMP JUMPDEST GT PUSH2 0x1A08 JUMPI PUSH2 0x197A PUSH2 0x1B4C JUMP JUMPDEST DUP3 GT ISZERO PUSH2 0x19A4 JUMPI PUSH2 0x199D PUSH1 0x4 PUSH1 0x0 DUP5 DUP2 MSTORE PUSH1 0x20 ADD SWAP1 DUP2 MSTORE PUSH1 0x20 ADD PUSH1 0x0 KECCAK256 SLOAD PUSH2 0x22E3 JUMP JUMPDEST SWAP1 POP PUSH2 0x1A09 JUMP JUMPDEST PUSH1 0x0 SLOAD DUP3 LT ISZERO PUSH2 0x1A07 JUMPI PUSH1 0x0 JUMPDEST PUSH1 0x0 PUSH1 0x4 PUSH1 0x0 DUP6 DUP2 MSTORE PUSH1 0x20 ADD SWAP1 DUP2 MSTORE PUSH1 0x20 ADD PUSH1 0x0 KECCAK256 SLOAD SWAP2 POP DUP2 SUB PUSH2 0x19E0 JUMPI DUP3 PUSH2 0x19D9 SWAP1 PUSH2 0x35D9 JUMP JUMPDEST SWAP3 POP PUSH2 0x19B1 JUMP JUMPDEST PUSH1 0x0 PUSH29 0x100000000000000000000000000000000000000000000000000000000 DUP3 AND EQ SWAP2 POP POP JUMPDEST JUMPDEST JUMPDEST SWAP2 SWAP1 POP JUMP JUMPDEST DUP1 PUSH1 0x0 MSTORE PUSH1 0x4 PUSH1 0x0 REVERT JUMPDEST PUSH1 0x0 PUSH2 0x1A23 DUP4 PUSH2 0xE39 JUMP JUMPDEST SWAP1 POP DUP2 DUP1 ISZERO PUSH2 0x1A65 JUMPI POP DUP1 PUSH20 0xFFFFFFFFFFFFFFFFFFFFFFFFFFFFFFFFFFFFFFFF AND PUSH2 0x1A4C PUSH2 0x1CB4 JUMP JUMPDEST PUSH20 0xFFFFFFFFFFFFFFFFFFFFFFFFFFFFFFFFFFFFFFFF AND EQ ISZERO JUMPDEST ISZERO PUSH2 0x1A91 JUMPI PUSH2 0x1A7B DUP2 PUSH2 0x1A76 PUSH2 0x1CB4 JUMP JUMPDEST PUSH2 0x17F2 JUMP JUMPDEST PUSH2 0x1A90 JUMPI PUSH2 0x1A8F PUSH4 0xCFB3B942 PUSH1 0xE0 SHL PUSH2 0x1A0E JUMP JUMPDEST JUMPDEST JUMPDEST DUP4 PUSH1 0x6 PUSH1 0x0 DUP6 DUP2 MSTORE PUSH1 0x20 ADD SWAP1 DUP2 MSTORE PUSH1 0x20 ADD PUSH1 0x0 KECCAK256 PUSH1 0x0 ADD PUSH1 0x0 PUSH2 0x100 EXP DUP2 SLOAD DUP2 PUSH20 0xFFFFFFFFFFFFFFFFFFFFFFFFFFFFFFFFFFFFFFFF MUL NOT AND SWAP1 DUP4 PUSH20 0xFFFFFFFFFFFFFFFFFFFFFFFFFFFFFFFFFFFFFFFF AND MUL OR SWAP1 SSTORE POP DUP3 DUP5 PUSH20 0xFFFFFFFFFFFFFFFFFFFFFFFFFFFFFFFFFFFFFFFF AND DUP3 PUSH20 0xFFFFFFFFFFFFFFFFFFFFFFFFFFFFFFFFFFFFFFFF AND PUSH32 0x8C5BE1E5EBEC7D5BD14F71427D1E84F3DD0314C0F7B2291E5B200AC8C7C3B925 PUSH1 0x40 MLOAD PUSH1 0x40 MLOAD DUP1 SWAP2 SUB SWAP1 LOG4 POP POP POP POP JUMP JUMPDEST PUSH1 0x0 SWAP1 JUMP JUMPDEST PUSH1 0x0 PUSH32 0xFFFFFFFFFFFFFFFFFFFFFFFFFFFFFFFFFFFFFFFFFFFFFFFFFFFFFFFFFFFFFFFF SWAP1 POP SWAP1 JUMP JUMPDEST PUSH1 0x0 DUP2 PUSH2 0x1B7F PUSH2 0x1B47 JUMP JUMPDEST GT PUSH2 0x1C77 JUMPI PUSH1 0x4 PUSH1 0x0 DUP4 DUP2 MSTORE PUSH1 0x20 ADD SWAP1 DUP2 MSTORE PUSH1 0x20 ADD PUSH1 0x0 KECCAK256 SLOAD SWAP1 POP PUSH2 0x1BA2 PUSH2 0x1B4C JUMP JUMPDEST DUP3 GT ISZERO PUSH2 0x1BC7 JUMPI PUSH2 0x1BB2 DUP2 PUSH2 0x22E3 JUMP JUMPDEST PUSH2 0x1C88 JUMPI PUSH2 0x1BC6 PUSH4 0xDF2D9B42 PUSH1 0xE0 SHL PUSH2 0x1A0E JUMP JUMPDEST JUMPDEST PUSH1 0x0 DUP2 SUB PUSH2 0x1C4E JUMPI PUSH1 0x0 SLOAD DUP3 LT PUSH2 0x1BE9 JUMPI PUSH2 0x1BE8 PUSH4 0xDF2D9B42 PUSH1 0xE0 SHL PUSH2 0x1A0E JUMP JUMPDEST JUMPDEST JUMPDEST PUSH1 0x4 PUSH1 0x0 DUP4 PUSH1 0x1 SWAP1 SUB SWAP4 POP DUP4 DUP2 MSTORE PUSH1 0x20 ADD SWAP1 DUP2 MSTORE PUSH1 0x20 ADD PUSH1 0x0 KECCAK256 SLOAD SWAP1 POP PUSH1 0x0 DUP2 SUB ISZERO PUSH2 0x1C49 JUMPI PUSH1 0x0 PUSH29 0x100000000000000000000000000000000000000000000000000000000 DUP3 AND SUB ISZERO PUSH2 0x1C88 JUMPI PUSH2 0x1C48 PUSH4 0xDF2D9B42 PUSH1 0xE0 SHL PUSH2 0x1A0E JUMP JUMPDEST JUMPDEST PUSH2 0x1BEA JUMP JUMPDEST PUSH1 0x0 PUSH29 0x100000000000000000000000000000000000000000000000000000000 DUP3 AND SUB ISZERO PUSH2 0x1C88 JUMPI JUMPDEST PUSH2 0x1C87 PUSH4 0xDF2D9B42 PUSH1 0xE0 SHL PUSH2 0x1A0E JUMP JUMPDEST JUMPDEST SWAP2 SWAP1 POP JUMP JUMPDEST PUSH1 0x0 DUP1 PUSH1 0x0 PUSH1 0x6 PUSH1 0x0 DUP6 DUP2 MSTORE PUSH1 0x20 ADD SWAP1 DUP2 MSTORE PUSH1 0x20 ADD PUSH1 0x0 KECCAK256 SWAP1 POP DUP1 SWAP3 POP DUP3 SLOAD SWAP2 POP POP SWAP2 POP SWAP2 JUMP JUMPDEST PUSH1 0x0 CALLER SWAP1 POP SWAP1 JUMP JUMPDEST PUSH1 0x0 PUSH20 0xFFFFFFFFFFFFFFFFFFFFFFFFFFFFFFFFFFFFFFFF DUP4 AND SWAP3 POP PUSH20 0xFFFFFFFFFFFFFFFFFFFFFFFFFFFFFFFFFFFFFFFF DUP3 AND SWAP2 POP DUP4 DUP3 EQ DUP4 DUP4 EQ OR SWAP1 POP SWAP4 SWAP3 POP POP POP JUMP JUMPDEST POP POP POP POP JUMP JUMPDEST PUSH1 0x0 DUP1 PUSH1 0xE8 DUP4 SWAP1 SHR SWAP1 POP PUSH1 0xE8 PUSH2 0x1D1D DUP7 DUP7 DUP5 PUSH2 0x2324 JUMP JUMPDEST PUSH3 0xFFFFFF AND SWAP1 SHL SWAP2 POP POP SWAP4 SWAP3 POP POP POP JUMP JUMPDEST PUSH1 0x0 PUSH20 0xFFFFFFFFFFFFFFFFFFFFFFFFFFFFFFFFFFFFFFFF DUP4 AND SWAP3 POP DUP2 TIMESTAMP PUSH1 0xA0 SHL OR DUP4 OR SWAP1 POP SWAP3 SWAP2 POP POP JUMP JUMPDEST POP POP POP POP JUMP JUMPDEST PUSH2 0x1D67 PUSH2 0x232D JUMP JUMPDEST PUSH20 0xFFFFFFFFFFFFFFFFFFFFFFFFFFFFFFFFFFFFFFFF AND PUSH2 0x1D85 PUSH2 0xFEF JUMP JUMPDEST PUSH20 0xFFFFFFFFFFFFFFFFFFFFFFFFFFFFFFFFFFFFFFFF AND EQ PUSH2 0x1DE4 JUMPI PUSH2 0x1DA8 PUSH2 0x232D JUMP JUMPDEST PUSH1 0x40 MLOAD PUSH32 0x118CDAA700000000000000000000000000000000000000000000000000000000 DUP2 MSTORE PUSH1 0x4 ADD PUSH2 0x1DDB SWAP2 SWAP1 PUSH2 0x256A JUMP JUMPDEST PUSH1 0x40 MLOAD DUP1 SWAP2 SUB SWAP1 REVERT JUMPDEST JUMP JUMPDEST PUSH1 0x0 PUSH1 0x9 PUSH1 0x0 SWAP1 SLOAD SWAP1 PUSH2 0x100 EXP SWAP1 DIV PUSH20 0xFFFFFFFFFFFFFFFFFFFFFFFFFFFFFFFFFFFFFFFF AND SWAP1 POP DUP2 PUSH1 0x9 PUSH1 0x0 PUSH2 0x100 EXP DUP2 SLOAD DUP2 PUSH20 0xFFFFFFFFFFFFFFFFFFFFFFFFFFFFFFFFFFFFFFFF MUL NOT AND SWAP1 DUP4 PUSH20 0xFFFFFFFFFFFFFFFFFFFFFFFFFFFFFFFFFFFFFFFF AND MUL OR SWAP1 SSTORE POP DUP2 PUSH20 0xFFFFFFFFFFFFFFFFFFFFFFFFFFFFFFFFFFFFFFFF AND DUP2 PUSH20 0xFFFFFFFFFFFFFFFFFFFFFFFFFFFFFFFFFFFFFFFF AND PUSH32 0x8BE0079C531659141344CD1FD0A4F28419497F9722A3DAAFE3B4186F6B6457E0 PUSH1 0x40 MLOAD PUSH1 0x40 MLOAD DUP1 SWAP2 SUB SWAP1 LOG3 POP POP JUMP JUMPDEST PUSH1 0x0 PUSH2 0x1EB6 PUSH2 0x1B47 JUMP JUMPDEST PUSH1 0x0 SLOAD SUB SWAP1 POP PUSH32 0xFFFFFFFFFFFFFFFFFFFFFFFFFFFFFFFFFFFFFFFFFFFFFFFFFFFFFFFFFFFFFFFF PUSH2 0x1EE5 PUSH2 0x1B4C JUMP JUMPDEST EQ PUSH2 0x1EF2 JUMPI PUSH1 0x8 SLOAD DUP2 ADD SWAP1 POP JUMPDEST SWAP1 JUMP JUMPDEST PUSH1 0x0 DUP1 SLOAD SWAP1 POP PUSH1 0x0 DUP3 SUB PUSH2 0x1F14 JUMPI PUSH2 0x1F13 PUSH4 0xB562E8DD PUSH1 0xE0 SHL PUSH2 0x1A0E JUMP JUMPDEST JUMPDEST PUSH2 0x1F21 PUSH1 0x0 DUP5 DUP4 DUP6 PUSH2 0x1D00 JUMP JUMPDEST PUSH2 0x1F41 DUP4 PUSH2 0x1F32 PUSH1 0x0 DUP7 PUSH1 0x0 PUSH2 0x1D06 JUMP JUMPDEST PUSH2 0x1F3B DUP6 PUSH2 0x2335 JUMP JUMPDEST OR PUSH2 0x1D2E JUMP JUMPDEST PUSH1 0x4 PUSH1 0x0 DUP4 DUP2 MSTORE PUSH1 0x20 ADD SWAP1 DUP2 MSTORE PUSH1 0x20 ADD PUSH1 0x0 KECCAK256 DUP2 SWAP1 SSTORE POP PUSH1 0x1 PUSH1 0x40 PUSH1 0x1 SWAP1 SHL OR DUP3 MUL PUSH1 0x5 PUSH1 0x0 DUP6 PUSH20 0xFFFFFFFFFFFFFFFFFFFFFFFFFFFFFFFFFFFFFFFF AND PUSH20 0xFFFFFFFFFFFFFFFFFFFFFFFFFFFFFFFFFFFFFFFF AND DUP2 MSTORE PUSH1 0x20 ADD SWAP1 DUP2 MSTORE PUSH1 0x20 ADD PUSH1 0x0 KECCAK256 PUSH1 0x0 DUP3 DUP3 SLOAD ADD SWAP3 POP POP DUP2 SWAP1 SSTORE POP PUSH1 0x0 PUSH20 0xFFFFFFFFFFFFFFFFFFFFFFFFFFFFFFFFFFFFFFFF DUP5 PUSH20 0xFFFFFFFFFFFFFFFFFFFFFFFFFFFFFFFFFFFFFFFF AND AND SWAP1 POP PUSH1 0x0 DUP2 SUB PUSH2 0x1FF9 JUMPI PUSH2 0x1FF8 PUSH4 0x2E076300 PUSH1 0xE0 SHL PUSH2 0x1A0E JUMP JUMPDEST JUMPDEST PUSH1 0x0 DUP4 DUP4 ADD SWAP1 POP PUSH1 0x0 DUP4 SWAP1 POP PUSH2 0x200D PUSH2 0x1B4C JUMP JUMPDEST PUSH1 0x1 DUP4 SUB GT ISZERO PUSH2 0x2028 JUMPI PUSH2 0x2027 PUSH4 0x81647E3A PUSH1 0xE0 SHL PUSH2 0x1A0E JUMP JUMPDEST JUMPDEST JUMPDEST DUP1 DUP4 PUSH1 0x0 PUSH32 0xDDF252AD1BE2C89B69C2B068FC378DAA952BA7F163C4A11628F55A4DF523B3EF PUSH1 0x0 DUP1 LOG4 DUP2 DUP2 PUSH1 0x1 ADD SWAP2 POP DUP2 SUB PUSH2 0x2029 JUMPI DUP2 PUSH1 0x0 DUP2 SWAP1 SSTORE POP POP POP POP PUSH2 0x2076 PUSH1 0x0 DUP5 DUP4 DUP6 PUSH2 0x1D59 JUMP JUMPDEST POP POP POP JUMP JUMPDEST PUSH1 0x0 PUSH8 0xFFFFFFFFFFFFFFFF PUSH1 0x40 PUSH1 0x5 PUSH1 0x0 DUP6 PUSH20 0xFFFFFFFFFFFFFFFFFFFFFFFFFFFFFFFFFFFFFFFF AND PUSH20 0xFFFFFFFFFFFFFFFFFFFFFFFFFFFFFFFFFFFFFFFF AND DUP2 MSTORE PUSH1 0x20 ADD SWAP1 DUP2 MSTORE PUSH1 0x20 ADD PUSH1 0x0 KECCAK256 SLOAD SWAP1 SHR AND SWAP1 POP SWAP2 SWAP1 POP JUMP JUMPDEST PUSH1 0x0 DUP4 PUSH20 0xFFFFFFFFFFFFFFFFFFFFFFFFFFFFFFFFFFFFFFFF AND PUSH4 0x150B7A02 PUSH2 0x20F8 PUSH2 0x1CB4 JUMP JUMPDEST DUP8 DUP7 DUP7 PUSH1 0x40 MLOAD DUP6 PUSH4 0xFFFFFFFF AND PUSH1 0xE0 SHL DUP2 MSTORE PUSH1 0x4 ADD PUSH2 0x211A SWAP5 SWAP4 SWAP3 SWAP2 SWAP1 PUSH2 0x3657 JUMP JUMPDEST PUSH1 0x20 PUSH1 0x40 MLOAD DUP1 DUP4 SUB DUP2 PUSH1 0x0 DUP8 GAS CALL SWAP3 POP POP POP DUP1 ISZERO PUSH2 0x2156 JUMPI POP PUSH1 0x40 MLOAD RETURNDATASIZE PUSH1 0x1F NOT PUSH1 0x1F DUP3 ADD AND DUP3 ADD DUP1 PUSH1 0x40 MSTORE POP DUP2 ADD SWAP1 PUSH2 0x2153 SWAP2 SWAP1 PUSH2 0x36B8 JUMP JUMPDEST PUSH1 0x1 JUMPDEST PUSH2 0x21AE JUMPI RETURNDATASIZE DUP1 PUSH1 0x0 DUP2 EQ PUSH2 0x2186 JUMPI PUSH1 0x40 MLOAD SWAP2 POP PUSH1 0x1F NOT PUSH1 0x3F RETURNDATASIZE ADD AND DUP3 ADD PUSH1 0x40 MSTORE RETURNDATASIZE DUP3 MSTORE RETURNDATASIZE PUSH1 0x0 PUSH1 0x20 DUP5 ADD RETURNDATACOPY PUSH2 0x218B JUMP JUMPDEST PUSH1 0x60 SWAP2 POP JUMPDEST POP PUSH1 0x0 DUP2 MLOAD SUB PUSH2 0x21A6 JUMPI PUSH2 0x21A5 PUSH4 0xD1A57ED6 PUSH1 0xE0 SHL PUSH2 0x1A0E JUMP JUMPDEST JUMPDEST DUP1 MLOAD DUP2 PUSH1 0x20 ADD REVERT JUMPDEST PUSH4 0x150B7A02 PUSH1 0xE0 SHL PUSH28 0xFFFFFFFFFFFFFFFFFFFFFFFFFFFFFFFFFFFFFFFFFFFFFFFFFFFFFFFF NOT AND DUP2 PUSH28 0xFFFFFFFFFFFFFFFFFFFFFFFFFFFFFFFFFFFFFFFFFFFFFFFFFFFFFFFF NOT AND EQ SWAP2 POP POP SWAP5 SWAP4 POP POP POP POP JUMP JUMPDEST PUSH1 0x60 PUSH1 0xE DUP1 SLOAD PUSH2 0x2210 SWAP1 PUSH2 0x2C78 JUMP JUMPDEST DUP1 PUSH1 0x1F ADD PUSH1 0x20 DUP1 SWAP2 DIV MUL PUSH1 0x20 ADD PUSH1 0x40 MLOAD SWAP1 DUP2 ADD PUSH1 0x40 MSTORE DUP1 SWAP3 SWAP2 SWAP1 DUP2 DUP2 MSTORE PUSH1 0x20 ADD DUP3 DUP1 SLOAD PUSH2 0x223C SWAP1 PUSH2 0x2C78 JUMP JUMPDEST DUP1 ISZERO PUSH2 0x2289 JUMPI DUP1 PUSH1 0x1F LT PUSH2 0x225E JUMPI PUSH2 0x100 DUP1 DUP4 SLOAD DIV MUL DUP4 MSTORE SWAP2 PUSH1 0x20 ADD SWAP2 PUSH2 0x2289 JUMP JUMPDEST DUP3 ADD SWAP2 SWAP1 PUSH1 0x0 MSTORE PUSH1 0x20 PUSH1 0x0 KECCAK256 SWAP1 JUMPDEST DUP2 SLOAD DUP2 MSTORE SWAP1 PUSH1 0x1 ADD SWAP1 PUSH1 0x20 ADD DUP1 DUP4 GT PUSH2 0x226C JUMPI DUP3 SWAP1 SUB PUSH1 0x1F AND DUP3 ADD SWAP2 JUMPDEST POP POP POP POP POP SWAP1 POP SWAP1 JUMP JUMPDEST PUSH1 0x60 PUSH1 0xA0 PUSH1 0x40 MLOAD ADD DUP1 PUSH1 0x40 MSTORE PUSH1 0x20 DUP2 SUB SWAP2 POP PUSH1 0x0 DUP3 MSTORE DUP2 DUP4 JUMPDEST PUSH1 0x1 ISZERO PUSH2 0x22CE JUMPI PUSH1 0x1 DUP5 SUB SWAP4 POP PUSH1 0xA DUP2 MOD PUSH1 0x30 ADD DUP5 MSTORE8 PUSH1 0xA DUP2 DIV SWAP1 POP DUP1 PUSH2 0x22AC JUMPI JUMPDEST POP DUP3 DUP2 SUB PUSH1 0x20 DUP5 SUB SWAP4 POP DUP1 DUP5 MSTORE POP POP POP SWAP2 SWAP1 POP JUMP JUMPDEST PUSH1 0x0 PUSH29 0x100000000000000000000000000000000000000000000000000000000 DUP3 AND PUSH20 0xFFFFFFFFFFFFFFFFFFFFFFFFFFFFFFFFFFFFFFFF DUP4 AND GT SWAP1 POP SWAP2 SWAP1 POP JUMP JUMPDEST PUSH1 0x0 SWAP4 SWAP3 POP POP POP JUMP JUMPDEST PUSH1 0x0 CALLER SWAP1 POP SWAP1 JUMP JUMPDEST PUSH1 0x0 PUSH1 0x1 DUP3 EQ PUSH1 0xE1 SHL SWAP1 POP SWAP2 SWAP1 POP JUMP JUMPDEST PUSH1 0x0 PUSH1 0x40 MLOAD SWAP1 POP SWAP1 JUMP JUMPDEST PUSH1 0x0 DUP1 REVERT JUMPDEST PUSH1 0x0 DUP1 REVERT JUMPDEST PUSH1 0x0 PUSH32 0xFFFFFFFF00000000000000000000000000000000000000000000000000000000 DUP3 AND SWAP1 POP SWAP2 SWAP1 POP JUMP JUMPDEST PUSH2 0x238E DUP2 PUSH2 0x2359 JUMP JUMPDEST DUP2 EQ PUSH2 0x2399 JUMPI PUSH1 0x0 DUP1 REVERT JUMPDEST POP JUMP JUMPDEST PUSH1 0x0 DUP2 CALLDATALOAD SWAP1 POP PUSH2 0x23AB DUP2 PUSH2 0x2385 JUMP JUMPDEST SWAP3 SWAP2 POP POP JUMP JUMPDEST PUSH1 0x0 PUSH1 0x20 DUP3 DUP5 SUB SLT ISZERO PUSH2 0x23C7 JUMPI PUSH2 0x23C6 PUSH2 0x234F JUMP JUMPDEST JUMPDEST PUSH1 0x0 PUSH2 0x23D5 DUP5 DUP3 DUP6 ADD PUSH2 0x239C JUMP JUMPDEST SWAP2 POP POP SWAP3 SWAP2 POP POP JUMP JUMPDEST PUSH1 0x0 DUP2 ISZERO ISZERO SWAP1 POP SWAP2 SWAP1 POP JUMP JUMPDEST PUSH2 0x23F3 DUP2 PUSH2 0x23DE JUMP JUMPDEST DUP3 MSTORE POP POP JUMP JUMPDEST PUSH1 0x0 PUSH1 0x20 DUP3 ADD SWAP1 POP PUSH2 0x240E PUSH1 0x0 DUP4 ADD DUP5 PUSH2 0x23EA JUMP JUMPDEST SWAP3 SWAP2 POP POP JUMP JUMPDEST PUSH1 0x0 DUP2 MLOAD SWAP1 POP SWAP2 SWAP1 POP JUMP JUMPDEST PUSH1 0x0 DUP3 DUP3 MSTORE PUSH1 0x20 DUP3 ADD SWAP1 POP SWAP3 SWAP2 POP POP JUMP JUMPDEST PUSH1 0x0 JUMPDEST DUP4 DUP2 LT ISZERO PUSH2 0x244E JUMPI DUP1 DUP3 ADD MLOAD DUP2 DUP5 ADD MSTORE PUSH1 0x20 DUP2 ADD SWAP1 POP PUSH2 0x2433 JUMP JUMPDEST PUSH1 0x0 DUP5 DUP5 ADD MSTORE POP POP POP POP JUMP JUMPDEST PUSH1 0x0 PUSH1 0x1F NOT PUSH1 0x1F DUP4 ADD AND SWAP1 POP SWAP2 SWAP1 POP JUMP JUMPDEST PUSH1 0x0 PUSH2 0x2476 DUP3 PUSH2 0x2414 JUMP JUMPDEST PUSH2 0x2480 DUP2 DUP6 PUSH2 0x241F JUMP JUMPDEST SWAP4 POP PUSH2 0x2490 DUP2 DUP6 PUSH1 0x20 DUP7 ADD PUSH2 0x2430 JUMP JUMPDEST PUSH2 0x2499 DUP2 PUSH2 0x245A JUMP JUMPDEST DUP5 ADD SWAP2 POP POP SWAP3 SWAP2 POP POP JUMP JUMPDEST PUSH1 0x0 PUSH1 0x20 DUP3 ADD SWAP1 POP DUP2 DUP2 SUB PUSH1 0x0 DUP4 ADD MSTORE PUSH2 0x24BE DUP2 DUP5 PUSH2 0x246B JUMP JUMPDEST SWAP1 POP SWAP3 SWAP2 POP POP JUMP JUMPDEST PUSH1 0x0 DUP2 SWAP1 POP SWAP2 SWAP1 POP JUMP JUMPDEST PUSH2 0x24D9 DUP2 PUSH2 0x24C6 JUMP JUMPDEST DUP2 EQ PUSH2 0x24E4 JUMPI PUSH1 0x0 DUP1 REVERT JUMPDEST POP JUMP JUMPDEST PUSH1 0x0 DUP2 CALLDATALOAD SWAP1 POP PUSH2 0x24F6 DUP2 PUSH2 0x24D0 JUMP JUMPDEST SWAP3 SWAP2 POP POP JUMP JUMPDEST PUSH1 0x0 PUSH1 0x20 DUP3 DUP5 SUB SLT ISZERO PUSH2 0x2512 JUMPI PUSH2 0x2511 PUSH2 0x234F JUMP JUMPDEST JUMPDEST PUSH1 0x0 PUSH2 0x2520 DUP5 DUP3 DUP6 ADD PUSH2 0x24E7 JUMP JUMPDEST SWAP2 POP POP SWAP3 SWAP2 POP POP JUMP JUMPDEST PUSH1 0x0 PUSH20 0xFFFFFFFFFFFFFFFFFFFFFFFFFFFFFFFFFFFFFFFF DUP3 AND SWAP1 POP SWAP2 SWAP1 POP JUMP JUMPDEST PUSH1 0x0 PUSH2 0x2554 DUP3 PUSH2 0x2529 JUMP JUMPDEST SWAP1 POP SWAP2 SWAP1 POP JUMP JUMPDEST PUSH2 0x2564 DUP2 PUSH2 0x2549 JUMP JUMPDEST DUP3 MSTORE POP POP JUMP JUMPDEST PUSH1 0x0 PUSH1 0x20 DUP3 ADD SWAP1 POP PUSH2 0x257F PUSH1 0x0 DUP4 ADD DUP5 PUSH2 0x255B JUMP JUMPDEST SWAP3 SWAP2 POP POP JUMP JUMPDEST PUSH2 0x258E DUP2 PUSH2 0x2549 JUMP JUMPDEST DUP2 EQ PUSH2 0x2599 JUMPI PUSH1 0x0 DUP1 REVERT JUMPDEST POP JUMP JUMPDEST PUSH1 0x0 DUP2 CALLDATALOAD SWAP1 POP PUSH2 0x25AB DUP2 PUSH2 0x2585 JUMP JUMPDEST SWAP3 SWAP2 POP POP JUMP JUMPDEST PUSH1 0x0 DUP1 PUSH1 0x40 DUP4 DUP6 SUB SLT ISZERO PUSH2 0x25C8 JUMPI PUSH2 0x25C7 PUSH2 0x234F JUMP JUMPDEST JUMPDEST PUSH1 0x0 PUSH2 0x25D6 DUP6 DUP3 DUP7 ADD PUSH2 0x259C JUMP JUMPDEST SWAP3 POP POP PUSH1 0x20 PUSH2 0x25E7 DUP6 DUP3 DUP7 ADD PUSH2 0x24E7 JUMP JUMPDEST SWAP2 POP POP SWAP3 POP SWAP3 SWAP1 POP JUMP JUMPDEST PUSH2 0x25FA DUP2 PUSH2 0x24C6 JUMP JUMPDEST DUP3 MSTORE POP POP JUMP JUMPDEST PUSH1 0x0 PUSH1 0x20 DUP3 ADD SWAP1 POP PUSH2 0x2615 PUSH1 0x0 DUP4 ADD DUP5 PUSH2 0x25F1 JUMP JUMPDEST SWAP3 SWAP2 POP POP JUMP JUMPDEST PUSH1 0x0 DUP1 PUSH1 0x0 PUSH1 0x60 DUP5 DUP7 SUB SLT ISZERO PUSH2 0x2634 JUMPI PUSH2 0x2633 PUSH2 0x234F JUMP JUMPDEST JUMPDEST PUSH1 0x0 PUSH2 0x2642 DUP7 DUP3 DUP8 ADD PUSH2 0x259C JUMP JUMPDEST SWAP4 POP POP PUSH1 0x20 PUSH2 0x2653 DUP7 DUP3 DUP8 ADD PUSH2 0x259C JUMP JUMPDEST SWAP3 POP POP PUSH1 0x40 PUSH2 0x2664 DUP7 DUP3 DUP8 ADD PUSH2 0x24E7 JUMP JUMPDEST SWAP2 POP POP SWAP3 POP SWAP3 POP SWAP3 JUMP JUMPDEST PUSH1 0x0 PUSH8 0xFFFFFFFFFFFFFFFF DUP3 AND SWAP1 POP SWAP2 SWAP1 POP JUMP JUMPDEST PUSH2 0x268B DUP2 PUSH2 0x266E JUMP JUMPDEST DUP3 MSTORE POP POP JUMP JUMPDEST PUSH1 0x0 PUSH1 0x20 DUP3 ADD SWAP1 POP PUSH2 0x26A6 PUSH1 0x0 DUP4 ADD DUP5 PUSH2 0x2682 JUMP JUMPDEST SWAP3 SWAP2 POP POP JUMP JUMPDEST PUSH1 0x0 PUSH12 0xFFFFFFFFFFFFFFFFFFFFFFFF DUP3 AND SWAP1 POP SWAP2 SWAP1 POP JUMP JUMPDEST PUSH2 0x26CD DUP2 PUSH2 0x26AC JUMP JUMPDEST DUP3 MSTORE POP POP JUMP JUMPDEST PUSH1 0x0 PUSH1 0x20 DUP3 ADD SWAP1 POP PUSH2 0x26E8 PUSH1 0x0 DUP4 ADD DUP5 PUSH2 0x26C4 JUMP JUMPDEST SWAP3 SWAP2 POP POP JUMP JUMPDEST PUSH1 0x0 DUP1 REVERT JUMPDEST PUSH1 0x0 DUP1 REVERT JUMPDEST PUSH32 0x4E487B7100000000000000000000000000000000000000000000000000000000 PUSH1 0x0 MSTORE PUSH1 0x41 PUSH1 0x4 MSTORE PUSH1 0x24 PUSH1 0x0 REVERT JUMPDEST PUSH2 0x2730 DUP3 PUSH2 0x245A JUMP JUMPDEST DUP2 ADD DUP2 DUP2 LT PUSH8 0xFFFFFFFFFFFFFFFF DUP3 GT OR ISZERO PUSH2 0x274F JUMPI PUSH2 0x274E PUSH2 0x26F8 JUMP JUMPDEST JUMPDEST DUP1 PUSH1 0x40 MSTORE POP POP POP JUMP JUMPDEST PUSH1 0x0 PUSH2 0x2762 PUSH2 0x2345 JUMP JUMPDEST SWAP1 POP PUSH2 0x276E DUP3 DUP3 PUSH2 0x2727 JUMP JUMPDEST SWAP2 SWAP1 POP JUMP JUMPDEST PUSH1 0x0 PUSH8 0xFFFFFFFFFFFFFFFF DUP3 GT ISZERO PUSH2 0x278E JUMPI PUSH2 0x278D PUSH2 0x26F8 JUMP JUMPDEST JUMPDEST PUSH2 0x2797 DUP3 PUSH2 0x245A JUMP JUMPDEST SWAP1 POP PUSH1 0x20 DUP2 ADD SWAP1 POP SWAP2 SWAP1 POP JUMP JUMPDEST DUP3 DUP2 DUP4 CALLDATACOPY PUSH1 0x0 DUP4 DUP4 ADD MSTORE POP POP POP JUMP JUMPDEST PUSH1 0x0 PUSH2 0x27C6 PUSH2 0x27C1 DUP5 PUSH2 0x2773 JUMP JUMPDEST PUSH2 0x2758 JUMP JUMPDEST SWAP1 POP DUP3 DUP2 MSTORE PUSH1 0x20 DUP2 ADD DUP5 DUP5 DUP5 ADD GT ISZERO PUSH2 0x27E2 JUMPI PUSH2 0x27E1 PUSH2 0x26F3 JUMP JUMPDEST JUMPDEST PUSH2 0x27ED DUP5 DUP3 DUP6 PUSH2 0x27A4 JUMP JUMPDEST POP SWAP4 SWAP3 POP POP POP JUMP JUMPDEST PUSH1 0x0 DUP3 PUSH1 0x1F DUP4 ADD SLT PUSH2 0x280A JUMPI PUSH2 0x2809 PUSH2 0x26EE JUMP JUMPDEST JUMPDEST DUP2 CALLDATALOAD PUSH2 0x281A DUP5 DUP3 PUSH1 0x20 DUP7 ADD PUSH2 0x27B3 JUMP JUMPDEST SWAP2 POP POP SWAP3 SWAP2 POP POP JUMP JUMPDEST PUSH1 0x0 PUSH1 0x20 DUP3 DUP5 SUB SLT ISZERO PUSH2 0x2839 JUMPI PUSH2 0x2838 PUSH2 0x234F JUMP JUMPDEST JUMPDEST PUSH1 0x0 DUP3 ADD CALLDATALOAD PUSH8 0xFFFFFFFFFFFFFFFF DUP2 GT ISZERO PUSH2 0x2857 JUMPI PUSH2 0x2856 PUSH2 0x2354 JUMP JUMPDEST JUMPDEST PUSH2 0x2863 DUP5 DUP3 DUP6 ADD PUSH2 0x27F5 JUMP JUMPDEST SWAP2 POP POP SWAP3 SWAP2 POP POP JUMP JUMPDEST PUSH1 0x0 PUSH1 0x20 DUP3 DUP5 SUB SLT ISZERO PUSH2 0x2882 JUMPI PUSH2 0x2881 PUSH2 0x234F JUMP JUMPDEST JUMPDEST PUSH1 0x0 PUSH2 0x2890 DUP5 DUP3 DUP6 ADD PUSH2 0x259C JUMP JUMPDEST SWAP2 POP POP SWAP3 SWAP2 POP POP JUMP JUMPDEST PUSH1 0x0 DUP1 REVERT JUMPDEST PUSH1 0x0 DUP1 REVERT JUMPDEST PUSH1 0x0 DUP1 DUP4 PUSH1 0x1F DUP5 ADD SLT PUSH2 0x28B9 JUMPI PUSH2 0x28B8 PUSH2 0x26EE JUMP JUMPDEST JUMPDEST DUP3 CALLDATALOAD SWAP1 POP PUSH8 0xFFFFFFFFFFFFFFFF DUP2 GT ISZERO PUSH2 0x28D6 JUMPI PUSH2 0x28D5 PUSH2 0x2899 JUMP JUMPDEST JUMPDEST PUSH1 0x20 DUP4 ADD SWAP2 POP DUP4 PUSH1 0x20 DUP3 MUL DUP4 ADD GT ISZERO PUSH2 0x28F2 JUMPI PUSH2 0x28F1 PUSH2 0x289E JUMP JUMPDEST JUMPDEST SWAP3 POP SWAP3 SWAP1 POP JUMP JUMPDEST PUSH1 0x0 DUP1 PUSH1 0x20 DUP4 DUP6 SUB SLT ISZERO PUSH2 0x2910 JUMPI PUSH2 0x290F PUSH2 0x234F JUMP JUMPDEST JUMPDEST PUSH1 0x0 DUP4 ADD CALLDATALOAD PUSH8 0xFFFFFFFFFFFFFFFF DUP2 GT ISZERO PUSH2 0x292E JUMPI PUSH2 0x292D PUSH2 0x2354 JUMP JUMPDEST JUMPDEST PUSH2 0x293A DUP6 DUP3 DUP7 ADD PUSH2 0x28A3 JUMP JUMPDEST SWAP3 POP SWAP3 POP POP SWAP3 POP SWAP3 SWAP1 POP JUMP JUMPDEST PUSH1 0x0 DUP1 PUSH1 0x0 DUP1 PUSH1 0x0 DUP1 PUSH1 0x0 DUP1 PUSH1 0x0 DUP1 PUSH2 0x140 DUP12 DUP14 SUB SLT ISZERO PUSH2 0x296A JUMPI PUSH2 0x2969 PUSH2 0x234F JUMP JUMPDEST JUMPDEST PUSH1 0x0 DUP12 ADD CALLDATALOAD PUSH8 0xFFFFFFFFFFFFFFFF DUP2 GT ISZERO PUSH2 0x2988 JUMPI PUSH2 0x2987 PUSH2 0x2354 JUMP JUMPDEST JUMPDEST PUSH2 0x2994 DUP14 DUP3 DUP15 ADD PUSH2 0x27F5 JUMP JUMPDEST SWAP11 POP POP PUSH1 0x20 DUP12 ADD CALLDATALOAD PUSH8 0xFFFFFFFFFFFFFFFF DUP2 GT ISZERO PUSH2 0x29B5 JUMPI PUSH2 0x29B4 PUSH2 0x2354 JUMP JUMPDEST JUMPDEST PUSH2 0x29C1 DUP14 DUP3 DUP15 ADD PUSH2 0x27F5 JUMP JUMPDEST SWAP10 POP POP PUSH1 0x40 DUP12 ADD CALLDATALOAD PUSH8 0xFFFFFFFFFFFFFFFF DUP2 GT ISZERO PUSH2 0x29E2 JUMPI PUSH2 0x29E1 PUSH2 0x2354 JUMP JUMPDEST JUMPDEST PUSH2 0x29EE DUP14 DUP3 DUP15 ADD PUSH2 0x27F5 JUMP JUMPDEST SWAP9 POP POP PUSH1 0x60 PUSH2 0x29FF DUP14 DUP3 DUP15 ADD PUSH2 0x24E7 JUMP JUMPDEST SWAP8 POP POP PUSH1 0x80 PUSH2 0x2A10 DUP14 DUP3 DUP15 ADD PUSH2 0x24E7 JUMP JUMPDEST SWAP7 POP POP PUSH1 0xA0 PUSH2 0x2A21 DUP14 DUP3 DUP15 ADD PUSH2 0x24E7 JUMP JUMPDEST SWAP6 POP POP PUSH1 0xC0 PUSH2 0x2A32 DUP14 DUP3 DUP15 ADD PUSH2 0x24E7 JUMP JUMPDEST SWAP5 POP POP PUSH1 0xE0 PUSH2 0x2A43 DUP14 DUP3 DUP15 ADD PUSH2 0x24E7 JUMP JUMPDEST SWAP4 POP POP PUSH2 0x100 PUSH2 0x2A55 DUP14 DUP3 DUP15 ADD PUSH2 0x259C JUMP JUMPDEST SWAP3 POP POP PUSH2 0x120 PUSH2 0x2A67 DUP14 DUP3 DUP15 ADD PUSH2 0x259C JUMP JUMPDEST SWAP2 POP POP SWAP3 SWAP6 SWAP9 SWAP12 SWAP2 SWAP5 SWAP8 SWAP11 POP SWAP3 SWAP6 SWAP9 POP JUMP JUMPDEST PUSH2 0x2A82 DUP2 PUSH2 0x23DE JUMP JUMPDEST DUP2 EQ PUSH2 0x2A8D JUMPI PUSH1 0x0 DUP1 REVERT JUMPDEST POP JUMP JUMPDEST PUSH1 0x0 DUP2 CALLDATALOAD SWAP1 POP PUSH2 0x2A9F DUP2 PUSH2 0x2A79 JUMP JUMPDEST SWAP3 SWAP2 POP POP JUMP JUMPDEST PUSH1 0x0 DUP1 PUSH1 0x40 DUP4 DUP6 SUB SLT ISZERO PUSH2 0x2ABC JUMPI PUSH2 0x2ABB PUSH2 0x234F JUMP JUMPDEST JUMPDEST PUSH1 0x0 PUSH2 0x2ACA DUP6 DUP3 DUP7 ADD PUSH2 0x259C JUMP JUMPDEST SWAP3 POP POP PUSH1 0x20 PUSH2 0x2ADB DUP6 DUP3 DUP7 ADD PUSH2 0x2A90 JUMP JUMPDEST SWAP2 POP POP SWAP3 POP SWAP3 SWAP1 POP JUMP JUMPDEST PUSH1 0x0 PUSH8 0xFFFFFFFFFFFFFFFF DUP3 GT ISZERO PUSH2 0x2B00 JUMPI PUSH2 0x2AFF PUSH2 0x26F8 JUMP JUMPDEST JUMPDEST PUSH2 0x2B09 DUP3 PUSH2 0x245A JUMP JUMPDEST SWAP1 POP PUSH1 0x20 DUP2 ADD SWAP1 POP SWAP2 SWAP1 POP JUMP JUMPDEST PUSH1 0x0 PUSH2 0x2B29 PUSH2 0x2B24 DUP5 PUSH2 0x2AE5 JUMP JUMPDEST PUSH2 0x2758 JUMP JUMPDEST SWAP1 POP DUP3 DUP2 MSTORE PUSH1 0x20 DUP2 ADD DUP5 DUP5 DUP5 ADD GT ISZERO PUSH2 0x2B45 JUMPI PUSH2 0x2B44 PUSH2 0x26F3 JUMP JUMPDEST JUMPDEST PUSH2 0x2B50 DUP5 DUP3 DUP6 PUSH2 0x27A4 JUMP JUMPDEST POP SWAP4 SWAP3 POP POP POP JUMP JUMPDEST PUSH1 0x0 DUP3 PUSH1 0x1F DUP4 ADD SLT PUSH2 0x2B6D JUMPI PUSH2 0x2B6C PUSH2 0x26EE JUMP JUMPDEST JUMPDEST DUP2 CALLDATALOAD PUSH2 0x2B7D DUP5 DUP3 PUSH1 0x20 DUP7 ADD PUSH2 0x2B16 JUMP JUMPDEST SWAP2 POP POP SWAP3 SWAP2 POP POP JUMP JUMPDEST PUSH1 0x0 DUP1 PUSH1 0x0 DUP1 PUSH1 0x80 DUP6 DUP8 SUB SLT ISZERO PUSH2 0x2BA0 JUMPI PUSH2 0x2B9F PUSH2 0x234F JUMP JUMPDEST JUMPDEST PUSH1 0x0 PUSH2 0x2BAE DUP8 DUP3 DUP9 ADD PUSH2 0x259C JUMP JUMPDEST SWAP5 POP POP PUSH1 0x20 PUSH2 0x2BBF DUP8 DUP3 DUP9 ADD PUSH2 0x259C JUMP JUMPDEST SWAP4 POP POP PUSH1 0x40 PUSH2 0x2BD0 DUP8 DUP3 DUP9 ADD PUSH2 0x24E7 JUMP JUMPDEST SWAP3 POP POP PUSH1 0x60 DUP6 ADD CALLDATALOAD PUSH8 0xFFFFFFFFFFFFFFFF DUP2 GT ISZERO PUSH2 0x2BF1 JUMPI PUSH2 0x2BF0 PUSH2 0x2354 JUMP JUMPDEST JUMPDEST PUSH2 0x2BFD DUP8 DUP3 DUP9 ADD PUSH2 0x2B58 JUMP JUMPDEST SWAP2 POP POP SWAP3 SWAP6 SWAP2 SWAP5 POP SWAP3 POP JUMP JUMPDEST PUSH1 0x0 DUP1 PUSH1 0x40 DUP4 DUP6 SUB SLT ISZERO PUSH2 0x2C20 JUMPI PUSH2 0x2C1F PUSH2 0x234F JUMP JUMPDEST JUMPDEST PUSH1 0x0 PUSH2 0x2C2E DUP6 DUP3 DUP7 ADD PUSH2 0x259C JUMP JUMPDEST SWAP3 POP POP PUSH1 0x20 PUSH2 0x2C3F DUP6 DUP3 DUP7 ADD PUSH2 0x259C JUMP JUMPDEST SWAP2 POP POP SWAP3 POP SWAP3 SWAP1 POP JUMP JUMPDEST PUSH32 0x4E487B7100000000000000000000000000000000000000000000000000000000 PUSH1 0x0 MSTORE PUSH1 0x22 PUSH1 0x4 MSTORE PUSH1 0x24 PUSH1 0x0 REVERT JUMPDEST PUSH1 0x0 PUSH1 0x2 DUP3 DIV SWAP1 POP PUSH1 0x1 DUP3 AND DUP1 PUSH2 0x2C90 JUMPI PUSH1 0x7F DUP3 AND SWAP2 POP JUMPDEST PUSH1 0x20 DUP3 LT DUP2 SUB PUSH2 0x2CA3 JUMPI PUSH2 0x2CA2 PUSH2 0x2C49 JUMP JUMPDEST JUMPDEST POP SWAP2 SWAP1 POP JUMP JUMPDEST PUSH32 0x4E6F2062616C616E636520746F20776974686472617700000000000000000000 PUSH1 0x0 DUP3 ADD MSTORE POP JUMP JUMPDEST PUSH1 0x0 PUSH2 0x2CDF PUSH1 0x16 DUP4 PUSH2 0x241F JUMP JUMPDEST SWAP2 POP PUSH2 0x2CEA DUP3 PUSH2 0x2CA9 JUMP JUMPDEST PUSH1 0x20 DUP3 ADD SWAP1 POP SWAP2 SWAP1 POP JUMP JUMPDEST PUSH1 0x0 PUSH1 0x20 DUP3 ADD SWAP1 POP DUP2 DUP2 SUB PUSH1 0x0 DUP4 ADD MSTORE PUSH2 0x2D0E DUP2 PUSH2 0x2CD2 JUMP JUMPDEST SWAP1 POP SWAP2 SWAP1 POP JUMP JUMPDEST PUSH32 0x4E487B7100000000000000000000000000000000000000000000000000000000 PUSH1 0x0 MSTORE PUSH1 0x11 PUSH1 0x4 MSTORE PUSH1 0x24 PUSH1 0x0 REVERT JUMPDEST PUSH1 0x0 PUSH2 0x2D4F DUP3 PUSH2 0x24C6 JUMP JUMPDEST SWAP2 POP PUSH2 0x2D5A DUP4 PUSH2 0x24C6 JUMP JUMPDEST SWAP3 POP DUP3 DUP3 MUL PUSH2 0x2D68 DUP2 PUSH2 0x24C6 JUMP JUMPDEST SWAP2 POP DUP3 DUP3 DIV DUP5 EQ DUP4 ISZERO OR PUSH2 0x2D7F JUMPI PUSH2 0x2D7E PUSH2 0x2D15 JUMP JUMPDEST JUMPDEST POP SWAP3 SWAP2 POP POP JUMP JUMPDEST PUSH32 0x4E487B7100000000000000000000000000000000000000000000000000000000 PUSH1 0x0 MSTORE PUSH1 0x12 PUSH1 0x4 MSTORE PUSH1 0x24 PUSH1 0x0 REVERT JUMPDEST PUSH1 0x0 PUSH2 0x2DC0 DUP3 PUSH2 0x24C6 JUMP JUMPDEST SWAP2 POP PUSH2 0x2DCB DUP4 PUSH2 0x24C6 JUMP JUMPDEST SWAP3 POP DUP3 PUSH2 0x2DDB JUMPI PUSH2 0x2DDA PUSH2 0x2D86 JUMP JUMPDEST JUMPDEST DUP3 DUP3 DIV SWAP1 POP SWAP3 SWAP2 POP POP JUMP JUMPDEST PUSH1 0x0 PUSH2 0x2DF1 DUP3 PUSH2 0x24C6 JUMP JUMPDEST SWAP2 POP PUSH2 0x2DFC DUP4 PUSH2 0x24C6 JUMP JUMPDEST SWAP3 POP DUP3 DUP3 SUB SWAP1 POP DUP2 DUP2 GT ISZERO PUSH2 0x2E14 JUMPI PUSH2 0x2E13 PUSH2 0x2D15 JUMP JUMPDEST JUMPDEST SWAP3 SWAP2 POP POP JUMP JUMPDEST PUSH1 0x0 DUP2 SWAP1 POP SWAP3 SWAP2 POP POP JUMP JUMPDEST POP JUMP JUMPDEST PUSH1 0x0 PUSH2 0x2E35 PUSH1 0x0 DUP4 PUSH2 0x2E1A JUMP JUMPDEST SWAP2 POP PUSH2 0x2E40 DUP3 PUSH2 0x2E25 JUMP JUMPDEST PUSH1 0x0 DUP3 ADD SWAP1 POP SWAP2 SWAP1 POP JUMP JUMPDEST PUSH1 0x0 PUSH2 0x2E56 DUP3 PUSH2 0x2E28 JUMP JUMPDEST SWAP2 POP DUP2 SWAP1 POP SWAP2 SWAP1 POP JUMP JUMPDEST PUSH32 0x506C6174666F726D20666565207472616E73666572206661696C656400000000 PUSH1 0x0 DUP3 ADD MSTORE POP JUMP JUMPDEST PUSH1 0x0 PUSH2 0x2E96 PUSH1 0x1C DUP4 PUSH2 0x241F JUMP JUMPDEST SWAP2 POP PUSH2 0x2EA1 DUP3 PUSH2 0x2E60 JUMP JUMPDEST PUSH1 0x20 DUP3 ADD SWAP1 POP SWAP2 SWAP1 POP JUMP JUMPDEST PUSH1 0x0 PUSH1 0x20 DUP3 ADD SWAP1 POP DUP2 DUP2 SUB PUSH1 0x0 DUP4 ADD MSTORE PUSH2 0x2EC5 DUP2 PUSH2 0x2E89 JUMP JUMPDEST SWAP1 POP SWAP2 SWAP1 POP JUMP JUMPDEST PUSH32 0x4F776E6572207472616E73666572206661696C65640000000000000000000000 PUSH1 0x0 DUP3 ADD MSTORE POP JUMP JUMPDEST PUSH1 0x0 PUSH2 0x2F02 PUSH1 0x15 DUP4 PUSH2 0x241F JUMP JUMPDEST SWAP2 POP PUSH2 0x2F0D DUP3 PUSH2 0x2ECC JUMP JUMPDEST PUSH1 0x20 DUP3 ADD SWAP1 POP SWAP2 SWAP1 POP JUMP JUMPDEST PUSH1 0x0 PUSH1 0x20 DUP3 ADD SWAP1 POP DUP2 DUP2 SUB PUSH1 0x0 DUP4 ADD MSTORE PUSH2 0x2F31 DUP2 PUSH2 0x2EF5 JUMP JUMPDEST SWAP1 POP SWAP2 SWAP1 POP JUMP JUMPDEST PUSH1 0x0 DUP2 SWAP1 POP DUP2 PUSH1 0x0 MSTORE PUSH1 0x20 PUSH1 0x0 KECCAK256 SWAP1 POP SWAP2 SWAP1 POP JUMP JUMPDEST PUSH1 0x0 PUSH1 0x20 PUSH1 0x1F DUP4 ADD DIV SWAP1 POP SWAP2 SWAP1 POP JUMP JUMPDEST PUSH1 0x0 DUP3 DUP3 SHL SWAP1 POP SWAP3 SWAP2 POP POP JUMP JUMPDEST PUSH1 0x0 PUSH1 0x8 DUP4 MUL PUSH2 0x2F9A PUSH32 0xFFFFFFFFFFFFFFFFFFFFFFFFFFFFFFFFFFFFFFFFFFFFFFFFFFFFFFFFFFFFFFFF DUP3 PUSH2 0x2F5D JUMP JUMPDEST PUSH2 0x2FA4 DUP7 DUP4 PUSH2 0x2F5D JUMP JUMPDEST SWAP6 POP DUP1 NOT DUP5 AND SWAP4 POP DUP1 DUP7 AND DUP5 OR SWAP3 POP POP POP SWAP4 SWAP3 POP POP POP JUMP JUMPDEST PUSH1 0x0 DUP2 SWAP1 POP SWAP2 SWAP1 POP JUMP JUMPDEST PUSH1 0x0 PUSH2 0x2FE1 PUSH2 0x2FDC PUSH2 0x2FD7 DUP5 PUSH2 0x24C6 JUMP JUMPDEST PUSH2 0x2FBC JUMP JUMPDEST PUSH2 0x24C6 JUMP JUMPDEST SWAP1 POP SWAP2 SWAP1 POP JUMP JUMPDEST PUSH1 0x0 DUP2 SWAP1 POP SWAP2 SWAP1 POP JUMP JUMPDEST PUSH2 0x2FFB DUP4 PUSH2 0x2FC6 JUMP JUMPDEST PUSH2 0x300F PUSH2 0x3007 DUP3 PUSH2 0x2FE8 JUMP JUMPDEST DUP5 DUP5 SLOAD PUSH2 0x2F6A JUMP JUMPDEST DUP3 SSTORE POP POP POP POP JUMP JUMPDEST PUSH1 0x0 SWAP1 JUMP JUMPDEST PUSH2 0x3024 PUSH2 0x3017 JUMP JUMPDEST PUSH2 0x302F DUP2 DUP5 DUP5 PUSH2 0x2FF2 JUMP JUMPDEST POP POP POP JUMP JUMPDEST JUMPDEST DUP2 DUP2 LT ISZERO PUSH2 0x3053 JUMPI PUSH2 0x3048 PUSH1 0x0 DUP3 PUSH2 0x301C JUMP JUMPDEST PUSH1 0x1 DUP2 ADD SWAP1 POP PUSH2 0x3035 JUMP JUMPDEST POP POP JUMP JUMPDEST PUSH1 0x1F DUP3 GT ISZERO PUSH2 0x3098 JUMPI PUSH2 0x3069 DUP2 PUSH2 0x2F38 JUMP JUMPDEST PUSH2 0x3072 DUP5 PUSH2 0x2F4D JUMP JUMPDEST DUP2 ADD PUSH1 0x20 DUP6 LT ISZERO PUSH2 0x3081 JUMPI DUP2 SWAP1 POP JUMPDEST PUSH2 0x3095 PUSH2 0x308D DUP6 PUSH2 0x2F4D JUMP JUMPDEST DUP4 ADD DUP3 PUSH2 0x3034 JUMP JUMPDEST POP POP JUMPDEST POP POP POP JUMP JUMPDEST PUSH1 0x0 DUP3 DUP3 SHR SWAP1 POP SWAP3 SWAP2 POP POP JUMP JUMPDEST PUSH1 0x0 PUSH2 0x30BB PUSH1 0x0 NOT DUP5 PUSH1 0x8 MUL PUSH2 0x309D JUMP JUMPDEST NOT DUP1 DUP4 AND SWAP2 POP POP SWAP3 SWAP2 POP POP JUMP JUMPDEST PUSH1 0x0 PUSH2 0x30D4 DUP4 DUP4 PUSH2 0x30AA JUMP JUMPDEST SWAP2 POP DUP3 PUSH1 0x2 MUL DUP3 OR SWAP1 POP SWAP3 SWAP2 POP POP JUMP JUMPDEST PUSH2 0x30ED DUP3 PUSH2 0x2414 JUMP JUMPDEST PUSH8 0xFFFFFFFFFFFFFFFF DUP2 GT ISZERO PUSH2 0x3106 JUMPI PUSH2 0x3105 PUSH2 0x26F8 JUMP JUMPDEST JUMPDEST PUSH2 0x3110 DUP3 SLOAD PUSH2 0x2C78 JUMP JUMPDEST PUSH2 0x311B DUP3 DUP3 DUP6 PUSH2 0x3057 JUMP JUMPDEST PUSH1 0x0 PUSH1 0x20 SWAP1 POP PUSH1 0x1F DUP4 GT PUSH1 0x1 DUP2 EQ PUSH2 0x314E JUMPI PUSH1 0x0 DUP5 ISZERO PUSH2 0x313C JUMPI DUP3 DUP8 ADD MLOAD SWAP1 POP JUMPDEST PUSH2 0x3146 DUP6 DUP3 PUSH2 0x30C8 JUMP JUMPDEST DUP7 SSTORE POP PUSH2 0x31AE JUMP JUMPDEST PUSH1 0x1F NOT DUP5 AND PUSH2 0x315C DUP7 PUSH2 0x2F38 JUMP JUMPDEST PUSH1 0x0 JUMPDEST DUP3 DUP2 LT ISZERO PUSH2 0x3184 JUMPI DUP5 DUP10 ADD MLOAD DUP3 SSTORE PUSH1 0x1 DUP3 ADD SWAP2 POP PUSH1 0x20 DUP6 ADD SWAP5 POP PUSH1 0x20 DUP2 ADD SWAP1 POP PUSH2 0x315F JUMP JUMPDEST DUP7 DUP4 LT ISZERO PUSH2 0x31A1 JUMPI DUP5 DUP10 ADD MLOAD PUSH2 0x319D PUSH1 0x1F DUP10 AND DUP3 PUSH2 0x30AA JUMP JUMPDEST DUP4 SSTORE POP JUMPDEST PUSH1 0x1 PUSH1 0x2 DUP9 MUL ADD DUP9 SSTORE POP POP POP JUMPDEST POP POP POP POP POP POP JUMP JUMPDEST PUSH1 0x0 PUSH2 0x31C1 DUP3 PUSH2 0x24C6 JUMP JUMPDEST SWAP2 POP PUSH2 0x31CC DUP4 PUSH2 0x24C6 JUMP JUMPDEST SWAP3 POP DUP3 DUP3 ADD SWAP1 POP DUP1 DUP3 GT ISZERO PUSH2 0x31E4 JUMPI PUSH2 0x31E3 PUSH2 0x2D15 JUMP JUMPDEST JUMPDEST SWAP3 SWAP2 POP POP JUMP JUMPDEST PUSH32 0x4D617820737570706C7920726561636865640000000000000000000000000000 PUSH1 0x0 DUP3 ADD MSTORE POP JUMP JUMPDEST PUSH1 0x0 PUSH2 0x3220 PUSH1 0x12 DUP4 PUSH2 0x241F JUMP JUMPDEST SWAP2 POP PUSH2 0x322B DUP3 PUSH2 0x31EA JUMP JUMPDEST PUSH1 0x20 DUP3 ADD SWAP1 POP SWAP2 SWAP1 POP JUMP JUMPDEST PUSH1 0x0 PUSH1 0x20 DUP3 ADD SWAP1 POP DUP2 DUP2 SUB PUSH1 0x0 DUP4 ADD MSTORE PUSH2 0x324F DUP2 PUSH2 0x3213 JUMP JUMPDEST SWAP1 POP SWAP2 SWAP1 POP JUMP JUMPDEST PUSH32 0x4E487B7100000000000000000000000000000000000000000000000000000000 PUSH1 0x0 MSTORE PUSH1 0x32 PUSH1 0x4 MSTORE PUSH1 0x24 PUSH1 0x0 REVERT JUMPDEST PUSH32 0x416C726561647920696E697469616C697A656400000000000000000000000000 PUSH1 0x0 DUP3 ADD MSTORE POP JUMP JUMPDEST PUSH1 0x0 PUSH2 0x32BB PUSH1 0x13 DUP4 PUSH2 0x241F JUMP JUMPDEST SWAP2 POP PUSH2 0x32C6 DUP3 PUSH2 0x3285 JUMP JUMPDEST PUSH1 0x20 DUP3 ADD SWAP1 POP SWAP2 SWAP1 POP JUMP JUMPDEST PUSH1 0x0 PUSH1 0x20 DUP3 ADD SWAP1 POP DUP2 DUP2 SUB PUSH1 0x0 DUP4 ADD MSTORE PUSH2 0x32EA DUP2 PUSH2 0x32AE JUMP JUMPDEST SWAP1 POP SWAP2 SWAP1 POP JUMP JUMPDEST PUSH32 0x5175616E74697479206D757374206265203E2030000000000000000000000000 PUSH1 0x0 DUP3 ADD MSTORE POP JUMP JUMPDEST PUSH1 0x0 PUSH2 0x3327 PUSH1 0x14 DUP4 PUSH2 0x241F JUMP JUMPDEST SWAP2 POP PUSH2 0x3332 DUP3 PUSH2 0x32F1 JUMP JUMPDEST PUSH1 0x20 DUP3 ADD SWAP1 POP SWAP2 SWAP1 POP JUMP JUMPDEST PUSH1 0x0 PUSH1 0x20 DUP3 ADD SWAP1 POP DUP2 DUP2 SUB PUSH1 0x0 DUP4 ADD MSTORE PUSH2 0x3356 DUP2 PUSH2 0x331A JUMP JUMPDEST SWAP1 POP SWAP2 SWAP1 POP JUMP JUMPDEST PUSH32 0x45786365656473206D617820737570706C790000000000000000000000000000 PUSH1 0x0 DUP3 ADD MSTORE POP JUMP JUMPDEST PUSH1 0x0 PUSH2 0x3393 PUSH1 0x12 DUP4 PUSH2 0x241F JUMP JUMPDEST SWAP2 POP PUSH2 0x339E DUP3 PUSH2 0x335D JUMP JUMPDEST PUSH1 0x20 DUP3 ADD SWAP1 POP SWAP2 SWAP1 POP JUMP JUMPDEST PUSH1 0x0 PUSH1 0x20 DUP3 ADD SWAP1 POP DUP2 DUP2 SUB PUSH1 0x0 DUP4 ADD MSTORE PUSH2 0x33C2 DUP2 PUSH2 0x3386 JUMP JUMPDEST SWAP1 POP SWAP2 SWAP1 POP JUMP JUMPDEST PUSH32 0x45786365656473206D6178207065722077616C6C657400000000000000000000 PUSH1 0x0 DUP3 ADD MSTORE POP JUMP JUMPDEST PUSH1 0x0 PUSH2 0x33FF PUSH1 0x16 DUP4 PUSH2 0x241F JUMP JUMPDEST SWAP2 POP PUSH2 0x340A DUP3 PUSH2 0x33C9 JUMP JUMPDEST PUSH1 0x20 DUP3 ADD SWAP1 POP SWAP2 SWAP1 POP JUMP JUMPDEST PUSH1 0x0 PUSH1 0x20 DUP3 ADD SWAP1 POP DUP2 DUP2 SUB PUSH1 0x0 DUP4 ADD MSTORE PUSH2 0x342E DUP2 PUSH2 0x33F2 JUMP JUMPDEST SWAP1 POP SWAP2 SWAP1 POP JUMP JUMPDEST PUSH32 0x496E73756666696369656E74207061796D656E74000000000000000000000000 PUSH1 0x0 DUP3 ADD MSTORE POP JUMP JUMPDEST PUSH1 0x0 PUSH2 0x346B PUSH1 0x14 DUP4 PUSH2 0x241F JUMP JUMPDEST SWAP2 POP PUSH2 0x3476 DUP3 PUSH2 0x3435 JUMP JUMPDEST PUSH1 0x20 DUP3 ADD SWAP1 POP SWAP2 SWAP1 POP JUMP JUMPDEST PUSH1 0x0 PUSH1 0x20 DUP3 ADD SWAP1 POP DUP2 DUP2 SUB PUSH1 0x0 DUP4 ADD MSTORE PUSH2 0x349A DUP2 PUSH2 0x345E JUMP JUMPDEST SWAP1 POP SWAP2 SWAP1 POP JUMP JUMPDEST PUSH32 0x4D696E74206E6F74207374617274656400000000000000000000000000000000 PUSH1 0x0 DUP3 ADD MSTORE POP JUMP JUMPDEST PUSH1 0x0 PUSH2 0x34D7 PUSH1 0x10 DUP4 PUSH2 0x241F JUMP JUMPDEST SWAP2 POP PUSH2 0x34E2 DUP3 PUSH2 0x34A1 JUMP JUMPDEST PUSH1 0x20 DUP3 ADD SWAP1 POP SWAP2 SWAP1 POP JUMP JUMPDEST PUSH1 0x0 PUSH1 0x20 DUP3 ADD SWAP1 POP DUP2 DUP2 SUB PUSH1 0x0 DUP4 ADD MSTORE PUSH2 0x3506 DUP2 PUSH2 0x34CA JUMP JUMPDEST SWAP1 POP SWAP2 SWAP1 POP JUMP JUMPDEST PUSH32 0x4D696E7420656E64656400000000000000000000000000000000000000000000 PUSH1 0x0 DUP3 ADD MSTORE POP JUMP JUMPDEST PUSH1 0x0 PUSH2 0x3543 PUSH1 0xA DUP4 PUSH2 0x241F JUMP JUMPDEST SWAP2 POP PUSH2 0x354E DUP3 PUSH2 0x350D JUMP JUMPDEST PUSH1 0x20 DUP3 ADD SWAP1 POP SWAP2 SWAP1 POP JUMP JUMPDEST PUSH1 0x0 PUSH1 0x20 DUP3 ADD SWAP1 POP DUP2 DUP2 SUB PUSH1 0x0 DUP4 ADD MSTORE PUSH2 0x3572 DUP2 PUSH2 0x3536 JUMP JUMPDEST SWAP1 POP SWAP2 SWAP1 POP JUMP JUMPDEST PUSH1 0x0 DUP2 SWAP1 POP SWAP3 SWAP2 POP POP JUMP JUMPDEST PUSH1 0x0 PUSH2 0x358F DUP3 PUSH2 0x2414 JUMP JUMPDEST PUSH2 0x3599 DUP2 DUP6 PUSH2 0x3579 JUMP JUMPDEST SWAP4 POP PUSH2 0x35A9 DUP2 DUP6 PUSH1 0x20 DUP7 ADD PUSH2 0x2430 JUMP JUMPDEST DUP1 DUP5 ADD SWAP2 POP POP SWAP3 SWAP2 POP POP JUMP JUMPDEST PUSH1 0x0 PUSH2 0x35C1 DUP3 DUP6 PUSH2 0x3584 JUMP JUMPDEST SWAP2 POP PUSH2 0x35CD DUP3 DUP5 PUSH2 0x3584 JUMP JUMPDEST SWAP2 POP DUP2 SWAP1 POP SWAP4 SWAP3 POP POP POP JUMP JUMPDEST PUSH1 0x0 PUSH2 0x35E4 DUP3 PUSH2 0x24C6 JUMP JUMPDEST SWAP2 POP PUSH1 0x0 DUP3 SUB PUSH2 0x35F7 JUMPI PUSH2 0x35F6 PUSH2 0x2D15 JUMP JUMPDEST JUMPDEST PUSH1 0x1 DUP3 SUB SWAP1 POP SWAP2 SWAP1 POP JUMP JUMPDEST PUSH1 0x0 DUP2 MLOAD SWAP1 POP SWAP2 SWAP1 POP JUMP JUMPDEST PUSH1 0x0 DUP3 DUP3 MSTORE PUSH1 0x20 DUP3 ADD SWAP1 POP SWAP3 SWAP2 POP POP JUMP JUMPDEST PUSH1 0x0 PUSH2 0x3629 DUP3 PUSH2 0x3602 JUMP JUMPDEST PUSH2 0x3633 DUP2 DUP6 PUSH2 0x360D JUMP JUMPDEST SWAP4 POP PUSH2 0x3643 DUP2 DUP6 PUSH1 0x20 DUP7 ADD PUSH2 0x2430 JUMP JUMPDEST PUSH2 0x364C DUP2 PUSH2 0x245A JUMP JUMPDEST DUP5 ADD SWAP2 POP POP SWAP3 SWAP2 POP POP JUMP JUMPDEST PUSH1 0x0 PUSH1 0x80 DUP3 ADD SWAP1 POP PUSH2 0x366C PUSH1 0x0 DUP4 ADD DUP8 PUSH2 0x255B JUMP JUMPDEST PUSH2 0x3679 PUSH1 0x20 DUP4 ADD DUP7 PUSH2 0x255B JUMP JUMPDEST PUSH2 0x3686 PUSH1 0x40 DUP4 ADD DUP6 PUSH2 0x25F1 JUMP JUMPDEST DUP2 DUP2 SUB PUSH1 0x60 DUP4 ADD MSTORE PUSH2 0x3698 DUP2 DUP5 PUSH2 0x361E JUMP JUMPDEST SWAP1 POP SWAP6 SWAP5 POP POP POP POP POP JUMP JUMPDEST PUSH1 0x0 DUP2 MLOAD SWAP1 POP PUSH2 0x36B2 DUP2 PUSH2 0x2385 JUMP JUMPDEST SWAP3 SWAP2 POP POP JUMP JUMPDEST PUSH1 0x0 PUSH1 0x20 DUP3 DUP5 SUB SLT ISZERO PUSH2 0x36CE JUMPI PUSH2 0x36CD PUSH2 0x234F JUMP JUMPDEST JUMPDEST PUSH1 0x0 PUSH2 0x36DC DUP5 DUP3 DUP6 ADD PUSH2 0x36A3 JUMP JUMPDEST SWAP2 POP POP SWAP3 SWAP2 POP POP JUMP INVALID LOG2 PUSH5 0x6970667358 0x22 SLT KECCAK256 0xDC 0xB2 LOG3 0xC4 0xE9 CALL 0xBC SWAP8 0xCA PUSH28 0xE07145649E5744CB6EC1F56CC453F031BAC975A1BD9464736F6C6343 STOP ADDMOD EQ STOP CALLER "},"methodIdentifiers":{"airdrop(address[])":"729ad39e","approve(address,uint256)":"095ea7b3","balanceOf(address)":"70a08231","collectionURI()":"a5097ebf","getApproved(uint256)":"081812fc","initialize(string,string,string,uint256,uint256,uint256,uint256,uint256,address,address)":"95053efa","isApprovedForAll(address,address)":"e985e9c5","maxPerWallet()":"453c2310","maxSupply()":"d5abeb01","mint()":"1249c58b","mintEnd()":"ea2b4ab2","mintMultiple(uint256)":"abbb5a55","mintPrice()":"6817c76c","mintStart()":"255e4685","name()":"06fdde03","owner()":"8da5cb5b","ownerOf(uint256)":"6352211e","platformAddress()":"dbe55e56","renounceOwnership()":"715018a6","safeTransferFrom(address,address,uint256)":"42842e0e","safeTransferFrom(address,address,uint256,bytes)":"b88d4fde","setApprovalForAll(address,bool)":"a22cb465","setBaseURI(string)":"55f804b3","setMintPrice(uint256)":"f4a0a528","supportsInterface(bytes4)":"01ffc9a7","symbol()":"95d89b41","tokenURI(uint256)":"c87b56dd","totalMinted()":"a2309ff8","totalSupply()":"18160ddd","transferFrom(address,address,uint256)":"23b872dd","transferOwnership(address)":"f2fde38b","withdraw()":"3ccfd60b"}}}}}