{
  "_format": "hh-sol-artifact-1",
  "contractName": "NFTCollection",
  "sourceName": "contracts/NFTCollection.sol",
  "abi": [
    {
      "inputs": [],
      "stateMutability": "nonpayable",
      "type": "constructor"
    },
    {
      "inputs": [
        {
          "internalType": "address",
          "name": "sender",
          "type": "address"
        },
        {
          "internalType": "uint256",
          "name": "tokenId",
          "type": "uint256"
        },
        {
          "internalType": "address",
          "name": "owner",
          "type": "address"
        }
      ],
      "name": "ERC721IncorrectOwner",
      "type": "error"
    },
    {
      "inputs": [
        {
          "internalType": "address",
          "name": "operator",
          "type": "address"
        },
        {
          "internalType": "uint256",
          "name": "tokenId",
          "type": "uint256"
        }
      ],
      "name": "ERC721InsufficientApproval",
      "type": "error"
    },
    {
      "inputs": [
        {
          "internalType": "address",
          "name": "approver",
          "type": "address"
        }
      ],
      "name": "ERC721InvalidApprover",
      "type": "error"
    },
    {
      "inputs": [
        {
          "internalType": "address",
          "name": "operator",
          "type": "address"
        }
      ],
      "name": "ERC721InvalidOperator",
      "type": "error"
    },
    {
      "inputs": [
        {
          "internalType": "address",
          "name": "owner",
          "type": "address"
        }
      ],
      "name": "ERC721InvalidOwner",
      "type": "error"
    },
    {
      "inputs": [
        {
          "internalType": "address",
          "name": "receiver",
          "type": "address"
        }
      ],
      "name": "ERC721InvalidReceiver",
      "type": "error"
    },
    {
      "inputs": [
        {
          "internalType": "address",
          "name": "sender",
          "type": "address"
        }
      ],
      "name": "ERC721InvalidSender",
      "type": "error"
    },
    {
      "inputs": [
        {
          "internalType": "uint256",
          "name": "tokenId",
          "type": "uint256"
        }
      ],
      "name": "ERC721NonexistentToken",
      "type": "error"
    },
    {
      "inputs": [
        {
          "internalType": "address",
          "name": "owner",
          "type": "address"
        }
      ],
      "name": "OwnableInvalidOwner",
      "type": "error"
    },
    {
      "inputs": [
        {
          "internalType": "address",
          "name": "account",
          "type": "address"
        }
      ],
      "name": "OwnableUnauthorizedAccount",
      "type": "error"
    },
    {
      "anonymous": false,
      "inputs": [
        {
          "indexed": true,
          "internalType": "address",
          "name": "owner",
          "type": "address"
        },
        {
          "indexed": true,
          "internalType": "address",
          "name": "approved",
          "type": "address"
        },
        {
          "indexed": true,
          "internalType": "uint256",
          "name": "tokenId",
          "type": "uint256"
        }
      ],
      "name": "Approval",
      "type": "event"
    },
    {
      "anonymous": false,
      "inputs": [
        {
          "indexed": true,
          "internalType": "address",
          "name": "owner",
          "type": "address"
        },
        {
          "indexed": true,
          "internalType": "address",
          "name": "operator",
          "type": "address"
        },
        {
          "indexed": false,
          "internalType": "bool",
          "name": "approved",
          "type": "bool"
        }
      ],
      "name": "ApprovalForAll",
      "type": "event"
    },
    {
      "anonymous": false,
      "inputs": [
        {
          "indexed": true,
          "internalType": "address",
          "name": "previousOwner",
          "type": "address"
        },
        {
          "indexed": true,
          "internalType": "address",
          "name": "newOwner",
          "type": "address"
        }
      ],
      "name": "OwnershipTransferred",
      "type": "event"
    },
    {
      "anonymous": false,
      "inputs": [
        {
          "indexed": true,
          "internalType": "address",
          "name": "from",
          "type": "address"
        },
        {
          "indexed": true,
          "internalType": "address",
          "name": "to",
          "type": "address"
        },
        {
          "indexed": true,
          "internalType": "uint256",
          "name": "tokenId",
          "type": "uint256"
        }
      ],
      "name": "Transfer",
      "type": "event"
    },
    {
      "inputs": [
        {
          "internalType": "address[]",
          "name": "recipients",
          "type": "address[]"
        }
      ],
      "name": "airdrop",
      "outputs": [],
      "stateMutability": "nonpayable",
      "type": "function"
    },
    {
      "inputs": [
        {
          "internalType": "address",
          "name": "to",
          "type": "address"
        },
        {
          "internalType": "uint256",
          "name": "tokenId",
          "type": "uint256"
        }
      ],
      "name": "approve",
      "outputs": [],
      "stateMutability": "nonpayable",
      "type": "function"
    },
    {
      "inputs": [
        {
          "internalType": "address",
          "name": "owner",
          "type": "address"
        }
      ],
      "name": "balanceOf",
      "outputs": [
        {
          "internalType": "uint256",
          "name": "",
          "type": "uint256"
        }
      ],
      "stateMutability": "view",
      "type": "function"
    },
    {
      "inputs": [],
      "name": "collectionURI",
      "outputs": [
        {
          "internalType": "string",
          "name": "",
          "type": "string"
        }
      ],
      "stateMutability": "view",
      "type": "function"
    },
    {
      "inputs": [
        {
          "internalType": "uint256",
          "name": "tokenId",
          "type": "uint256"
        }
      ],
      "name": "getApproved",
      "outputs": [
        {
          "internalType": "address",
          "name": "",
          "type": "address"
        }
      ],
      "stateMutability": "view",
      "type": "function"
    },
    {
      "inputs": [
        {
          "internalType": "string",
          "name": "name_",
          "type": "string"
        },
        {
          "internalType": "string",
          "name": "symbol_",
          "type": "string"
        },
        {
          "internalType": "string",
          "name": "baseTokenURI_",
          "type": "string"
        },
        {
          "internalType": "uint256",
          "name": "maxSupply_",
          "type": "uint256"
        },
        {
          "internalType": "uint256",
          "name": "mintPrice_",
          "type": "uint256"
        },
        {
          "internalType": "uint256",
          "name": "maxPerWallet_",
          "type": "uint256"
        },
        {
          "internalType": "uint256",
          "name": "mintStart_",
          "type": "uint256"
        },
        {
          "internalType": "uint256",
          "name": "mintEnd_",
          "type": "uint256"
        },
        {
          "internalType": "address",
          "name": "owner_",
          "type": "address"
        },
        {
          "internalType": "address",
          "name": "platformAddress_",
          "type": "address"
        }
      ],
      "name": "initialize",
      "outputs": [],
      "stateMutability": "nonpayable",
      "type": "function"
    },
    {
      "inputs": [
        {
          "internalType": "address",
          "name": "owner",
          "type": "address"
        },
        {
          "internalType": "address",
          "name": "operator",
          "type": "address"
        }
      ],
      "name": "isApprovedForAll",
      "outputs": [
        {
          "internalType": "bool",
          "name": "",
          "type": "bool"
        }
      ],
      "stateMutability": "view",
      "type": "function"
    },
    {
      "inputs": [],
      "name": "maxPerWallet",
      "outputs": [
        {
          "internalType": "uint96",
          "name": "",
          "type": "uint96"
        }
      ],
      "stateMutability": "view",
      "type": "function"
    },
    {
      "inputs": [],
      "name": "maxSupply",
      "outputs": [
        {
          "internalType": "uint96",
          "name": "",
          "type": "uint96"
        }
      ],
      "stateMutability": "view",
      "type": "function"
    },
    {
      "inputs": [],
      "name": "mint",
      "outputs": [],
      "stateMutability": "payable",
      "type": "function"
    },
    {
      "inputs": [],
      "name": "mintEnd",
      "outputs": [
        {
          "internalType": "uint64",
          "name": "",
          "type": "uint64"
        }
      ],
      "stateMutability": "view",
      "type": "function"
    },
    {
      "inputs": [
        {
          "internalType": "uint256",
          "name": "quantity",
          "type": "uint256"
        }
      ],
      "name": "mintMultiple",
      "outputs": [],
      "stateMutability": "payable",
      "type": "function"
    },
    {
      "inputs": [],
      "name": "mintPrice",
      "outputs": [
        {
          "internalType": "uint96",
          "name": "",
          "type": "uint96"
        }
      ],
      "stateMutability": "view",
      "type": "function"
    },
    {
      "inputs": [],
      "name": "mintStart",
      "outputs": [
        {
          "internalType": "uint64",
          "name": "",
          "type": "uint64"
        }
      ],
      "stateMutability": "view",
      "type": "function"
    },
    {
      "inputs": [],
      "name": "name",
      "outputs": [
        {
          "internalType": "string",
          "name": "",
          "type": "string"
        }
      ],
      "stateMutability": "view",
      "type": "function"
    },
    {
      "inputs": [],
      "name": "owner",
      "outputs": [
        {
          "internalType": "address",
          "name": "",
          "type": "address"
        }
      ],
      "stateMutability": "view",
      "type": "function"
    },
    {
      "inputs": [
        {
          "internalType": "uint256",
          "name": "tokenId",
          "type": "uint256"
        }
      ],
      "name": "ownerOf",
      "outputs": [
        {
          "internalType": "address",
          "name": "",
          "type": "address"
        }
      ],
      "stateMutability": "view",
      "type": "function"
    },
    {
      "inputs": [],
      "name": "platformAddress",
      "outputs": [
        {
          "internalType": "address",
          "name": "",
          "type": "address"
        }
      ],
      "stateMutability": "view",
      "type": "function"
    },
    {
      "inputs": [],
      "name": "renounceOwnership",
      "outputs": [],
      "stateMutability": "nonpayable",
      "type": "function"
    },
    {
      "inputs": [
        {
          "internalType": "address",
          "name": "from",
          "type": "address"
        },
        {
          "internalType": "address",
          "name": "to",
          "type": "address"
        },
        {
          "internalType": "uint256",
          "name": "tokenId",
          "type": "uint256"
        }
      ],
      "name": "safeTransferFrom",
      "outputs": [],
      "stateMutability": "nonpayable",
      "type": "function"
    },
    {
      "inputs": [
        {
          "internalType": "address",
          "name": "from",
          "type": "address"
        },
        {
          "internalType": "address",
          "name": "to",
          "type": "address"
        },
        {
          "internalType": "uint256",
          "name": "tokenId",
          "type": "uint256"
        },
        {
          "internalType": "bytes",
          "name": "data",
          "type": "bytes"
        }
      ],
      "name": "safeTransferFrom",
      "outputs": [],
      "stateMutability": "nonpayable",
      "type": "function"
    },
    {
      "inputs": [
        {
          "internalType": "address",
          "name": "operator",
          "type": "address"
        },
        {
          "internalType": "bool",
          "name": "approved",
          "type": "bool"
        }
      ],
      "name": "setApprovalForAll",
      "outputs": [],
      "stateMutability": "nonpayable",
      "type": "function"
    },
    {
      "inputs": [
        {
          "internalType": "string",
          "name": "newBaseURI",
          "type": "string"
        }
      ],
      "name": "setBaseURI",
      "outputs": [],
      "stateMutability": "nonpayable",
      "type": "function"
    },
    {
      "inputs": [
        {
          "internalType": "uint256",
          "name": "newMintPrice",
          "type": "uint256"
        }
      ],
      "name": "setMintPrice",
      "outputs": [],
      "stateMutability": "nonpayable",
      "type": "function"
    },
    {
      "inputs": [
        {
          "internalType": "bytes4",
          "name": "interfaceId",
          "type": "bytes4"
        }
      ],
      "name": "supportsInterface",
      "outputs": [
        {
          "internalType": "bool",
          "name": "",
          "type": "bool"
        }
      ],
      "stateMutability": "view",
      "type": "function"
    },
    {
      "inputs": [],
      "name": "symbol",
      "outputs": [
        {
          "internalType": "string",
          "name": "",
          "type": "string"
        }
      ],
      "stateMutability": "view",
      "type": "function"
    },
    {
      "inputs": [
        {
          "internalType": "uint256",
          "name": "tokenId",
          "type": "uint256"
        }
      ],
      "name": "tokenURI",
      "outputs": [
        {
          "internalType": "string",
          "name": "",
          "type": "string"
        }
      ],
      "stateMutability": "view",
      "type": "function"
    },
    {
      "inputs": [],
      "name": "totalMinted",
      "outputs": [
        {
          "internalType": "uint96",
          "name": "",
          "type": "uint96"
        }
      ],
      "stateMutability": "view",
      "type": "function"
    },
    {
      "inputs": [
        {
          "internalType": "address",
          "name": "from",
          "type": "address"
        },
        {
          "internalType": "address",
          "name": "to",
          "type": "address"
        },
        {
          "internalType": "uint256",
          "name": "tokenId",
          "type": "uint256"
        }
      ],
      "name": "transferFrom",
      "outputs": [],
      "stateMutability": "nonpayable",
      "type": "function"
    },
    {
      "inputs": [
        {
          "internalType": "address",
          "name": "newOwner",
          "type": "address"
        }
      ],
      "name": "transferOwnership",
      "outputs": [],
      "stateMutability": "nonpayable",
      "type": "function"
    },
    {
      "inputs": [],
      "name": "withdraw",
      "outputs": [],
      "stateMutability": "nonpayable",
      "type": "function"
    }
  ],
  "bytecode": "0x60806040523480156200001157600080fd5b50336040518060200160405280600081525060405180602001604052806000815250816000908162000044919062000426565b50806001908162000056919062000426565b505050600073ffffffffffffffffffffffffffffffffffffffff168173ffffffffffffffffffffffffffffffffffffffff1603620000ce5760006040517f1e4fbdf7000000000000000000000000000000000000000000000000000000008152600401620000c5919062000552565b60405180910390fd5b620000df81620000e660201b60201c565b506200056f565b6000600660009054906101000a900473ffffffffffffffffffffffffffffffffffffffff16905081600660006101000a81548173ffffffffffffffffffffffffffffffffffffffff021916908373ffffffffffffffffffffffffffffffffffffffff1602179055508173ffffffffffffffffffffffffffffffffffffffff168173ffffffffffffffffffffffffffffffffffffffff167f8be0079c531659141344cd1fd0a4f28419497f9722a3daafe3b4186f6b6457e060405160405180910390a35050565b600081519050919050565b7f4e487b7100000000000000000000000000000000000000000000000000000000600052604160045260246000fd5b7f4e487b7100000000000000000000000000000000000000000000000000000000600052602260045260246000fd5b600060028204905060018216806200022e57607f821691505b602082108103620002445762000243620001e6565b5b50919050565b60008190508160005260206000209050919050565b60006020601f8301049050919050565b600082821b905092915050565b600060088302620002ae7fffffffffffffffffffffffffffffffffffffffffffffffffffffffffffffffff826200026f565b620002ba86836200026f565b95508019841693508086168417925050509392505050565b6000819050919050565b6000819050919050565b60006200030762000301620002fb84620002d2565b620002dc565b620002d2565b9050919050565b6000819050919050565b6200032383620002e6565b6200033b62000332826200030e565b8484546200027c565b825550505050565b600090565b6200035262000343565b6200035f81848462000318565b505050565b5b8181101562000387576200037b60008262000348565b60018101905062000365565b5050565b601f821115620003d657620003a0816200024a565b620003ab846200025f565b81016020851015620003bb578190505b620003d3620003ca856200025f565b83018262000364565b50505b505050565b600082821c905092915050565b6000620003fb60001984600802620003db565b1980831691505092915050565b6000620004168383620003e8565b9150826002028217905092915050565b6200043182620001ac565b67ffffffffffffffff8111156200044d576200044c620001b7565b5b62000459825462000215565b620004668282856200038b565b600060209050601f8311600181146200049e576000841562000489578287015190505b62000495858262000408565b86555062000505565b601f198416620004ae866200024a565b60005b82811015620004d857848901518255600182019150602085019450602081019050620004b1565b86831015620004f85784890151620004f4601f891682620003e8565b8355505b6001600288020188555050505b505050505050565b600073ffffffffffffffffffffffffffffffffffffffff82169050919050565b60006200053a826200050d565b9050919050565b6200054c816200052d565b82525050565b600060208201905062000569600083018462000541565b92915050565b613dc2806200057f6000396000f3fe6080604052600436106101d85760003560e01c8063729ad39e11610102578063b88d4fde11610095578063e985e9c511610064578063e985e9c514610658578063ea2b4ab214610695578063f2fde38b146106c0578063f4a0a528146106e9576101d8565b8063b88d4fde1461059c578063c87b56dd146105c5578063d5abeb0114610602578063dbe55e561461062d576101d8565b8063a22cb465116100d1578063a22cb46514610501578063a2309ff81461052a578063a5097ebf14610555578063abbb5a5514610580576101d8565b8063729ad39e146104595780638da5cb5b1461048257806395053efa146104ad57806395d89b41146104d6576101d8565b80633ccfd60b1161017a5780636352211e116101495780636352211e1461039d5780636817c76c146103da57806370a0823114610405578063715018a614610442576101d8565b80633ccfd60b1461030957806342842e0e14610320578063453c23101461034957806355f804b314610374576101d8565b8063095ea7b3116101b6578063095ea7b3146102825780631249c58b146102ab57806323b872dd146102b5578063255e4685146102de576101d8565b806301ffc9a7146101dd57806306fdde031461021a578063081812fc14610245575b600080fd5b3480156101e957600080fd5b5061020460048036038101906101ff91906129b5565b610712565b60405161021191906129fd565b60405180910390f35b34801561022657600080fd5b5061022f6107f4565b60405161023c9190612aa8565b60405180910390f35b34801561025157600080fd5b5061026c60048036038101906102679190612b00565b610886565b6040516102799190612b6e565b60405180910390f35b34801561028e57600080fd5b506102a960048036038101906102a49190612bb5565b6108a2565b005b6102b36108b8565b005b3480156102c157600080fd5b506102dc60048036038101906102d79190612bf5565b610b84565b005b3480156102ea57600080fd5b506102f3610c86565b6040516103009190612c6b565b60405180910390f35b34801561031557600080fd5b5061031e610ca0565b005b34801561032c57600080fd5b5061034760048036038101906103429190612bf5565b610ea6565b005b34801561035557600080fd5b5061035e610ec6565b60405161036b9190612cad565b60405180910390f35b34801561038057600080fd5b5061039b60048036038101906103969190612dfd565b610ee4565b005b3480156103a957600080fd5b506103c460048036038101906103bf9190612b00565b610eff565b6040516103d19190612b6e565b60405180910390f35b3480156103e657600080fd5b506103ef610f11565b6040516103fc9190612cad565b60405180910390f35b34801561041157600080fd5b5061042c60048036038101906104279190612e46565b610f2f565b6040516104399190612e82565b60405180910390f35b34801561044e57600080fd5b50610457610fe9565b005b34801561046557600080fd5b50610480600480360381019061047b9190612efd565b610ffd565b005b34801561048e57600080fd5b5061049761115d565b6040516104a49190612b6e565b60405180910390f35b3480156104b957600080fd5b506104d460048036038101906104cf9190612f4a565b611187565b005b3480156104e257600080fd5b506104eb61135d565b6040516104f89190612aa8565b60405180910390f35b34801561050d57600080fd5b50610528600480360381019061052391906130a9565b6113ef565b005b34801561053657600080fd5b5061053f611405565b60405161054c9190612cad565b60405180910390f35b34801561056157600080fd5b5061056a611423565b6040516105779190612aa8565b60405180910390f35b61059a60048036038101906105959190612b00565b6114b5565b005b3480156105a857600080fd5b506105c360048036038101906105be919061318a565b611804565b005b3480156105d157600080fd5b506105ec60048036038101906105e79190612b00565b611829565b6040516105f99190612aa8565b60405180910390f35b34801561060e57600080fd5b50610617611892565b6040516106249190612cad565b60405180910390f35b34801561063957600080fd5b506106426118b0565b60405161064f9190612b6e565b60405180910390f35b34801561066457600080fd5b5061067f600480360381019061067a919061320d565b6118d6565b60405161068c91906129fd565b60405180910390f35b3480156106a157600080fd5b506106aa61196a565b6040516106b79190612c6b565b60405180910390f35b3480156106cc57600080fd5b506106e760048036038101906106e29190612e46565b611984565b005b3480156106f557600080fd5b50610710600480360381019061070b9190612b00565b611a0a565b005b60007f80ac58cd000000000000000000000000000000000000000000000000000000007bffffffffffffffffffffffffffffffffffffffffffffffffffffffff1916827bffffffffffffffffffffffffffffffffffffffffffffffffffffffff191614806107dd57507f5b5e139f000000000000000000000000000000000000000000000000000000007bffffffffffffffffffffffffffffffffffffffffffffffffffffffff1916827bffffffffffffffffffffffffffffffffffffffffffffffffffffffff1916145b806107ed57506107ec82611a46565b5b9050919050565b6060600a80546108039061327c565b80601f016020809104026020016040519081016040528092919081815260200182805461082f9061327c565b801561087c5780601f106108515761010080835404028352916020019161087c565b820191906000526020600020905b81548152906001019060200180831161085f57829003601f168201915b5050505050905090565b600061089182611ab0565b5061089b82611b38565b9050919050565b6108b482826108af611b75565b611b7d565b5050565b6007600c9054906101000a90046bffffffffffffffffffffffff166bffffffffffffffffffffffff16600760009054906101000a90046bffffffffffffffffffffffff166bffffffffffffffffffffffff161061094a576040517f08c379a0000000000000000000000000000000000000000000000000000000008152600401610941906132f9565b60405180910390fd5b600860009054906101000a90046bffffffffffffffffffffffff166bffffffffffffffffffffffff163410156109b5576040517f08c379a00000000000000000000000000000000000000000000000000000000081526004016109ac90613365565b60405180910390fd5b6008600c9054906101000a90046bffffffffffffffffffffffff166bffffffffffffffffffffffff166109e733610f2f565b10610a27576040517f08c379a0000000000000000000000000000000000000000000000000000000008152600401610a1e906133d1565b60405180910390fd5b600860189054906101000a900467ffffffffffffffff1667ffffffffffffffff16421015610a8a576040517f08c379a0000000000000000000000000000000000000000000000000000000008152600401610a819061343d565b60405180910390fd5b6000600960009054906101000a900467ffffffffffffffff1667ffffffffffffffff161480610ad95750600960009054906101000a900467ffffffffffffffff1667ffffffffffffffff164211155b610b18576040517f08c379a0000000000000000000000000000000000000000000000000000000008152600401610b0f906134a9565b60405180910390fd5b60006007600081819054906101000a90046bffffffffffffffffffffffff1660010191906101000a8154816bffffffffffffffffffffffff02191690836bffffffffffffffffffffffff16021790556bffffffffffffffffffffffff169050610b813382611b8f565b50565b600073ffffffffffffffffffffffffffffffffffffffff168273ffffffffffffffffffffffffffffffffffffffff1603610bf65760006040517f64a0ae92000000000000000000000000000000000000000000000000000000008152600401610bed9190612b6e565b60405180910390fd5b6000610c0a8383610c05611b75565b611c88565b90508373ffffffffffffffffffffffffffffffffffffffff168173ffffffffffffffffffffffffffffffffffffffff1614610c80578382826040517f64283d7b000000000000000000000000000000000000000000000000000000008152600401610c77939291906134c9565b60405180910390fd5b50505050565b600860189054906101000a900467ffffffffffffffff1681565b610ca8611ea2565b600047905060008111610cf0576040517f08c379a0000000000000000000000000000000000000000000000000000000008152600401610ce79061354c565b60405180910390fd5b6000612710603283610d02919061359b565b610d0c919061360c565b905060008183610d1c919061363d565b90506000600d60009054906101000a900473ffffffffffffffffffffffffffffffffffffffff1673ffffffffffffffffffffffffffffffffffffffff1683604051610d66906136a2565b60006040518083038185875af1925050503d8060008114610da3576040519150601f19603f3d011682016040523d82523d6000602084013e610da8565b606091505b5050905080610dec576040517f08c379a0000000000000000000000000000000000000000000000000000000008152600401610de390613703565b60405180910390fd5b6000610df661115d565b73ffffffffffffffffffffffffffffffffffffffff1683604051610e19906136a2565b60006040518083038185875af1925050503d8060008114610e56576040519150601f19603f3d011682016040523d82523d6000602084013e610e5b565b606091505b5050905080610e9f576040517f08c379a0000000000000000000000000000000000000000000000000000000008152600401610e969061376f565b60405180910390fd5b5050505050565b610ec183838360405180602001604052806000815250611804565b505050565b6008600c9054906101000a90046bffffffffffffffffffffffff1681565b610eec611ea2565b80600c9081610efb919061393b565b5050565b6000610f0a82611ab0565b9050919050565b600860009054906101000a90046bffffffffffffffffffffffff1681565b60008073ffffffffffffffffffffffffffffffffffffffff168273ffffffffffffffffffffffffffffffffffffffff1603610fa25760006040517f89c62b64000000000000000000000000000000000000000000000000000000008152600401610f999190612b6e565b60405180910390fd5b600360008373ffffffffffffffffffffffffffffffffffffffff1673ffffffffffffffffffffffffffffffffffffffff168152602001908152602001600020549050919050565b610ff1611ea2565b610ffb6000611f29565b565b611005611ea2565b60008282905090506007600c9054906101000a90046bffffffffffffffffffffffff166bffffffffffffffffffffffff1681600760009054906101000a90046bffffffffffffffffffffffff166bffffffffffffffffffffffff1661106a9190613a0d565b11156110ab576040517f08c379a00000000000000000000000000000000000000000000000000000000081526004016110a2906132f9565b60405180910390fd5b6000600760009054906101000a90046bffffffffffffffffffffffff166bffffffffffffffffffffffff16905060005b828110156111255761111a8585838181106110f9576110f8613a41565b5b905060200201602081019061110e9190612e46565b83600101935083611b8f565b8060010190506110db565b5080600760006101000a8154816bffffffffffffffffffffffff02191690836bffffffffffffffffffffffff16021790555050505050565b6000600660009054906101000a900473ffffffffffffffffffffffffffffffffffffffff16905090565b600660149054906101000a900460ff16156111d7576040517f08c379a00000000000000000000000000000000000000000000000000000000081526004016111ce90613abc565b60405180910390fd5b6001600660146101000a81548160ff02191690831515021790555089600a9081611201919061393b565b5088600b9081611211919061393b565b5061121b82611f29565b87600c908161122a919061393b565b50866007600c6101000a8154816bffffffffffffffffffffffff02191690836bffffffffffffffffffffffff16021790555085600860006101000a8154816bffffffffffffffffffffffff02191690836bffffffffffffffffffffffff160217905550846008600c6101000a8154816bffffffffffffffffffffffff02191690836bffffffffffffffffffffffff16021790555083600860186101000a81548167ffffffffffffffff021916908367ffffffffffffffff16021790555082600960006101000a81548167ffffffffffffffff021916908367ffffffffffffffff16021790555080600d60006101000a81548173ffffffffffffffffffffffffffffffffffffffff021916908373ffffffffffffffffffffffffffffffffffffffff16021790555050505050505050505050565b6060600b805461136c9061327c565b80601f01602080910402602001604051908101604052809291908181526020018280546113989061327c565b80156113e55780601f106113ba576101008083540402835291602001916113e5565b820191906000526020600020905b8154815290600101906020018083116113c857829003601f168201915b5050505050905090565b6114016113fa611b75565b8383611fef565b5050565b600760009054906101000a90046bffffffffffffffffffffffff1681565b6060600c80546114329061327c565b80601f016020809104026020016040519081016040528092919081815260200182805461145e9061327c565b80156114ab5780601f10611480576101008083540402835291602001916114ab565b820191906000526020600020905b81548152906001019060200180831161148e57829003601f168201915b5050505050905090565b600081116114f8576040517f08c379a00000000000000000000000000000000000000000000000000000000081526004016114ef90613b28565b60405180910390fd5b6007600c9054906101000a90046bffffffffffffffffffffffff166bffffffffffffffffffffffff1681600760009054906101000a90046bffffffffffffffffffffffff166bffffffffffffffffffffffff166115559190613a0d565b1115611596576040517f08c379a000000000000000000000000000000000000000000000000000000000815260040161158d90613b94565b60405180910390fd5b6008600c9054906101000a90046bffffffffffffffffffffffff166bffffffffffffffffffffffff16816115c933610f2f565b6115d39190613a0d565b1115611614576040517f08c379a000000000000000000000000000000000000000000000000000000000815260040161160b90613c00565b60405180910390fd5b80600860009054906101000a90046bffffffffffffffffffffffff166bffffffffffffffffffffffff16611648919061359b565b34101561168a576040517f08c379a000000000000000000000000000000000000000000000000000000000815260040161168190613365565b60405180910390fd5b600860189054906101000a900467ffffffffffffffff1667ffffffffffffffff164210156116ed576040517f08c379a00000000000000000000000000000000000000000000000000000000081526004016116e49061343d565b60405180910390fd5b6000600960009054906101000a900467ffffffffffffffff1667ffffffffffffffff16148061173c5750600960009054906101000a900467ffffffffffffffff1667ffffffffffffffff164211155b61177b576040517f08c379a0000000000000000000000000000000000000000000000000000000008152600401611772906134a9565b60405180910390fd5b6000600760009054906101000a90046bffffffffffffffffffffffff166bffffffffffffffffffffffff16905060005b828110156117ce576117c33383600101935083611b8f565b8060010190506117ab565b5080600760006101000a8154816bffffffffffffffffffffffff02191690836bffffffffffffffffffffffff1602179055505050565b61180f848484610b84565b61182361181a611b75565b8585858561215e565b50505050565b606061183482611ab0565b50600061183f61230f565b9050600081511161185f576040518060200160405280600081525061188a565b80611869846123a1565b60405160200161187a929190613c5c565b6040516020818303038152906040525b915050919050565b6007600c9054906101000a90046bffffffffffffffffffffffff1681565b600d60009054906101000a900473ffffffffffffffffffffffffffffffffffffffff1681565b6000600560008473ffffffffffffffffffffffffffffffffffffffff1673ffffffffffffffffffffffffffffffffffffffff16815260200190815260200160002060008373ffffffffffffffffffffffffffffffffffffffff1673ffffffffffffffffffffffffffffffffffffffff16815260200190815260200160002060009054906101000a900460ff16905092915050565b600960009054906101000a900467ffffffffffffffff1681565b61198c611ea2565b600073ffffffffffffffffffffffffffffffffffffffff168173ffffffffffffffffffffffffffffffffffffffff16036119fe5760006040517f1e4fbdf70000000000000000000000000000000000000000000000000000000081526004016119f59190612b6e565b60405180910390fd5b611a0781611f29565b50565b611a12611ea2565b80600860006101000a8154816bffffffffffffffffffffffff02191690836bffffffffffffffffffffffff16021790555050565b60007f01ffc9a7000000000000000000000000000000000000000000000000000000007bffffffffffffffffffffffffffffffffffffffffffffffffffffffff1916827bffffffffffffffffffffffffffffffffffffffffffffffffffffffff1916149050919050565b600080611abc8361246f565b9050600073ffffffffffffffffffffffffffffffffffffffff168173ffffffffffffffffffffffffffffffffffffffff1603611b2f57826040517f7e273289000000000000000000000000000000000000000000000000000000008152600401611b269190612e82565b60405180910390fd5b80915050919050565b60006004600083815260200190815260200160002060009054906101000a900473ffffffffffffffffffffffffffffffffffffffff169050919050565b600033905090565b611b8a83838360016124ac565b505050565b600073ffffffffffffffffffffffffffffffffffffffff168273ffffffffffffffffffffffffffffffffffffffff1603611c015760006040517f64a0ae92000000000000000000000000000000000000000000000000000000008152600401611bf89190612b6e565b60405180910390fd5b6000611c0f83836000611c88565b9050600073ffffffffffffffffffffffffffffffffffffffff168173ffffffffffffffffffffffffffffffffffffffff1614611c835760006040517f73c6ac6e000000000000000000000000000000000000000000000000000000008152600401611c7a9190612b6e565b60405180910390fd5b505050565b600080611c948461246f565b9050600073ffffffffffffffffffffffffffffffffffffffff168373ffffffffffffffffffffffffffffffffffffffff1614611cd657611cd5818486612671565b5b600073ffffffffffffffffffffffffffffffffffffffff168173ffffffffffffffffffffffffffffffffffffffff1614611d6757611d186000856000806124ac565b6001600360008373ffffffffffffffffffffffffffffffffffffffff1673ffffffffffffffffffffffffffffffffffffffff168152602001908152602001600020600082825403925050819055505b600073ffffffffffffffffffffffffffffffffffffffff168573ffffffffffffffffffffffffffffffffffffffff1614611dea576001600360008773ffffffffffffffffffffffffffffffffffffffff1673ffffffffffffffffffffffffffffffffffffffff168152602001908152602001600020600082825401925050819055505b846002600086815260200190815260200160002060006101000a81548173ffffffffffffffffffffffffffffffffffffffff021916908373ffffffffffffffffffffffffffffffffffffffff160217905550838573ffffffffffffffffffffffffffffffffffffffff168273ffffffffffffffffffffffffffffffffffffffff167fddf252ad1be2c89b69c2b068fc378daa952ba7f163c4a11628f55a4df523b3ef60405160405180910390a4809150509392505050565b611eaa611b75565b73ffffffffffffffffffffffffffffffffffffffff16611ec861115d565b73ffffffffffffffffffffffffffffffffffffffff1614611f2757611eeb611b75565b6040517f118cdaa7000000000000000000000000000000000000000000000000000000008152600401611f1e9190612b6e565b60405180910390fd5b565b6000600660009054906101000a900473ffffffffffffffffffffffffffffffffffffffff16905081600660006101000a81548173ffffffffffffffffffffffffffffffffffffffff021916908373ffffffffffffffffffffffffffffffffffffffff1602179055508173ffffffffffffffffffffffffffffffffffffffff168173ffffffffffffffffffffffffffffffffffffffff167f8be0079c531659141344cd1fd0a4f28419497f9722a3daafe3b4186f6b6457e060405160405180910390a35050565b600073ffffffffffffffffffffffffffffffffffffffff168273ffffffffffffffffffffffffffffffffffffffff160361206057816040517f5b08ba180000000000000000000000000000000000000000000000000000000081526004016120579190612b6e565b60405180910390fd5b80600560008573ffffffffffffffffffffffffffffffffffffffff1673ffffffffffffffffffffffffffffffffffffffff16815260200190815260200160002060008473ffffffffffffffffffffffffffffffffffffffff1673ffffffffffffffffffffffffffffffffffffffff16815260200190815260200160002060006101000a81548160ff0219169083151502179055508173ffffffffffffffffffffffffffffffffffffffff168373ffffffffffffffffffffffffffffffffffffffff167f17307eab39ab6107e8899845ad3d59bd9653f200f220920489ca2b5937696c318360405161215191906129fd565b60405180910390a3505050565b60008373ffffffffffffffffffffffffffffffffffffffff163b1115612308578273ffffffffffffffffffffffffffffffffffffffff1663150b7a02868685856040518563ffffffff1660e01b81526004016121bd9493929190613cd5565b6020604051808303816000875af19250505080156121f957506040513d601f19601f820116820180604052508101906121f69190613d36565b60015b61227d573d8060008114612229576040519150601f19603f3d011682016040523d82523d6000602084013e61222e565b606091505b50600081510361227557836040517f64a0ae9200000000000000000000000000000000000000000000000000000000815260040161226c9190612b6e565b60405180910390fd5b805160208201fd5b63150b7a0260e01b7bffffffffffffffffffffffffffffffffffffffffffffffffffffffff1916817bffffffffffffffffffffffffffffffffffffffffffffffffffffffff19161461230657836040517f64a0ae920000000000000000000000000000000000000000000000000000000081526004016122fd9190612b6e565b60405180910390fd5b505b5050505050565b6060600c805461231e9061327c565b80601f016020809104026020016040519081016040528092919081815260200182805461234a9061327c565b80156123975780601f1061236c57610100808354040283529160200191612397565b820191906000526020600020905b81548152906001019060200180831161237a57829003601f168201915b5050505050905090565b6060600060016123b084612735565b01905060008167ffffffffffffffff8111156123cf576123ce612cd2565b5b6040519080825280601f01601f1916602001820160405280156124015781602001600182028036833780820191505090505b509050600082602083010190505b600115612464578080600190039150507f3031323334353637383961626364656600000000000000000000000000000000600a86061a8153600a8581612458576124576135dd565b5b0494506000850361240f575b819350505050919050565b60006002600083815260200190815260200160002060009054906101000a900473ffffffffffffffffffffffffffffffffffffffff169050919050565b80806124e55750600073ffffffffffffffffffffffffffffffffffffffff168273ffffffffffffffffffffffffffffffffffffffff1614155b156126195760006124f584611ab0565b9050600073ffffffffffffffffffffffffffffffffffffffff168373ffffffffffffffffffffffffffffffffffffffff161415801561256057508273ffffffffffffffffffffffffffffffffffffffff168173ffffffffffffffffffffffffffffffffffffffff1614155b8015612573575061257181846118d6565b155b156125b557826040517fa9fbf51f0000000000000000000000000000000000000000000000000000000081526004016125ac9190612b6e565b60405180910390fd5b811561261757838573ffffffffffffffffffffffffffffffffffffffff168273ffffffffffffffffffffffffffffffffffffffff167f8c5be1e5ebec7d5bd14f71427d1e84f3dd0314c0f7b2291e5b200ac8c7c3b92560405160405180910390a45b505b836004600085815260200190815260200160002060006101000a81548173ffffffffffffffffffffffffffffffffffffffff021916908373ffffffffffffffffffffffffffffffffffffffff16021790555050505050565b61267c838383612888565b61273057600073ffffffffffffffffffffffffffffffffffffffff168373ffffffffffffffffffffffffffffffffffffffff16036126f157806040517f7e2732890000000000000000000000000000000000000000000000000000000081526004016126e89190612e82565b60405180910390fd5b81816040517f177e802f000000000000000000000000000000000000000000000000000000008152600401612727929190613d63565b60405180910390fd5b505050565b600080600090507a184f03e93ff9f4daa797ed6e38ed64bf6a1f0100000000000000008310612793577a184f03e93ff9f4daa797ed6e38ed64bf6a1f0100000000000000008381612789576127886135dd565b5b0492506040810190505b6d04ee2d6d415b85acef810000000083106127d0576d04ee2d6d415b85acef810000000083816127c6576127c56135dd565b5b0492506020810190505b662386f26fc1000083106127ff57662386f26fc1000083816127f5576127f46135dd565b5b0492506010810190505b6305f5e1008310612828576305f5e100838161281e5761281d6135dd565b5b0492506008810190505b612710831061284d576127108381612843576128426135dd565b5b0492506004810190505b606483106128705760648381612866576128656135dd565b5b0492506002810190505b600a831061287f576001810190505b80915050919050565b60008073ffffffffffffffffffffffffffffffffffffffff168373ffffffffffffffffffffffffffffffffffffffff161415801561294057508273ffffffffffffffffffffffffffffffffffffffff168473ffffffffffffffffffffffffffffffffffffffff161480612901575061290084846118d6565b5b8061293f57508273ffffffffffffffffffffffffffffffffffffffff1661292783611b38565b73ffffffffffffffffffffffffffffffffffffffff16145b5b90509392505050565b6000604051905090565b600080fd5b600080fd5b60007fffffffff0000000000000000000000000000000000000000000000000000000082169050919050565b6129928161295d565b811461299d57600080fd5b50565b6000813590506129af81612989565b92915050565b6000602082840312156129cb576129ca612953565b5b60006129d9848285016129a0565b91505092915050565b60008115159050919050565b6129f7816129e2565b82525050565b6000602082019050612a1260008301846129ee565b92915050565b600081519050919050565b600082825260208201905092915050565b60005b83811015612a52578082015181840152602081019050612a37565b60008484015250505050565b6000601f19601f8301169050919050565b6000612a7a82612a18565b612a848185612a23565b9350612a94818560208601612a34565b612a9d81612a5e565b840191505092915050565b60006020820190508181036000830152612ac28184612a6f565b905092915050565b6000819050919050565b612add81612aca565b8114612ae857600080fd5b50565b600081359050612afa81612ad4565b92915050565b600060208284031215612b1657612b15612953565b5b6000612b2484828501612aeb565b91505092915050565b600073ffffffffffffffffffffffffffffffffffffffff82169050919050565b6000612b5882612b2d565b9050919050565b612b6881612b4d565b82525050565b6000602082019050612b836000830184612b5f565b92915050565b612b9281612b4d565b8114612b9d57600080fd5b50565b600081359050612baf81612b89565b92915050565b60008060408385031215612bcc57612bcb612953565b5b6000612bda85828601612ba0565b9250506020612beb85828601612aeb565b9150509250929050565b600080600060608486031215612c0e57612c0d612953565b5b6000612c1c86828701612ba0565b9350506020612c2d86828701612ba0565b9250506040612c3e86828701612aeb565b9150509250925092565b600067ffffffffffffffff82169050919050565b612c6581612c48565b82525050565b6000602082019050612c806000830184612c5c565b92915050565b60006bffffffffffffffffffffffff82169050919050565b612ca781612c86565b82525050565b6000602082019050612cc26000830184612c9e565b92915050565b600080fd5b600080fd5b7f4e487b7100000000000000000000000000000000000000000000000000000000600052604160045260246000fd5b612d0a82612a5e565b810181811067ffffffffffffffff82111715612d2957612d28612cd2565b5b80604052505050565b6000612d3c612949565b9050612d488282612d01565b919050565b600067ffffffffffffffff821115612d6857612d67612cd2565b5b612d7182612a5e565b9050602081019050919050565b82818337600083830152505050565b6000612da0612d9b84612d4d565b612d32565b905082815260208101848484011115612dbc57612dbb612ccd565b5b612dc7848285612d7e565b509392505050565b600082601f830112612de457612de3612cc8565b5b8135612df4848260208601612d8d565b91505092915050565b600060208284031215612e1357612e12612953565b5b600082013567ffffffffffffffff811115612e3157612e30612958565b5b612e3d84828501612dcf565b91505092915050565b600060208284031215612e5c57612e5b612953565b5b6000612e6a84828501612ba0565b91505092915050565b612e7c81612aca565b82525050565b6000602082019050612e976000830184612e73565b92915050565b600080fd5b600080fd5b60008083601f840112612ebd57612ebc612cc8565b5b8235905067ffffffffffffffff811115612eda57612ed9612e9d565b5b602083019150836020820283011115612ef657612ef5612ea2565b5b9250929050565b60008060208385031215612f1457612f13612953565b5b600083013567ffffffffffffffff811115612f3257612f31612958565b5b612f3e85828601612ea7565b92509250509250929050565b6000806000806000806000806000806101408b8d031215612f6e57612f6d612953565b5b60008b013567ffffffffffffffff811115612f8c57612f8b612958565b5b612f988d828e01612dcf565b9a505060208b013567ffffffffffffffff811115612fb957612fb8612958565b5b612fc58d828e01612dcf565b99505060408b013567ffffffffffffffff811115612fe657612fe5612958565b5b612ff28d828e01612dcf565b98505060606130038d828e01612aeb565b97505060806130148d828e01612aeb565b96505060a06130258d828e01612aeb565b95505060c06130368d828e01612aeb565b94505060e06130478d828e01612aeb565b9350506101006130598d828e01612ba0565b92505061012061306b8d828e01612ba0565b9150509295989b9194979a5092959850565b613086816129e2565b811461309157600080fd5b50565b6000813590506130a38161307d565b92915050565b600080604083850312156130c0576130bf612953565b5b60006130ce85828601612ba0565b92505060206130df85828601613094565b9150509250929050565b600067ffffffffffffffff82111561310457613103612cd2565b5b61310d82612a5e565b9050602081019050919050565b600061312d613128846130e9565b612d32565b90508281526020810184848401111561314957613148612ccd565b5b613154848285612d7e565b509392505050565b600082601f83011261317157613170612cc8565b5b813561318184826020860161311a565b91505092915050565b600080600080608085870312156131a4576131a3612953565b5b60006131b287828801612ba0565b94505060206131c387828801612ba0565b93505060406131d487828801612aeb565b925050606085013567ffffffffffffffff8111156131f5576131f4612958565b5b6132018782880161315c565b91505092959194509250565b6000806040838503121561322457613223612953565b5b600061323285828601612ba0565b925050602061324385828601612ba0565b9150509250929050565b7f4e487b7100000000000000000000000000000000000000000000000000000000600052602260045260246000fd5b6000600282049050600182168061329457607f821691505b6020821081036132a7576132a661324d565b5b50919050565b7f4d617820737570706c7920726561636865640000000000000000000000000000600082015250565b60006132e3601283612a23565b91506132ee826132ad565b602082019050919050565b60006020820190508181036000830152613312816132d6565b9050919050565b7f496e73756666696369656e74207061796d656e74000000000000000000000000600082015250565b600061334f601483612a23565b915061335a82613319565b602082019050919050565b6000602082019050818103600083015261337e81613342565b9050919050565b7f4d6178207065722077616c6c6574207265616368656400000000000000000000600082015250565b60006133bb601683612a23565b91506133c682613385565b602082019050919050565b600060208201905081810360008301526133ea816133ae565b9050919050565b7f4d696e74206e6f74207374617274656400000000000000000000000000000000600082015250565b6000613427601083612a23565b9150613432826133f1565b602082019050919050565b600060208201905081810360008301526134568161341a565b9050919050565b7f4d696e7420656e64656400000000000000000000000000000000000000000000600082015250565b6000613493600a83612a23565b915061349e8261345d565b602082019050919050565b600060208201905081810360008301526134c281613486565b9050919050565b60006060820190506134de6000830186612b5f565b6134eb6020830185612e73565b6134f86040830184612b5f565b949350505050565b7f4e6f2062616c616e636520746f20776974686472617700000000000000000000600082015250565b6000613536601683612a23565b915061354182613500565b602082019050919050565b6000602082019050818103600083015261356581613529565b9050919050565b7f4e487b7100000000000000000000000000000000000000000000000000000000600052601160045260246000fd5b60006135a682612aca565b91506135b183612aca565b92508282026135bf81612aca565b915082820484148315176135d6576135d561356c565b5b5092915050565b7f4e487b7100000000000000000000000000000000000000000000000000000000600052601260045260246000fd5b600061361782612aca565b915061362283612aca565b925082613632576136316135dd565b5b828204905092915050565b600061364882612aca565b915061365383612aca565b925082820390508181111561366b5761366a61356c565b5b92915050565b600081905092915050565b50565b600061368c600083613671565b91506136978261367c565b600082019050919050565b60006136ad8261367f565b9150819050919050565b7f506c6174666f726d20666565207472616e73666572206661696c656400000000600082015250565b60006136ed601c83612a23565b91506136f8826136b7565b602082019050919050565b6000602082019050818103600083015261371c816136e0565b9050919050565b7f4f776e6572207472616e73666572206661696c65640000000000000000000000600082015250565b6000613759601583612a23565b915061376482613723565b602082019050919050565b600060208201905081810360008301526137888161374c565b9050919050565b60008190508160005260206000209050919050565b60006020601f8301049050919050565b600082821b905092915050565b6000600883026137f17fffffffffffffffffffffffffffffffffffffffffffffffffffffffffffffffff826137b4565b6137fb86836137b4565b95508019841693508086168417925050509392505050565b6000819050919050565b600061383861383361382e84612aca565b613813565b612aca565b9050919050565b6000819050919050565b6138528361381d565b61386661385e8261383f565b8484546137c1565b825550505050565b600090565b61387b61386e565b613886818484613849565b505050565b5b818110156138aa5761389f600082613873565b60018101905061388c565b5050565b601f8211156138ef576138c08161378f565b6138c9846137a4565b810160208510156138d8578190505b6138ec6138e4856137a4565b83018261388b565b50505b505050565b600082821c905092915050565b6000613912600019846008026138f4565b1980831691505092915050565b600061392b8383613901565b9150826002028217905092915050565b61394482612a18565b67ffffffffffffffff81111561395d5761395c612cd2565b5b613967825461327c565b6139728282856138ae565b600060209050601f8311600181146139a55760008415613993578287015190505b61399d858261391f565b865550613a05565b601f1984166139b38661378f565b60005b828110156139db578489015182556001820191506020850194506020810190506139b6565b868310156139f857848901516139f4601f891682613901565b8355505b6001600288020188555050505b505050505050565b6000613a1882612aca565b9150613a2383612aca565b9250828201905080821115613a3b57613a3a61356c565b5b92915050565b7f4e487b7100000000000000000000000000000000000000000000000000000000600052603260045260246000fd5b7f416c726561647920696e697469616c697a656400000000000000000000000000600082015250565b6000613aa6601383612a23565b9150613ab182613a70565b602082019050919050565b60006020820190508181036000830152613ad581613a99565b9050919050565b7f5175616e74697479206d757374206265203e2030000000000000000000000000600082015250565b6000613b12601483612a23565b9150613b1d82613adc565b602082019050919050565b60006020820190508181036000830152613b4181613b05565b9050919050565b7f45786365656473206d617820737570706c790000000000000000000000000000600082015250565b6000613b7e601283612a23565b9150613b8982613b48565b602082019050919050565b60006020820190508181036000830152613bad81613b71565b9050919050565b7f45786365656473206d6178207065722077616c6c657400000000000000000000600082015250565b6000613bea601683612a23565b9150613bf582613bb4565b602082019050919050565b60006020820190508181036000830152613c1981613bdd565b9050919050565b600081905092915050565b6000613c3682612a18565b613c408185613c20565b9350613c50818560208601612a34565b80840191505092915050565b6000613c688285613c2b565b9150613c748284613c2b565b91508190509392505050565b600081519050919050565b600082825260208201905092915050565b6000613ca782613c80565b613cb18185613c8b565b9350613cc1818560208601612a34565b613cca81612a5e565b840191505092915050565b6000608082019050613cea6000830187612b5f565b613cf76020830186612b5f565b613d046040830185612e73565b8181036060830152613d168184613c9c565b905095945050505050565b600081519050613d3081612989565b92915050565b600060208284031215613d4c57613d4b612953565b5b6000613d5a84828501613d21565b91505092915050565b6000604082019050613d786000830185612b5f565b613d856020830184612e73565b939250505056fea2646970667358221220fa5b0a7777e34ddfefba09165f8bae2a0f75a25828ea1b5e4ac5c0250858ddc664736f6c63430008140033",
  "linkReferences": {},
  "deployedLinkReferences": {}
}