{
  "_format": "hh-sol-artifact-1",
  "contractName": "NFTCollection",
  "sourceName": "contracts/NFTCollection.sol",
  "abi": [
    {
      "inputs": [],
      "stateMutability": "nonpayable",
      "type": "constructor"
    },
    {
      "inputs": [],
      "name": "ApprovalCallerNotOwnerNorApproved",
      "type": "error"
    },
    {
      "inputs": [],
      "name": "ApprovalQueryForNonexistentToken",
      "type": "error"
    },
    {
      "inputs": [],
      "name": "BalanceQueryForZeroAddress",
      "type": "error"
    },
    {
      "inputs": [],
      "name": "MintERC2309QuantityExceedsLimit",
      "type": "error"
    },
    {
      "inputs": [],
      "name": "MintToZeroAddress",
      "type": "error"
    },
    {
      "inputs": [],
      "name": "MintZeroQuantity",
      "type": "error"
    },
    {
      "inputs": [],
      "name": "NotCompatibleWithSpotMints",
      "type": "error"
    },
    {
      "inputs": [
        {
          "internalType": "address",
          "name": "owner",
          "type": "address"
        }
      ],
      "name": "OwnableInvalidOwner",
      "type": "error"
    },
    {
      "inputs": [
        {
          "internalType": "address",
          "name": "account",
          "type": "address"
        }
      ],
      "name": "OwnableUnauthorizedAccount",
      "type": "error"
    },
    {
      "inputs": [],
      "name": "OwnerQueryForNonexistentToken",
      "type": "error"
    },
    {
      "inputs": [],
      "name": "OwnershipNotInitializedForExtraData",
      "type": "error"
    },
    {
      "inputs": [],
      "name": "SequentialMintExceedsLimit",
      "type": "error"
    },
    {
      "inputs": [],
      "name": "SequentialUpToTooSmall",
      "type": "error"
    },
    {
      "inputs": [],
      "name": "SpotMintTokenIdTooSmall",
      "type": "error"
    },
    {
      "inputs": [],
      "name": "TokenAlreadyExists",
      "type": "error"
    },
    {
      "inputs": [],
      "name": "TransferCallerNotOwnerNorApproved",
      "type": "error"
    },
    {
      "inputs": [],
      "name": "TransferFromIncorrectOwner",
      "type": "error"
    },
    {
      "inputs": [],
      "name": "TransferToNonERC721ReceiverImplementer",
      "type": "error"
    },
    {
      "inputs": [],
      "name": "TransferToZeroAddress",
      "type": "error"
    },
    {
      "inputs": [],
      "name": "URIQueryForNonexistentToken",
      "type": "error"
    },
    {
      "anonymous": false,
      "inputs": [
        {
          "indexed": true,
          "internalType": "address",
          "name": "owner",
          "type": "address"
        },
        {
          "indexed": true,
          "internalType": "address",
          "name": "approved",
          "type": "address"
        },
        {
          "indexed": true,
          "internalType": "uint256",
          "name": "tokenId",
          "type": "uint256"
        }
      ],
      "name": "Approval",
      "type": "event"
    },
    {
      "anonymous": false,
      "inputs": [
        {
          "indexed": true,
          "internalType": "address",
          "name": "owner",
          "type": "address"
        },
        {
          "indexed": true,
          "internalType": "address",
          "name": "operator",
          "type": "address"
        },
        {
          "indexed": false,
          "internalType": "bool",
          "name": "approved",
          "type": "bool"
        }
      ],
      "name": "ApprovalForAll",
      "type": "event"
    },
    {
      "anonymous": false,
      "inputs": [
        {
          "indexed": true,
          "internalType": "uint256",
          "name": "fromTokenId",
          "type": "uint256"
        },
        {
          "indexed": false,
          "internalType": "uint256",
          "name": "toTokenId",
          "type": "uint256"
        },
        {
          "indexed": true,
          "internalType": "address",
          "name": "from",
          "type": "address"
        },
        {
          "indexed": true,
          "internalType": "address",
          "name": "to",
          "type": "address"
        }
      ],
      "name": "ConsecutiveTransfer",
      "type": "event"
    },
    {
      "anonymous": false,
      "inputs": [
        {
          "indexed": true,
          "internalType": "address",
          "name": "previousOwner",
          "type": "address"
        },
        {
          "indexed": true,
          "internalType": "address",
          "name": "newOwner",
          "type": "address"
        }
      ],
      "name": "OwnershipTransferred",
      "type": "event"
    },
    {
      "anonymous": false,
      "inputs": [
        {
          "indexed": true,
          "internalType": "address",
          "name": "from",
          "type": "address"
        },
        {
          "indexed": true,
          "internalType": "address",
          "name": "to",
          "type": "address"
        },
        {
          "indexed": true,
          "internalType": "uint256",
          "name": "tokenId",
          "type": "uint256"
        }
      ],
      "name": "Transfer",
      "type": "event"
    },
    {
      "inputs": [
        {
          "internalType": "address[]",
          "name": "recipients",
          "type": "address[]"
        }
      ],
      "name": "airdrop",
      "outputs": [],
      "stateMutability": "nonpayable",
      "type": "function"
    },
    {
      "inputs": [
        {
          "internalType": "address",
          "name": "to",
          "type": "address"
        },
        {
          "internalType": "uint256",
          "name": "tokenId",
          "type": "uint256"
        }
      ],
      "name": "approve",
      "outputs": [],
      "stateMutability": "payable",
      "type": "function"
    },
    {
      "inputs": [
        {
          "internalType": "address",
          "name": "owner",
          "type": "address"
        }
      ],
      "name": "balanceOf",
      "outputs": [
        {
          "internalType": "uint256",
          "name": "",
          "type": "uint256"
        }
      ],
      "stateMutability": "view",
      "type": "function"
    },
    {
      "inputs": [],
      "name": "collectionURI",
      "outputs": [
        {
          "internalType": "string",
          "name": "",
          "type": "string"
        }
      ],
      "stateMutability": "view",
      "type": "function"
    },
    {
      "inputs": [
        {
          "internalType": "uint256",
          "name": "tokenId",
          "type": "uint256"
        }
      ],
      "name": "getApproved",
      "outputs": [
        {
          "internalType": "address",
          "name": "",
          "type": "address"
        }
      ],
      "stateMutability": "view",
      "type": "function"
    },
    {
      "inputs": [
        {
          "internalType": "string",
          "name": "name_",
          "type": "string"
        },
        {
          "internalType": "string",
          "name": "symbol_",
          "type": "string"
        },
        {
          "internalType": "string",
          "name": "baseTokenURI_",
          "type": "string"
        },
        {
          "internalType": "uint256",
          "name": "maxSupply_",
          "type": "uint256"
        },
        {
          "internalType": "uint256",
          "name": "mintPrice_",
          "type": "uint256"
        },
        {
          "internalType": "uint256",
          "name": "maxPerWallet_",
          "type": "uint256"
        },
        {
          "internalType": "uint256",
          "name": "mintStart_",
          "type": "uint256"
        },
        {
          "internalType": "uint256",
          "name": "mintEnd_",
          "type": "uint256"
        },
        {
          "internalType": "address",
          "name": "owner_",
          "type": "address"
        },
        {
          "internalType": "address",
          "name": "platformAddress_",
          "type": "address"
        }
      ],
      "name": "initialize",
      "outputs": [],
      "stateMutability": "nonpayable",
      "type": "function"
    },
    {
      "inputs": [
        {
          "internalType": "address",
          "name": "owner",
          "type": "address"
        },
        {
          "internalType": "address",
          "name": "operator",
          "type": "address"
        }
      ],
      "name": "isApprovedForAll",
      "outputs": [
        {
          "internalType": "bool",
          "name": "",
          "type": "bool"
        }
      ],
      "stateMutability": "view",
      "type": "function"
    },
    {
      "inputs": [],
      "name": "maxPerWallet",
      "outputs": [
        {
          "internalType": "uint96",
          "name": "",
          "type": "uint96"
        }
      ],
      "stateMutability": "view",
      "type": "function"
    },
    {
      "inputs": [],
      "name": "maxSupply",
      "outputs": [
        {
          "internalType": "uint96",
          "name": "",
          "type": "uint96"
        }
      ],
      "stateMutability": "view",
      "type": "function"
    },
    {
      "inputs": [],
      "name": "mint",
      "outputs": [],
      "stateMutability": "payable",
      "type": "function"
    },
    {
      "inputs": [],
      "name": "mintEnd",
      "outputs": [
        {
          "internalType": "uint64",
          "name": "",
          "type": "uint64"
        }
      ],
      "stateMutability": "view",
      "type": "function"
    },
    {
      "inputs": [
        {
          "internalType": "uint256",
          "name": "quantity",
          "type": "uint256"
        }
      ],
      "name": "mintMultiple",
      "outputs": [],
      "stateMutability": "payable",
      "type": "function"
    },
    {
      "inputs": [],
      "name": "mintPrice",
      "outputs": [
        {
          "internalType": "uint96",
          "name": "",
          "type": "uint96"
        }
      ],
      "stateMutability": "view",
      "type": "function"
    },
    {
      "inputs": [],
      "name": "mintStart",
      "outputs": [
        {
          "internalType": "uint64",
          "name": "",
          "type": "uint64"
        }
      ],
      "stateMutability": "view",
      "type": "function"
    },
    {
      "inputs": [],
      "name": "name",
      "outputs": [
        {
          "internalType": "string",
          "name": "",
          "type": "string"
        }
      ],
      "stateMutability": "view",
      "type": "function"
    },
    {
      "inputs": [],
      "name": "owner",
      "outputs": [
        {
          "internalType": "address",
          "name": "",
          "type": "address"
        }
      ],
      "stateMutability": "view",
      "type": "function"
    },
    {
      "inputs": [
        {
          "internalType": "uint256",
          "name": "tokenId",
          "type": "uint256"
        }
      ],
      "name": "ownerOf",
      "outputs": [
        {
          "internalType": "address",
          "name": "",
          "type": "address"
        }
      ],
      "stateMutability": "view",
      "type": "function"
    },
    {
      "inputs": [],
      "name": "platformAddress",
      "outputs": [
        {
          "internalType": "address",
          "name": "",
          "type": "address"
        }
      ],
      "stateMutability": "view",
      "type": "function"
    },
    {
      "inputs": [],
      "name": "renounceOwnership",
      "outputs": [],
      "stateMutability": "nonpayable",
      "type": "function"
    },
    {
      "inputs": [
        {
          "internalType": "address",
          "name": "from",
          "type": "address"
        },
        {
          "internalType": "address",
          "name": "to",
          "type": "address"
        },
        {
          "internalType": "uint256",
          "name": "tokenId",
          "type": "uint256"
        }
      ],
      "name": "safeTransferFrom",
      "outputs": [],
      "stateMutability": "payable",
      "type": "function"
    },
    {
      "inputs": [
        {
          "internalType": "address",
          "name": "from",
          "type": "address"
        },
        {
          "internalType": "address",
          "name": "to",
          "type": "address"
        },
        {
          "internalType": "uint256",
          "name": "tokenId",
          "type": "uint256"
        },
        {
          "internalType": "bytes",
          "name": "_data",
          "type": "bytes"
        }
      ],
      "name": "safeTransferFrom",
      "outputs": [],
      "stateMutability": "payable",
      "type": "function"
    },
    {
      "inputs": [
        {
          "internalType": "address",
          "name": "operator",
          "type": "address"
        },
        {
          "internalType": "bool",
          "name": "approved",
          "type": "bool"
        }
      ],
      "name": "setApprovalForAll",
      "outputs": [],
      "stateMutability": "nonpayable",
      "type": "function"
    },
    {
      "inputs": [
        {
          "internalType": "string",
          "name": "newBaseURI",
          "type": "string"
        }
      ],
      "name": "setBaseURI",
      "outputs": [],
      "stateMutability": "nonpayable",
      "type": "function"
    },
    {
      "inputs": [
        {
          "internalType": "uint256",
          "name": "newMintPrice",
          "type": "uint256"
        }
      ],
      "name": "setMintPrice",
      "outputs": [],
      "stateMutability": "nonpayable",
      "type": "function"
    },
    {
      "inputs": [
        {
          "internalType": "bytes4",
          "name": "interfaceId",
          "type": "bytes4"
        }
      ],
      "name": "supportsInterface",
      "outputs": [
        {
          "internalType": "bool",
          "name": "",
          "type": "bool"
        }
      ],
      "stateMutability": "view",
      "type": "function"
    },
    {
      "inputs": [],
      "name": "symbol",
      "outputs": [
        {
          "internalType": "string",
          "name": "",
          "type": "string"
        }
      ],
      "stateMutability": "view",
      "type": "function"
    },
    {
      "inputs": [
        {
          "internalType": "uint256",
          "name": "tokenId",
          "type": "uint256"
        }
      ],
      "name": "tokenURI",
      "outputs": [
        {
          "internalType": "string",
          "name": "",
          "type": "string"
        }
      ],
      "stateMutability": "view",
      "type": "function"
    },
    {
      "inputs": [],
      "name": "totalMinted",
      "outputs": [
        {
          "internalType": "uint256",
          "name": "",
          "type": "uint256"
        }
      ],
      "stateMutability": "view",
      "type": "function"
    },
    {
      "inputs": [],
      "name": "totalSupply",
      "outputs": [
        {
          "internalType": "uint256",
          "name": "result",
          "type": "uint256"
        }
      ],
      "stateMutability": "view",
      "type": "function"
    },
    {
      "inputs": [
        {
          "internalType": "address",
          "name": "from",
          "type": "address"
        },
        {
          "internalType": "address",
          "name": "to",
          "type": "address"
        },
        {
          "internalType": "uint256",
          "name": "tokenId",
          "type": "uint256"
        }
      ],
      "name": "transferFrom",
      "outputs": [],
      "stateMutability": "payable",
      "type": "function"
    },
    {
      "inputs": [
        {
          "internalType": "address",
          "name": "newOwner",
          "type": "address"
        }
      ],
      "name": "transferOwnership",
      "outputs": [],
      "stateMutability": "nonpayable",
      "type": "function"
    },
    {
      "inputs": [],
      "name": "withdraw",
      "outputs": [],
      "stateMutability": "nonpayable",
      "type": "function"
    }
  ],
  "bytecode": "0x60806040523480156200001157600080fd5b503360405180602001604052806000815250604051806020016040528060008152508160029081620000449190620004b3565b508060039081620000569190620004b3565b50620000676200013c60201b60201c565b6000819055506200007d6200013c60201b60201c565b6200008d6200014160201b60201c565b1015620000ad57620000ac63fed8210f60e01b6200016960201b60201c565b5b5050600073ffffffffffffffffffffffffffffffffffffffff168173ffffffffffffffffffffffffffffffffffffffff1603620001245760006040517f1e4fbdf70000000000000000000000000000000000000000000000000000000081526004016200011b9190620005df565b60405180910390fd5b62000135816200017360201b60201c565b50620005fc565b600090565b60007fffffffffffffffffffffffffffffffffffffffffffffffffffffffffffffffff905090565b8060005260046000fd5b6000600960009054906101000a900473ffffffffffffffffffffffffffffffffffffffff16905081600960006101000a81548173ffffffffffffffffffffffffffffffffffffffff021916908373ffffffffffffffffffffffffffffffffffffffff1602179055508173ffffffffffffffffffffffffffffffffffffffff168173ffffffffffffffffffffffffffffffffffffffff167f8be0079c531659141344cd1fd0a4f28419497f9722a3daafe3b4186f6b6457e060405160405180910390a35050565b600081519050919050565b7f4e487b7100000000000000000000000000000000000000000000000000000000600052604160045260246000fd5b7f4e487b7100000000000000000000000000000000000000000000000000000000600052602260045260246000fd5b60006002820490506001821680620002bb57607f821691505b602082108103620002d157620002d062000273565b5b50919050565b60008190508160005260206000209050919050565b60006020601f8301049050919050565b600082821b905092915050565b6000600883026200033b7fffffffffffffffffffffffffffffffffffffffffffffffffffffffffffffffff82620002fc565b620003478683620002fc565b95508019841693508086168417925050509392505050565b6000819050919050565b6000819050919050565b6000620003946200038e62000388846200035f565b62000369565b6200035f565b9050919050565b6000819050919050565b620003b08362000373565b620003c8620003bf826200039b565b84845462000309565b825550505050565b600090565b620003df620003d0565b620003ec818484620003a5565b505050565b5b81811015620004145762000408600082620003d5565b600181019050620003f2565b5050565b601f82111562000463576200042d81620002d7565b6200043884620002ec565b8101602085101562000448578190505b620004606200045785620002ec565b830182620003f1565b50505b505050565b600082821c905092915050565b6000620004886000198460080262000468565b1980831691505092915050565b6000620004a3838362000475565b9150826002028217905092915050565b620004be8262000239565b67ffffffffffffffff811115620004da57620004d962000244565b5b620004e68254620002a2565b620004f382828562000418565b600060209050601f8311600181146200052b576000841562000516578287015190505b62000522858262000495565b86555062000592565b601f1984166200053b86620002d7565b60005b8281101562000565578489015182556001820191506020850194506020810190506200053e565b8683101562000585578489015162000581601f89168262000475565b8355505b6001600288020188555050505b505050505050565b600073ffffffffffffffffffffffffffffffffffffffff82169050919050565b6000620005c7826200059a565b9050919050565b620005d981620005ba565b82525050565b6000602082019050620005f66000830184620005ce565b92915050565b61371c806200060c6000396000f3fe6080604052600436106101e35760003560e01c8063729ad39e11610102578063b88d4fde11610095578063e985e9c511610064578063e985e9c51461065a578063ea2b4ab214610697578063f2fde38b146106c2578063f4a0a528146106eb576101e3565b8063b88d4fde146105ab578063c87b56dd146105c7578063d5abeb0114610604578063dbe55e561461062f576101e3565b8063a22cb465116100d1578063a22cb46514610510578063a2309ff814610539578063a5097ebf14610564578063abbb5a551461058f576101e3565b8063729ad39e146104685780638da5cb5b1461049157806395053efa146104bc57806395d89b41146104e5576101e3565b80633ccfd60b1161017a5780636352211e116101495780636352211e146103ac5780636817c76c146103e957806370a0823114610414578063715018a614610451576101e3565b80633ccfd60b1461032557806342842e0e1461033c578063453c23101461035857806355f804b314610383576101e3565b80631249c58b116101b65780631249c58b146102a957806318160ddd146102b357806323b872dd146102de578063255e4685146102fa576101e3565b806301ffc9a7146101e857806306fdde0314610225578063081812fc14610250578063095ea7b31461028d575b600080fd5b3480156101f457600080fd5b5061020f600480360381019061020a91906123b2565b610714565b60405161021c91906123fa565b60405180910390f35b34801561023157600080fd5b5061023a6107a6565b60405161024791906124a5565b60405180910390f35b34801561025c57600080fd5b50610277600480360381019061027291906124fd565b610838565b604051610284919061256b565b60405180910390f35b6102a760048036038101906102a291906125b2565b610896565b005b6102b16108a6565b005b3480156102bf57600080fd5b506102c86108b2565b6040516102d59190612601565b60405180910390f35b6102f860048036038101906102f3919061261c565b6108ff565b005b34801561030657600080fd5b5061030f610bc0565b60405161031c9190612692565b60405180910390f35b34801561033157600080fd5b5061033a610bda565b005b6103566004803603810190610351919061261c565b610de1565b005b34801561036457600080fd5b5061036d610e01565b60405161037a91906126d4565b60405180910390f35b34801561038f57600080fd5b506103aa60048036038101906103a59190612824565b610e1f565b005b3480156103b857600080fd5b506103d360048036038101906103ce91906124fd565b610e3a565b6040516103e0919061256b565b60405180910390f35b3480156103f557600080fd5b506103fe610e4c565b60405161040b91906126d4565b60405180910390f35b34801561042057600080fd5b5061043b6004803603810190610436919061286d565b610e6a565b6040516104489190612601565b60405180910390f35b34801561045d57600080fd5b50610466610f01565b005b34801561047457600080fd5b5061048f600480360381019061048a91906128fa565b610f15565b005b34801561049d57600080fd5b506104a6610ff0565b6040516104b3919061256b565b60405180910390f35b3480156104c857600080fd5b506104e360048036038101906104de9190612947565b61101a565b005b3480156104f157600080fd5b506104fa6111f0565b60405161050791906124a5565b60405180910390f35b34801561051c57600080fd5b5061053760048036038101906105329190612aa6565b611282565b005b34801561054557600080fd5b5061054e61138d565b60405161055b9190612601565b60405180910390f35b34801561057057600080fd5b5061057961139c565b60405161058691906124a5565b60405180910390f35b6105a960048036038101906105a491906124fd565b61142e565b005b6105c560048036038101906105c09190612b87565b6116e0565b005b3480156105d357600080fd5b506105ee60048036038101906105e991906124fd565b611732565b6040516105fb91906124a5565b60405180910390f35b34801561061057600080fd5b506106196117af565b60405161062691906126d4565b60405180910390f35b34801561063b57600080fd5b506106446117cd565b604051610651919061256b565b60405180910390f35b34801561066657600080fd5b50610681600480360381019061067c9190612c0a565b6117f3565b60405161068e91906123fa565b60405180910390f35b3480156106a357600080fd5b506106ac611887565b6040516106b99190612692565b60405180910390f35b3480156106ce57600080fd5b506106e960048036038101906106e4919061286d565b6118a1565b005b3480156106f757600080fd5b50610712600480360381019061070d91906124fd565b611927565b005b60006301ffc9a760e01b827bffffffffffffffffffffffffffffffffffffffffffffffffffffffff1916148061076f57506380ac58cd60e01b827bffffffffffffffffffffffffffffffffffffffffffffffffffffffff1916145b8061079f5750635b5e139f60e01b827bffffffffffffffffffffffffffffffffffffffffffffffffffffffff1916145b9050919050565b6060600c80546107b590612c79565b80601f01602080910402602001604051908101604052809291908181526020018280546107e190612c79565b801561082e5780601f106108035761010080835404028352916020019161082e565b820191906000526020600020905b81548152906001019060200180831161081157829003601f168201915b5050505050905090565b600061084382611963565b6108585761085763cf4700e460e01b611a0f565b5b6006600083815260200190815260200160002060000160009054906101000a900473ffffffffffffffffffffffffffffffffffffffff169050919050565b6108a282826001611a19565b5050565b6108b0600161142e565b565b60006108bc611b48565b600154600054030390507fffffffffffffffffffffffffffffffffffffffffffffffffffffffffffffffff6108ef611b4d565b146108fc57600854810190505b90565b600061090a82611b75565b905073ffffffffffffffffffffffffffffffffffffffff8473ffffffffffffffffffffffffffffffffffffffff161693508373ffffffffffffffffffffffffffffffffffffffff168173ffffffffffffffffffffffffffffffffffffffff161461097f5761097e63a114810060e01b611a0f565b5b60008061098b84611c8e565b915091506109a1818761099c611cb5565b611cbd565b6109cc576109b6866109b1611cb5565b6117f3565b6109cb576109ca6359c896be60e01b611a0f565b5b5b6109d98686866001611d01565b80156109e457600082555b600560008773ffffffffffffffffffffffffffffffffffffffff1673ffffffffffffffffffffffffffffffffffffffff168152602001908152602001600020600081546001900391905081905550600560008673ffffffffffffffffffffffffffffffffffffffff1673ffffffffffffffffffffffffffffffffffffffff1681526020019081526020016000206000815460010191905081905550610ab285610a8e888887611d07565b7c020000000000000000000000000000000000000000000000000000000017611d2f565b600460008681526020019081526020016000208190555060007c0200000000000000000000000000000000000000000000000000000000841603610b385760006001850190506000600460008381526020019081526020016000205403610b36576000548114610b35578360046000838152602001908152602001600020819055505b5b505b600073ffffffffffffffffffffffffffffffffffffffff8673ffffffffffffffffffffffffffffffffffffffff161690508481887fddf252ad1be2c89b69c2b068fc378daa952ba7f163c4a11628f55a4df523b3ef600080a460008103610baa57610ba963ea553b3460e01b611a0f565b5b610bb78787876001611d5a565b50505050505050565b600b600c9054906101000a900467ffffffffffffffff1681565b610be2611d60565b600047905060008111610c2a576040517f08c379a0000000000000000000000000000000000000000000000000000000008152600401610c2190612cf6565b60405180910390fd5b600061271061012c83610c3d9190612d45565b610c479190612db6565b905060008183610c579190612de7565b90506000600f60009054906101000a900473ffffffffffffffffffffffffffffffffffffffff1673ffffffffffffffffffffffffffffffffffffffff1683604051610ca190612e4c565b60006040518083038185875af1925050503d8060008114610cde576040519150601f19603f3d011682016040523d82523d6000602084013e610ce3565b606091505b5050905080610d27576040517f08c379a0000000000000000000000000000000000000000000000000000000008152600401610d1e90612ead565b60405180910390fd5b6000610d31610ff0565b73ffffffffffffffffffffffffffffffffffffffff1683604051610d5490612e4c565b60006040518083038185875af1925050503d8060008114610d91576040519150601f19603f3d011682016040523d82523d6000602084013e610d96565b606091505b5050905080610dda576040517f08c379a0000000000000000000000000000000000000000000000000000000008152600401610dd190612f19565b60405180910390fd5b5050505050565b610dfc838383604051806020016040528060008152506116e0565b505050565b600b60009054906101000a90046bffffffffffffffffffffffff1681565b610e27611d60565b80600e9081610e3691906130e5565b5050565b6000610e4582611b75565b9050919050565b600a600c9054906101000a90046bffffffffffffffffffffffff1681565b60008073ffffffffffffffffffffffffffffffffffffffff168273ffffffffffffffffffffffffffffffffffffffff1603610eb057610eaf638f4eb60460e01b611a0f565b5b67ffffffffffffffff600560008473ffffffffffffffffffffffffffffffffffffffff1673ffffffffffffffffffffffffffffffffffffffff16815260200190815260200160002054169050919050565b610f09611d60565b610f136000611de7565b565b610f1d611d60565b6000828290509050600a60009054906101000a90046bffffffffffffffffffffffff166bffffffffffffffffffffffff1681610f57611ead565b610f6191906131b7565b1115610fa2576040517f08c379a0000000000000000000000000000000000000000000000000000000008152600401610f9990613237565b60405180910390fd5b60005b81811015610fea57610fdf848483818110610fc357610fc2613257565b5b9050602002016020810190610fd8919061286d565b6001611ef6565b806001019050610fa5565b50505050565b6000600960009054906101000a900473ffffffffffffffffffffffffffffffffffffffff16905090565b600960149054906101000a900460ff161561106a576040517f08c379a0000000000000000000000000000000000000000000000000000000008152600401611061906132d2565b60405180910390fd5b6001600960146101000a81548160ff02191690831515021790555089600c908161109491906130e5565b5088600d90816110a491906130e5565b506110ae82611de7565b87600e90816110bd91906130e5565b5086600a60006101000a8154816bffffffffffffffffffffffff02191690836bffffffffffffffffffffffff16021790555085600a600c6101000a8154816bffffffffffffffffffffffff02191690836bffffffffffffffffffffffff16021790555084600b60006101000a8154816bffffffffffffffffffffffff02191690836bffffffffffffffffffffffff16021790555083600b600c6101000a81548167ffffffffffffffff021916908367ffffffffffffffff16021790555082600b60146101000a81548167ffffffffffffffff021916908367ffffffffffffffff16021790555080600f60006101000a81548173ffffffffffffffffffffffffffffffffffffffff021916908373ffffffffffffffffffffffffffffffffffffffff16021790555050505050505050505050565b6060600d80546111ff90612c79565b80601f016020809104026020016040519081016040528092919081815260200182805461122b90612c79565b80156112785780601f1061124d57610100808354040283529160200191611278565b820191906000526020600020905b81548152906001019060200180831161125b57829003601f168201915b5050505050905090565b806007600061128f611cb5565b73ffffffffffffffffffffffffffffffffffffffff1673ffffffffffffffffffffffffffffffffffffffff16815260200190815260200160002060008473ffffffffffffffffffffffffffffffffffffffff1673ffffffffffffffffffffffffffffffffffffffff16815260200190815260200160002060006101000a81548160ff0219169083151502179055508173ffffffffffffffffffffffffffffffffffffffff1661133c611cb5565b73ffffffffffffffffffffffffffffffffffffffff167f17307eab39ab6107e8899845ad3d59bd9653f200f220920489ca2b5937696c318360405161138191906123fa565b60405180910390a35050565b6000611397611ead565b905090565b6060600e80546113ab90612c79565b80601f01602080910402602001604051908101604052809291908181526020018280546113d790612c79565b80156114245780601f106113f957610100808354040283529160200191611424565b820191906000526020600020905b81548152906001019060200180831161140757829003601f168201915b5050505050905090565b60008111611471576040517f08c379a00000000000000000000000000000000000000000000000000000000081526004016114689061333e565b60405180910390fd5b600a60009054906101000a90046bffffffffffffffffffffffff166bffffffffffffffffffffffff16816114a3611ead565b6114ad91906131b7565b11156114ee576040517f08c379a00000000000000000000000000000000000000000000000000000000081526004016114e5906133aa565b60405180910390fd5b600b60009054906101000a90046bffffffffffffffffffffffff166bffffffffffffffffffffffff16816115213361207c565b61152b91906131b7565b111561156c576040517f08c379a000000000000000000000000000000000000000000000000000000000815260040161156390613416565b60405180910390fd5b80600a600c9054906101000a90046bffffffffffffffffffffffff166bffffffffffffffffffffffff166115a09190612d45565b3410156115e2576040517f08c379a00000000000000000000000000000000000000000000000000000000081526004016115d990613482565b60405180910390fd5b600b600c9054906101000a900467ffffffffffffffff1667ffffffffffffffff16421015611645576040517f08c379a000000000000000000000000000000000000000000000000000000000815260040161163c906134ee565b60405180910390fd5b6000600b60149054906101000a900467ffffffffffffffff1667ffffffffffffffff1614806116945750600b60149054906101000a900467ffffffffffffffff1667ffffffffffffffff164211155b6116d3576040517f08c379a00000000000000000000000000000000000000000000000000000000081526004016116ca9061355a565b60405180910390fd5b6116dd3382611ef6565b50565b6116eb8484846108ff565b60008373ffffffffffffffffffffffffffffffffffffffff163b1461172c57611716848484846120d3565b61172b5761172a63d1a57ed660e01b611a0f565b5b5b50505050565b606061173d82611963565b6117525761175163a14c4b5060e01b611a0f565b5b600061175c612202565b9050600081510361177c57604051806020016040528060008152506117a7565b8061178684612294565b6040516020016117979291906135b6565b6040516020818303038152906040525b915050919050565b600a60009054906101000a90046bffffffffffffffffffffffff1681565b600f60009054906101000a900473ffffffffffffffffffffffffffffffffffffffff1681565b6000600760008473ffffffffffffffffffffffffffffffffffffffff1673ffffffffffffffffffffffffffffffffffffffff16815260200190815260200160002060008373ffffffffffffffffffffffffffffffffffffffff1673ffffffffffffffffffffffffffffffffffffffff16815260200190815260200160002060009054906101000a900460ff16905092915050565b600b60149054906101000a900467ffffffffffffffff1681565b6118a9611d60565b600073ffffffffffffffffffffffffffffffffffffffff168173ffffffffffffffffffffffffffffffffffffffff160361191b5760006040517f1e4fbdf7000000000000000000000000000000000000000000000000000000008152600401611912919061256b565b60405180910390fd5b61192481611de7565b50565b61192f611d60565b80600a600c6101000a8154816bffffffffffffffffffffffff02191690836bffffffffffffffffffffffff16021790555050565b60008161196e611b48565b11611a095761197b611b4d565b8211156119a55761199e60046000848152602001908152602001600020546122e4565b9050611a0a565b600054821015611a085760005b60006004600085815260200190815260200160002054915081036119e157826119da906135da565b92506119b2565b60007c01000000000000000000000000000000000000000000000000000000008216149150505b5b5b919050565b8060005260046000fd5b6000611a2483610e3a565b9050818015611a6657508073ffffffffffffffffffffffffffffffffffffffff16611a4d611cb5565b73ffffffffffffffffffffffffffffffffffffffff1614155b15611a9257611a7c81611a77611cb5565b6117f3565b611a9157611a9063cfb3b94260e01b611a0f565b5b5b836006600085815260200190815260200160002060000160006101000a81548173ffffffffffffffffffffffffffffffffffffffff021916908373ffffffffffffffffffffffffffffffffffffffff160217905550828473ffffffffffffffffffffffffffffffffffffffff168273ffffffffffffffffffffffffffffffffffffffff167f8c5be1e5ebec7d5bd14f71427d1e84f3dd0314c0f7b2291e5b200ac8c7c3b92560405160405180910390a450505050565b600090565b60007fffffffffffffffffffffffffffffffffffffffffffffffffffffffffffffffff905090565b600081611b80611b48565b11611c785760046000838152602001908152602001600020549050611ba3611b4d565b821115611bc857611bb3816122e4565b611c8957611bc763df2d9b4260e01b611a0f565b5b60008103611c4f576000548210611bea57611be963df2d9b4260e01b611a0f565b5b5b60046000836001900393508381526020019081526020016000205490506000810315611c4a5760007c010000000000000000000000000000000000000000000000000000000082160315611c8957611c4963df2d9b4260e01b611a0f565b5b611beb565b60007c010000000000000000000000000000000000000000000000000000000082160315611c89575b611c8863df2d9b4260e01b611a0f565b5b919050565b60008060006006600085815260200190815260200160002090508092508254915050915091565b600033905090565b600073ffffffffffffffffffffffffffffffffffffffff8316925073ffffffffffffffffffffffffffffffffffffffff821691508382148383141790509392505050565b50505050565b60008060e883901c905060e8611d1e868684612325565b62ffffff16901b9150509392505050565b600073ffffffffffffffffffffffffffffffffffffffff83169250814260a01b178317905092915050565b50505050565b611d6861232e565b73ffffffffffffffffffffffffffffffffffffffff16611d86610ff0565b73ffffffffffffffffffffffffffffffffffffffff1614611de557611da961232e565b6040517f118cdaa7000000000000000000000000000000000000000000000000000000008152600401611ddc919061256b565b60405180910390fd5b565b6000600960009054906101000a900473ffffffffffffffffffffffffffffffffffffffff16905081600960006101000a81548173ffffffffffffffffffffffffffffffffffffffff021916908373ffffffffffffffffffffffffffffffffffffffff1602179055508173ffffffffffffffffffffffffffffffffffffffff168173ffffffffffffffffffffffffffffffffffffffff167f8be0079c531659141344cd1fd0a4f28419497f9722a3daafe3b4186f6b6457e060405160405180910390a35050565b6000611eb7611b48565b6000540390507fffffffffffffffffffffffffffffffffffffffffffffffffffffffffffffffff611ee6611b4d565b14611ef357600854810190505b90565b60008054905060008203611f1557611f1463b562e8dd60e01b611a0f565b5b611f226000848385611d01565b611f4283611f336000866000611d07565b611f3c85612336565b17611d2f565b6004600083815260200190815260200160002081905550600160406001901b178202600560008573ffffffffffffffffffffffffffffffffffffffff1673ffffffffffffffffffffffffffffffffffffffff16815260200190815260200160002060008282540192505081905550600073ffffffffffffffffffffffffffffffffffffffff8473ffffffffffffffffffffffffffffffffffffffff1616905060008103611ffa57611ff9632e07630060e01b611a0f565b5b60008383019050600083905061200e611b4d565b600183031115612029576120286381647e3a60e01b611a0f565b5b5b808360007fddf252ad1be2c89b69c2b068fc378daa952ba7f163c4a11628f55a4df523b3ef600080a481816001019150810361202a57816000819055505050506120776000848385611d5a565b505050565b600067ffffffffffffffff6040600560008573ffffffffffffffffffffffffffffffffffffffff1673ffffffffffffffffffffffffffffffffffffffff16815260200190815260200160002054901c169050919050565b60008373ffffffffffffffffffffffffffffffffffffffff1663150b7a026120f9611cb5565b8786866040518563ffffffff1660e01b815260040161211b9493929190613658565b6020604051808303816000875af192505050801561215757506040513d601f19601f8201168201806040525081019061215491906136b9565b60015b6121af573d8060008114612187576040519150601f19603f3d011682016040523d82523d6000602084013e61218c565b606091505b5060008151036121a7576121a663d1a57ed660e01b611a0f565b5b805181602001fd5b63150b7a0260e01b7bffffffffffffffffffffffffffffffffffffffffffffffffffffffff1916817bffffffffffffffffffffffffffffffffffffffffffffffffffffffff191614915050949350505050565b6060600e805461221190612c79565b80601f016020809104026020016040519081016040528092919081815260200182805461223d90612c79565b801561228a5780601f1061225f5761010080835404028352916020019161228a565b820191906000526020600020905b81548152906001019060200180831161226d57829003601f168201915b5050505050905090565b606060a060405101806040526020810391506000825281835b6001156122cf57600184039350600a81066030018453600a81049050806122ad575b50828103602084039350808452505050919050565b60007c0100000000000000000000000000000000000000000000000000000000821673ffffffffffffffffffffffffffffffffffffffff8316119050919050565b60009392505050565b600033905090565b60006001821460e11b9050919050565b6000604051905090565b600080fd5b600080fd5b60007fffffffff0000000000000000000000000000000000000000000000000000000082169050919050565b61238f8161235a565b811461239a57600080fd5b50565b6000813590506123ac81612386565b92915050565b6000602082840312156123c8576123c7612350565b5b60006123d68482850161239d565b91505092915050565b60008115159050919050565b6123f4816123df565b82525050565b600060208201905061240f60008301846123eb565b92915050565b600081519050919050565b600082825260208201905092915050565b60005b8381101561244f578082015181840152602081019050612434565b60008484015250505050565b6000601f19601f8301169050919050565b600061247782612415565b6124818185612420565b9350612491818560208601612431565b61249a8161245b565b840191505092915050565b600060208201905081810360008301526124bf818461246c565b905092915050565b6000819050919050565b6124da816124c7565b81146124e557600080fd5b50565b6000813590506124f7816124d1565b92915050565b60006020828403121561251357612512612350565b5b6000612521848285016124e8565b91505092915050565b600073ffffffffffffffffffffffffffffffffffffffff82169050919050565b60006125558261252a565b9050919050565b6125658161254a565b82525050565b6000602082019050612580600083018461255c565b92915050565b61258f8161254a565b811461259a57600080fd5b50565b6000813590506125ac81612586565b92915050565b600080604083850312156125c9576125c8612350565b5b60006125d78582860161259d565b92505060206125e8858286016124e8565b9150509250929050565b6125fb816124c7565b82525050565b600060208201905061261660008301846125f2565b92915050565b60008060006060848603121561263557612634612350565b5b60006126438682870161259d565b93505060206126548682870161259d565b9250506040612665868287016124e8565b9150509250925092565b600067ffffffffffffffff82169050919050565b61268c8161266f565b82525050565b60006020820190506126a76000830184612683565b92915050565b60006bffffffffffffffffffffffff82169050919050565b6126ce816126ad565b82525050565b60006020820190506126e960008301846126c5565b92915050565b600080fd5b600080fd5b7f4e487b7100000000000000000000000000000000000000000000000000000000600052604160045260246000fd5b6127318261245b565b810181811067ffffffffffffffff821117156127505761274f6126f9565b5b80604052505050565b6000612763612346565b905061276f8282612728565b919050565b600067ffffffffffffffff82111561278f5761278e6126f9565b5b6127988261245b565b9050602081019050919050565b82818337600083830152505050565b60006127c76127c284612774565b612759565b9050828152602081018484840111156127e3576127e26126f4565b5b6127ee8482856127a5565b509392505050565b600082601f83011261280b5761280a6126ef565b5b813561281b8482602086016127b4565b91505092915050565b60006020828403121561283a57612839612350565b5b600082013567ffffffffffffffff81111561285857612857612355565b5b612864848285016127f6565b91505092915050565b60006020828403121561288357612882612350565b5b60006128918482850161259d565b91505092915050565b600080fd5b600080fd5b60008083601f8401126128ba576128b96126ef565b5b8235905067ffffffffffffffff8111156128d7576128d661289a565b5b6020830191508360208202830111156128f3576128f261289f565b5b9250929050565b6000806020838503121561291157612910612350565b5b600083013567ffffffffffffffff81111561292f5761292e612355565b5b61293b858286016128a4565b92509250509250929050565b6000806000806000806000806000806101408b8d03121561296b5761296a612350565b5b60008b013567ffffffffffffffff81111561298957612988612355565b5b6129958d828e016127f6565b9a505060208b013567ffffffffffffffff8111156129b6576129b5612355565b5b6129c28d828e016127f6565b99505060408b013567ffffffffffffffff8111156129e3576129e2612355565b5b6129ef8d828e016127f6565b9850506060612a008d828e016124e8565b9750506080612a118d828e016124e8565b96505060a0612a228d828e016124e8565b95505060c0612a338d828e016124e8565b94505060e0612a448d828e016124e8565b935050610100612a568d828e0161259d565b925050610120612a688d828e0161259d565b9150509295989b9194979a5092959850565b612a83816123df565b8114612a8e57600080fd5b50565b600081359050612aa081612a7a565b92915050565b60008060408385031215612abd57612abc612350565b5b6000612acb8582860161259d565b9250506020612adc85828601612a91565b9150509250929050565b600067ffffffffffffffff821115612b0157612b006126f9565b5b612b0a8261245b565b9050602081019050919050565b6000612b2a612b2584612ae6565b612759565b905082815260208101848484011115612b4657612b456126f4565b5b612b518482856127a5565b509392505050565b600082601f830112612b6e57612b6d6126ef565b5b8135612b7e848260208601612b17565b91505092915050565b60008060008060808587031215612ba157612ba0612350565b5b6000612baf8782880161259d565b9450506020612bc08782880161259d565b9350506040612bd1878288016124e8565b925050606085013567ffffffffffffffff811115612bf257612bf1612355565b5b612bfe87828801612b59565b91505092959194509250565b60008060408385031215612c2157612c20612350565b5b6000612c2f8582860161259d565b9250506020612c408582860161259d565b9150509250929050565b7f4e487b7100000000000000000000000000000000000000000000000000000000600052602260045260246000fd5b60006002820490506001821680612c9157607f821691505b602082108103612ca457612ca3612c4a565b5b50919050565b7f4e6f2062616c616e636520746f20776974686472617700000000000000000000600082015250565b6000612ce0601683612420565b9150612ceb82612caa565b602082019050919050565b60006020820190508181036000830152612d0f81612cd3565b9050919050565b7f4e487b7100000000000000000000000000000000000000000000000000000000600052601160045260246000fd5b6000612d50826124c7565b9150612d5b836124c7565b9250828202612d69816124c7565b91508282048414831517612d8057612d7f612d16565b5b5092915050565b7f4e487b7100000000000000000000000000000000000000000000000000000000600052601260045260246000fd5b6000612dc1826124c7565b9150612dcc836124c7565b925082612ddc57612ddb612d87565b5b828204905092915050565b6000612df2826124c7565b9150612dfd836124c7565b9250828203905081811115612e1557612e14612d16565b5b92915050565b600081905092915050565b50565b6000612e36600083612e1b565b9150612e4182612e26565b600082019050919050565b6000612e5782612e29565b9150819050919050565b7f506c6174666f726d20666565207472616e73666572206661696c656400000000600082015250565b6000612e97601c83612420565b9150612ea282612e61565b602082019050919050565b60006020820190508181036000830152612ec681612e8a565b9050919050565b7f4f776e6572207472616e73666572206661696c65640000000000000000000000600082015250565b6000612f03601583612420565b9150612f0e82612ecd565b602082019050919050565b60006020820190508181036000830152612f3281612ef6565b9050919050565b60008190508160005260206000209050919050565b60006020601f8301049050919050565b600082821b905092915050565b600060088302612f9b7fffffffffffffffffffffffffffffffffffffffffffffffffffffffffffffffff82612f5e565b612fa58683612f5e565b95508019841693508086168417925050509392505050565b6000819050919050565b6000612fe2612fdd612fd8846124c7565b612fbd565b6124c7565b9050919050565b6000819050919050565b612ffc83612fc7565b61301061300882612fe9565b848454612f6b565b825550505050565b600090565b613025613018565b613030818484612ff3565b505050565b5b818110156130545761304960008261301d565b600181019050613036565b5050565b601f8211156130995761306a81612f39565b61307384612f4e565b81016020851015613082578190505b61309661308e85612f4e565b830182613035565b50505b505050565b600082821c905092915050565b60006130bc6000198460080261309e565b1980831691505092915050565b60006130d583836130ab565b9150826002028217905092915050565b6130ee82612415565b67ffffffffffffffff811115613107576131066126f9565b5b6131118254612c79565b61311c828285613058565b600060209050601f83116001811461314f576000841561313d578287015190505b61314785826130c9565b8655506131af565b601f19841661315d86612f39565b60005b8281101561318557848901518255600182019150602085019450602081019050613160565b868310156131a2578489015161319e601f8916826130ab565b8355505b6001600288020188555050505b505050505050565b60006131c2826124c7565b91506131cd836124c7565b92508282019050808211156131e5576131e4612d16565b5b92915050565b7f4d617820737570706c7920726561636865640000000000000000000000000000600082015250565b6000613221601283612420565b915061322c826131eb565b602082019050919050565b6000602082019050818103600083015261325081613214565b9050919050565b7f4e487b7100000000000000000000000000000000000000000000000000000000600052603260045260246000fd5b7f416c726561647920696e697469616c697a656400000000000000000000000000600082015250565b60006132bc601383612420565b91506132c782613286565b602082019050919050565b600060208201905081810360008301526132eb816132af565b9050919050565b7f5175616e74697479206d757374206265203e2030000000000000000000000000600082015250565b6000613328601483612420565b9150613333826132f2565b602082019050919050565b600060208201905081810360008301526133578161331b565b9050919050565b7f45786365656473206d617820737570706c790000000000000000000000000000600082015250565b6000613394601283612420565b915061339f8261335e565b602082019050919050565b600060208201905081810360008301526133c381613387565b9050919050565b7f45786365656473206d6178207065722077616c6c657400000000000000000000600082015250565b6000613400601683612420565b915061340b826133ca565b602082019050919050565b6000602082019050818103600083015261342f816133f3565b9050919050565b7f496e73756666696369656e74207061796d656e74000000000000000000000000600082015250565b600061346c601483612420565b915061347782613436565b602082019050919050565b6000602082019050818103600083015261349b8161345f565b9050919050565b7f4d696e74206e6f74207374617274656400000000000000000000000000000000600082015250565b60006134d8601083612420565b91506134e3826134a2565b602082019050919050565b60006020820190508181036000830152613507816134cb565b9050919050565b7f4d696e7420656e64656400000000000000000000000000000000000000000000600082015250565b6000613544600a83612420565b915061354f8261350e565b602082019050919050565b6000602082019050818103600083015261357381613537565b9050919050565b600081905092915050565b600061359082612415565b61359a818561357a565b93506135aa818560208601612431565b80840191505092915050565b60006135c28285613585565b91506135ce8284613585565b91508190509392505050565b60006135e5826124c7565b9150600082036135f8576135f7612d16565b5b600182039050919050565b600081519050919050565b600082825260208201905092915050565b600061362a82613603565b613634818561360e565b9350613644818560208601612431565b61364d8161245b565b840191505092915050565b600060808201905061366d600083018761255c565b61367a602083018661255c565b61368760408301856125f2565b8181036060830152613699818461361f565b905095945050505050565b6000815190506136b381612386565b92915050565b6000602082840312156136cf576136ce612350565b5b60006136dd848285016136a4565b9150509291505056fea2646970667358221220d8addf9fe2ed213383af8d08a218736876d59dc3820e063ee107a5c38bad371464736f6c63430008140033",
  "linkReferences": {},
  "deployedLinkReferences": {}
}