{
  "_format": "hh-sol-artifact-1",
  "contractName": "ArcNFT",
  "sourceName": "contracts/ArcNFT.sol",
  "abi": [
    {
      "inputs": [],
      "stateMutability": "nonpayable",
      "type": "constructor"
    },
    {
      "inputs": [
        {
          "internalType": "address",
          "name": "sender",
          "type": "address"
        },
        {
          "internalType": "uint256",
          "name": "tokenId",
          "type": "uint256"
        },
        {
          "internalType": "address",
          "name": "owner",
          "type": "address"
        }
      ],
      "name": "ERC721IncorrectOwner",
      "type": "error"
    },
    {
      "inputs": [
        {
          "internalType": "address",
          "name": "operator",
          "type": "address"
        },
        {
          "internalType": "uint256",
          "name": "tokenId",
          "type": "uint256"
        }
      ],
      "name": "ERC721InsufficientApproval",
      "type": "error"
    },
    {
      "inputs": [
        {
          "internalType": "address",
          "name": "approver",
          "type": "address"
        }
      ],
      "name": "ERC721InvalidApprover",
      "type": "error"
    },
    {
      "inputs": [
        {
          "internalType": "address",
          "name": "operator",
          "type": "address"
        }
      ],
      "name": "ERC721InvalidOperator",
      "type": "error"
    },
    {
      "inputs": [
        {
          "internalType": "address",
          "name": "owner",
          "type": "address"
        }
      ],
      "name": "ERC721InvalidOwner",
      "type": "error"
    },
    {
      "inputs": [
        {
          "internalType": "address",
          "name": "receiver",
          "type": "address"
        }
      ],
      "name": "ERC721InvalidReceiver",
      "type": "error"
    },
    {
      "inputs": [
        {
          "internalType": "address",
          "name": "sender",
          "type": "address"
        }
      ],
      "name": "ERC721InvalidSender",
      "type": "error"
    },
    {
      "inputs": [
        {
          "internalType": "uint256",
          "name": "tokenId",
          "type": "uint256"
        }
      ],
      "name": "ERC721NonexistentToken",
      "type": "error"
    },
    {
      "inputs": [
        {
          "internalType": "address",
          "name": "owner",
          "type": "address"
        }
      ],
      "name": "OwnableInvalidOwner",
      "type": "error"
    },
    {
      "inputs": [
        {
          "internalType": "address",
          "name": "account",
          "type": "address"
        }
      ],
      "name": "OwnableUnauthorizedAccount",
      "type": "error"
    },
    {
      "anonymous": false,
      "inputs": [
        {
          "indexed": true,
          "internalType": "address",
          "name": "owner",
          "type": "address"
        },
        {
          "indexed": true,
          "internalType": "address",
          "name": "approved",
          "type": "address"
        },
        {
          "indexed": true,
          "internalType": "uint256",
          "name": "tokenId",
          "type": "uint256"
        }
      ],
      "name": "Approval",
      "type": "event"
    },
    {
      "anonymous": false,
      "inputs": [
        {
          "indexed": true,
          "internalType": "address",
          "name": "owner",
          "type": "address"
        },
        {
          "indexed": true,
          "internalType": "address",
          "name": "operator",
          "type": "address"
        },
        {
          "indexed": false,
          "internalType": "bool",
          "name": "approved",
          "type": "bool"
        }
      ],
      "name": "ApprovalForAll",
      "type": "event"
    },
    {
      "anonymous": false,
      "inputs": [
        {
          "indexed": false,
          "internalType": "uint256",
          "name": "_fromTokenId",
          "type": "uint256"
        },
        {
          "indexed": false,
          "internalType": "uint256",
          "name": "_toTokenId",
          "type": "uint256"
        }
      ],
      "name": "BatchMetadataUpdate",
      "type": "event"
    },
    {
      "anonymous": false,
      "inputs": [
        {
          "indexed": false,
          "internalType": "uint256",
          "name": "_tokenId",
          "type": "uint256"
        }
      ],
      "name": "MetadataUpdate",
      "type": "event"
    },
    {
      "anonymous": false,
      "inputs": [
        {
          "indexed": true,
          "internalType": "address",
          "name": "previousOwner",
          "type": "address"
        },
        {
          "indexed": true,
          "internalType": "address",
          "name": "newOwner",
          "type": "address"
        }
      ],
      "name": "OwnershipTransferred",
      "type": "event"
    },
    {
      "anonymous": false,
      "inputs": [
        {
          "indexed": true,
          "internalType": "address",
          "name": "from",
          "type": "address"
        },
        {
          "indexed": true,
          "internalType": "address",
          "name": "to",
          "type": "address"
        },
        {
          "indexed": true,
          "internalType": "uint256",
          "name": "tokenId",
          "type": "uint256"
        }
      ],
      "name": "Transfer",
      "type": "event"
    },
    {
      "inputs": [
        {
          "internalType": "address",
          "name": "to",
          "type": "address"
        },
        {
          "internalType": "uint256",
          "name": "tokenId",
          "type": "uint256"
        }
      ],
      "name": "approve",
      "outputs": [],
      "stateMutability": "nonpayable",
      "type": "function"
    },
    {
      "inputs": [
        {
          "internalType": "address",
          "name": "owner",
          "type": "address"
        }
      ],
      "name": "balanceOf",
      "outputs": [
        {
          "internalType": "uint256",
          "name": "",
          "type": "uint256"
        }
      ],
      "stateMutability": "view",
      "type": "function"
    },
    {
      "inputs": [
        {
          "internalType": "uint256",
          "name": "tokenId",
          "type": "uint256"
        }
      ],
      "name": "getApproved",
      "outputs": [
        {
          "internalType": "address",
          "name": "",
          "type": "address"
        }
      ],
      "stateMutability": "view",
      "type": "function"
    },
    {
      "inputs": [
        {
          "internalType": "address",
          "name": "owner",
          "type": "address"
        },
        {
          "internalType": "address",
          "name": "operator",
          "type": "address"
        }
      ],
      "name": "isApprovedForAll",
      "outputs": [
        {
          "internalType": "bool",
          "name": "",
          "type": "bool"
        }
      ],
      "stateMutability": "view",
      "type": "function"
    },
    {
      "inputs": [
        {
          "internalType": "address",
          "name": "to",
          "type": "address"
        },
        {
          "internalType": "string",
          "name": "uri",
          "type": "string"
        }
      ],
      "name": "mint",
      "outputs": [
        {
          "internalType": "uint256",
          "name": "",
          "type": "uint256"
        }
      ],
      "stateMutability": "nonpayable",
      "type": "function"
    },
    {
      "inputs": [],
      "name": "name",
      "outputs": [
        {
          "internalType": "string",
          "name": "",
          "type": "string"
        }
      ],
      "stateMutability": "view",
      "type": "function"
    },
    {
      "inputs": [],
      "name": "owner",
      "outputs": [
        {
          "internalType": "address",
          "name": "",
          "type": "address"
        }
      ],
      "stateMutability": "view",
      "type": "function"
    },
    {
      "inputs": [
        {
          "internalType": "uint256",
          "name": "tokenId",
          "type": "uint256"
        }
      ],
      "name": "ownerOf",
      "outputs": [
        {
          "internalType": "address",
          "name": "",
          "type": "address"
        }
      ],
      "stateMutability": "view",
      "type": "function"
    },
    {
      "inputs": [],
      "name": "renounceOwnership",
      "outputs": [],
      "stateMutability": "nonpayable",
      "type": "function"
    },
    {
      "inputs": [
        {
          "internalType": "address",
          "name": "from",
          "type": "address"
        },
        {
          "internalType": "address",
          "name": "to",
          "type": "address"
        },
        {
          "internalType": "uint256",
          "name": "tokenId",
          "type": "uint256"
        }
      ],
      "name": "safeTransferFrom",
      "outputs": [],
      "stateMutability": "nonpayable",
      "type": "function"
    },
    {
      "inputs": [
        {
          "internalType": "address",
          "name": "from",
          "type": "address"
        },
        {
          "internalType": "address",
          "name": "to",
          "type": "address"
        },
        {
          "internalType": "uint256",
          "name": "tokenId",
          "type": "uint256"
        },
        {
          "internalType": "bytes",
          "name": "data",
          "type": "bytes"
        }
      ],
      "name": "safeTransferFrom",
      "outputs": [],
      "stateMutability": "nonpayable",
      "type": "function"
    },
    {
      "inputs": [
        {
          "internalType": "address",
          "name": "operator",
          "type": "address"
        },
        {
          "internalType": "bool",
          "name": "approved",
          "type": "bool"
        }
      ],
      "name": "setApprovalForAll",
      "outputs": [],
      "stateMutability": "nonpayable",
      "type": "function"
    },
    {
      "inputs": [
        {
          "internalType": "bytes4",
          "name": "interfaceId",
          "type": "bytes4"
        }
      ],
      "name": "supportsInterface",
      "outputs": [
        {
          "internalType": "bool",
          "name": "",
          "type": "bool"
        }
      ],
      "stateMutability": "view",
      "type": "function"
    },
    {
      "inputs": [],
      "name": "symbol",
      "outputs": [
        {
          "internalType": "string",
          "name": "",
          "type": "string"
        }
      ],
      "stateMutability": "view",
      "type": "function"
    },
    {
      "inputs": [
        {
          "internalType": "uint256",
          "name": "tokenId",
          "type": "uint256"
        }
      ],
      "name": "tokenURI",
      "outputs": [
        {
          "internalType": "string",
          "name": "",
          "type": "string"
        }
      ],
      "stateMutability": "view",
      "type": "function"
    },
    {
      "inputs": [
        {
          "internalType": "address",
          "name": "from",
          "type": "address"
        },
        {
          "internalType": "address",
          "name": "to",
          "type": "address"
        },
        {
          "internalType": "uint256",
          "name": "tokenId",
          "type": "uint256"
        }
      ],
      "name": "transferFrom",
      "outputs": [],
      "stateMutability": "nonpayable",
      "type": "function"
    },
    {
      "inputs": [
        {
          "internalType": "address",
          "name": "newOwner",
          "type": "address"
        }
      ],
      "name": "transferOwnership",
      "outputs": [],
      "stateMutability": "nonpayable",
      "type": "function"
    }
  ],
  "bytecode": "0x60806040523480156200001157600080fd5b50336040518060400160405280600e81526020017f41726320536861726564204e46540000000000000000000000000000000000008152506040518060400160405280600681526020017f4152434e46540000000000000000000000000000000000000000000000000000815250816000908162000090919062000472565b508060019081620000a2919062000472565b505050600073ffffffffffffffffffffffffffffffffffffffff168173ffffffffffffffffffffffffffffffffffffffff16036200011a5760006040517f1e4fbdf70000000000000000000000000000000000000000000000000000000081526004016200011191906200059e565b60405180910390fd5b6200012b816200013260201b60201c565b50620005bb565b6000600760009054906101000a900473ffffffffffffffffffffffffffffffffffffffff16905081600760006101000a81548173ffffffffffffffffffffffffffffffffffffffff021916908373ffffffffffffffffffffffffffffffffffffffff1602179055508173ffffffffffffffffffffffffffffffffffffffff168173ffffffffffffffffffffffffffffffffffffffff167f8be0079c531659141344cd1fd0a4f28419497f9722a3daafe3b4186f6b6457e060405160405180910390a35050565b600081519050919050565b7f4e487b7100000000000000000000000000000000000000000000000000000000600052604160045260246000fd5b7f4e487b7100000000000000000000000000000000000000000000000000000000600052602260045260246000fd5b600060028204905060018216806200027a57607f821691505b60208210810362000290576200028f62000232565b5b50919050565b60008190508160005260206000209050919050565b60006020601f8301049050919050565b600082821b905092915050565b600060088302620002fa7fffffffffffffffffffffffffffffffffffffffffffffffffffffffffffffffff82620002bb565b620003068683620002bb565b95508019841693508086168417925050509392505050565b6000819050919050565b6000819050919050565b6000620003536200034d62000347846200031e565b62000328565b6200031e565b9050919050565b6000819050919050565b6200036f8362000332565b620003876200037e826200035a565b848454620002c8565b825550505050565b600090565b6200039e6200038f565b620003ab81848462000364565b505050565b5b81811015620003d357620003c760008262000394565b600181019050620003b1565b5050565b601f8211156200042257620003ec8162000296565b620003f784620002ab565b8101602085101562000407578190505b6200041f6200041685620002ab565b830182620003b0565b50505b505050565b600082821c905092915050565b6000620004476000198460080262000427565b1980831691505092915050565b600062000462838362000434565b9150826002028217905092915050565b6200047d82620001f8565b67ffffffffffffffff81111562000499576200049862000203565b5b620004a5825462000261565b620004b2828285620003d7565b600060209050601f831160018114620004ea5760008415620004d5578287015190505b620004e1858262000454565b86555062000551565b601f198416620004fa8662000296565b60005b828110156200052457848901518255600182019150602085019450602081019050620004fd565b8683101562000544578489015162000540601f89168262000434565b8355505b6001600288020188555050505b505050505050565b600073ffffffffffffffffffffffffffffffffffffffff82169050919050565b6000620005868262000559565b9050919050565b620005988162000579565b82525050565b6000602082019050620005b560008301846200058d565b92915050565b61263480620005cb6000396000f3fe608060405234801561001057600080fd5b506004361061010b5760003560e01c8063715018a6116100a2578063b88d4fde11610071578063b88d4fde146102a4578063c87b56dd146102c0578063d0def521146102f0578063e985e9c514610320578063f2fde38b146103505761010b565b8063715018a6146102425780638da5cb5b1461024c57806395d89b411461026a578063a22cb465146102885761010b565b806323b872dd116100de57806323b872dd146101aa57806342842e0e146101c65780636352211e146101e257806370a08231146102125761010b565b806301ffc9a71461011057806306fdde0314610140578063081812fc1461015e578063095ea7b31461018e575b600080fd5b61012a60048036038101906101259190611a8c565b61036c565b6040516101379190611ad4565b60405180910390f35b6101486103cd565b6040516101559190611b7f565b60405180910390f35b61017860048036038101906101739190611bd7565b61045f565b6040516101859190611c45565b60405180910390f35b6101a860048036038101906101a39190611c8c565b61047b565b005b6101c460048036038101906101bf9190611ccc565b610491565b005b6101e060048036038101906101db9190611ccc565b610593565b005b6101fc60048036038101906101f79190611bd7565b6105b3565b6040516102099190611c45565b60405180910390f35b61022c60048036038101906102279190611d1f565b6105c5565b6040516102399190611d5b565b60405180910390f35b61024a61067f565b005b610254610693565b6040516102619190611c45565b60405180910390f35b6102726106bd565b60405161027f9190611b7f565b60405180910390f35b6102a2600480360381019061029d9190611da2565b61074f565b005b6102be60048036038101906102b99190611f17565b610765565b005b6102da60048036038101906102d59190611bd7565b61078a565b6040516102e79190611b7f565b60405180910390f35b61030a6004803603810190610305919061203b565b61089d565b6040516103179190611d5b565b60405180910390f35b61033a60048036038101906103359190612097565b6108d7565b6040516103479190611ad4565b60405180910390f35b61036a60048036038101906103659190611d1f565b61096b565b005b6000634906490660e01b7bffffffffffffffffffffffffffffffffffffffffffffffffffffffff1916827bffffffffffffffffffffffffffffffffffffffffffffffffffffffff191614806103c657506103c5826109f1565b5b9050919050565b6060600080546103dc90612106565b80601f016020809104026020016040519081016040528092919081815260200182805461040890612106565b80156104555780601f1061042a57610100808354040283529160200191610455565b820191906000526020600020905b81548152906001019060200180831161043857829003601f168201915b5050505050905090565b600061046a82610ad3565b5061047482610b5b565b9050919050565b61048d8282610488610b98565b610ba0565b5050565b600073ffffffffffffffffffffffffffffffffffffffff168273ffffffffffffffffffffffffffffffffffffffff16036105035760006040517f64a0ae920000000000000000000000000000000000000000000000000000000081526004016104fa9190611c45565b60405180910390fd5b60006105178383610512610b98565b610bb2565b90508373ffffffffffffffffffffffffffffffffffffffff168173ffffffffffffffffffffffffffffffffffffffff161461058d578382826040517f64283d7b00000000000000000000000000000000000000000000000000000000815260040161058493929190612137565b60405180910390fd5b50505050565b6105ae83838360405180602001604052806000815250610765565b505050565b60006105be82610ad3565b9050919050565b60008073ffffffffffffffffffffffffffffffffffffffff168273ffffffffffffffffffffffffffffffffffffffff16036106385760006040517f89c62b6400000000000000000000000000000000000000000000000000000000815260040161062f9190611c45565b60405180910390fd5b600360008373ffffffffffffffffffffffffffffffffffffffff1673ffffffffffffffffffffffffffffffffffffffff168152602001908152602001600020549050919050565b610687610dcc565b6106916000610e53565b565b6000600760009054906101000a900473ffffffffffffffffffffffffffffffffffffffff16905090565b6060600180546106cc90612106565b80601f01602080910402602001604051908101604052809291908181526020018280546106f890612106565b80156107455780601f1061071a57610100808354040283529160200191610745565b820191906000526020600020905b81548152906001019060200180831161072857829003601f168201915b5050505050905090565b61076161075a610b98565b8383610f19565b5050565b610770848484610491565b61078461077b610b98565b85858585611088565b50505050565b606061079582610ad3565b5060006006600084815260200190815260200160002080546107b690612106565b80601f01602080910402602001604051908101604052809291908181526020018280546107e290612106565b801561082f5780601f106108045761010080835404028352916020019161082f565b820191906000526020600020905b81548152906001019060200180831161081257829003601f168201915b505050505090506000610840611239565b90506000815103610855578192505050610898565b60008251111561088a5780826040516020016108729291906121aa565b60405160208183030381529060405292505050610898565b61089384611250565b925050505b919050565b600080600860008154809291906108b3906121fd565b9190505590506108c384826112b9565b6108cd81846113b2565b8091505092915050565b6000600560008473ffffffffffffffffffffffffffffffffffffffff1673ffffffffffffffffffffffffffffffffffffffff16815260200190815260200160002060008373ffffffffffffffffffffffffffffffffffffffff1673ffffffffffffffffffffffffffffffffffffffff16815260200190815260200160002060009054906101000a900460ff16905092915050565b610973610dcc565b600073ffffffffffffffffffffffffffffffffffffffff168173ffffffffffffffffffffffffffffffffffffffff16036109e55760006040517f1e4fbdf70000000000000000000000000000000000000000000000000000000081526004016109dc9190611c45565b60405180910390fd5b6109ee81610e53565b50565b60007f80ac58cd000000000000000000000000000000000000000000000000000000007bffffffffffffffffffffffffffffffffffffffffffffffffffffffff1916827bffffffffffffffffffffffffffffffffffffffffffffffffffffffff19161480610abc57507f5b5e139f000000000000000000000000000000000000000000000000000000007bffffffffffffffffffffffffffffffffffffffffffffffffffffffff1916827bffffffffffffffffffffffffffffffffffffffffffffffffffffffff1916145b80610acc5750610acb8261140e565b5b9050919050565b600080610adf83611478565b9050600073ffffffffffffffffffffffffffffffffffffffff168173ffffffffffffffffffffffffffffffffffffffff1603610b5257826040517f7e273289000000000000000000000000000000000000000000000000000000008152600401610b499190611d5b565b60405180910390fd5b80915050919050565b60006004600083815260200190815260200160002060009054906101000a900473ffffffffffffffffffffffffffffffffffffffff169050919050565b600033905090565b610bad83838360016114b5565b505050565b600080610bbe84611478565b9050600073ffffffffffffffffffffffffffffffffffffffff168373ffffffffffffffffffffffffffffffffffffffff1614610c0057610bff81848661167a565b5b600073ffffffffffffffffffffffffffffffffffffffff168173ffffffffffffffffffffffffffffffffffffffff1614610c9157610c426000856000806114b5565b6001600360008373ffffffffffffffffffffffffffffffffffffffff1673ffffffffffffffffffffffffffffffffffffffff168152602001908152602001600020600082825403925050819055505b600073ffffffffffffffffffffffffffffffffffffffff168573ffffffffffffffffffffffffffffffffffffffff1614610d14576001600360008773ffffffffffffffffffffffffffffffffffffffff1673ffffffffffffffffffffffffffffffffffffffff168152602001908152602001600020600082825401925050819055505b846002600086815260200190815260200160002060006101000a81548173ffffffffffffffffffffffffffffffffffffffff021916908373ffffffffffffffffffffffffffffffffffffffff160217905550838573ffffffffffffffffffffffffffffffffffffffff168273ffffffffffffffffffffffffffffffffffffffff167fddf252ad1be2c89b69c2b068fc378daa952ba7f163c4a11628f55a4df523b3ef60405160405180910390a4809150509392505050565b610dd4610b98565b73ffffffffffffffffffffffffffffffffffffffff16610df2610693565b73ffffffffffffffffffffffffffffffffffffffff1614610e5157610e15610b98565b6040517f118cdaa7000000000000000000000000000000000000000000000000000000008152600401610e489190611c45565b60405180910390fd5b565b6000600760009054906101000a900473ffffffffffffffffffffffffffffffffffffffff16905081600760006101000a81548173ffffffffffffffffffffffffffffffffffffffff021916908373ffffffffffffffffffffffffffffffffffffffff1602179055508173ffffffffffffffffffffffffffffffffffffffff168173ffffffffffffffffffffffffffffffffffffffff167f8be0079c531659141344cd1fd0a4f28419497f9722a3daafe3b4186f6b6457e060405160405180910390a35050565b600073ffffffffffffffffffffffffffffffffffffffff168273ffffffffffffffffffffffffffffffffffffffff1603610f8a57816040517f5b08ba18000000000000000000000000000000000000000000000000000000008152600401610f819190611c45565b60405180910390fd5b80600560008573ffffffffffffffffffffffffffffffffffffffff1673ffffffffffffffffffffffffffffffffffffffff16815260200190815260200160002060008473ffffffffffffffffffffffffffffffffffffffff1673ffffffffffffffffffffffffffffffffffffffff16815260200190815260200160002060006101000a81548160ff0219169083151502179055508173ffffffffffffffffffffffffffffffffffffffff168373ffffffffffffffffffffffffffffffffffffffff167f17307eab39ab6107e8899845ad3d59bd9653f200f220920489ca2b5937696c318360405161107b9190611ad4565b60405180910390a3505050565b60008373ffffffffffffffffffffffffffffffffffffffff163b1115611232578273ffffffffffffffffffffffffffffffffffffffff1663150b7a02868685856040518563ffffffff1660e01b81526004016110e7949392919061229a565b6020604051808303816000875af192505050801561112357506040513d601f19601f8201168201806040525081019061112091906122fb565b60015b6111a7573d8060008114611153576040519150601f19603f3d011682016040523d82523d6000602084013e611158565b606091505b50600081510361119f57836040517f64a0ae920000000000000000000000000000000000000000000000000000000081526004016111969190611c45565b60405180910390fd5b805160208201fd5b63150b7a0260e01b7bffffffffffffffffffffffffffffffffffffffffffffffffffffffff1916817bffffffffffffffffffffffffffffffffffffffffffffffffffffffff19161461123057836040517f64a0ae920000000000000000000000000000000000000000000000000000000081526004016112279190611c45565b60405180910390fd5b505b5050505050565b606060405180602001604052806000815250905090565b606061125b82610ad3565b506000611266611239565b9050600081511161128657604051806020016040528060008152506112b1565b806112908461173e565b6040516020016112a19291906121aa565b6040516020818303038152906040525b915050919050565b600073ffffffffffffffffffffffffffffffffffffffff168273ffffffffffffffffffffffffffffffffffffffff160361132b5760006040517f64a0ae920000000000000000000000000000000000000000000000000000000081526004016113229190611c45565b60405180910390fd5b600061133983836000610bb2565b9050600073ffffffffffffffffffffffffffffffffffffffff168173ffffffffffffffffffffffffffffffffffffffff16146113ad5760006040517f73c6ac6e0000000000000000000000000000000000000000000000000000000081526004016113a49190611c45565b60405180910390fd5b505050565b806006600084815260200190815260200160002090816113d291906124d4565b507ff8e1a15aba9398e019f0b49df1a4fde98ee17ae345cb5f6b5e2c27f5033e8ce7826040516114029190611d5b565b60405180910390a15050565b60007f01ffc9a7000000000000000000000000000000000000000000000000000000007bffffffffffffffffffffffffffffffffffffffffffffffffffffffff1916827bffffffffffffffffffffffffffffffffffffffffffffffffffffffff1916149050919050565b60006002600083815260200190815260200160002060009054906101000a900473ffffffffffffffffffffffffffffffffffffffff169050919050565b80806114ee5750600073ffffffffffffffffffffffffffffffffffffffff168273ffffffffffffffffffffffffffffffffffffffff1614155b156116225760006114fe84610ad3565b9050600073ffffffffffffffffffffffffffffffffffffffff168373ffffffffffffffffffffffffffffffffffffffff161415801561156957508273ffffffffffffffffffffffffffffffffffffffff168173ffffffffffffffffffffffffffffffffffffffff1614155b801561157c575061157a81846108d7565b155b156115be57826040517fa9fbf51f0000000000000000000000000000000000000000000000000000000081526004016115b59190611c45565b60405180910390fd5b811561162057838573ffffffffffffffffffffffffffffffffffffffff168273ffffffffffffffffffffffffffffffffffffffff167f8c5be1e5ebec7d5bd14f71427d1e84f3dd0314c0f7b2291e5b200ac8c7c3b92560405160405180910390a45b505b836004600085815260200190815260200160002060006101000a81548173ffffffffffffffffffffffffffffffffffffffff021916908373ffffffffffffffffffffffffffffffffffffffff16021790555050505050565b61168583838361180c565b61173957600073ffffffffffffffffffffffffffffffffffffffff168373ffffffffffffffffffffffffffffffffffffffff16036116fa57806040517f7e2732890000000000000000000000000000000000000000000000000000000081526004016116f19190611d5b565b60405180910390fd5b81816040517f177e802f0000000000000000000000000000000000000000000000000000000081526004016117309291906125a6565b60405180910390fd5b505050565b60606000600161174d846118cd565b01905060008167ffffffffffffffff81111561176c5761176b611dec565b5b6040519080825280601f01601f19166020018201604052801561179e5781602001600182028036833780820191505090505b509050600082602083010190505b600115611801578080600190039150507f3031323334353637383961626364656600000000000000000000000000000000600a86061a8153600a85816117f5576117f46125cf565b5b049450600085036117ac575b819350505050919050565b60008073ffffffffffffffffffffffffffffffffffffffff168373ffffffffffffffffffffffffffffffffffffffff16141580156118c457508273ffffffffffffffffffffffffffffffffffffffff168473ffffffffffffffffffffffffffffffffffffffff161480611885575061188484846108d7565b5b806118c357508273ffffffffffffffffffffffffffffffffffffffff166118ab83610b5b565b73ffffffffffffffffffffffffffffffffffffffff16145b5b90509392505050565b600080600090507a184f03e93ff9f4daa797ed6e38ed64bf6a1f010000000000000000831061192b577a184f03e93ff9f4daa797ed6e38ed64bf6a1f0100000000000000008381611921576119206125cf565b5b0492506040810190505b6d04ee2d6d415b85acef81000000008310611968576d04ee2d6d415b85acef8100000000838161195e5761195d6125cf565b5b0492506020810190505b662386f26fc10000831061199757662386f26fc10000838161198d5761198c6125cf565b5b0492506010810190505b6305f5e10083106119c0576305f5e10083816119b6576119b56125cf565b5b0492506008810190505b61271083106119e55761271083816119db576119da6125cf565b5b0492506004810190505b60648310611a0857606483816119fe576119fd6125cf565b5b0492506002810190505b600a8310611a17576001810190505b80915050919050565b6000604051905090565b600080fd5b600080fd5b60007fffffffff0000000000000000000000000000000000000000000000000000000082169050919050565b611a6981611a34565b8114611a7457600080fd5b50565b600081359050611a8681611a60565b92915050565b600060208284031215611aa257611aa1611a2a565b5b6000611ab084828501611a77565b91505092915050565b60008115159050919050565b611ace81611ab9565b82525050565b6000602082019050611ae96000830184611ac5565b92915050565b600081519050919050565b600082825260208201905092915050565b60005b83811015611b29578082015181840152602081019050611b0e565b60008484015250505050565b6000601f19601f8301169050919050565b6000611b5182611aef565b611b5b8185611afa565b9350611b6b818560208601611b0b565b611b7481611b35565b840191505092915050565b60006020820190508181036000830152611b998184611b46565b905092915050565b6000819050919050565b611bb481611ba1565b8114611bbf57600080fd5b50565b600081359050611bd181611bab565b92915050565b600060208284031215611bed57611bec611a2a565b5b6000611bfb84828501611bc2565b91505092915050565b600073ffffffffffffffffffffffffffffffffffffffff82169050919050565b6000611c2f82611c04565b9050919050565b611c3f81611c24565b82525050565b6000602082019050611c5a6000830184611c36565b92915050565b611c6981611c24565b8114611c7457600080fd5b50565b600081359050611c8681611c60565b92915050565b60008060408385031215611ca357611ca2611a2a565b5b6000611cb185828601611c77565b9250506020611cc285828601611bc2565b9150509250929050565b600080600060608486031215611ce557611ce4611a2a565b5b6000611cf386828701611c77565b9350506020611d0486828701611c77565b9250506040611d1586828701611bc2565b9150509250925092565b600060208284031215611d3557611d34611a2a565b5b6000611d4384828501611c77565b91505092915050565b611d5581611ba1565b82525050565b6000602082019050611d706000830184611d4c565b92915050565b611d7f81611ab9565b8114611d8a57600080fd5b50565b600081359050611d9c81611d76565b92915050565b60008060408385031215611db957611db8611a2a565b5b6000611dc785828601611c77565b9250506020611dd885828601611d8d565b9150509250929050565b600080fd5b600080fd5b7f4e487b7100000000000000000000000000000000000000000000000000000000600052604160045260246000fd5b611e2482611b35565b810181811067ffffffffffffffff82111715611e4357611e42611dec565b5b80604052505050565b6000611e56611a20565b9050611e628282611e1b565b919050565b600067ffffffffffffffff821115611e8257611e81611dec565b5b611e8b82611b35565b9050602081019050919050565b82818337600083830152505050565b6000611eba611eb584611e67565b611e4c565b905082815260208101848484011115611ed657611ed5611de7565b5b611ee1848285611e98565b509392505050565b600082601f830112611efe57611efd611de2565b5b8135611f0e848260208601611ea7565b91505092915050565b60008060008060808587031215611f3157611f30611a2a565b5b6000611f3f87828801611c77565b9450506020611f5087828801611c77565b9350506040611f6187828801611bc2565b925050606085013567ffffffffffffffff811115611f8257611f81611a2f565b5b611f8e87828801611ee9565b91505092959194509250565b600067ffffffffffffffff821115611fb557611fb4611dec565b5b611fbe82611b35565b9050602081019050919050565b6000611fde611fd984611f9a565b611e4c565b905082815260208101848484011115611ffa57611ff9611de7565b5b612005848285611e98565b509392505050565b600082601f83011261202257612021611de2565b5b8135612032848260208601611fcb565b91505092915050565b6000806040838503121561205257612051611a2a565b5b600061206085828601611c77565b925050602083013567ffffffffffffffff81111561208157612080611a2f565b5b61208d8582860161200d565b9150509250929050565b600080604083850312156120ae576120ad611a2a565b5b60006120bc85828601611c77565b92505060206120cd85828601611c77565b9150509250929050565b7f4e487b7100000000000000000000000000000000000000000000000000000000600052602260045260246000fd5b6000600282049050600182168061211e57607f821691505b602082108103612131576121306120d7565b5b50919050565b600060608201905061214c6000830186611c36565b6121596020830185611d4c565b6121666040830184611c36565b949350505050565b600081905092915050565b600061218482611aef565b61218e818561216e565b935061219e818560208601611b0b565b80840191505092915050565b60006121b68285612179565b91506121c28284612179565b91508190509392505050565b7f4e487b7100000000000000000000000000000000000000000000000000000000600052601160045260246000fd5b600061220882611ba1565b91507fffffffffffffffffffffffffffffffffffffffffffffffffffffffffffffffff820361223a576122396121ce565b5b600182019050919050565b600081519050919050565b600082825260208201905092915050565b600061226c82612245565b6122768185612250565b9350612286818560208601611b0b565b61228f81611b35565b840191505092915050565b60006080820190506122af6000830187611c36565b6122bc6020830186611c36565b6122c96040830185611d4c565b81810360608301526122db8184612261565b905095945050505050565b6000815190506122f581611a60565b92915050565b60006020828403121561231157612310611a2a565b5b600061231f848285016122e6565b91505092915050565b60008190508160005260206000209050919050565b60006020601f8301049050919050565b600082821b905092915050565b60006008830261238a7fffffffffffffffffffffffffffffffffffffffffffffffffffffffffffffffff8261234d565b612394868361234d565b95508019841693508086168417925050509392505050565b6000819050919050565b60006123d16123cc6123c784611ba1565b6123ac565b611ba1565b9050919050565b6000819050919050565b6123eb836123b6565b6123ff6123f7826123d8565b84845461235a565b825550505050565b600090565b612414612407565b61241f8184846123e2565b505050565b5b818110156124435761243860008261240c565b600181019050612425565b5050565b601f8211156124885761245981612328565b6124628461233d565b81016020851015612471578190505b61248561247d8561233d565b830182612424565b50505b505050565b600082821c905092915050565b60006124ab6000198460080261248d565b1980831691505092915050565b60006124c4838361249a565b9150826002028217905092915050565b6124dd82611aef565b67ffffffffffffffff8111156124f6576124f5611dec565b5b6125008254612106565b61250b828285612447565b600060209050601f83116001811461253e576000841561252c578287015190505b61253685826124b8565b86555061259e565b601f19841661254c86612328565b60005b828110156125745784890151825560018201915060208501945060208101905061254f565b86831015612591578489015161258d601f89168261249a565b8355505b6001600288020188555050505b505050505050565b60006040820190506125bb6000830185611c36565b6125c86020830184611d4c565b9392505050565b7f4e487b7100000000000000000000000000000000000000000000000000000000600052601260045260246000fdfea26469706673582212204e5cc275ccbf32c804323b8c526eb8fa24a05131dc026900d5a2fd308a8870ba64736f6c63430008140033",
  "linkReferences": {},
  "deployedLinkReferences": {}
}