{
  "_format": "hh-sol-artifact-1",
  "contractName": "NFTCollection",
  "sourceName": "contracts/NFTCollection.sol",
  "abi": [
    {
      "inputs": [],
      "stateMutability": "nonpayable",
      "type": "constructor"
    },
    {
      "inputs": [
        {
          "internalType": "address",
          "name": "sender",
          "type": "address"
        },
        {
          "internalType": "uint256",
          "name": "tokenId",
          "type": "uint256"
        },
        {
          "internalType": "address",
          "name": "owner",
          "type": "address"
        }
      ],
      "name": "ERC721IncorrectOwner",
      "type": "error"
    },
    {
      "inputs": [
        {
          "internalType": "address",
          "name": "operator",
          "type": "address"
        },
        {
          "internalType": "uint256",
          "name": "tokenId",
          "type": "uint256"
        }
      ],
      "name": "ERC721InsufficientApproval",
      "type": "error"
    },
    {
      "inputs": [
        {
          "internalType": "address",
          "name": "approver",
          "type": "address"
        }
      ],
      "name": "ERC721InvalidApprover",
      "type": "error"
    },
    {
      "inputs": [
        {
          "internalType": "address",
          "name": "operator",
          "type": "address"
        }
      ],
      "name": "ERC721InvalidOperator",
      "type": "error"
    },
    {
      "inputs": [
        {
          "internalType": "address",
          "name": "owner",
          "type": "address"
        }
      ],
      "name": "ERC721InvalidOwner",
      "type": "error"
    },
    {
      "inputs": [
        {
          "internalType": "address",
          "name": "receiver",
          "type": "address"
        }
      ],
      "name": "ERC721InvalidReceiver",
      "type": "error"
    },
    {
      "inputs": [
        {
          "internalType": "address",
          "name": "sender",
          "type": "address"
        }
      ],
      "name": "ERC721InvalidSender",
      "type": "error"
    },
    {
      "inputs": [
        {
          "internalType": "uint256",
          "name": "tokenId",
          "type": "uint256"
        }
      ],
      "name": "ERC721NonexistentToken",
      "type": "error"
    },
    {
      "inputs": [
        {
          "internalType": "address",
          "name": "owner",
          "type": "address"
        }
      ],
      "name": "OwnableInvalidOwner",
      "type": "error"
    },
    {
      "inputs": [
        {
          "internalType": "address",
          "name": "account",
          "type": "address"
        }
      ],
      "name": "OwnableUnauthorizedAccount",
      "type": "error"
    },
    {
      "anonymous": false,
      "inputs": [
        {
          "indexed": true,
          "internalType": "address",
          "name": "owner",
          "type": "address"
        },
        {
          "indexed": true,
          "internalType": "address",
          "name": "approved",
          "type": "address"
        },
        {
          "indexed": true,
          "internalType": "uint256",
          "name": "tokenId",
          "type": "uint256"
        }
      ],
      "name": "Approval",
      "type": "event"
    },
    {
      "anonymous": false,
      "inputs": [
        {
          "indexed": true,
          "internalType": "address",
          "name": "owner",
          "type": "address"
        },
        {
          "indexed": true,
          "internalType": "address",
          "name": "operator",
          "type": "address"
        },
        {
          "indexed": false,
          "internalType": "bool",
          "name": "approved",
          "type": "bool"
        }
      ],
      "name": "ApprovalForAll",
      "type": "event"
    },
    {
      "anonymous": false,
      "inputs": [
        {
          "indexed": true,
          "internalType": "address",
          "name": "previousOwner",
          "type": "address"
        },
        {
          "indexed": true,
          "internalType": "address",
          "name": "newOwner",
          "type": "address"
        }
      ],
      "name": "OwnershipTransferred",
      "type": "event"
    },
    {
      "anonymous": false,
      "inputs": [
        {
          "indexed": true,
          "internalType": "address",
          "name": "from",
          "type": "address"
        },
        {
          "indexed": true,
          "internalType": "address",
          "name": "to",
          "type": "address"
        },
        {
          "indexed": true,
          "internalType": "uint256",
          "name": "tokenId",
          "type": "uint256"
        }
      ],
      "name": "Transfer",
      "type": "event"
    },
    {
      "inputs": [
        {
          "internalType": "address[]",
          "name": "recipients",
          "type": "address[]"
        }
      ],
      "name": "airdrop",
      "outputs": [],
      "stateMutability": "nonpayable",
      "type": "function"
    },
    {
      "inputs": [
        {
          "internalType": "address",
          "name": "to",
          "type": "address"
        },
        {
          "internalType": "uint256",
          "name": "tokenId",
          "type": "uint256"
        }
      ],
      "name": "approve",
      "outputs": [],
      "stateMutability": "nonpayable",
      "type": "function"
    },
    {
      "inputs": [
        {
          "internalType": "address",
          "name": "owner",
          "type": "address"
        }
      ],
      "name": "balanceOf",
      "outputs": [
        {
          "internalType": "uint256",
          "name": "",
          "type": "uint256"
        }
      ],
      "stateMutability": "view",
      "type": "function"
    },
    {
      "inputs": [],
      "name": "collectionURI",
      "outputs": [
        {
          "internalType": "string",
          "name": "",
          "type": "string"
        }
      ],
      "stateMutability": "view",
      "type": "function"
    },
    {
      "inputs": [
        {
          "internalType": "uint256",
          "name": "tokenId",
          "type": "uint256"
        }
      ],
      "name": "getApproved",
      "outputs": [
        {
          "internalType": "address",
          "name": "",
          "type": "address"
        }
      ],
      "stateMutability": "view",
      "type": "function"
    },
    {
      "inputs": [
        {
          "internalType": "string",
          "name": "name_",
          "type": "string"
        },
        {
          "internalType": "string",
          "name": "symbol_",
          "type": "string"
        },
        {
          "internalType": "string",
          "name": "baseTokenURI_",
          "type": "string"
        },
        {
          "internalType": "uint256",
          "name": "maxSupply_",
          "type": "uint256"
        },
        {
          "internalType": "uint256",
          "name": "mintPrice_",
          "type": "uint256"
        },
        {
          "internalType": "address",
          "name": "owner_",
          "type": "address"
        }
      ],
      "name": "initialize",
      "outputs": [],
      "stateMutability": "nonpayable",
      "type": "function"
    },
    {
      "inputs": [
        {
          "internalType": "address",
          "name": "owner",
          "type": "address"
        },
        {
          "internalType": "address",
          "name": "operator",
          "type": "address"
        }
      ],
      "name": "isApprovedForAll",
      "outputs": [
        {
          "internalType": "bool",
          "name": "",
          "type": "bool"
        }
      ],
      "stateMutability": "view",
      "type": "function"
    },
    {
      "inputs": [],
      "name": "maxSupply",
      "outputs": [
        {
          "internalType": "uint96",
          "name": "",
          "type": "uint96"
        }
      ],
      "stateMutability": "view",
      "type": "function"
    },
    {
      "inputs": [],
      "name": "mint",
      "outputs": [],
      "stateMutability": "payable",
      "type": "function"
    },
    {
      "inputs": [],
      "name": "mintPrice",
      "outputs": [
        {
          "internalType": "uint96",
          "name": "",
          "type": "uint96"
        }
      ],
      "stateMutability": "view",
      "type": "function"
    },
    {
      "inputs": [],
      "name": "name",
      "outputs": [
        {
          "internalType": "string",
          "name": "",
          "type": "string"
        }
      ],
      "stateMutability": "view",
      "type": "function"
    },
    {
      "inputs": [],
      "name": "owner",
      "outputs": [
        {
          "internalType": "address",
          "name": "",
          "type": "address"
        }
      ],
      "stateMutability": "view",
      "type": "function"
    },
    {
      "inputs": [
        {
          "internalType": "uint256",
          "name": "tokenId",
          "type": "uint256"
        }
      ],
      "name": "ownerOf",
      "outputs": [
        {
          "internalType": "address",
          "name": "",
          "type": "address"
        }
      ],
      "stateMutability": "view",
      "type": "function"
    },
    {
      "inputs": [],
      "name": "renounceOwnership",
      "outputs": [],
      "stateMutability": "nonpayable",
      "type": "function"
    },
    {
      "inputs": [
        {
          "internalType": "address",
          "name": "from",
          "type": "address"
        },
        {
          "internalType": "address",
          "name": "to",
          "type": "address"
        },
        {
          "internalType": "uint256",
          "name": "tokenId",
          "type": "uint256"
        }
      ],
      "name": "safeTransferFrom",
      "outputs": [],
      "stateMutability": "nonpayable",
      "type": "function"
    },
    {
      "inputs": [
        {
          "internalType": "address",
          "name": "from",
          "type": "address"
        },
        {
          "internalType": "address",
          "name": "to",
          "type": "address"
        },
        {
          "internalType": "uint256",
          "name": "tokenId",
          "type": "uint256"
        },
        {
          "internalType": "bytes",
          "name": "data",
          "type": "bytes"
        }
      ],
      "name": "safeTransferFrom",
      "outputs": [],
      "stateMutability": "nonpayable",
      "type": "function"
    },
    {
      "inputs": [
        {
          "internalType": "address",
          "name": "operator",
          "type": "address"
        },
        {
          "internalType": "bool",
          "name": "approved",
          "type": "bool"
        }
      ],
      "name": "setApprovalForAll",
      "outputs": [],
      "stateMutability": "nonpayable",
      "type": "function"
    },
    {
      "inputs": [
        {
          "internalType": "string",
          "name": "newBaseURI",
          "type": "string"
        }
      ],
      "name": "setBaseURI",
      "outputs": [],
      "stateMutability": "nonpayable",
      "type": "function"
    },
    {
      "inputs": [
        {
          "internalType": "uint256",
          "name": "newMintPrice",
          "type": "uint256"
        }
      ],
      "name": "setMintPrice",
      "outputs": [],
      "stateMutability": "nonpayable",
      "type": "function"
    },
    {
      "inputs": [
        {
          "internalType": "bytes4",
          "name": "interfaceId",
          "type": "bytes4"
        }
      ],
      "name": "supportsInterface",
      "outputs": [
        {
          "internalType": "bool",
          "name": "",
          "type": "bool"
        }
      ],
      "stateMutability": "view",
      "type": "function"
    },
    {
      "inputs": [],
      "name": "symbol",
      "outputs": [
        {
          "internalType": "string",
          "name": "",
          "type": "string"
        }
      ],
      "stateMutability": "view",
      "type": "function"
    },
    {
      "inputs": [
        {
          "internalType": "uint256",
          "name": "tokenId",
          "type": "uint256"
        }
      ],
      "name": "tokenURI",
      "outputs": [
        {
          "internalType": "string",
          "name": "",
          "type": "string"
        }
      ],
      "stateMutability": "view",
      "type": "function"
    },
    {
      "inputs": [],
      "name": "totalMinted",
      "outputs": [
        {
          "internalType": "uint96",
          "name": "",
          "type": "uint96"
        }
      ],
      "stateMutability": "view",
      "type": "function"
    },
    {
      "inputs": [
        {
          "internalType": "address",
          "name": "from",
          "type": "address"
        },
        {
          "internalType": "address",
          "name": "to",
          "type": "address"
        },
        {
          "internalType": "uint256",
          "name": "tokenId",
          "type": "uint256"
        }
      ],
      "name": "transferFrom",
      "outputs": [],
      "stateMutability": "nonpayable",
      "type": "function"
    },
    {
      "inputs": [
        {
          "internalType": "address",
          "name": "newOwner",
          "type": "address"
        }
      ],
      "name": "transferOwnership",
      "outputs": [],
      "stateMutability": "nonpayable",
      "type": "function"
    },
    {
      "inputs": [],
      "name": "withdraw",
      "outputs": [],
      "stateMutability": "nonpayable",
      "type": "function"
    }
  ],
  "bytecode": "0x60806040523480156200001157600080fd5b50336040518060200160405280600081525060405180602001604052806000815250816000908162000044919062000426565b50806001908162000056919062000426565b505050600073ffffffffffffffffffffffffffffffffffffffff168173ffffffffffffffffffffffffffffffffffffffff1603620000ce5760006040517f1e4fbdf7000000000000000000000000000000000000000000000000000000008152600401620000c5919062000552565b60405180910390fd5b620000df81620000e660201b60201c565b506200056f565b6000600660009054906101000a900473ffffffffffffffffffffffffffffffffffffffff16905081600660006101000a81548173ffffffffffffffffffffffffffffffffffffffff021916908373ffffffffffffffffffffffffffffffffffffffff1602179055508173ffffffffffffffffffffffffffffffffffffffff168173ffffffffffffffffffffffffffffffffffffffff167f8be0079c531659141344cd1fd0a4f28419497f9722a3daafe3b4186f6b6457e060405160405180910390a35050565b600081519050919050565b7f4e487b7100000000000000000000000000000000000000000000000000000000600052604160045260246000fd5b7f4e487b7100000000000000000000000000000000000000000000000000000000600052602260045260246000fd5b600060028204905060018216806200022e57607f821691505b602082108103620002445762000243620001e6565b5b50919050565b60008190508160005260206000209050919050565b60006020601f8301049050919050565b600082821b905092915050565b600060088302620002ae7fffffffffffffffffffffffffffffffffffffffffffffffffffffffffffffffff826200026f565b620002ba86836200026f565b95508019841693508086168417925050509392505050565b6000819050919050565b6000819050919050565b60006200030762000301620002fb84620002d2565b620002dc565b620002d2565b9050919050565b6000819050919050565b6200032383620002e6565b6200033b62000332826200030e565b8484546200027c565b825550505050565b600090565b6200035262000343565b6200035f81848462000318565b505050565b5b8181101562000387576200037b60008262000348565b60018101905062000365565b5050565b601f821115620003d657620003a0816200024a565b620003ab846200025f565b81016020851015620003bb578190505b620003d3620003ca856200025f565b83018262000364565b50505b505050565b600082821c905092915050565b6000620003fb60001984600802620003db565b1980831691505092915050565b6000620004168383620003e8565b9150826002028217905092915050565b6200043182620001ac565b67ffffffffffffffff8111156200044d576200044c620001b7565b5b62000459825462000215565b620004668282856200038b565b600060209050601f8311600181146200049e576000841562000489578287015190505b62000495858262000408565b86555062000505565b601f198416620004ae866200024a565b60005b82811015620004d857848901518255600182019150602085019450602081019050620004b1565b86831015620004f85784890151620004f4601f891682620003e8565b8355505b6001600288020188555050505b505050505050565b600073ffffffffffffffffffffffffffffffffffffffff82169050919050565b60006200053a826200050d565b9050919050565b6200054c816200052d565b82525050565b600060208201905062000569600083018462000541565b92915050565b6130d2806200057f6000396000f3fe6080604052600436106101815760003560e01c8063729ad39e116100d1578063b88d4fde1161008a578063d5abeb0111610064578063d5abeb0114610539578063e985e9c514610564578063f2fde38b146105a1578063f4a0a528146105ca57610181565b8063b88d4fde146104aa578063bc21d6ec146104d3578063c87b56dd146104fc57610181565b8063729ad39e146103ac5780638da5cb5b146103d557806395d89b4114610400578063a22cb4651461042b578063a2309ff814610454578063a5097ebf1461047f57610181565b80633ccfd60b1161013e5780636352211e116101185780636352211e146102f05780636817c76c1461032d57806370a0823114610358578063715018a61461039557610181565b80633ccfd60b1461028757806342842e0e1461029e57806355f804b3146102c757610181565b806301ffc9a71461018657806306fdde03146101c3578063081812fc146101ee578063095ea7b31461022b5780631249c58b1461025457806323b872dd1461025e575b600080fd5b34801561019257600080fd5b506101ad60048036038101906101a8919061215c565b6105f3565b6040516101ba91906121a4565b60405180910390f35b3480156101cf57600080fd5b506101d86106d5565b6040516101e5919061224f565b60405180910390f35b3480156101fa57600080fd5b50610215600480360381019061021091906122a7565b610767565b6040516102229190612315565b60405180910390f35b34801561023757600080fd5b50610252600480360381019061024d919061235c565b610783565b005b61025c610799565b005b34801561026a57600080fd5b506102856004803603810190610280919061239c565b610902565b005b34801561029357600080fd5b5061029c610a04565b005b3480156102aa57600080fd5b506102c560048036038101906102c0919061239c565b610ac2565b005b3480156102d357600080fd5b506102ee60048036038101906102e99190612524565b610ae2565b005b3480156102fc57600080fd5b50610317600480360381019061031291906122a7565b610afd565b6040516103249190612315565b60405180910390f35b34801561033957600080fd5b50610342610b0f565b60405161034f9190612594565b60405180910390f35b34801561036457600080fd5b5061037f600480360381019061037a91906125af565b610b2d565b60405161038c91906125eb565b60405180910390f35b3480156103a157600080fd5b506103aa610be7565b005b3480156103b857600080fd5b506103d360048036038101906103ce9190612666565b610bfb565b005b3480156103e157600080fd5b506103ea610d5b565b6040516103f79190612315565b60405180910390f35b34801561040c57600080fd5b50610415610d85565b604051610422919061224f565b60405180910390f35b34801561043757600080fd5b50610452600480360381019061044d91906126df565b610e17565b005b34801561046057600080fd5b50610469610e2d565b6040516104769190612594565b60405180910390f35b34801561048b57600080fd5b50610494610e4b565b6040516104a1919061224f565b60405180910390f35b3480156104b657600080fd5b506104d160048036038101906104cc91906127c0565b610edd565b005b3480156104df57600080fd5b506104fa60048036038101906104f59190612843565b610f02565b005b34801561050857600080fd5b50610523600480360381019061051e91906122a7565b611010565b604051610530919061224f565b60405180910390f35b34801561054557600080fd5b5061054e611079565b60405161055b9190612594565b60405180910390f35b34801561057057600080fd5b5061058b60048036038101906105869190612924565b611097565b60405161059891906121a4565b60405180910390f35b3480156105ad57600080fd5b506105c860048036038101906105c391906125af565b61112b565b005b3480156105d657600080fd5b506105f160048036038101906105ec91906122a7565b6111b1565b005b60007f80ac58cd000000000000000000000000000000000000000000000000000000007bffffffffffffffffffffffffffffffffffffffffffffffffffffffff1916827bffffffffffffffffffffffffffffffffffffffffffffffffffffffff191614806106be57507f5b5e139f000000000000000000000000000000000000000000000000000000007bffffffffffffffffffffffffffffffffffffffffffffffffffffffff1916827bffffffffffffffffffffffffffffffffffffffffffffffffffffffff1916145b806106ce57506106cd826111ed565b5b9050919050565b6060600980546106e490612993565b80601f016020809104026020016040519081016040528092919081815260200182805461071090612993565b801561075d5780601f106107325761010080835404028352916020019161075d565b820191906000526020600020905b81548152906001019060200180831161074057829003601f168201915b5050505050905090565b600061077282611257565b5061077c826112df565b9050919050565b610795828261079061131c565b611324565b5050565b6007600c9054906101000a90046bffffffffffffffffffffffff166bffffffffffffffffffffffff16600760009054906101000a90046bffffffffffffffffffffffff166bffffffffffffffffffffffff161061082b576040517f08c379a000000000000000000000000000000000000000000000000000000000815260040161082290612a10565b60405180910390fd5b600860009054906101000a90046bffffffffffffffffffffffff166bffffffffffffffffffffffff16341015610896576040517f08c379a000000000000000000000000000000000000000000000000000000000815260040161088d90612a7c565b60405180910390fd5b60006007600081819054906101000a90046bffffffffffffffffffffffff1660010191906101000a8154816bffffffffffffffffffffffff02191690836bffffffffffffffffffffffff16021790556bffffffffffffffffffffffff1690506108ff3382611336565b50565b600073ffffffffffffffffffffffffffffffffffffffff168273ffffffffffffffffffffffffffffffffffffffff16036109745760006040517f64a0ae9200000000000000000000000000000000000000000000000000000000815260040161096b9190612315565b60405180910390fd5b6000610988838361098361131c565b61142f565b90508373ffffffffffffffffffffffffffffffffffffffff168173ffffffffffffffffffffffffffffffffffffffff16146109fe578382826040517f64283d7b0000000000000000000000000000000000000000000000000000000081526004016109f593929190612a9c565b60405180910390fd5b50505050565b610a0c611649565b6000610a16610d5b565b73ffffffffffffffffffffffffffffffffffffffff1647604051610a3990612b04565b60006040518083038185875af1925050503d8060008114610a76576040519150601f19603f3d011682016040523d82523d6000602084013e610a7b565b606091505b5050905080610abf576040517f08c379a0000000000000000000000000000000000000000000000000000000008152600401610ab690612b65565b60405180910390fd5b50565b610add83838360405180602001604052806000815250610edd565b505050565b610aea611649565b80600b9081610af99190612d31565b5050565b6000610b0882611257565b9050919050565b600860009054906101000a90046bffffffffffffffffffffffff1681565b60008073ffffffffffffffffffffffffffffffffffffffff168273ffffffffffffffffffffffffffffffffffffffff1603610ba05760006040517f89c62b64000000000000000000000000000000000000000000000000000000008152600401610b979190612315565b60405180910390fd5b600360008373ffffffffffffffffffffffffffffffffffffffff1673ffffffffffffffffffffffffffffffffffffffff168152602001908152602001600020549050919050565b610bef611649565b610bf960006116d0565b565b610c03611649565b60008282905090506007600c9054906101000a90046bffffffffffffffffffffffff166bffffffffffffffffffffffff1681600760009054906101000a90046bffffffffffffffffffffffff166bffffffffffffffffffffffff16610c689190612e32565b1115610ca9576040517f08c379a0000000000000000000000000000000000000000000000000000000008152600401610ca090612a10565b60405180910390fd5b6000600760009054906101000a90046bffffffffffffffffffffffff166bffffffffffffffffffffffff16905060005b82811015610d2357610d18858583818110610cf757610cf6612e66565b5b9050602002016020810190610d0c91906125af565b83600101935083611336565b806001019050610cd9565b5080600760006101000a8154816bffffffffffffffffffffffff02191690836bffffffffffffffffffffffff16021790555050505050565b6000600660009054906101000a900473ffffffffffffffffffffffffffffffffffffffff16905090565b6060600a8054610d9490612993565b80601f0160208091040260200160405190810160405280929190818152602001828054610dc090612993565b8015610e0d5780601f10610de257610100808354040283529160200191610e0d565b820191906000526020600020905b815481529060010190602001808311610df057829003601f168201915b5050505050905090565b610e29610e2261131c565b8383611796565b5050565b600760009054906101000a90046bffffffffffffffffffffffff1681565b6060600b8054610e5a90612993565b80601f0160208091040260200160405190810160405280929190818152602001828054610e8690612993565b8015610ed35780601f10610ea857610100808354040283529160200191610ed3565b820191906000526020600020905b815481529060010190602001808311610eb657829003601f168201915b5050505050905090565b610ee8848484610902565b610efc610ef361131c565b85858585611905565b50505050565b600660149054906101000a900460ff1615610f52576040517f08c379a0000000000000000000000000000000000000000000000000000000008152600401610f4990612ee1565b60405180910390fd5b6001600660146101000a81548160ff0219169083151502179055508560099081610f7c9190612d31565b5084600a9081610f8c9190612d31565b50610f96816116d0565b83600b9081610fa59190612d31565b50826007600c6101000a8154816bffffffffffffffffffffffff02191690836bffffffffffffffffffffffff16021790555081600860006101000a8154816bffffffffffffffffffffffff02191690836bffffffffffffffffffffffff160217905550505050505050565b606061101b82611257565b506000611026611ab6565b905060008151116110465760405180602001604052806000815250611071565b8061105084611b48565b604051602001611061929190612f3d565b6040516020818303038152906040525b915050919050565b6007600c9054906101000a90046bffffffffffffffffffffffff1681565b6000600560008473ffffffffffffffffffffffffffffffffffffffff1673ffffffffffffffffffffffffffffffffffffffff16815260200190815260200160002060008373ffffffffffffffffffffffffffffffffffffffff1673ffffffffffffffffffffffffffffffffffffffff16815260200190815260200160002060009054906101000a900460ff16905092915050565b611133611649565b600073ffffffffffffffffffffffffffffffffffffffff168173ffffffffffffffffffffffffffffffffffffffff16036111a55760006040517f1e4fbdf700000000000000000000000000000000000000000000000000000000815260040161119c9190612315565b60405180910390fd5b6111ae816116d0565b50565b6111b9611649565b80600860006101000a8154816bffffffffffffffffffffffff02191690836bffffffffffffffffffffffff16021790555050565b60007f01ffc9a7000000000000000000000000000000000000000000000000000000007bffffffffffffffffffffffffffffffffffffffffffffffffffffffff1916827bffffffffffffffffffffffffffffffffffffffffffffffffffffffff1916149050919050565b60008061126383611c16565b9050600073ffffffffffffffffffffffffffffffffffffffff168173ffffffffffffffffffffffffffffffffffffffff16036112d657826040517f7e2732890000000000000000000000000000000000000000000000000000000081526004016112cd91906125eb565b60405180910390fd5b80915050919050565b60006004600083815260200190815260200160002060009054906101000a900473ffffffffffffffffffffffffffffffffffffffff169050919050565b600033905090565b6113318383836001611c53565b505050565b600073ffffffffffffffffffffffffffffffffffffffff168273ffffffffffffffffffffffffffffffffffffffff16036113a85760006040517f64a0ae9200000000000000000000000000000000000000000000000000000000815260040161139f9190612315565b60405180910390fd5b60006113b68383600061142f565b9050600073ffffffffffffffffffffffffffffffffffffffff168173ffffffffffffffffffffffffffffffffffffffff161461142a5760006040517f73c6ac6e0000000000000000000000000000000000000000000000000000000081526004016114219190612315565b60405180910390fd5b505050565b60008061143b84611c16565b9050600073ffffffffffffffffffffffffffffffffffffffff168373ffffffffffffffffffffffffffffffffffffffff161461147d5761147c818486611e18565b5b600073ffffffffffffffffffffffffffffffffffffffff168173ffffffffffffffffffffffffffffffffffffffff161461150e576114bf600085600080611c53565b6001600360008373ffffffffffffffffffffffffffffffffffffffff1673ffffffffffffffffffffffffffffffffffffffff168152602001908152602001600020600082825403925050819055505b600073ffffffffffffffffffffffffffffffffffffffff168573ffffffffffffffffffffffffffffffffffffffff1614611591576001600360008773ffffffffffffffffffffffffffffffffffffffff1673ffffffffffffffffffffffffffffffffffffffff168152602001908152602001600020600082825401925050819055505b846002600086815260200190815260200160002060006101000a81548173ffffffffffffffffffffffffffffffffffffffff021916908373ffffffffffffffffffffffffffffffffffffffff160217905550838573ffffffffffffffffffffffffffffffffffffffff168273ffffffffffffffffffffffffffffffffffffffff167fddf252ad1be2c89b69c2b068fc378daa952ba7f163c4a11628f55a4df523b3ef60405160405180910390a4809150509392505050565b61165161131c565b73ffffffffffffffffffffffffffffffffffffffff1661166f610d5b565b73ffffffffffffffffffffffffffffffffffffffff16146116ce5761169261131c565b6040517f118cdaa70000000000000000000000000000000000000000000000000000000081526004016116c59190612315565b60405180910390fd5b565b6000600660009054906101000a900473ffffffffffffffffffffffffffffffffffffffff16905081600660006101000a81548173ffffffffffffffffffffffffffffffffffffffff021916908373ffffffffffffffffffffffffffffffffffffffff1602179055508173ffffffffffffffffffffffffffffffffffffffff168173ffffffffffffffffffffffffffffffffffffffff167f8be0079c531659141344cd1fd0a4f28419497f9722a3daafe3b4186f6b6457e060405160405180910390a35050565b600073ffffffffffffffffffffffffffffffffffffffff168273ffffffffffffffffffffffffffffffffffffffff160361180757816040517f5b08ba180000000000000000000000000000000000000000000000000000000081526004016117fe9190612315565b60405180910390fd5b80600560008573ffffffffffffffffffffffffffffffffffffffff1673ffffffffffffffffffffffffffffffffffffffff16815260200190815260200160002060008473ffffffffffffffffffffffffffffffffffffffff1673ffffffffffffffffffffffffffffffffffffffff16815260200190815260200160002060006101000a81548160ff0219169083151502179055508173ffffffffffffffffffffffffffffffffffffffff168373ffffffffffffffffffffffffffffffffffffffff167f17307eab39ab6107e8899845ad3d59bd9653f200f220920489ca2b5937696c31836040516118f891906121a4565b60405180910390a3505050565b60008373ffffffffffffffffffffffffffffffffffffffff163b1115611aaf578273ffffffffffffffffffffffffffffffffffffffff1663150b7a02868685856040518563ffffffff1660e01b81526004016119649493929190612fb6565b6020604051808303816000875af19250505080156119a057506040513d601f19601f8201168201806040525081019061199d9190613017565b60015b611a24573d80600081146119d0576040519150601f19603f3d011682016040523d82523d6000602084013e6119d5565b606091505b506000815103611a1c57836040517f64a0ae92000000000000000000000000000000000000000000000000000000008152600401611a139190612315565b60405180910390fd5b805160208201fd5b63150b7a0260e01b7bffffffffffffffffffffffffffffffffffffffffffffffffffffffff1916817bffffffffffffffffffffffffffffffffffffffffffffffffffffffff191614611aad57836040517f64a0ae92000000000000000000000000000000000000000000000000000000008152600401611aa49190612315565b60405180910390fd5b505b5050505050565b6060600b8054611ac590612993565b80601f0160208091040260200160405190810160405280929190818152602001828054611af190612993565b8015611b3e5780601f10611b1357610100808354040283529160200191611b3e565b820191906000526020600020905b815481529060010190602001808311611b2157829003601f168201915b5050505050905090565b606060006001611b5784611edc565b01905060008167ffffffffffffffff811115611b7657611b756123f9565b5b6040519080825280601f01601f191660200182016040528015611ba85781602001600182028036833780820191505090505b509050600082602083010190505b600115611c0b578080600190039150507f3031323334353637383961626364656600000000000000000000000000000000600a86061a8153600a8581611bff57611bfe613044565b5b04945060008503611bb6575b819350505050919050565b60006002600083815260200190815260200160002060009054906101000a900473ffffffffffffffffffffffffffffffffffffffff169050919050565b8080611c8c5750600073ffffffffffffffffffffffffffffffffffffffff168273ffffffffffffffffffffffffffffffffffffffff1614155b15611dc0576000611c9c84611257565b9050600073ffffffffffffffffffffffffffffffffffffffff168373ffffffffffffffffffffffffffffffffffffffff1614158015611d0757508273ffffffffffffffffffffffffffffffffffffffff168173ffffffffffffffffffffffffffffffffffffffff1614155b8015611d1a5750611d188184611097565b155b15611d5c57826040517fa9fbf51f000000000000000000000000000000000000000000000000000000008152600401611d539190612315565b60405180910390fd5b8115611dbe57838573ffffffffffffffffffffffffffffffffffffffff168273ffffffffffffffffffffffffffffffffffffffff167f8c5be1e5ebec7d5bd14f71427d1e84f3dd0314c0f7b2291e5b200ac8c7c3b92560405160405180910390a45b505b836004600085815260200190815260200160002060006101000a81548173ffffffffffffffffffffffffffffffffffffffff021916908373ffffffffffffffffffffffffffffffffffffffff16021790555050505050565b611e2383838361202f565b611ed757600073ffffffffffffffffffffffffffffffffffffffff168373ffffffffffffffffffffffffffffffffffffffff1603611e9857806040517f7e273289000000000000000000000000000000000000000000000000000000008152600401611e8f91906125eb565b60405180910390fd5b81816040517f177e802f000000000000000000000000000000000000000000000000000000008152600401611ece929190613073565b60405180910390fd5b505050565b600080600090507a184f03e93ff9f4daa797ed6e38ed64bf6a1f0100000000000000008310611f3a577a184f03e93ff9f4daa797ed6e38ed64bf6a1f0100000000000000008381611f3057611f2f613044565b5b0492506040810190505b6d04ee2d6d415b85acef81000000008310611f77576d04ee2d6d415b85acef81000000008381611f6d57611f6c613044565b5b0492506020810190505b662386f26fc100008310611fa657662386f26fc100008381611f9c57611f9b613044565b5b0492506010810190505b6305f5e1008310611fcf576305f5e1008381611fc557611fc4613044565b5b0492506008810190505b6127108310611ff4576127108381611fea57611fe9613044565b5b0492506004810190505b60648310612017576064838161200d5761200c613044565b5b0492506002810190505b600a8310612026576001810190505b80915050919050565b60008073ffffffffffffffffffffffffffffffffffffffff168373ffffffffffffffffffffffffffffffffffffffff16141580156120e757508273ffffffffffffffffffffffffffffffffffffffff168473ffffffffffffffffffffffffffffffffffffffff1614806120a857506120a78484611097565b5b806120e657508273ffffffffffffffffffffffffffffffffffffffff166120ce836112df565b73ffffffffffffffffffffffffffffffffffffffff16145b5b90509392505050565b6000604051905090565b600080fd5b600080fd5b60007fffffffff0000000000000000000000000000000000000000000000000000000082169050919050565b61213981612104565b811461214457600080fd5b50565b60008135905061215681612130565b92915050565b600060208284031215612172576121716120fa565b5b600061218084828501612147565b91505092915050565b60008115159050919050565b61219e81612189565b82525050565b60006020820190506121b96000830184612195565b92915050565b600081519050919050565b600082825260208201905092915050565b60005b838110156121f95780820151818401526020810190506121de565b60008484015250505050565b6000601f19601f8301169050919050565b6000612221826121bf565b61222b81856121ca565b935061223b8185602086016121db565b61224481612205565b840191505092915050565b600060208201905081810360008301526122698184612216565b905092915050565b6000819050919050565b61228481612271565b811461228f57600080fd5b50565b6000813590506122a18161227b565b92915050565b6000602082840312156122bd576122bc6120fa565b5b60006122cb84828501612292565b91505092915050565b600073ffffffffffffffffffffffffffffffffffffffff82169050919050565b60006122ff826122d4565b9050919050565b61230f816122f4565b82525050565b600060208201905061232a6000830184612306565b92915050565b612339816122f4565b811461234457600080fd5b50565b60008135905061235681612330565b92915050565b60008060408385031215612373576123726120fa565b5b600061238185828601612347565b925050602061239285828601612292565b9150509250929050565b6000806000606084860312156123b5576123b46120fa565b5b60006123c386828701612347565b93505060206123d486828701612347565b92505060406123e586828701612292565b9150509250925092565b600080fd5b600080fd5b7f4e487b7100000000000000000000000000000000000000000000000000000000600052604160045260246000fd5b61243182612205565b810181811067ffffffffffffffff821117156124505761244f6123f9565b5b80604052505050565b60006124636120f0565b905061246f8282612428565b919050565b600067ffffffffffffffff82111561248f5761248e6123f9565b5b61249882612205565b9050602081019050919050565b82818337600083830152505050565b60006124c76124c284612474565b612459565b9050828152602081018484840111156124e3576124e26123f4565b5b6124ee8482856124a5565b509392505050565b600082601f83011261250b5761250a6123ef565b5b813561251b8482602086016124b4565b91505092915050565b60006020828403121561253a576125396120fa565b5b600082013567ffffffffffffffff811115612558576125576120ff565b5b612564848285016124f6565b91505092915050565b60006bffffffffffffffffffffffff82169050919050565b61258e8161256d565b82525050565b60006020820190506125a96000830184612585565b92915050565b6000602082840312156125c5576125c46120fa565b5b60006125d384828501612347565b91505092915050565b6125e581612271565b82525050565b600060208201905061260060008301846125dc565b92915050565b600080fd5b600080fd5b60008083601f840112612626576126256123ef565b5b8235905067ffffffffffffffff81111561264357612642612606565b5b60208301915083602082028301111561265f5761265e61260b565b5b9250929050565b6000806020838503121561267d5761267c6120fa565b5b600083013567ffffffffffffffff81111561269b5761269a6120ff565b5b6126a785828601612610565b92509250509250929050565b6126bc81612189565b81146126c757600080fd5b50565b6000813590506126d9816126b3565b92915050565b600080604083850312156126f6576126f56120fa565b5b600061270485828601612347565b9250506020612715858286016126ca565b9150509250929050565b600067ffffffffffffffff82111561273a576127396123f9565b5b61274382612205565b9050602081019050919050565b600061276361275e8461271f565b612459565b90508281526020810184848401111561277f5761277e6123f4565b5b61278a8482856124a5565b509392505050565b600082601f8301126127a7576127a66123ef565b5b81356127b7848260208601612750565b91505092915050565b600080600080608085870312156127da576127d96120fa565b5b60006127e887828801612347565b94505060206127f987828801612347565b935050604061280a87828801612292565b925050606085013567ffffffffffffffff81111561282b5761282a6120ff565b5b61283787828801612792565b91505092959194509250565b60008060008060008060c087890312156128605761285f6120fa565b5b600087013567ffffffffffffffff81111561287e5761287d6120ff565b5b61288a89828a016124f6565b965050602087013567ffffffffffffffff8111156128ab576128aa6120ff565b5b6128b789828a016124f6565b955050604087013567ffffffffffffffff8111156128d8576128d76120ff565b5b6128e489828a016124f6565b94505060606128f589828a01612292565b935050608061290689828a01612292565b92505060a061291789828a01612347565b9150509295509295509295565b6000806040838503121561293b5761293a6120fa565b5b600061294985828601612347565b925050602061295a85828601612347565b9150509250929050565b7f4e487b7100000000000000000000000000000000000000000000000000000000600052602260045260246000fd5b600060028204905060018216806129ab57607f821691505b6020821081036129be576129bd612964565b5b50919050565b7f4d617820737570706c7920726561636865640000000000000000000000000000600082015250565b60006129fa6012836121ca565b9150612a05826129c4565b602082019050919050565b60006020820190508181036000830152612a29816129ed565b9050919050565b7f496e73756666696369656e74207061796d656e74000000000000000000000000600082015250565b6000612a666014836121ca565b9150612a7182612a30565b602082019050919050565b60006020820190508181036000830152612a9581612a59565b9050919050565b6000606082019050612ab16000830186612306565b612abe60208301856125dc565b612acb6040830184612306565b949350505050565b600081905092915050565b50565b6000612aee600083612ad3565b9150612af982612ade565b600082019050919050565b6000612b0f82612ae1565b9150819050919050565b7f5769746864726177206661696c65640000000000000000000000000000000000600082015250565b6000612b4f600f836121ca565b9150612b5a82612b19565b602082019050919050565b60006020820190508181036000830152612b7e81612b42565b9050919050565b60008190508160005260206000209050919050565b60006020601f8301049050919050565b600082821b905092915050565b600060088302612be77fffffffffffffffffffffffffffffffffffffffffffffffffffffffffffffffff82612baa565b612bf18683612baa565b95508019841693508086168417925050509392505050565b6000819050919050565b6000612c2e612c29612c2484612271565b612c09565b612271565b9050919050565b6000819050919050565b612c4883612c13565b612c5c612c5482612c35565b848454612bb7565b825550505050565b600090565b612c71612c64565b612c7c818484612c3f565b505050565b5b81811015612ca057612c95600082612c69565b600181019050612c82565b5050565b601f821115612ce557612cb681612b85565b612cbf84612b9a565b81016020851015612cce578190505b612ce2612cda85612b9a565b830182612c81565b50505b505050565b600082821c905092915050565b6000612d0860001984600802612cea565b1980831691505092915050565b6000612d218383612cf7565b9150826002028217905092915050565b612d3a826121bf565b67ffffffffffffffff811115612d5357612d526123f9565b5b612d5d8254612993565b612d68828285612ca4565b600060209050601f831160018114612d9b5760008415612d89578287015190505b612d938582612d15565b865550612dfb565b601f198416612da986612b85565b60005b82811015612dd157848901518255600182019150602085019450602081019050612dac565b86831015612dee5784890151612dea601f891682612cf7565b8355505b6001600288020188555050505b505050505050565b7f4e487b7100000000000000000000000000000000000000000000000000000000600052601160045260246000fd5b6000612e3d82612271565b9150612e4883612271565b9250828201905080821115612e6057612e5f612e03565b5b92915050565b7f4e487b7100000000000000000000000000000000000000000000000000000000600052603260045260246000fd5b7f416c726561647920696e697469616c697a656400000000000000000000000000600082015250565b6000612ecb6013836121ca565b9150612ed682612e95565b602082019050919050565b60006020820190508181036000830152612efa81612ebe565b9050919050565b600081905092915050565b6000612f17826121bf565b612f218185612f01565b9350612f318185602086016121db565b80840191505092915050565b6000612f498285612f0c565b9150612f558284612f0c565b91508190509392505050565b600081519050919050565b600082825260208201905092915050565b6000612f8882612f61565b612f928185612f6c565b9350612fa28185602086016121db565b612fab81612205565b840191505092915050565b6000608082019050612fcb6000830187612306565b612fd86020830186612306565b612fe560408301856125dc565b8181036060830152612ff78184612f7d565b905095945050505050565b60008151905061301181612130565b92915050565b60006020828403121561302d5761302c6120fa565b5b600061303b84828501613002565b91505092915050565b7f4e487b7100000000000000000000000000000000000000000000000000000000600052601260045260246000fd5b60006040820190506130886000830185612306565b61309560208301846125dc565b939250505056fea264697066735822122012bf7dded9d1b44964e9b7a10d8c209f7de980c44d98f20121f5f86d5311b9f364736f6c63430008140033",
  "linkReferences": {},
  "deployedLinkReferences": {}
}