{
  "_format": "hh-sol-artifact-1",
  "contractName": "NFTFactory",
  "sourceName": "contracts/NFTFactory.sol",
  "abi": [
    {
      "anonymous": false,
      "inputs": [
        {
          "indexed": true,
          "internalType": "address",
          "name": "collection",
          "type": "address"
        },
        {
          "indexed": true,
          "internalType": "address",
          "name": "owner",
          "type": "address"
        },
        {
          "indexed": false,
          "internalType": "string",
          "name": "name",
          "type": "string"
        },
        {
          "indexed": false,
          "internalType": "string",
          "name": "symbol",
          "type": "string"
        }
      ],
      "name": "CollectionDeployed",
      "type": "event"
    },
    {
      "inputs": [
        {
          "internalType": "uint256",
          "name": "",
          "type": "uint256"
        }
      ],
      "name": "allCollections",
      "outputs": [
        {
          "internalType": "address",
          "name": "",
          "type": "address"
        }
      ],
      "stateMutability": "view",
      "type": "function"
    },
    {
      "inputs": [
        {
          "internalType": "string",
          "name": "name",
          "type": "string"
        },
        {
          "internalType": "string",
          "name": "symbol",
          "type": "string"
        },
        {
          "internalType": "string",
          "name": "baseTokenURI",
          "type": "string"
        },
        {
          "internalType": "uint256",
          "name": "maxSupply",
          "type": "uint256"
        },
        {
          "internalType": "uint256",
          "name": "mintPrice",
          "type": "uint256"
        }
      ],
      "name": "deployCollection",
      "outputs": [
        {
          "internalType": "address",
          "name": "",
          "type": "address"
        }
      ],
      "stateMutability": "nonpayable",
      "type": "function"
    },
    {
      "inputs": [],
      "name": "getAllCollections",
      "outputs": [
        {
          "internalType": "address[]",
          "name": "",
          "type": "address[]"
        }
      ],
      "stateMutability": "view",
      "type": "function"
    }
  ],
  "bytecode": "0x608060405234801561001057600080fd5b50613ac1806100206000396000f3fe60806040523480156200001157600080fd5b5060043610620000465760003560e01c8063167ef495146200004b57806360529b0e14620000815780636804a95814620000b7575b600080fd5b62000069600480360381019062000063919062000327565b620000d9565b6040516200007891906200039e565b60405180910390f35b6200009f60048036038101906200009991906200051d565b62000119565b604051620000ae91906200039e565b60405180910390f35b620000c16200023a565b604051620000d09190620006d0565b60405180910390f35b60008181548110620000ea57600080fd5b906000526020600020016000915054906101000a900473ffffffffffffffffffffffffffffffffffffffff1681565b6000808686868686336040516200013090620002ca565b62000141969594939291906200078e565b604051809103906000f0801580156200015e573d6000803e3d6000fd5b5090506000819080600181540180825580915050600190039060005260206000200160009091909190916101000a81548173ffffffffffffffffffffffffffffffffffffffff021916908373ffffffffffffffffffffffffffffffffffffffff1602179055503373ffffffffffffffffffffffffffffffffffffffff168173ffffffffffffffffffffffffffffffffffffffff167f42805f304977dde16425c6a05d5bec1836888a4efc9a847f2ab450923d350c2689896040516200022592919062000810565b60405180910390a38091505095945050505050565b60606000805480602002602001604051908101604052809291908181526020018280548015620002c057602002820191906000526020600020905b8160009054906101000a900473ffffffffffffffffffffffffffffffffffffffff1673ffffffffffffffffffffffffffffffffffffffff168152602001906001019080831162000275575b5050505050905090565b613240806200084c83390190565b6000604051905090565b600080fd5b600080fd5b6000819050919050565b6200030181620002ec565b81146200030d57600080fd5b50565b6000813590506200032181620002f6565b92915050565b60006020828403121562000340576200033f620002e2565b5b6000620003508482850162000310565b91505092915050565b600073ffffffffffffffffffffffffffffffffffffffff82169050919050565b6000620003868262000359565b9050919050565b620003988162000379565b82525050565b6000602082019050620003b560008301846200038d565b92915050565b600080fd5b600080fd5b6000601f19601f8301169050919050565b7f4e487b7100000000000000000000000000000000000000000000000000000000600052604160045260246000fd5b6200041082620003c5565b810181811067ffffffffffffffff82111715620004325762000431620003d6565b5b80604052505050565b600062000447620002d8565b905062000455828262000405565b919050565b600067ffffffffffffffff821115620004785762000477620003d6565b5b6200048382620003c5565b9050602081019050919050565b82818337600083830152505050565b6000620004b6620004b0846200045a565b6200043b565b905082815260208101848484011115620004d557620004d4620003c0565b5b620004e284828562000490565b509392505050565b600082601f830112620005025762000501620003bb565b5b8135620005148482602086016200049f565b91505092915050565b600080600080600060a086880312156200053c576200053b620002e2565b5b600086013567ffffffffffffffff8111156200055d576200055c620002e7565b5b6200056b88828901620004ea565b955050602086013567ffffffffffffffff8111156200058f576200058e620002e7565b5b6200059d88828901620004ea565b945050604086013567ffffffffffffffff811115620005c157620005c0620002e7565b5b620005cf88828901620004ea565b9350506060620005e28882890162000310565b9250506080620005f58882890162000310565b9150509295509295909350565b600081519050919050565b600082825260208201905092915050565b6000819050602082019050919050565b620006398162000379565b82525050565b60006200064d83836200062e565b60208301905092915050565b6000602082019050919050565b6000620006738262000602565b6200067f81856200060d565b93506200068c836200061e565b8060005b83811015620006c3578151620006a788826200063f565b9750620006b48362000659565b92505060018101905062000690565b5085935050505092915050565b60006020820190508181036000830152620006ec818462000666565b905092915050565b600081519050919050565b600082825260208201905092915050565b60005b838110156200073057808201518184015260208101905062000713565b60008484015250505050565b60006200074982620006f4565b620007558185620006ff565b93506200076781856020860162000710565b6200077281620003c5565b840191505092915050565b6200078881620002ec565b82525050565b600060c0820190508181036000830152620007aa81896200073c565b90508181036020830152620007c081886200073c565b90508181036040830152620007d681876200073c565b9050620007e760608301866200077d565b620007f660808301856200077d565b6200080560a08301846200038d565b979650505050505050565b600060408201905081810360008301526200082c81856200073c565b905081810360208301526200084281846200073c565b9050939250505056fe60806040523480156200001157600080fd5b50604051620032403803806200324083398181016040528101906200003791906200040c565b80868681600090816200004b919062000746565b5080600190816200005d919062000746565b505050600073ffffffffffffffffffffffffffffffffffffffff168173ffffffffffffffffffffffffffffffffffffffff1603620000d55760006040517f1e4fbdf7000000000000000000000000000000000000000000000000000000008152600401620000cc91906200083e565b60405180910390fd5b620000e6816200011360201b60201c565b5083600a9081620000f8919062000746565b5082600781905550816009819055505050505050506200085b565b6000600660009054906101000a900473ffffffffffffffffffffffffffffffffffffffff16905081600660006101000a81548173ffffffffffffffffffffffffffffffffffffffff021916908373ffffffffffffffffffffffffffffffffffffffff1602179055508173ffffffffffffffffffffffffffffffffffffffff168173ffffffffffffffffffffffffffffffffffffffff167f8be0079c531659141344cd1fd0a4f28419497f9722a3daafe3b4186f6b6457e060405160405180910390a35050565b6000604051905090565b600080fd5b600080fd5b600080fd5b600080fd5b6000601f19601f8301169050919050565b7f4e487b7100000000000000000000000000000000000000000000000000000000600052604160045260246000fd5b6200024282620001f7565b810181811067ffffffffffffffff8211171562000264576200026362000208565b5b80604052505050565b600062000279620001d9565b905062000287828262000237565b919050565b600067ffffffffffffffff821115620002aa57620002a962000208565b5b620002b582620001f7565b9050602081019050919050565b60005b83811015620002e2578082015181840152602081019050620002c5565b60008484015250505050565b600062000305620002ff846200028c565b6200026d565b905082815260208101848484011115620003245762000323620001f2565b5b62000331848285620002c2565b509392505050565b600082601f830112620003515762000350620001ed565b5b815162000363848260208601620002ee565b91505092915050565b6000819050919050565b62000381816200036c565b81146200038d57600080fd5b50565b600081519050620003a18162000376565b92915050565b600073ffffffffffffffffffffffffffffffffffffffff82169050919050565b6000620003d482620003a7565b9050919050565b620003e681620003c7565b8114620003f257600080fd5b50565b6000815190506200040681620003db565b92915050565b60008060008060008060c087890312156200042c576200042b620001e3565b5b600087015167ffffffffffffffff8111156200044d576200044c620001e8565b5b6200045b89828a0162000339565b965050602087015167ffffffffffffffff8111156200047f576200047e620001e8565b5b6200048d89828a0162000339565b955050604087015167ffffffffffffffff811115620004b157620004b0620001e8565b5b620004bf89828a0162000339565b9450506060620004d289828a0162000390565b9350506080620004e589828a0162000390565b92505060a0620004f889828a01620003f5565b9150509295509295509295565b600081519050919050565b7f4e487b7100000000000000000000000000000000000000000000000000000000600052602260045260246000fd5b600060028204905060018216806200055857607f821691505b6020821081036200056e576200056d62000510565b5b50919050565b60008190508160005260206000209050919050565b60006020601f8301049050919050565b600082821b905092915050565b600060088302620005d87fffffffffffffffffffffffffffffffffffffffffffffffffffffffffffffffff8262000599565b620005e4868362000599565b95508019841693508086168417925050509392505050565b6000819050919050565b600062000627620006216200061b846200036c565b620005fc565b6200036c565b9050919050565b6000819050919050565b620006438362000606565b6200065b62000652826200062e565b848454620005a6565b825550505050565b600090565b6200067262000663565b6200067f81848462000638565b505050565b5b81811015620006a7576200069b60008262000668565b60018101905062000685565b5050565b601f821115620006f657620006c08162000574565b620006cb8462000589565b81016020851015620006db578190505b620006f3620006ea8562000589565b83018262000684565b50505b505050565b600082821c905092915050565b60006200071b60001984600802620006fb565b1980831691505092915050565b600062000736838362000708565b9150826002028217905092915050565b620007518262000505565b67ffffffffffffffff8111156200076d576200076c62000208565b5b6200077982546200053f565b62000786828285620006ab565b600060209050601f831160018114620007be5760008415620007a9578287015190505b620007b5858262000728565b86555062000825565b601f198416620007ce8662000574565b60005b82811015620007f857848901518255600182019150602085019450602081019050620007d1565b8683101562000818578489015162000814601f89168262000708565b8355505b6001600288020188555050505b505050505050565b6200083881620003c7565b82525050565b60006020820190506200085560008301846200082d565b92915050565b6129d5806200086b6000396000f3fe6080604052600436106101355760003560e01c806370a08231116100ab578063a2309ff81161006f578063a2309ff8146103df578063b88d4fde1461040a578063c87b56dd14610433578063d5abeb0114610470578063e985e9c51461049b578063f2fde38b146104d857610135565b806370a082311461030c578063715018a6146103495780638da5cb5b1461036057806395d89b411461038b578063a22cb465146103b657610135565b806323b872dd116100fd57806323b872dd146102125780633ccfd60b1461023b57806342842e0e1461025257806355f804b31461027b5780636352211e146102a45780636817c76c146102e157610135565b806301ffc9a71461013a57806306fdde0314610177578063081812fc146101a2578063095ea7b3146101df5780631249c58b14610208575b600080fd5b34801561014657600080fd5b50610161600480360381019061015c9190611c82565b610501565b60405161016e9190611cca565b60405180910390f35b34801561018357600080fd5b5061018c6105e3565b6040516101999190611d75565b60405180910390f35b3480156101ae57600080fd5b506101c960048036038101906101c49190611dcd565b610675565b6040516101d69190611e3b565b60405180910390f35b3480156101eb57600080fd5b5061020660048036038101906102019190611e82565b610691565b005b6102106106a7565b005b34801561021e57600080fd5b5061023960048036038101906102349190611ec2565b61076a565b005b34801561024757600080fd5b5061025061086c565b005b34801561025e57600080fd5b5061027960048036038101906102749190611ec2565b61092a565b005b34801561028757600080fd5b506102a2600480360381019061029d919061204a565b61094a565b005b3480156102b057600080fd5b506102cb60048036038101906102c69190611dcd565b610965565b6040516102d89190611e3b565b60405180910390f35b3480156102ed57600080fd5b506102f6610977565b60405161030391906120a2565b60405180910390f35b34801561031857600080fd5b50610333600480360381019061032e91906120bd565b61097d565b60405161034091906120a2565b60405180910390f35b34801561035557600080fd5b5061035e610a37565b005b34801561036c57600080fd5b50610375610a4b565b6040516103829190611e3b565b60405180910390f35b34801561039757600080fd5b506103a0610a75565b6040516103ad9190611d75565b60405180910390f35b3480156103c257600080fd5b506103dd60048036038101906103d89190612116565b610b07565b005b3480156103eb57600080fd5b506103f4610b1d565b60405161040191906120a2565b60405180910390f35b34801561041657600080fd5b50610431600480360381019061042c91906121f7565b610b23565b005b34801561043f57600080fd5b5061045a60048036038101906104559190611dcd565b610b48565b6040516104679190611d75565b60405180910390f35b34801561047c57600080fd5b50610485610bb1565b60405161049291906120a2565b60405180910390f35b3480156104a757600080fd5b506104c260048036038101906104bd919061227a565b610bb7565b6040516104cf9190611cca565b60405180910390f35b3480156104e457600080fd5b506104ff60048036038101906104fa91906120bd565b610c4b565b005b60007f80ac58cd000000000000000000000000000000000000000000000000000000007bffffffffffffffffffffffffffffffffffffffffffffffffffffffff1916827bffffffffffffffffffffffffffffffffffffffffffffffffffffffff191614806105cc57507f5b5e139f000000000000000000000000000000000000000000000000000000007bffffffffffffffffffffffffffffffffffffffffffffffffffffffff1916827bffffffffffffffffffffffffffffffffffffffffffffffffffffffff1916145b806105dc57506105db82610cd1565b5b9050919050565b6060600080546105f2906122e9565b80601f016020809104026020016040519081016040528092919081815260200182805461061e906122e9565b801561066b5780601f106106405761010080835404028352916020019161066b565b820191906000526020600020905b81548152906001019060200180831161064e57829003601f168201915b5050505050905090565b600061068082610d3b565b5061068a82610dc3565b9050919050565b6106a3828261069e610e00565b610e08565b5050565b600754600854106106ed576040517f08c379a00000000000000000000000000000000000000000000000000000000081526004016106e490612366565b60405180910390fd5b600954341015610732576040517f08c379a0000000000000000000000000000000000000000000000000000000008152600401610729906123d2565b60405180910390fd5b600060016008546107439190612421565b90506008600081548092919061075890612455565b91905055506107673382610e1a565b50565b600073ffffffffffffffffffffffffffffffffffffffff168273ffffffffffffffffffffffffffffffffffffffff16036107dc5760006040517f64a0ae920000000000000000000000000000000000000000000000000000000081526004016107d39190611e3b565b60405180910390fd5b60006107f083836107eb610e00565b610e38565b90508373ffffffffffffffffffffffffffffffffffffffff168173ffffffffffffffffffffffffffffffffffffffff1614610866578382826040517f64283d7b00000000000000000000000000000000000000000000000000000000815260040161085d9392919061249d565b60405180910390fd5b50505050565b610874611052565b600061087e610a4b565b73ffffffffffffffffffffffffffffffffffffffff16476040516108a190612505565b60006040518083038185875af1925050503d80600081146108de576040519150601f19603f3d011682016040523d82523d6000602084013e6108e3565b606091505b5050905080610927576040517f08c379a000000000000000000000000000000000000000000000000000000000815260040161091e90612566565b60405180910390fd5b50565b61094583838360405180602001604052806000815250610b23565b505050565b610952611052565b80600a90816109619190612732565b5050565b600061097082610d3b565b9050919050565b60095481565b60008073ffffffffffffffffffffffffffffffffffffffff168273ffffffffffffffffffffffffffffffffffffffff16036109f05760006040517f89c62b640000000000000000000000000000000000000000000000000000000081526004016109e79190611e3b565b60405180910390fd5b600360008373ffffffffffffffffffffffffffffffffffffffff1673ffffffffffffffffffffffffffffffffffffffff168152602001908152602001600020549050919050565b610a3f611052565b610a4960006110d9565b565b6000600660009054906101000a900473ffffffffffffffffffffffffffffffffffffffff16905090565b606060018054610a84906122e9565b80601f0160208091040260200160405190810160405280929190818152602001828054610ab0906122e9565b8015610afd5780601f10610ad257610100808354040283529160200191610afd565b820191906000526020600020905b815481529060010190602001808311610ae057829003601f168201915b5050505050905090565b610b19610b12610e00565b838361119f565b5050565b60085481565b610b2e84848461076a565b610b42610b39610e00565b8585858561130e565b50505050565b6060610b5382610d3b565b506000610b5e6114bf565b90506000815111610b7e5760405180602001604052806000815250610ba9565b80610b8884611551565b604051602001610b99929190612840565b6040516020818303038152906040525b915050919050565b60075481565b6000600560008473ffffffffffffffffffffffffffffffffffffffff1673ffffffffffffffffffffffffffffffffffffffff16815260200190815260200160002060008373ffffffffffffffffffffffffffffffffffffffff1673ffffffffffffffffffffffffffffffffffffffff16815260200190815260200160002060009054906101000a900460ff16905092915050565b610c53611052565b600073ffffffffffffffffffffffffffffffffffffffff168173ffffffffffffffffffffffffffffffffffffffff1603610cc55760006040517f1e4fbdf7000000000000000000000000000000000000000000000000000000008152600401610cbc9190611e3b565b60405180910390fd5b610cce816110d9565b50565b60007f01ffc9a7000000000000000000000000000000000000000000000000000000007bffffffffffffffffffffffffffffffffffffffffffffffffffffffff1916827bffffffffffffffffffffffffffffffffffffffffffffffffffffffff1916149050919050565b600080610d478361161f565b9050600073ffffffffffffffffffffffffffffffffffffffff168173ffffffffffffffffffffffffffffffffffffffff1603610dba57826040517f7e273289000000000000000000000000000000000000000000000000000000008152600401610db191906120a2565b60405180910390fd5b80915050919050565b60006004600083815260200190815260200160002060009054906101000a900473ffffffffffffffffffffffffffffffffffffffff169050919050565b600033905090565b610e15838383600161165c565b505050565b610e34828260405180602001604052806000815250611821565b5050565b600080610e448461161f565b9050600073ffffffffffffffffffffffffffffffffffffffff168373ffffffffffffffffffffffffffffffffffffffff1614610e8657610e85818486611845565b5b600073ffffffffffffffffffffffffffffffffffffffff168173ffffffffffffffffffffffffffffffffffffffff1614610f1757610ec860008560008061165c565b6001600360008373ffffffffffffffffffffffffffffffffffffffff1673ffffffffffffffffffffffffffffffffffffffff168152602001908152602001600020600082825403925050819055505b600073ffffffffffffffffffffffffffffffffffffffff168573ffffffffffffffffffffffffffffffffffffffff1614610f9a576001600360008773ffffffffffffffffffffffffffffffffffffffff1673ffffffffffffffffffffffffffffffffffffffff168152602001908152602001600020600082825401925050819055505b846002600086815260200190815260200160002060006101000a81548173ffffffffffffffffffffffffffffffffffffffff021916908373ffffffffffffffffffffffffffffffffffffffff160217905550838573ffffffffffffffffffffffffffffffffffffffff168273ffffffffffffffffffffffffffffffffffffffff167fddf252ad1be2c89b69c2b068fc378daa952ba7f163c4a11628f55a4df523b3ef60405160405180910390a4809150509392505050565b61105a610e00565b73ffffffffffffffffffffffffffffffffffffffff16611078610a4b565b73ffffffffffffffffffffffffffffffffffffffff16146110d75761109b610e00565b6040517f118cdaa70000000000000000000000000000000000000000000000000000000081526004016110ce9190611e3b565b60405180910390fd5b565b6000600660009054906101000a900473ffffffffffffffffffffffffffffffffffffffff16905081600660006101000a81548173ffffffffffffffffffffffffffffffffffffffff021916908373ffffffffffffffffffffffffffffffffffffffff1602179055508173ffffffffffffffffffffffffffffffffffffffff168173ffffffffffffffffffffffffffffffffffffffff167f8be0079c531659141344cd1fd0a4f28419497f9722a3daafe3b4186f6b6457e060405160405180910390a35050565b600073ffffffffffffffffffffffffffffffffffffffff168273ffffffffffffffffffffffffffffffffffffffff160361121057816040517f5b08ba180000000000000000000000000000000000000000000000000000000081526004016112079190611e3b565b60405180910390fd5b80600560008573ffffffffffffffffffffffffffffffffffffffff1673ffffffffffffffffffffffffffffffffffffffff16815260200190815260200160002060008473ffffffffffffffffffffffffffffffffffffffff1673ffffffffffffffffffffffffffffffffffffffff16815260200190815260200160002060006101000a81548160ff0219169083151502179055508173ffffffffffffffffffffffffffffffffffffffff168373ffffffffffffffffffffffffffffffffffffffff167f17307eab39ab6107e8899845ad3d59bd9653f200f220920489ca2b5937696c31836040516113019190611cca565b60405180910390a3505050565b60008373ffffffffffffffffffffffffffffffffffffffff163b11156114b8578273ffffffffffffffffffffffffffffffffffffffff1663150b7a02868685856040518563ffffffff1660e01b815260040161136d94939291906128b9565b6020604051808303816000875af19250505080156113a957506040513d601f19601f820116820180604052508101906113a6919061291a565b60015b61142d573d80600081146113d9576040519150601f19603f3d011682016040523d82523d6000602084013e6113de565b606091505b50600081510361142557836040517f64a0ae9200000000000000000000000000000000000000000000000000000000815260040161141c9190611e3b565b60405180910390fd5b805160208201fd5b63150b7a0260e01b7bffffffffffffffffffffffffffffffffffffffffffffffffffffffff1916817bffffffffffffffffffffffffffffffffffffffffffffffffffffffff1916146114b657836040517f64a0ae920000000000000000000000000000000000000000000000000000000081526004016114ad9190611e3b565b60405180910390fd5b505b5050505050565b6060600a80546114ce906122e9565b80601f01602080910402602001604051908101604052809291908181526020018280546114fa906122e9565b80156115475780601f1061151c57610100808354040283529160200191611547565b820191906000526020600020905b81548152906001019060200180831161152a57829003601f168201915b5050505050905090565b60606000600161156084611909565b01905060008167ffffffffffffffff81111561157f5761157e611f1f565b5b6040519080825280601f01601f1916602001820160405280156115b15781602001600182028036833780820191505090505b509050600082602083010190505b600115611614578080600190039150507f3031323334353637383961626364656600000000000000000000000000000000600a86061a8153600a858161160857611607612947565b5b049450600085036115bf575b819350505050919050565b60006002600083815260200190815260200160002060009054906101000a900473ffffffffffffffffffffffffffffffffffffffff169050919050565b80806116955750600073ffffffffffffffffffffffffffffffffffffffff168273ffffffffffffffffffffffffffffffffffffffff1614155b156117c95760006116a584610d3b565b9050600073ffffffffffffffffffffffffffffffffffffffff168373ffffffffffffffffffffffffffffffffffffffff161415801561171057508273ffffffffffffffffffffffffffffffffffffffff168173ffffffffffffffffffffffffffffffffffffffff1614155b801561172357506117218184610bb7565b155b1561176557826040517fa9fbf51f00000000000000000000000000000000000000000000000000000000815260040161175c9190611e3b565b60405180910390fd5b81156117c757838573ffffffffffffffffffffffffffffffffffffffff168273ffffffffffffffffffffffffffffffffffffffff167f8c5be1e5ebec7d5bd14f71427d1e84f3dd0314c0f7b2291e5b200ac8c7c3b92560405160405180910390a45b505b836004600085815260200190815260200160002060006101000a81548173ffffffffffffffffffffffffffffffffffffffff021916908373ffffffffffffffffffffffffffffffffffffffff16021790555050505050565b61182b8383611a5c565b611840611836610e00565b600085858561130e565b505050565b611850838383611b55565b61190457600073ffffffffffffffffffffffffffffffffffffffff168373ffffffffffffffffffffffffffffffffffffffff16036118c557806040517f7e2732890000000000000000000000000000000000000000000000000000000081526004016118bc91906120a2565b60405180910390fd5b81816040517f177e802f0000000000000000000000000000000000000000000000000000000081526004016118fb929190612976565b60405180910390fd5b505050565b600080600090507a184f03e93ff9f4daa797ed6e38ed64bf6a1f0100000000000000008310611967577a184f03e93ff9f4daa797ed6e38ed64bf6a1f010000000000000000838161195d5761195c612947565b5b0492506040810190505b6d04ee2d6d415b85acef810000000083106119a4576d04ee2d6d415b85acef8100000000838161199a57611999612947565b5b0492506020810190505b662386f26fc1000083106119d357662386f26fc1000083816119c9576119c8612947565b5b0492506010810190505b6305f5e10083106119fc576305f5e10083816119f2576119f1612947565b5b0492506008810190505b6127108310611a21576127108381611a1757611a16612947565b5b0492506004810190505b60648310611a445760648381611a3a57611a39612947565b5b0492506002810190505b600a8310611a53576001810190505b80915050919050565b600073ffffffffffffffffffffffffffffffffffffffff168273ffffffffffffffffffffffffffffffffffffffff1603611ace5760006040517f64a0ae92000000000000000000000000000000000000000000000000000000008152600401611ac59190611e3b565b60405180910390fd5b6000611adc83836000610e38565b9050600073ffffffffffffffffffffffffffffffffffffffff168173ffffffffffffffffffffffffffffffffffffffff1614611b505760006040517f73c6ac6e000000000000000000000000000000000000000000000000000000008152600401611b479190611e3b565b60405180910390fd5b505050565b60008073ffffffffffffffffffffffffffffffffffffffff168373ffffffffffffffffffffffffffffffffffffffff1614158015611c0d57508273ffffffffffffffffffffffffffffffffffffffff168473ffffffffffffffffffffffffffffffffffffffff161480611bce5750611bcd8484610bb7565b5b80611c0c57508273ffffffffffffffffffffffffffffffffffffffff16611bf483610dc3565b73ffffffffffffffffffffffffffffffffffffffff16145b5b90509392505050565b6000604051905090565b600080fd5b600080fd5b60007fffffffff0000000000000000000000000000000000000000000000000000000082169050919050565b611c5f81611c2a565b8114611c6a57600080fd5b50565b600081359050611c7c81611c56565b92915050565b600060208284031215611c9857611c97611c20565b5b6000611ca684828501611c6d565b91505092915050565b60008115159050919050565b611cc481611caf565b82525050565b6000602082019050611cdf6000830184611cbb565b92915050565b600081519050919050565b600082825260208201905092915050565b60005b83811015611d1f578082015181840152602081019050611d04565b60008484015250505050565b6000601f19601f8301169050919050565b6000611d4782611ce5565b611d518185611cf0565b9350611d61818560208601611d01565b611d6a81611d2b565b840191505092915050565b60006020820190508181036000830152611d8f8184611d3c565b905092915050565b6000819050919050565b611daa81611d97565b8114611db557600080fd5b50565b600081359050611dc781611da1565b92915050565b600060208284031215611de357611de2611c20565b5b6000611df184828501611db8565b91505092915050565b600073ffffffffffffffffffffffffffffffffffffffff82169050919050565b6000611e2582611dfa565b9050919050565b611e3581611e1a565b82525050565b6000602082019050611e506000830184611e2c565b92915050565b611e5f81611e1a565b8114611e6a57600080fd5b50565b600081359050611e7c81611e56565b92915050565b60008060408385031215611e9957611e98611c20565b5b6000611ea785828601611e6d565b9250506020611eb885828601611db8565b9150509250929050565b600080600060608486031215611edb57611eda611c20565b5b6000611ee986828701611e6d565b9350506020611efa86828701611e6d565b9250506040611f0b86828701611db8565b9150509250925092565b600080fd5b600080fd5b7f4e487b7100000000000000000000000000000000000000000000000000000000600052604160045260246000fd5b611f5782611d2b565b810181811067ffffffffffffffff82111715611f7657611f75611f1f565b5b80604052505050565b6000611f89611c16565b9050611f958282611f4e565b919050565b600067ffffffffffffffff821115611fb557611fb4611f1f565b5b611fbe82611d2b565b9050602081019050919050565b82818337600083830152505050565b6000611fed611fe884611f9a565b611f7f565b90508281526020810184848401111561200957612008611f1a565b5b612014848285611fcb565b509392505050565b600082601f83011261203157612030611f15565b5b8135612041848260208601611fda565b91505092915050565b6000602082840312156120605761205f611c20565b5b600082013567ffffffffffffffff81111561207e5761207d611c25565b5b61208a8482850161201c565b91505092915050565b61209c81611d97565b82525050565b60006020820190506120b76000830184612093565b92915050565b6000602082840312156120d3576120d2611c20565b5b60006120e184828501611e6d565b91505092915050565b6120f381611caf565b81146120fe57600080fd5b50565b600081359050612110816120ea565b92915050565b6000806040838503121561212d5761212c611c20565b5b600061213b85828601611e6d565b925050602061214c85828601612101565b9150509250929050565b600067ffffffffffffffff82111561217157612170611f1f565b5b61217a82611d2b565b9050602081019050919050565b600061219a61219584612156565b611f7f565b9050828152602081018484840111156121b6576121b5611f1a565b5b6121c1848285611fcb565b509392505050565b600082601f8301126121de576121dd611f15565b5b81356121ee848260208601612187565b91505092915050565b6000806000806080858703121561221157612210611c20565b5b600061221f87828801611e6d565b945050602061223087828801611e6d565b935050604061224187828801611db8565b925050606085013567ffffffffffffffff81111561226257612261611c25565b5b61226e878288016121c9565b91505092959194509250565b6000806040838503121561229157612290611c20565b5b600061229f85828601611e6d565b92505060206122b085828601611e6d565b9150509250929050565b7f4e487b7100000000000000000000000000000000000000000000000000000000600052602260045260246000fd5b6000600282049050600182168061230157607f821691505b602082108103612314576123136122ba565b5b50919050565b7f4d617820737570706c7920726561636865640000000000000000000000000000600082015250565b6000612350601283611cf0565b915061235b8261231a565b602082019050919050565b6000602082019050818103600083015261237f81612343565b9050919050565b7f496e73756666696369656e74207061796d656e74000000000000000000000000600082015250565b60006123bc601483611cf0565b91506123c782612386565b602082019050919050565b600060208201905081810360008301526123eb816123af565b9050919050565b7f4e487b7100000000000000000000000000000000000000000000000000000000600052601160045260246000fd5b600061242c82611d97565b915061243783611d97565b925082820190508082111561244f5761244e6123f2565b5b92915050565b600061246082611d97565b91507fffffffffffffffffffffffffffffffffffffffffffffffffffffffffffffffff8203612492576124916123f2565b5b600182019050919050565b60006060820190506124b26000830186611e2c565b6124bf6020830185612093565b6124cc6040830184611e2c565b949350505050565b600081905092915050565b50565b60006124ef6000836124d4565b91506124fa826124df565b600082019050919050565b6000612510826124e2565b9150819050919050565b7f5769746864726177206661696c65640000000000000000000000000000000000600082015250565b6000612550600f83611cf0565b915061255b8261251a565b602082019050919050565b6000602082019050818103600083015261257f81612543565b9050919050565b60008190508160005260206000209050919050565b60006020601f8301049050919050565b600082821b905092915050565b6000600883026125e87fffffffffffffffffffffffffffffffffffffffffffffffffffffffffffffffff826125ab565b6125f286836125ab565b95508019841693508086168417925050509392505050565b6000819050919050565b600061262f61262a61262584611d97565b61260a565b611d97565b9050919050565b6000819050919050565b61264983612614565b61265d61265582612636565b8484546125b8565b825550505050565b600090565b612672612665565b61267d818484612640565b505050565b5b818110156126a15761269660008261266a565b600181019050612683565b5050565b601f8211156126e6576126b781612586565b6126c08461259b565b810160208510156126cf578190505b6126e36126db8561259b565b830182612682565b50505b505050565b600082821c905092915050565b6000612709600019846008026126eb565b1980831691505092915050565b600061272283836126f8565b9150826002028217905092915050565b61273b82611ce5565b67ffffffffffffffff81111561275457612753611f1f565b5b61275e82546122e9565b6127698282856126a5565b600060209050601f83116001811461279c576000841561278a578287015190505b6127948582612716565b8655506127fc565b601f1984166127aa86612586565b60005b828110156127d2578489015182556001820191506020850194506020810190506127ad565b868310156127ef57848901516127eb601f8916826126f8565b8355505b6001600288020188555050505b505050505050565b600081905092915050565b600061281a82611ce5565b6128248185612804565b9350612834818560208601611d01565b80840191505092915050565b600061284c828561280f565b9150612858828461280f565b91508190509392505050565b600081519050919050565b600082825260208201905092915050565b600061288b82612864565b612895818561286f565b93506128a5818560208601611d01565b6128ae81611d2b565b840191505092915050565b60006080820190506128ce6000830187611e2c565b6128db6020830186611e2c565b6128e86040830185612093565b81810360608301526128fa8184612880565b905095945050505050565b60008151905061291481611c56565b92915050565b6000602082840312156129305761292f611c20565b5b600061293e84828501612905565b91505092915050565b7f4e487b7100000000000000000000000000000000000000000000000000000000600052601260045260246000fd5b600060408201905061298b6000830185611e2c565b6129986020830184612093565b939250505056fea2646970667358221220da6b5d1aef48dd02c231c58f1678ff0ca2476589c83dc5d7e3602bbe779adc8b64736f6c63430008140033a264697066735822122086cdfbe65281d8654b7556c8580df8c5bd55d6c539de461a379755de93affd7464736f6c63430008140033",
  "linkReferences": {},
  "deployedLinkReferences": {}
}