{
  "_format": "hh-sol-artifact-1",
  "contractName": "NFTFactory",
  "sourceName": "contracts/NFTFactory.sol",
  "abi": [
    {
      "inputs": [],
      "stateMutability": "nonpayable",
      "type": "constructor"
    },
    {
      "inputs": [],
      "name": "FailedDeployment",
      "type": "error"
    },
    {
      "inputs": [
        {
          "internalType": "uint256",
          "name": "balance",
          "type": "uint256"
        },
        {
          "internalType": "uint256",
          "name": "needed",
          "type": "uint256"
        }
      ],
      "name": "InsufficientBalance",
      "type": "error"
    },
    {
      "anonymous": false,
      "inputs": [
        {
          "indexed": true,
          "internalType": "address",
          "name": "collection",
          "type": "address"
        },
        {
          "indexed": true,
          "internalType": "address",
          "name": "owner",
          "type": "address"
        },
        {
          "indexed": false,
          "internalType": "string",
          "name": "name",
          "type": "string"
        },
        {
          "indexed": false,
          "internalType": "string",
          "name": "symbol",
          "type": "string"
        }
      ],
      "name": "CollectionDeployed",
      "type": "event"
    },
    {
      "inputs": [
        {
          "internalType": "uint256",
          "name": "",
          "type": "uint256"
        }
      ],
      "name": "allCollections",
      "outputs": [
        {
          "internalType": "address",
          "name": "",
          "type": "address"
        }
      ],
      "stateMutability": "view",
      "type": "function"
    },
    {
      "inputs": [
        {
          "internalType": "string",
          "name": "name",
          "type": "string"
        },
        {
          "internalType": "string",
          "name": "symbol",
          "type": "string"
        },
        {
          "internalType": "string",
          "name": "baseTokenURI",
          "type": "string"
        },
        {
          "internalType": "uint256",
          "name": "maxSupply",
          "type": "uint256"
        },
        {
          "internalType": "uint256",
          "name": "mintPrice",
          "type": "uint256"
        },
        {
          "internalType": "uint256",
          "name": "maxPerWallet",
          "type": "uint256"
        },
        {
          "internalType": "uint256",
          "name": "mintStart",
          "type": "uint256"
        },
        {
          "internalType": "uint256",
          "name": "mintEnd",
          "type": "uint256"
        }
      ],
      "name": "deployCollection",
      "outputs": [
        {
          "internalType": "address",
          "name": "",
          "type": "address"
        }
      ],
      "stateMutability": "nonpayable",
      "type": "function"
    },
    {
      "inputs": [],
      "name": "getAllCollections",
      "outputs": [
        {
          "internalType": "address[]",
          "name": "",
          "type": "address[]"
        }
      ],
      "stateMutability": "view",
      "type": "function"
    },
    {
      "inputs": [],
      "name": "implementation",
      "outputs": [
        {
          "internalType": "address",
          "name": "",
          "type": "address"
        }
      ],
      "stateMutability": "view",
      "type": "function"
    }
  ],
  "bytecode": "0x608060405234801561001057600080fd5b5060405161001d9061007f565b604051809103906000f080158015610039573d6000803e3d6000fd5b50600160006101000a81548173ffffffffffffffffffffffffffffffffffffffff021916908373ffffffffffffffffffffffffffffffffffffffff16021790555061008c565b61400980610ad583390190565b610a3a8061009b6000396000f3fe608060405234801561001057600080fd5b506004361061004c5760003560e01c8063167ef495146100515780635c60da1b146100815780636804a9581461009f57806391ff2b9b146100bd575b600080fd5b61006b600480360381019061006691906104bb565b6100ed565b6040516100789190610529565b60405180910390f35b61008961012c565b6040516100969190610529565b60405180910390f35b6100a7610152565b6040516100b49190610602565b60405180910390f35b6100d760048036038101906100d2919061076a565b6101e0565b6040516100e49190610529565b60405180910390f35b600081815481106100fd57600080fd5b906000526020600020016000915054906101000a900473ffffffffffffffffffffffffffffffffffffffff1681565b600160009054906101000a900473ffffffffffffffffffffffffffffffffffffffff1681565b606060008054806020026020016040519081016040528092919081815260200182805480156101d657602002820191906000526020600020905b8160009054906101000a900473ffffffffffffffffffffffffffffffffffffffff1673ffffffffffffffffffffffffffffffffffffffff168152602001906001019080831161018c575b5050505050905090565b60008061020e600160009054906101000a900473ffffffffffffffffffffffffffffffffffffffff16610365565b90508073ffffffffffffffffffffffffffffffffffffffff1663d6a1d3a28b8b8b8b8b8b8b8b336040518a63ffffffff1660e01b815260040161025999989796959493929190610902565b600060405180830381600087803b15801561027357600080fd5b505af1158015610287573d6000803e3d6000fd5b505050506000819080600181540180825580915050600190039060005260206000200160009091909190916101000a81548173ffffffffffffffffffffffffffffffffffffffff021916908373ffffffffffffffffffffffffffffffffffffffff1602179055503373ffffffffffffffffffffffffffffffffffffffff168173ffffffffffffffffffffffffffffffffffffffff167f42805f304977dde16425c6a05d5bec1836888a4efc9a847f2ab450923d350c268c8c60405161034d9291906109a4565b60405180910390a38091505098975050505050505050565b6000610372826000610379565b9050919050565b6000814710156103c25747826040517fcf4791810000000000000000000000000000000000000000000000000000000081526004016103b99291906109db565b60405180910390fd5b763d602d80600a3d3981f3363d3d373d3d3d363d730000008360601b60e81c176000526e5af43d82803e903d91602b57fd5bf38360781b176020526037600983f09050600073ffffffffffffffffffffffffffffffffffffffff168173ffffffffffffffffffffffffffffffffffffffff160361046b576040517fb06ebf3d00000000000000000000000000000000000000000000000000000000815260040160405180910390fd5b92915050565b6000604051905090565b600080fd5b600080fd5b6000819050919050565b61049881610485565b81146104a357600080fd5b50565b6000813590506104b58161048f565b92915050565b6000602082840312156104d1576104d061047b565b5b60006104df848285016104a6565b91505092915050565b600073ffffffffffffffffffffffffffffffffffffffff82169050919050565b6000610513826104e8565b9050919050565b61052381610508565b82525050565b600060208201905061053e600083018461051a565b92915050565b600081519050919050565b600082825260208201905092915050565b6000819050602082019050919050565b61057981610508565b82525050565b600061058b8383610570565b60208301905092915050565b6000602082019050919050565b60006105af82610544565b6105b9818561054f565b93506105c483610560565b8060005b838110156105f55781516105dc888261057f565b97506105e783610597565b9250506001810190506105c8565b5085935050505092915050565b6000602082019050818103600083015261061c81846105a4565b905092915050565b600080fd5b600080fd5b6000601f19601f8301169050919050565b7f4e487b7100000000000000000000000000000000000000000000000000000000600052604160045260246000fd5b6106778261062e565b810181811067ffffffffffffffff821117156106965761069561063f565b5b80604052505050565b60006106a9610471565b90506106b5828261066e565b919050565b600067ffffffffffffffff8211156106d5576106d461063f565b5b6106de8261062e565b9050602081019050919050565b82818337600083830152505050565b600061070d610708846106ba565b61069f565b90508281526020810184848401111561072957610728610629565b5b6107348482856106eb565b509392505050565b600082601f83011261075157610750610624565b5b81356107618482602086016106fa565b91505092915050565b600080600080600080600080610100898b03121561078b5761078a61047b565b5b600089013567ffffffffffffffff8111156107a9576107a8610480565b5b6107b58b828c0161073c565b985050602089013567ffffffffffffffff8111156107d6576107d5610480565b5b6107e28b828c0161073c565b975050604089013567ffffffffffffffff81111561080357610802610480565b5b61080f8b828c0161073c565b96505060606108208b828c016104a6565b95505060806108318b828c016104a6565b94505060a06108428b828c016104a6565b93505060c06108538b828c016104a6565b92505060e06108648b828c016104a6565b9150509295985092959890939650565b600081519050919050565b600082825260208201905092915050565b60005b838110156108ae578082015181840152602081019050610893565b60008484015250505050565b60006108c582610874565b6108cf818561087f565b93506108df818560208601610890565b6108e88161062e565b840191505092915050565b6108fc81610485565b82525050565b600061012082019050818103600083015261091d818c6108ba565b90508181036020830152610931818b6108ba565b90508181036040830152610945818a6108ba565b905061095460608301896108f3565b61096160808301886108f3565b61096e60a08301876108f3565b61097b60c08301866108f3565b61098860e08301856108f3565b61099661010083018461051a565b9a9950505050505050505050565b600060408201905081810360008301526109be81856108ba565b905081810360208301526109d281846108ba565b90509392505050565b60006040820190506109f060008301856108f3565b6109fd60208301846108f3565b939250505056fea2646970667358221220e0797f2312ce6e31432be87fb12224bca9d6feaa717437334fbc3cba3777ec6b64736f6c6343000814003360806040523480156200001157600080fd5b50336040518060200160405280600081525060405180602001604052806000815250816000908162000044919062000426565b50806001908162000056919062000426565b505050600073ffffffffffffffffffffffffffffffffffffffff168173ffffffffffffffffffffffffffffffffffffffff1603620000ce5760006040517f1e4fbdf7000000000000000000000000000000000000000000000000000000008152600401620000c5919062000552565b60405180910390fd5b620000df81620000e660201b60201c565b506200056f565b6000600660009054906101000a900473ffffffffffffffffffffffffffffffffffffffff16905081600660006101000a81548173ffffffffffffffffffffffffffffffffffffffff021916908373ffffffffffffffffffffffffffffffffffffffff1602179055508173ffffffffffffffffffffffffffffffffffffffff168173ffffffffffffffffffffffffffffffffffffffff167f8be0079c531659141344cd1fd0a4f28419497f9722a3daafe3b4186f6b6457e060405160405180910390a35050565b600081519050919050565b7f4e487b7100000000000000000000000000000000000000000000000000000000600052604160045260246000fd5b7f4e487b7100000000000000000000000000000000000000000000000000000000600052602260045260246000fd5b600060028204905060018216806200022e57607f821691505b602082108103620002445762000243620001e6565b5b50919050565b60008190508160005260206000209050919050565b60006020601f8301049050919050565b600082821b905092915050565b600060088302620002ae7fffffffffffffffffffffffffffffffffffffffffffffffffffffffffffffffff826200026f565b620002ba86836200026f565b95508019841693508086168417925050509392505050565b6000819050919050565b6000819050919050565b60006200030762000301620002fb84620002d2565b620002dc565b620002d2565b9050919050565b6000819050919050565b6200032383620002e6565b6200033b62000332826200030e565b8484546200027c565b825550505050565b600090565b6200035262000343565b6200035f81848462000318565b505050565b5b8181101562000387576200037b60008262000348565b60018101905062000365565b5050565b601f821115620003d657620003a0816200024a565b620003ab846200025f565b81016020851015620003bb578190505b620003d3620003ca856200025f565b83018262000364565b50505b505050565b600082821c905092915050565b6000620003fb60001984600802620003db565b1980831691505092915050565b6000620004168383620003e8565b9150826002028217905092915050565b6200043182620001ac565b67ffffffffffffffff8111156200044d576200044c620001b7565b5b62000459825462000215565b620004668282856200038b565b600060209050601f8311600181146200049e576000841562000489578287015190505b62000495858262000408565b86555062000505565b601f198416620004ae866200024a565b60005b82811015620004d857848901518255600182019150602085019450602081019050620004b1565b86831015620004f85784890151620004f4601f891682620003e8565b8355505b6001600288020188555050505b505050505050565b600073ffffffffffffffffffffffffffffffffffffffff82169050919050565b60006200053a826200050d565b9050919050565b6200054c816200052d565b82525050565b600060208201905062000569600083018462000541565b92915050565b613a8a806200057f6000396000f3fe6080604052600436106101cd5760003560e01c8063729ad39e116100f7578063b88d4fde11610095578063e985e9c511610064578063e985e9c514610622578063ea2b4ab21461065f578063f2fde38b1461068a578063f4a0a528146106b3576101cd565b8063b88d4fde14610568578063c87b56dd14610591578063d5abeb01146105ce578063d6a1d3a2146105f9576101cd565b8063a22cb465116100d1578063a22cb465146104cd578063a2309ff8146104f6578063a5097ebf14610521578063abbb5a551461054c576101cd565b8063729ad39e1461044e5780638da5cb5b1461047757806395d89b41146104a2576101cd565b80633ccfd60b1161016f5780636352211e1161013e5780636352211e146103925780636817c76c146103cf57806370a08231146103fa578063715018a614610437576101cd565b80633ccfd60b146102fe57806342842e0e14610315578063453c23101461033e57806355f804b314610369576101cd565b8063095ea7b3116101ab578063095ea7b3146102775780631249c58b146102a057806323b872dd146102aa578063255e4685146102d3576101cd565b806301ffc9a7146101d257806306fdde031461020f578063081812fc1461023a575b600080fd5b3480156101de57600080fd5b506101f960048036038101906101f491906127cf565b6106dc565b6040516102069190612817565b60405180910390f35b34801561021b57600080fd5b506102246107be565b60405161023191906128c2565b60405180910390f35b34801561024657600080fd5b50610261600480360381019061025c919061291a565b610850565b60405161026e9190612988565b60405180910390f35b34801561028357600080fd5b5061029e600480360381019061029991906129cf565b61086c565b005b6102a8610882565b005b3480156102b657600080fd5b506102d160048036038101906102cc9190612a0f565b610b4e565b005b3480156102df57600080fd5b506102e8610c50565b6040516102f59190612a85565b60405180910390f35b34801561030a57600080fd5b50610313610c6a565b005b34801561032157600080fd5b5061033c60048036038101906103379190612a0f565b610d28565b005b34801561034a57600080fd5b50610353610d48565b6040516103609190612ac7565b60405180910390f35b34801561037557600080fd5b50610390600480360381019061038b9190612c17565b610d66565b005b34801561039e57600080fd5b506103b960048036038101906103b4919061291a565b610d81565b6040516103c69190612988565b60405180910390f35b3480156103db57600080fd5b506103e4610d93565b6040516103f19190612ac7565b60405180910390f35b34801561040657600080fd5b50610421600480360381019061041c9190612c60565b610db1565b60405161042e9190612c9c565b60405180910390f35b34801561044357600080fd5b5061044c610e6b565b005b34801561045a57600080fd5b5061047560048036038101906104709190612d17565b610e7f565b005b34801561048357600080fd5b5061048c610fdf565b6040516104999190612988565b60405180910390f35b3480156104ae57600080fd5b506104b7611009565b6040516104c491906128c2565b60405180910390f35b3480156104d957600080fd5b506104f460048036038101906104ef9190612d90565b61109b565b005b34801561050257600080fd5b5061050b6110b1565b6040516105189190612ac7565b60405180910390f35b34801561052d57600080fd5b506105366110cf565b60405161054391906128c2565b60405180910390f35b6105666004803603810190610561919061291a565b611161565b005b34801561057457600080fd5b5061058f600480360381019061058a9190612e71565b6114b0565b005b34801561059d57600080fd5b506105b860048036038101906105b3919061291a565b6114d5565b6040516105c591906128c2565b60405180910390f35b3480156105da57600080fd5b506105e361153e565b6040516105f09190612ac7565b60405180910390f35b34801561060557600080fd5b50610620600480360381019061061b9190612ef4565b61155c565b005b34801561062e57600080fd5b5061064960048036038101906106449190613012565b6116f0565b6040516106569190612817565b60405180910390f35b34801561066b57600080fd5b50610674611784565b6040516106819190612a85565b60405180910390f35b34801561069657600080fd5b506106b160048036038101906106ac9190612c60565b61179e565b005b3480156106bf57600080fd5b506106da60048036038101906106d5919061291a565b611824565b005b60007f80ac58cd000000000000000000000000000000000000000000000000000000007bffffffffffffffffffffffffffffffffffffffffffffffffffffffff1916827bffffffffffffffffffffffffffffffffffffffffffffffffffffffff191614806107a757507f5b5e139f000000000000000000000000000000000000000000000000000000007bffffffffffffffffffffffffffffffffffffffffffffffffffffffff1916827bffffffffffffffffffffffffffffffffffffffffffffffffffffffff1916145b806107b757506107b682611860565b5b9050919050565b6060600a80546107cd90613081565b80601f01602080910402602001604051908101604052809291908181526020018280546107f990613081565b80156108465780601f1061081b57610100808354040283529160200191610846565b820191906000526020600020905b81548152906001019060200180831161082957829003601f168201915b5050505050905090565b600061085b826118ca565b5061086582611952565b9050919050565b61087e828261087961198f565b611997565b5050565b6007600c9054906101000a90046bffffffffffffffffffffffff166bffffffffffffffffffffffff16600760009054906101000a90046bffffffffffffffffffffffff166bffffffffffffffffffffffff1610610914576040517f08c379a000000000000000000000000000000000000000000000000000000000815260040161090b906130fe565b60405180910390fd5b600860009054906101000a90046bffffffffffffffffffffffff166bffffffffffffffffffffffff1634101561097f576040517f08c379a00000000000000000000000000000000000000000000000000000000081526004016109769061316a565b60405180910390fd5b6008600c9054906101000a90046bffffffffffffffffffffffff166bffffffffffffffffffffffff166109b133610db1565b106109f1576040517f08c379a00000000000000000000000000000000000000000000000000000000081526004016109e8906131d6565b60405180910390fd5b600860189054906101000a900467ffffffffffffffff1667ffffffffffffffff16421015610a54576040517f08c379a0000000000000000000000000000000000000000000000000000000008152600401610a4b90613242565b60405180910390fd5b6000600960009054906101000a900467ffffffffffffffff1667ffffffffffffffff161480610aa35750600960009054906101000a900467ffffffffffffffff1667ffffffffffffffff164211155b610ae2576040517f08c379a0000000000000000000000000000000000000000000000000000000008152600401610ad9906132ae565b60405180910390fd5b60006007600081819054906101000a90046bffffffffffffffffffffffff1660010191906101000a8154816bffffffffffffffffffffffff02191690836bffffffffffffffffffffffff16021790556bffffffffffffffffffffffff169050610b4b33826119a9565b50565b600073ffffffffffffffffffffffffffffffffffffffff168273ffffffffffffffffffffffffffffffffffffffff1603610bc05760006040517f64a0ae92000000000000000000000000000000000000000000000000000000008152600401610bb79190612988565b60405180910390fd5b6000610bd48383610bcf61198f565b611aa2565b90508373ffffffffffffffffffffffffffffffffffffffff168173ffffffffffffffffffffffffffffffffffffffff1614610c4a578382826040517f64283d7b000000000000000000000000000000000000000000000000000000008152600401610c41939291906132ce565b60405180910390fd5b50505050565b600860189054906101000a900467ffffffffffffffff1681565b610c72611cbc565b6000610c7c610fdf565b73ffffffffffffffffffffffffffffffffffffffff1647604051610c9f90613336565b60006040518083038185875af1925050503d8060008114610cdc576040519150601f19603f3d011682016040523d82523d6000602084013e610ce1565b606091505b5050905080610d25576040517f08c379a0000000000000000000000000000000000000000000000000000000008152600401610d1c90613397565b60405180910390fd5b50565b610d43838383604051806020016040528060008152506114b0565b505050565b6008600c9054906101000a90046bffffffffffffffffffffffff1681565b610d6e611cbc565b80600c9081610d7d9190613563565b5050565b6000610d8c826118ca565b9050919050565b600860009054906101000a90046bffffffffffffffffffffffff1681565b60008073ffffffffffffffffffffffffffffffffffffffff168273ffffffffffffffffffffffffffffffffffffffff1603610e245760006040517f89c62b64000000000000000000000000000000000000000000000000000000008152600401610e1b9190612988565b60405180910390fd5b600360008373ffffffffffffffffffffffffffffffffffffffff1673ffffffffffffffffffffffffffffffffffffffff168152602001908152602001600020549050919050565b610e73611cbc565b610e7d6000611d43565b565b610e87611cbc565b60008282905090506007600c9054906101000a90046bffffffffffffffffffffffff166bffffffffffffffffffffffff1681600760009054906101000a90046bffffffffffffffffffffffff166bffffffffffffffffffffffff16610eec9190613664565b1115610f2d576040517f08c379a0000000000000000000000000000000000000000000000000000000008152600401610f24906130fe565b60405180910390fd5b6000600760009054906101000a90046bffffffffffffffffffffffff166bffffffffffffffffffffffff16905060005b82811015610fa757610f9c858583818110610f7b57610f7a613698565b5b9050602002016020810190610f909190612c60565b836001019350836119a9565b806001019050610f5d565b5080600760006101000a8154816bffffffffffffffffffffffff02191690836bffffffffffffffffffffffff16021790555050505050565b6000600660009054906101000a900473ffffffffffffffffffffffffffffffffffffffff16905090565b6060600b805461101890613081565b80601f016020809104026020016040519081016040528092919081815260200182805461104490613081565b80156110915780601f1061106657610100808354040283529160200191611091565b820191906000526020600020905b81548152906001019060200180831161107457829003601f168201915b5050505050905090565b6110ad6110a661198f565b8383611e09565b5050565b600760009054906101000a90046bffffffffffffffffffffffff1681565b6060600c80546110de90613081565b80601f016020809104026020016040519081016040528092919081815260200182805461110a90613081565b80156111575780601f1061112c57610100808354040283529160200191611157565b820191906000526020600020905b81548152906001019060200180831161113a57829003601f168201915b5050505050905090565b600081116111a4576040517f08c379a000000000000000000000000000000000000000000000000000000000815260040161119b90613713565b60405180910390fd5b6007600c9054906101000a90046bffffffffffffffffffffffff166bffffffffffffffffffffffff1681600760009054906101000a90046bffffffffffffffffffffffff166bffffffffffffffffffffffff166112019190613664565b1115611242576040517f08c379a00000000000000000000000000000000000000000000000000000000081526004016112399061377f565b60405180910390fd5b6008600c9054906101000a90046bffffffffffffffffffffffff166bffffffffffffffffffffffff168161127533610db1565b61127f9190613664565b11156112c0576040517f08c379a00000000000000000000000000000000000000000000000000000000081526004016112b7906137eb565b60405180910390fd5b80600860009054906101000a90046bffffffffffffffffffffffff166bffffffffffffffffffffffff166112f4919061380b565b341015611336576040517f08c379a000000000000000000000000000000000000000000000000000000000815260040161132d9061316a565b60405180910390fd5b600860189054906101000a900467ffffffffffffffff1667ffffffffffffffff16421015611399576040517f08c379a000000000000000000000000000000000000000000000000000000000815260040161139090613242565b60405180910390fd5b6000600960009054906101000a900467ffffffffffffffff1667ffffffffffffffff1614806113e85750600960009054906101000a900467ffffffffffffffff1667ffffffffffffffff164211155b611427576040517f08c379a000000000000000000000000000000000000000000000000000000000815260040161141e906132ae565b60405180910390fd5b6000600760009054906101000a90046bffffffffffffffffffffffff166bffffffffffffffffffffffff16905060005b8281101561147a5761146f33836001019350836119a9565b806001019050611457565b5080600760006101000a8154816bffffffffffffffffffffffff02191690836bffffffffffffffffffffffff1602179055505050565b6114bb848484610b4e565b6114cf6114c661198f565b85858585611f78565b50505050565b60606114e0826118ca565b5060006114eb612129565b9050600081511161150b5760405180602001604052806000815250611536565b80611515846121bb565b604051602001611526929190613889565b6040516020818303038152906040525b915050919050565b6007600c9054906101000a90046bffffffffffffffffffffffff1681565b600660149054906101000a900460ff16156115ac576040517f08c379a00000000000000000000000000000000000000000000000000000000081526004016115a3906138f9565b60405180910390fd5b6001600660146101000a81548160ff02191690831515021790555088600a90816115d69190613563565b5087600b90816115e69190613563565b506115f081611d43565b86600c90816115ff9190613563565b50856007600c6101000a8154816bffffffffffffffffffffffff02191690836bffffffffffffffffffffffff16021790555084600860006101000a8154816bffffffffffffffffffffffff02191690836bffffffffffffffffffffffff160217905550836008600c6101000a8154816bffffffffffffffffffffffff02191690836bffffffffffffffffffffffff16021790555082600860186101000a81548167ffffffffffffffff021916908367ffffffffffffffff16021790555081600960006101000a81548167ffffffffffffffff021916908367ffffffffffffffff160217905550505050505050505050565b6000600560008473ffffffffffffffffffffffffffffffffffffffff1673ffffffffffffffffffffffffffffffffffffffff16815260200190815260200160002060008373ffffffffffffffffffffffffffffffffffffffff1673ffffffffffffffffffffffffffffffffffffffff16815260200190815260200160002060009054906101000a900460ff16905092915050565b600960009054906101000a900467ffffffffffffffff1681565b6117a6611cbc565b600073ffffffffffffffffffffffffffffffffffffffff168173ffffffffffffffffffffffffffffffffffffffff16036118185760006040517f1e4fbdf700000000000000000000000000000000000000000000000000000000815260040161180f9190612988565b60405180910390fd5b61182181611d43565b50565b61182c611cbc565b80600860006101000a8154816bffffffffffffffffffffffff02191690836bffffffffffffffffffffffff16021790555050565b60007f01ffc9a7000000000000000000000000000000000000000000000000000000007bffffffffffffffffffffffffffffffffffffffffffffffffffffffff1916827bffffffffffffffffffffffffffffffffffffffffffffffffffffffff1916149050919050565b6000806118d683612289565b9050600073ffffffffffffffffffffffffffffffffffffffff168173ffffffffffffffffffffffffffffffffffffffff160361194957826040517f7e2732890000000000000000000000000000000000000000000000000000000081526004016119409190612c9c565b60405180910390fd5b80915050919050565b60006004600083815260200190815260200160002060009054906101000a900473ffffffffffffffffffffffffffffffffffffffff169050919050565b600033905090565b6119a483838360016122c6565b505050565b600073ffffffffffffffffffffffffffffffffffffffff168273ffffffffffffffffffffffffffffffffffffffff1603611a1b5760006040517f64a0ae92000000000000000000000000000000000000000000000000000000008152600401611a129190612988565b60405180910390fd5b6000611a2983836000611aa2565b9050600073ffffffffffffffffffffffffffffffffffffffff168173ffffffffffffffffffffffffffffffffffffffff1614611a9d5760006040517f73c6ac6e000000000000000000000000000000000000000000000000000000008152600401611a949190612988565b60405180910390fd5b505050565b600080611aae84612289565b9050600073ffffffffffffffffffffffffffffffffffffffff168373ffffffffffffffffffffffffffffffffffffffff1614611af057611aef81848661248b565b5b600073ffffffffffffffffffffffffffffffffffffffff168173ffffffffffffffffffffffffffffffffffffffff1614611b8157611b326000856000806122c6565b6001600360008373ffffffffffffffffffffffffffffffffffffffff1673ffffffffffffffffffffffffffffffffffffffff168152602001908152602001600020600082825403925050819055505b600073ffffffffffffffffffffffffffffffffffffffff168573ffffffffffffffffffffffffffffffffffffffff1614611c04576001600360008773ffffffffffffffffffffffffffffffffffffffff1673ffffffffffffffffffffffffffffffffffffffff168152602001908152602001600020600082825401925050819055505b846002600086815260200190815260200160002060006101000a81548173ffffffffffffffffffffffffffffffffffffffff021916908373ffffffffffffffffffffffffffffffffffffffff160217905550838573ffffffffffffffffffffffffffffffffffffffff168273ffffffffffffffffffffffffffffffffffffffff167fddf252ad1be2c89b69c2b068fc378daa952ba7f163c4a11628f55a4df523b3ef60405160405180910390a4809150509392505050565b611cc461198f565b73ffffffffffffffffffffffffffffffffffffffff16611ce2610fdf565b73ffffffffffffffffffffffffffffffffffffffff1614611d4157611d0561198f565b6040517f118cdaa7000000000000000000000000000000000000000000000000000000008152600401611d389190612988565b60405180910390fd5b565b6000600660009054906101000a900473ffffffffffffffffffffffffffffffffffffffff16905081600660006101000a81548173ffffffffffffffffffffffffffffffffffffffff021916908373ffffffffffffffffffffffffffffffffffffffff1602179055508173ffffffffffffffffffffffffffffffffffffffff168173ffffffffffffffffffffffffffffffffffffffff167f8be0079c531659141344cd1fd0a4f28419497f9722a3daafe3b4186f6b6457e060405160405180910390a35050565b600073ffffffffffffffffffffffffffffffffffffffff168273ffffffffffffffffffffffffffffffffffffffff1603611e7a57816040517f5b08ba18000000000000000000000000000000000000000000000000000000008152600401611e719190612988565b60405180910390fd5b80600560008573ffffffffffffffffffffffffffffffffffffffff1673ffffffffffffffffffffffffffffffffffffffff16815260200190815260200160002060008473ffffffffffffffffffffffffffffffffffffffff1673ffffffffffffffffffffffffffffffffffffffff16815260200190815260200160002060006101000a81548160ff0219169083151502179055508173ffffffffffffffffffffffffffffffffffffffff168373ffffffffffffffffffffffffffffffffffffffff167f17307eab39ab6107e8899845ad3d59bd9653f200f220920489ca2b5937696c3183604051611f6b9190612817565b60405180910390a3505050565b60008373ffffffffffffffffffffffffffffffffffffffff163b1115612122578273ffffffffffffffffffffffffffffffffffffffff1663150b7a02868685856040518563ffffffff1660e01b8152600401611fd7949392919061396e565b6020604051808303816000875af192505050801561201357506040513d601f19601f8201168201806040525081019061201091906139cf565b60015b612097573d8060008114612043576040519150601f19603f3d011682016040523d82523d6000602084013e612048565b606091505b50600081510361208f57836040517f64a0ae920000000000000000000000000000000000000000000000000000000081526004016120869190612988565b60405180910390fd5b805160208201fd5b63150b7a0260e01b7bffffffffffffffffffffffffffffffffffffffffffffffffffffffff1916817bffffffffffffffffffffffffffffffffffffffffffffffffffffffff19161461212057836040517f64a0ae920000000000000000000000000000000000000000000000000000000081526004016121179190612988565b60405180910390fd5b505b5050505050565b6060600c805461213890613081565b80601f016020809104026020016040519081016040528092919081815260200182805461216490613081565b80156121b15780601f10612186576101008083540402835291602001916121b1565b820191906000526020600020905b81548152906001019060200180831161219457829003601f168201915b5050505050905090565b6060600060016121ca8461254f565b01905060008167ffffffffffffffff8111156121e9576121e8612aec565b5b6040519080825280601f01601f19166020018201604052801561221b5781602001600182028036833780820191505090505b509050600082602083010190505b60011561227e578080600190039150507f3031323334353637383961626364656600000000000000000000000000000000600a86061a8153600a8581612272576122716139fc565b5b04945060008503612229575b819350505050919050565b60006002600083815260200190815260200160002060009054906101000a900473ffffffffffffffffffffffffffffffffffffffff169050919050565b80806122ff5750600073ffffffffffffffffffffffffffffffffffffffff168273ffffffffffffffffffffffffffffffffffffffff1614155b1561243357600061230f846118ca565b9050600073ffffffffffffffffffffffffffffffffffffffff168373ffffffffffffffffffffffffffffffffffffffff161415801561237a57508273ffffffffffffffffffffffffffffffffffffffff168173ffffffffffffffffffffffffffffffffffffffff1614155b801561238d575061238b81846116f0565b155b156123cf57826040517fa9fbf51f0000000000000000000000000000000000000000000000000000000081526004016123c69190612988565b60405180910390fd5b811561243157838573ffffffffffffffffffffffffffffffffffffffff168273ffffffffffffffffffffffffffffffffffffffff167f8c5be1e5ebec7d5bd14f71427d1e84f3dd0314c0f7b2291e5b200ac8c7c3b92560405160405180910390a45b505b836004600085815260200190815260200160002060006101000a81548173ffffffffffffffffffffffffffffffffffffffff021916908373ffffffffffffffffffffffffffffffffffffffff16021790555050505050565b6124968383836126a2565b61254a57600073ffffffffffffffffffffffffffffffffffffffff168373ffffffffffffffffffffffffffffffffffffffff160361250b57806040517f7e2732890000000000000000000000000000000000000000000000000000000081526004016125029190612c9c565b60405180910390fd5b81816040517f177e802f000000000000000000000000000000000000000000000000000000008152600401612541929190613a2b565b60405180910390fd5b505050565b600080600090507a184f03e93ff9f4daa797ed6e38ed64bf6a1f01000000000000000083106125ad577a184f03e93ff9f4daa797ed6e38ed64bf6a1f01000000000000000083816125a3576125a26139fc565b5b0492506040810190505b6d04ee2d6d415b85acef810000000083106125ea576d04ee2d6d415b85acef810000000083816125e0576125df6139fc565b5b0492506020810190505b662386f26fc10000831061261957662386f26fc10000838161260f5761260e6139fc565b5b0492506010810190505b6305f5e1008310612642576305f5e1008381612638576126376139fc565b5b0492506008810190505b612710831061266757612710838161265d5761265c6139fc565b5b0492506004810190505b6064831061268a57606483816126805761267f6139fc565b5b0492506002810190505b600a8310612699576001810190505b80915050919050565b60008073ffffffffffffffffffffffffffffffffffffffff168373ffffffffffffffffffffffffffffffffffffffff161415801561275a57508273ffffffffffffffffffffffffffffffffffffffff168473ffffffffffffffffffffffffffffffffffffffff16148061271b575061271a84846116f0565b5b8061275957508273ffffffffffffffffffffffffffffffffffffffff1661274183611952565b73ffffffffffffffffffffffffffffffffffffffff16145b5b90509392505050565b6000604051905090565b600080fd5b600080fd5b60007fffffffff0000000000000000000000000000000000000000000000000000000082169050919050565b6127ac81612777565b81146127b757600080fd5b50565b6000813590506127c9816127a3565b92915050565b6000602082840312156127e5576127e461276d565b5b60006127f3848285016127ba565b91505092915050565b60008115159050919050565b612811816127fc565b82525050565b600060208201905061282c6000830184612808565b92915050565b600081519050919050565b600082825260208201905092915050565b60005b8381101561286c578082015181840152602081019050612851565b60008484015250505050565b6000601f19601f8301169050919050565b600061289482612832565b61289e818561283d565b93506128ae81856020860161284e565b6128b781612878565b840191505092915050565b600060208201905081810360008301526128dc8184612889565b905092915050565b6000819050919050565b6128f7816128e4565b811461290257600080fd5b50565b600081359050612914816128ee565b92915050565b6000602082840312156129305761292f61276d565b5b600061293e84828501612905565b91505092915050565b600073ffffffffffffffffffffffffffffffffffffffff82169050919050565b600061297282612947565b9050919050565b61298281612967565b82525050565b600060208201905061299d6000830184612979565b92915050565b6129ac81612967565b81146129b757600080fd5b50565b6000813590506129c9816129a3565b92915050565b600080604083850312156129e6576129e561276d565b5b60006129f4858286016129ba565b9250506020612a0585828601612905565b9150509250929050565b600080600060608486031215612a2857612a2761276d565b5b6000612a36868287016129ba565b9350506020612a47868287016129ba565b9250506040612a5886828701612905565b9150509250925092565b600067ffffffffffffffff82169050919050565b612a7f81612a62565b82525050565b6000602082019050612a9a6000830184612a76565b92915050565b60006bffffffffffffffffffffffff82169050919050565b612ac181612aa0565b82525050565b6000602082019050612adc6000830184612ab8565b92915050565b600080fd5b600080fd5b7f4e487b7100000000000000000000000000000000000000000000000000000000600052604160045260246000fd5b612b2482612878565b810181811067ffffffffffffffff82111715612b4357612b42612aec565b5b80604052505050565b6000612b56612763565b9050612b628282612b1b565b919050565b600067ffffffffffffffff821115612b8257612b81612aec565b5b612b8b82612878565b9050602081019050919050565b82818337600083830152505050565b6000612bba612bb584612b67565b612b4c565b905082815260208101848484011115612bd657612bd5612ae7565b5b612be1848285612b98565b509392505050565b600082601f830112612bfe57612bfd612ae2565b5b8135612c0e848260208601612ba7565b91505092915050565b600060208284031215612c2d57612c2c61276d565b5b600082013567ffffffffffffffff811115612c4b57612c4a612772565b5b612c5784828501612be9565b91505092915050565b600060208284031215612c7657612c7561276d565b5b6000612c84848285016129ba565b91505092915050565b612c96816128e4565b82525050565b6000602082019050612cb16000830184612c8d565b92915050565b600080fd5b600080fd5b60008083601f840112612cd757612cd6612ae2565b5b8235905067ffffffffffffffff811115612cf457612cf3612cb7565b5b602083019150836020820283011115612d1057612d0f612cbc565b5b9250929050565b60008060208385031215612d2e57612d2d61276d565b5b600083013567ffffffffffffffff811115612d4c57612d4b612772565b5b612d5885828601612cc1565b92509250509250929050565b612d6d816127fc565b8114612d7857600080fd5b50565b600081359050612d8a81612d64565b92915050565b60008060408385031215612da757612da661276d565b5b6000612db5858286016129ba565b9250506020612dc685828601612d7b565b9150509250929050565b600067ffffffffffffffff821115612deb57612dea612aec565b5b612df482612878565b9050602081019050919050565b6000612e14612e0f84612dd0565b612b4c565b905082815260208101848484011115612e3057612e2f612ae7565b5b612e3b848285612b98565b509392505050565b600082601f830112612e5857612e57612ae2565b5b8135612e68848260208601612e01565b91505092915050565b60008060008060808587031215612e8b57612e8a61276d565b5b6000612e99878288016129ba565b9450506020612eaa878288016129ba565b9350506040612ebb87828801612905565b925050606085013567ffffffffffffffff811115612edc57612edb612772565b5b612ee887828801612e43565b91505092959194509250565b60008060008060008060008060006101208a8c031215612f1757612f1661276d565b5b60008a013567ffffffffffffffff811115612f3557612f34612772565b5b612f418c828d01612be9565b99505060208a013567ffffffffffffffff811115612f6257612f61612772565b5b612f6e8c828d01612be9565b98505060408a013567ffffffffffffffff811115612f8f57612f8e612772565b5b612f9b8c828d01612be9565b9750506060612fac8c828d01612905565b9650506080612fbd8c828d01612905565b95505060a0612fce8c828d01612905565b94505060c0612fdf8c828d01612905565b93505060e0612ff08c828d01612905565b9250506101006130028c828d016129ba565b9150509295985092959850929598565b600080604083850312156130295761302861276d565b5b6000613037858286016129ba565b9250506020613048858286016129ba565b9150509250929050565b7f4e487b7100000000000000000000000000000000000000000000000000000000600052602260045260246000fd5b6000600282049050600182168061309957607f821691505b6020821081036130ac576130ab613052565b5b50919050565b7f4d617820737570706c7920726561636865640000000000000000000000000000600082015250565b60006130e860128361283d565b91506130f3826130b2565b602082019050919050565b60006020820190508181036000830152613117816130db565b9050919050565b7f496e73756666696369656e74207061796d656e74000000000000000000000000600082015250565b600061315460148361283d565b915061315f8261311e565b602082019050919050565b6000602082019050818103600083015261318381613147565b9050919050565b7f4d6178207065722077616c6c6574207265616368656400000000000000000000600082015250565b60006131c060168361283d565b91506131cb8261318a565b602082019050919050565b600060208201905081810360008301526131ef816131b3565b9050919050565b7f4d696e74206e6f74207374617274656400000000000000000000000000000000600082015250565b600061322c60108361283d565b9150613237826131f6565b602082019050919050565b6000602082019050818103600083015261325b8161321f565b9050919050565b7f4d696e7420656e64656400000000000000000000000000000000000000000000600082015250565b6000613298600a8361283d565b91506132a382613262565b602082019050919050565b600060208201905081810360008301526132c78161328b565b9050919050565b60006060820190506132e36000830186612979565b6132f06020830185612c8d565b6132fd6040830184612979565b949350505050565b600081905092915050565b50565b6000613320600083613305565b915061332b82613310565b600082019050919050565b600061334182613313565b9150819050919050565b7f5769746864726177206661696c65640000000000000000000000000000000000600082015250565b6000613381600f8361283d565b915061338c8261334b565b602082019050919050565b600060208201905081810360008301526133b081613374565b9050919050565b60008190508160005260206000209050919050565b60006020601f8301049050919050565b600082821b905092915050565b6000600883026134197fffffffffffffffffffffffffffffffffffffffffffffffffffffffffffffffff826133dc565b61342386836133dc565b95508019841693508086168417925050509392505050565b6000819050919050565b600061346061345b613456846128e4565b61343b565b6128e4565b9050919050565b6000819050919050565b61347a83613445565b61348e61348682613467565b8484546133e9565b825550505050565b600090565b6134a3613496565b6134ae818484613471565b505050565b5b818110156134d2576134c760008261349b565b6001810190506134b4565b5050565b601f821115613517576134e8816133b7565b6134f1846133cc565b81016020851015613500578190505b61351461350c856133cc565b8301826134b3565b50505b505050565b600082821c905092915050565b600061353a6000198460080261351c565b1980831691505092915050565b60006135538383613529565b9150826002028217905092915050565b61356c82612832565b67ffffffffffffffff81111561358557613584612aec565b5b61358f8254613081565b61359a8282856134d6565b600060209050601f8311600181146135cd57600084156135bb578287015190505b6135c58582613547565b86555061362d565b601f1984166135db866133b7565b60005b82811015613603578489015182556001820191506020850194506020810190506135de565b86831015613620578489015161361c601f891682613529565b8355505b6001600288020188555050505b505050505050565b7f4e487b7100000000000000000000000000000000000000000000000000000000600052601160045260246000fd5b600061366f826128e4565b915061367a836128e4565b925082820190508082111561369257613691613635565b5b92915050565b7f4e487b7100000000000000000000000000000000000000000000000000000000600052603260045260246000fd5b7f5175616e74697479206d757374206265203e2030000000000000000000000000600082015250565b60006136fd60148361283d565b9150613708826136c7565b602082019050919050565b6000602082019050818103600083015261372c816136f0565b9050919050565b7f45786365656473206d617820737570706c790000000000000000000000000000600082015250565b600061376960128361283d565b915061377482613733565b602082019050919050565b600060208201905081810360008301526137988161375c565b9050919050565b7f45786365656473206d6178207065722077616c6c657400000000000000000000600082015250565b60006137d560168361283d565b91506137e08261379f565b602082019050919050565b60006020820190508181036000830152613804816137c8565b9050919050565b6000613816826128e4565b9150613821836128e4565b925082820261382f816128e4565b9150828204841483151761384657613845613635565b5b5092915050565b600081905092915050565b600061386382612832565b61386d818561384d565b935061387d81856020860161284e565b80840191505092915050565b60006138958285613858565b91506138a18284613858565b91508190509392505050565b7f416c726561647920696e697469616c697a656400000000000000000000000000600082015250565b60006138e360138361283d565b91506138ee826138ad565b602082019050919050565b60006020820190508181036000830152613912816138d6565b9050919050565b600081519050919050565b600082825260208201905092915050565b600061394082613919565b61394a8185613924565b935061395a81856020860161284e565b61396381612878565b840191505092915050565b60006080820190506139836000830187612979565b6139906020830186612979565b61399d6040830185612c8d565b81810360608301526139af8184613935565b905095945050505050565b6000815190506139c9816127a3565b92915050565b6000602082840312156139e5576139e461276d565b5b60006139f3848285016139ba565b91505092915050565b7f4e487b7100000000000000000000000000000000000000000000000000000000600052601260045260246000fd5b6000604082019050613a406000830185612979565b613a4d6020830184612c8d565b939250505056fea2646970667358221220f393c1323ad2127bf8d12e5c5d04dd0992aa45dd71f575ae6e2c88cecc0a4c5164736f6c63430008140033",
  "linkReferences": {},
  "deployedLinkReferences": {}
}