{
  "_format": "hh-sol-artifact-1",
  "contractName": "NFTFactory",
  "sourceName": "contracts/NFTFactory.sol",
  "abi": [
    {
      "inputs": [
        {
          "internalType": "address",
          "name": "_platformAddress",
          "type": "address"
        }
      ],
      "stateMutability": "nonpayable",
      "type": "constructor"
    },
    {
      "inputs": [],
      "name": "FailedDeployment",
      "type": "error"
    },
    {
      "inputs": [
        {
          "internalType": "uint256",
          "name": "balance",
          "type": "uint256"
        },
        {
          "internalType": "uint256",
          "name": "needed",
          "type": "uint256"
        }
      ],
      "name": "InsufficientBalance",
      "type": "error"
    },
    {
      "anonymous": false,
      "inputs": [
        {
          "indexed": true,
          "internalType": "address",
          "name": "collection",
          "type": "address"
        },
        {
          "indexed": true,
          "internalType": "address",
          "name": "owner",
          "type": "address"
        },
        {
          "indexed": false,
          "internalType": "string",
          "name": "name",
          "type": "string"
        },
        {
          "indexed": false,
          "internalType": "string",
          "name": "symbol",
          "type": "string"
        }
      ],
      "name": "CollectionDeployed",
      "type": "event"
    },
    {
      "inputs": [
        {
          "internalType": "uint256",
          "name": "",
          "type": "uint256"
        }
      ],
      "name": "allCollections",
      "outputs": [
        {
          "internalType": "address",
          "name": "",
          "type": "address"
        }
      ],
      "stateMutability": "view",
      "type": "function"
    },
    {
      "inputs": [
        {
          "internalType": "string",
          "name": "name",
          "type": "string"
        },
        {
          "internalType": "string",
          "name": "symbol",
          "type": "string"
        },
        {
          "internalType": "string",
          "name": "baseTokenURI",
          "type": "string"
        },
        {
          "internalType": "uint256",
          "name": "maxSupply",
          "type": "uint256"
        },
        {
          "internalType": "uint256",
          "name": "mintPrice",
          "type": "uint256"
        },
        {
          "internalType": "uint256",
          "name": "maxPerWallet",
          "type": "uint256"
        },
        {
          "internalType": "uint256",
          "name": "mintStart",
          "type": "uint256"
        },
        {
          "internalType": "uint256",
          "name": "mintEnd",
          "type": "uint256"
        }
      ],
      "name": "deployCollection",
      "outputs": [
        {
          "internalType": "address",
          "name": "",
          "type": "address"
        }
      ],
      "stateMutability": "nonpayable",
      "type": "function"
    },
    {
      "inputs": [],
      "name": "getAllCollections",
      "outputs": [
        {
          "internalType": "address[]",
          "name": "",
          "type": "address[]"
        }
      ],
      "stateMutability": "view",
      "type": "function"
    },
    {
      "inputs": [],
      "name": "implementation",
      "outputs": [
        {
          "internalType": "address",
          "name": "",
          "type": "address"
        }
      ],
      "stateMutability": "view",
      "type": "function"
    },
    {
      "inputs": [],
      "name": "platformAddress",
      "outputs": [
        {
          "internalType": "address",
          "name": "",
          "type": "address"
        }
      ],
      "stateMutability": "view",
      "type": "function"
    }
  ],
  "bytecode": "0x608060405234801561001057600080fd5b50604051620049753803806200497583398181016040528101906100349190610155565b604051610040906100e4565b604051809103906000f08015801561005c573d6000803e3d6000fd5b50600160006101000a81548173ffffffffffffffffffffffffffffffffffffffff021916908373ffffffffffffffffffffffffffffffffffffffff16021790555080600260006101000a81548173ffffffffffffffffffffffffffffffffffffffff021916908373ffffffffffffffffffffffffffffffffffffffff16021790555050610182565b613d278062000c4e83390190565b600080fd5b600073ffffffffffffffffffffffffffffffffffffffff82169050919050565b6000610122826100f7565b9050919050565b61013281610117565b811461013d57600080fd5b50565b60008151905061014f81610129565b92915050565b60006020828403121561016b5761016a6100f2565b5b600061017984828501610140565b91505092915050565b610abc80620001926000396000f3fe608060405234801561001057600080fd5b50600436106100575760003560e01c8063167ef4951461005c5780635c60da1b1461008c5780636804a958146100aa57806391ff2b9b146100c8578063dbe55e56146100f8575b600080fd5b6100766004803603810190610071919061052e565b610116565b604051610083919061059c565b60405180910390f35b610094610155565b6040516100a1919061059c565b60405180910390f35b6100b261017b565b6040516100bf9190610675565b60405180910390f35b6100e260048036038101906100dd91906107dd565b610209565b6040516100ef919061059c565b60405180910390f35b6101006103b2565b60405161010d919061059c565b60405180910390f35b6000818154811061012657600080fd5b906000526020600020016000915054906101000a900473ffffffffffffffffffffffffffffffffffffffff1681565b600160009054906101000a900473ffffffffffffffffffffffffffffffffffffffff1681565b606060008054806020026020016040519081016040528092919081815260200182805480156101ff57602002820191906000526020600020905b8160009054906101000a900473ffffffffffffffffffffffffffffffffffffffff1673ffffffffffffffffffffffffffffffffffffffff16815260200190600101908083116101b5575b5050505050905090565b600080610237600160009054906101000a900473ffffffffffffffffffffffffffffffffffffffff166103d8565b90508073ffffffffffffffffffffffffffffffffffffffff166395053efa8b8b8b8b8b8b8b8b33600260009054906101000a900473ffffffffffffffffffffffffffffffffffffffff166040518b63ffffffff1660e01b81526004016102a69a99989796959493929190610975565b600060405180830381600087803b1580156102c057600080fd5b505af11580156102d4573d6000803e3d6000fd5b505050506000819080600181540180825580915050600190039060005260206000200160009091909190916101000a81548173ffffffffffffffffffffffffffffffffffffffff021916908373ffffffffffffffffffffffffffffffffffffffff1602179055503373ffffffffffffffffffffffffffffffffffffffff168173ffffffffffffffffffffffffffffffffffffffff167f42805f304977dde16425c6a05d5bec1836888a4efc9a847f2ab450923d350c268c8c60405161039a929190610a26565b60405180910390a38091505098975050505050505050565b600260009054906101000a900473ffffffffffffffffffffffffffffffffffffffff1681565b60006103e58260006103ec565b9050919050565b6000814710156104355747826040517fcf47918100000000000000000000000000000000000000000000000000000000815260040161042c929190610a5d565b60405180910390fd5b763d602d80600a3d3981f3363d3d373d3d3d363d730000008360601b60e81c176000526e5af43d82803e903d91602b57fd5bf38360781b176020526037600983f09050600073ffffffffffffffffffffffffffffffffffffffff168173ffffffffffffffffffffffffffffffffffffffff16036104de576040517fb06ebf3d00000000000000000000000000000000000000000000000000000000815260040160405180910390fd5b92915050565b6000604051905090565b600080fd5b600080fd5b6000819050919050565b61050b816104f8565b811461051657600080fd5b50565b60008135905061052881610502565b92915050565b600060208284031215610544576105436104ee565b5b600061055284828501610519565b91505092915050565b600073ffffffffffffffffffffffffffffffffffffffff82169050919050565b60006105868261055b565b9050919050565b6105968161057b565b82525050565b60006020820190506105b1600083018461058d565b92915050565b600081519050919050565b600082825260208201905092915050565b6000819050602082019050919050565b6105ec8161057b565b82525050565b60006105fe83836105e3565b60208301905092915050565b6000602082019050919050565b6000610622826105b7565b61062c81856105c2565b9350610637836105d3565b8060005b8381101561066857815161064f88826105f2565b975061065a8361060a565b92505060018101905061063b565b5085935050505092915050565b6000602082019050818103600083015261068f8184610617565b905092915050565b600080fd5b600080fd5b6000601f19601f8301169050919050565b7f4e487b7100000000000000000000000000000000000000000000000000000000600052604160045260246000fd5b6106ea826106a1565b810181811067ffffffffffffffff82111715610709576107086106b2565b5b80604052505050565b600061071c6104e4565b905061072882826106e1565b919050565b600067ffffffffffffffff821115610748576107476106b2565b5b610751826106a1565b9050602081019050919050565b82818337600083830152505050565b600061078061077b8461072d565b610712565b90508281526020810184848401111561079c5761079b61069c565b5b6107a784828561075e565b509392505050565b600082601f8301126107c4576107c3610697565b5b81356107d484826020860161076d565b91505092915050565b600080600080600080600080610100898b0312156107fe576107fd6104ee565b5b600089013567ffffffffffffffff81111561081c5761081b6104f3565b5b6108288b828c016107af565b985050602089013567ffffffffffffffff811115610849576108486104f3565b5b6108558b828c016107af565b975050604089013567ffffffffffffffff811115610876576108756104f3565b5b6108828b828c016107af565b96505060606108938b828c01610519565b95505060806108a48b828c01610519565b94505060a06108b58b828c01610519565b93505060c06108c68b828c01610519565b92505060e06108d78b828c01610519565b9150509295985092959890939650565b600081519050919050565b600082825260208201905092915050565b60005b83811015610921578082015181840152602081019050610906565b60008484015250505050565b6000610938826108e7565b61094281856108f2565b9350610952818560208601610903565b61095b816106a1565b840191505092915050565b61096f816104f8565b82525050565b6000610140820190508181036000830152610990818d61092d565b905081810360208301526109a4818c61092d565b905081810360408301526109b8818b61092d565b90506109c7606083018a610966565b6109d46080830189610966565b6109e160a0830188610966565b6109ee60c0830187610966565b6109fb60e0830186610966565b610a0961010083018561058d565b610a1761012083018461058d565b9b9a5050505050505050505050565b60006040820190508181036000830152610a40818561092d565b90508181036020830152610a54818461092d565b90509392505050565b6000604082019050610a726000830185610966565b610a7f6020830184610966565b939250505056fea26469706673582212201158a8805961b986f33b5cb54405446599c07474aea9c3f4bda28a8ff49d0b2964736f6c6343000814003360806040523480156200001157600080fd5b503360405180602001604052806000815250604051806020016040528060008152508160029081620000449190620004b3565b508060039081620000569190620004b3565b50620000676200013c60201b60201c565b6000819055506200007d6200013c60201b60201c565b6200008d6200014160201b60201c565b1015620000ad57620000ac63fed8210f60e01b6200016960201b60201c565b5b5050600073ffffffffffffffffffffffffffffffffffffffff168173ffffffffffffffffffffffffffffffffffffffff1603620001245760006040517f1e4fbdf70000000000000000000000000000000000000000000000000000000081526004016200011b9190620005df565b60405180910390fd5b62000135816200017360201b60201c565b50620005fc565b600090565b60007fffffffffffffffffffffffffffffffffffffffffffffffffffffffffffffffff905090565b8060005260046000fd5b6000600960009054906101000a900473ffffffffffffffffffffffffffffffffffffffff16905081600960006101000a81548173ffffffffffffffffffffffffffffffffffffffff021916908373ffffffffffffffffffffffffffffffffffffffff1602179055508173ffffffffffffffffffffffffffffffffffffffff168173ffffffffffffffffffffffffffffffffffffffff167f8be0079c531659141344cd1fd0a4f28419497f9722a3daafe3b4186f6b6457e060405160405180910390a35050565b600081519050919050565b7f4e487b7100000000000000000000000000000000000000000000000000000000600052604160045260246000fd5b7f4e487b7100000000000000000000000000000000000000000000000000000000600052602260045260246000fd5b60006002820490506001821680620002bb57607f821691505b602082108103620002d157620002d062000273565b5b50919050565b60008190508160005260206000209050919050565b60006020601f8301049050919050565b600082821b905092915050565b6000600883026200033b7fffffffffffffffffffffffffffffffffffffffffffffffffffffffffffffffff82620002fc565b620003478683620002fc565b95508019841693508086168417925050509392505050565b6000819050919050565b6000819050919050565b6000620003946200038e62000388846200035f565b62000369565b6200035f565b9050919050565b6000819050919050565b620003b08362000373565b620003c8620003bf826200039b565b84845462000309565b825550505050565b600090565b620003df620003d0565b620003ec818484620003a5565b505050565b5b81811015620004145762000408600082620003d5565b600181019050620003f2565b5050565b601f82111562000463576200042d81620002d7565b6200043884620002ec565b8101602085101562000448578190505b620004606200045785620002ec565b830182620003f1565b50505b505050565b600082821c905092915050565b6000620004886000198460080262000468565b1980831691505092915050565b6000620004a3838362000475565b9150826002028217905092915050565b620004be8262000239565b67ffffffffffffffff811115620004da57620004d962000244565b5b620004e68254620002a2565b620004f382828562000418565b600060209050601f8311600181146200052b576000841562000516578287015190505b62000522858262000495565b86555062000592565b601f1984166200053b86620002d7565b60005b8281101562000565578489015182556001820191506020850194506020810190506200053e565b8683101562000585578489015162000581601f89168262000475565b8355505b6001600288020188555050505b505050505050565b600073ffffffffffffffffffffffffffffffffffffffff82169050919050565b6000620005c7826200059a565b9050919050565b620005d981620005ba565b82525050565b6000602082019050620005f66000830184620005ce565b92915050565b61371b806200060c6000396000f3fe6080604052600436106101e35760003560e01c8063729ad39e11610102578063b88d4fde11610095578063e985e9c511610064578063e985e9c51461065a578063ea2b4ab214610697578063f2fde38b146106c2578063f4a0a528146106eb576101e3565b8063b88d4fde146105ab578063c87b56dd146105c7578063d5abeb0114610604578063dbe55e561461062f576101e3565b8063a22cb465116100d1578063a22cb46514610510578063a2309ff814610539578063a5097ebf14610564578063abbb5a551461058f576101e3565b8063729ad39e146104685780638da5cb5b1461049157806395053efa146104bc57806395d89b41146104e5576101e3565b80633ccfd60b1161017a5780636352211e116101495780636352211e146103ac5780636817c76c146103e957806370a0823114610414578063715018a614610451576101e3565b80633ccfd60b1461032557806342842e0e1461033c578063453c23101461035857806355f804b314610383576101e3565b80631249c58b116101b65780631249c58b146102a957806318160ddd146102b357806323b872dd146102de578063255e4685146102fa576101e3565b806301ffc9a7146101e857806306fdde0314610225578063081812fc14610250578063095ea7b31461028d575b600080fd5b3480156101f457600080fd5b5061020f600480360381019061020a91906123b1565b610714565b60405161021c91906123f9565b60405180910390f35b34801561023157600080fd5b5061023a6107a6565b60405161024791906124a4565b60405180910390f35b34801561025c57600080fd5b50610277600480360381019061027291906124fc565b610838565b604051610284919061256a565b60405180910390f35b6102a760048036038101906102a291906125b1565b610896565b005b6102b16108a6565b005b3480156102bf57600080fd5b506102c86108b2565b6040516102d59190612600565b60405180910390f35b6102f860048036038101906102f3919061261b565b6108ff565b005b34801561030657600080fd5b5061030f610bc0565b60405161031c9190612691565b60405180910390f35b34801561033157600080fd5b5061033a610bda565b005b6103566004803603810190610351919061261b565b610de0565b005b34801561036457600080fd5b5061036d610e00565b60405161037a91906126d3565b60405180910390f35b34801561038f57600080fd5b506103aa60048036038101906103a59190612823565b610e1e565b005b3480156103b857600080fd5b506103d360048036038101906103ce91906124fc565b610e39565b6040516103e0919061256a565b60405180910390f35b3480156103f557600080fd5b506103fe610e4b565b60405161040b91906126d3565b60405180910390f35b34801561042057600080fd5b5061043b6004803603810190610436919061286c565b610e69565b6040516104489190612600565b60405180910390f35b34801561045d57600080fd5b50610466610f00565b005b34801561047457600080fd5b5061048f600480360381019061048a91906128f9565b610f14565b005b34801561049d57600080fd5b506104a6610fef565b6040516104b3919061256a565b60405180910390f35b3480156104c857600080fd5b506104e360048036038101906104de9190612946565b611019565b005b3480156104f157600080fd5b506104fa6111ef565b60405161050791906124a4565b60405180910390f35b34801561051c57600080fd5b5061053760048036038101906105329190612aa5565b611281565b005b34801561054557600080fd5b5061054e61138c565b60405161055b9190612600565b60405180910390f35b34801561057057600080fd5b5061057961139b565b60405161058691906124a4565b60405180910390f35b6105a960048036038101906105a491906124fc565b61142d565b005b6105c560048036038101906105c09190612b86565b6116df565b005b3480156105d357600080fd5b506105ee60048036038101906105e991906124fc565b611731565b6040516105fb91906124a4565b60405180910390f35b34801561061057600080fd5b506106196117ae565b60405161062691906126d3565b60405180910390f35b34801561063b57600080fd5b506106446117cc565b604051610651919061256a565b60405180910390f35b34801561066657600080fd5b50610681600480360381019061067c9190612c09565b6117f2565b60405161068e91906123f9565b60405180910390f35b3480156106a357600080fd5b506106ac611886565b6040516106b99190612691565b60405180910390f35b3480156106ce57600080fd5b506106e960048036038101906106e4919061286c565b6118a0565b005b3480156106f757600080fd5b50610712600480360381019061070d91906124fc565b611926565b005b60006301ffc9a760e01b827bffffffffffffffffffffffffffffffffffffffffffffffffffffffff1916148061076f57506380ac58cd60e01b827bffffffffffffffffffffffffffffffffffffffffffffffffffffffff1916145b8061079f5750635b5e139f60e01b827bffffffffffffffffffffffffffffffffffffffffffffffffffffffff1916145b9050919050565b6060600c80546107b590612c78565b80601f01602080910402602001604051908101604052809291908181526020018280546107e190612c78565b801561082e5780601f106108035761010080835404028352916020019161082e565b820191906000526020600020905b81548152906001019060200180831161081157829003601f168201915b5050505050905090565b600061084382611962565b6108585761085763cf4700e460e01b611a0e565b5b6006600083815260200190815260200160002060000160009054906101000a900473ffffffffffffffffffffffffffffffffffffffff169050919050565b6108a282826001611a18565b5050565b6108b0600161142d565b565b60006108bc611b47565b600154600054030390507fffffffffffffffffffffffffffffffffffffffffffffffffffffffffffffffff6108ef611b4c565b146108fc57600854810190505b90565b600061090a82611b74565b905073ffffffffffffffffffffffffffffffffffffffff8473ffffffffffffffffffffffffffffffffffffffff161693508373ffffffffffffffffffffffffffffffffffffffff168173ffffffffffffffffffffffffffffffffffffffff161461097f5761097e63a114810060e01b611a0e565b5b60008061098b84611c8d565b915091506109a1818761099c611cb4565b611cbc565b6109cc576109b6866109b1611cb4565b6117f2565b6109cb576109ca6359c896be60e01b611a0e565b5b5b6109d98686866001611d00565b80156109e457600082555b600560008773ffffffffffffffffffffffffffffffffffffffff1673ffffffffffffffffffffffffffffffffffffffff168152602001908152602001600020600081546001900391905081905550600560008673ffffffffffffffffffffffffffffffffffffffff1673ffffffffffffffffffffffffffffffffffffffff1681526020019081526020016000206000815460010191905081905550610ab285610a8e888887611d06565b7c020000000000000000000000000000000000000000000000000000000017611d2e565b600460008681526020019081526020016000208190555060007c0200000000000000000000000000000000000000000000000000000000841603610b385760006001850190506000600460008381526020019081526020016000205403610b36576000548114610b35578360046000838152602001908152602001600020819055505b5b505b600073ffffffffffffffffffffffffffffffffffffffff8673ffffffffffffffffffffffffffffffffffffffff161690508481887fddf252ad1be2c89b69c2b068fc378daa952ba7f163c4a11628f55a4df523b3ef600080a460008103610baa57610ba963ea553b3460e01b611a0e565b5b610bb78787876001611d59565b50505050505050565b600b600c9054906101000a900467ffffffffffffffff1681565b610be2611d5f565b600047905060008111610c2a576040517f08c379a0000000000000000000000000000000000000000000000000000000008152600401610c2190612cf5565b60405180910390fd5b6000612710603283610c3c9190612d44565b610c469190612db5565b905060008183610c569190612de6565b90506000600f60009054906101000a900473ffffffffffffffffffffffffffffffffffffffff1673ffffffffffffffffffffffffffffffffffffffff1683604051610ca090612e4b565b60006040518083038185875af1925050503d8060008114610cdd576040519150601f19603f3d011682016040523d82523d6000602084013e610ce2565b606091505b5050905080610d26576040517f08c379a0000000000000000000000000000000000000000000000000000000008152600401610d1d90612eac565b60405180910390fd5b6000610d30610fef565b73ffffffffffffffffffffffffffffffffffffffff1683604051610d5390612e4b565b60006040518083038185875af1925050503d8060008114610d90576040519150601f19603f3d011682016040523d82523d6000602084013e610d95565b606091505b5050905080610dd9576040517f08c379a0000000000000000000000000000000000000000000000000000000008152600401610dd090612f18565b60405180910390fd5b5050505050565b610dfb838383604051806020016040528060008152506116df565b505050565b600b60009054906101000a90046bffffffffffffffffffffffff1681565b610e26611d5f565b80600e9081610e3591906130e4565b5050565b6000610e4482611b74565b9050919050565b600a600c9054906101000a90046bffffffffffffffffffffffff1681565b60008073ffffffffffffffffffffffffffffffffffffffff168273ffffffffffffffffffffffffffffffffffffffff1603610eaf57610eae638f4eb60460e01b611a0e565b5b67ffffffffffffffff600560008473ffffffffffffffffffffffffffffffffffffffff1673ffffffffffffffffffffffffffffffffffffffff16815260200190815260200160002054169050919050565b610f08611d5f565b610f126000611de6565b565b610f1c611d5f565b6000828290509050600a60009054906101000a90046bffffffffffffffffffffffff166bffffffffffffffffffffffff1681610f56611eac565b610f6091906131b6565b1115610fa1576040517f08c379a0000000000000000000000000000000000000000000000000000000008152600401610f9890613236565b60405180910390fd5b60005b81811015610fe957610fde848483818110610fc257610fc1613256565b5b9050602002016020810190610fd7919061286c565b6001611ef5565b806001019050610fa4565b50505050565b6000600960009054906101000a900473ffffffffffffffffffffffffffffffffffffffff16905090565b600960149054906101000a900460ff1615611069576040517f08c379a0000000000000000000000000000000000000000000000000000000008152600401611060906132d1565b60405180910390fd5b6001600960146101000a81548160ff02191690831515021790555089600c908161109391906130e4565b5088600d90816110a391906130e4565b506110ad82611de6565b87600e90816110bc91906130e4565b5086600a60006101000a8154816bffffffffffffffffffffffff02191690836bffffffffffffffffffffffff16021790555085600a600c6101000a8154816bffffffffffffffffffffffff02191690836bffffffffffffffffffffffff16021790555084600b60006101000a8154816bffffffffffffffffffffffff02191690836bffffffffffffffffffffffff16021790555083600b600c6101000a81548167ffffffffffffffff021916908367ffffffffffffffff16021790555082600b60146101000a81548167ffffffffffffffff021916908367ffffffffffffffff16021790555080600f60006101000a81548173ffffffffffffffffffffffffffffffffffffffff021916908373ffffffffffffffffffffffffffffffffffffffff16021790555050505050505050505050565b6060600d80546111fe90612c78565b80601f016020809104026020016040519081016040528092919081815260200182805461122a90612c78565b80156112775780601f1061124c57610100808354040283529160200191611277565b820191906000526020600020905b81548152906001019060200180831161125a57829003601f168201915b5050505050905090565b806007600061128e611cb4565b73ffffffffffffffffffffffffffffffffffffffff1673ffffffffffffffffffffffffffffffffffffffff16815260200190815260200160002060008473ffffffffffffffffffffffffffffffffffffffff1673ffffffffffffffffffffffffffffffffffffffff16815260200190815260200160002060006101000a81548160ff0219169083151502179055508173ffffffffffffffffffffffffffffffffffffffff1661133b611cb4565b73ffffffffffffffffffffffffffffffffffffffff167f17307eab39ab6107e8899845ad3d59bd9653f200f220920489ca2b5937696c318360405161138091906123f9565b60405180910390a35050565b6000611396611eac565b905090565b6060600e80546113aa90612c78565b80601f01602080910402602001604051908101604052809291908181526020018280546113d690612c78565b80156114235780601f106113f857610100808354040283529160200191611423565b820191906000526020600020905b81548152906001019060200180831161140657829003601f168201915b5050505050905090565b60008111611470576040517f08c379a00000000000000000000000000000000000000000000000000000000081526004016114679061333d565b60405180910390fd5b600a60009054906101000a90046bffffffffffffffffffffffff166bffffffffffffffffffffffff16816114a2611eac565b6114ac91906131b6565b11156114ed576040517f08c379a00000000000000000000000000000000000000000000000000000000081526004016114e4906133a9565b60405180910390fd5b600b60009054906101000a90046bffffffffffffffffffffffff166bffffffffffffffffffffffff16816115203361207b565b61152a91906131b6565b111561156b576040517f08c379a000000000000000000000000000000000000000000000000000000000815260040161156290613415565b60405180910390fd5b80600a600c9054906101000a90046bffffffffffffffffffffffff166bffffffffffffffffffffffff1661159f9190612d44565b3410156115e1576040517f08c379a00000000000000000000000000000000000000000000000000000000081526004016115d890613481565b60405180910390fd5b600b600c9054906101000a900467ffffffffffffffff1667ffffffffffffffff16421015611644576040517f08c379a000000000000000000000000000000000000000000000000000000000815260040161163b906134ed565b60405180910390fd5b6000600b60149054906101000a900467ffffffffffffffff1667ffffffffffffffff1614806116935750600b60149054906101000a900467ffffffffffffffff1667ffffffffffffffff164211155b6116d2576040517f08c379a00000000000000000000000000000000000000000000000000000000081526004016116c990613559565b60405180910390fd5b6116dc3382611ef5565b50565b6116ea8484846108ff565b60008373ffffffffffffffffffffffffffffffffffffffff163b1461172b57611715848484846120d2565b61172a5761172963d1a57ed660e01b611a0e565b5b5b50505050565b606061173c82611962565b6117515761175063a14c4b5060e01b611a0e565b5b600061175b612201565b9050600081510361177b57604051806020016040528060008152506117a6565b8061178584612293565b6040516020016117969291906135b5565b6040516020818303038152906040525b915050919050565b600a60009054906101000a90046bffffffffffffffffffffffff1681565b600f60009054906101000a900473ffffffffffffffffffffffffffffffffffffffff1681565b6000600760008473ffffffffffffffffffffffffffffffffffffffff1673ffffffffffffffffffffffffffffffffffffffff16815260200190815260200160002060008373ffffffffffffffffffffffffffffffffffffffff1673ffffffffffffffffffffffffffffffffffffffff16815260200190815260200160002060009054906101000a900460ff16905092915050565b600b60149054906101000a900467ffffffffffffffff1681565b6118a8611d5f565b600073ffffffffffffffffffffffffffffffffffffffff168173ffffffffffffffffffffffffffffffffffffffff160361191a5760006040517f1e4fbdf7000000000000000000000000000000000000000000000000000000008152600401611911919061256a565b60405180910390fd5b61192381611de6565b50565b61192e611d5f565b80600a600c6101000a8154816bffffffffffffffffffffffff02191690836bffffffffffffffffffffffff16021790555050565b60008161196d611b47565b11611a085761197a611b4c565b8211156119a45761199d60046000848152602001908152602001600020546122e3565b9050611a09565b600054821015611a075760005b60006004600085815260200190815260200160002054915081036119e057826119d9906135d9565b92506119b1565b60007c01000000000000000000000000000000000000000000000000000000008216149150505b5b5b919050565b8060005260046000fd5b6000611a2383610e39565b9050818015611a6557508073ffffffffffffffffffffffffffffffffffffffff16611a4c611cb4565b73ffffffffffffffffffffffffffffffffffffffff1614155b15611a9157611a7b81611a76611cb4565b6117f2565b611a9057611a8f63cfb3b94260e01b611a0e565b5b5b836006600085815260200190815260200160002060000160006101000a81548173ffffffffffffffffffffffffffffffffffffffff021916908373ffffffffffffffffffffffffffffffffffffffff160217905550828473ffffffffffffffffffffffffffffffffffffffff168273ffffffffffffffffffffffffffffffffffffffff167f8c5be1e5ebec7d5bd14f71427d1e84f3dd0314c0f7b2291e5b200ac8c7c3b92560405160405180910390a450505050565b600090565b60007fffffffffffffffffffffffffffffffffffffffffffffffffffffffffffffffff905090565b600081611b7f611b47565b11611c775760046000838152602001908152602001600020549050611ba2611b4c565b821115611bc757611bb2816122e3565b611c8857611bc663df2d9b4260e01b611a0e565b5b60008103611c4e576000548210611be957611be863df2d9b4260e01b611a0e565b5b5b60046000836001900393508381526020019081526020016000205490506000810315611c495760007c010000000000000000000000000000000000000000000000000000000082160315611c8857611c4863df2d9b4260e01b611a0e565b5b611bea565b60007c010000000000000000000000000000000000000000000000000000000082160315611c88575b611c8763df2d9b4260e01b611a0e565b5b919050565b60008060006006600085815260200190815260200160002090508092508254915050915091565b600033905090565b600073ffffffffffffffffffffffffffffffffffffffff8316925073ffffffffffffffffffffffffffffffffffffffff821691508382148383141790509392505050565b50505050565b60008060e883901c905060e8611d1d868684612324565b62ffffff16901b9150509392505050565b600073ffffffffffffffffffffffffffffffffffffffff83169250814260a01b178317905092915050565b50505050565b611d6761232d565b73ffffffffffffffffffffffffffffffffffffffff16611d85610fef565b73ffffffffffffffffffffffffffffffffffffffff1614611de457611da861232d565b6040517f118cdaa7000000000000000000000000000000000000000000000000000000008152600401611ddb919061256a565b60405180910390fd5b565b6000600960009054906101000a900473ffffffffffffffffffffffffffffffffffffffff16905081600960006101000a81548173ffffffffffffffffffffffffffffffffffffffff021916908373ffffffffffffffffffffffffffffffffffffffff1602179055508173ffffffffffffffffffffffffffffffffffffffff168173ffffffffffffffffffffffffffffffffffffffff167f8be0079c531659141344cd1fd0a4f28419497f9722a3daafe3b4186f6b6457e060405160405180910390a35050565b6000611eb6611b47565b6000540390507fffffffffffffffffffffffffffffffffffffffffffffffffffffffffffffffff611ee5611b4c565b14611ef257600854810190505b90565b60008054905060008203611f1457611f1363b562e8dd60e01b611a0e565b5b611f216000848385611d00565b611f4183611f326000866000611d06565b611f3b85612335565b17611d2e565b6004600083815260200190815260200160002081905550600160406001901b178202600560008573ffffffffffffffffffffffffffffffffffffffff1673ffffffffffffffffffffffffffffffffffffffff16815260200190815260200160002060008282540192505081905550600073ffffffffffffffffffffffffffffffffffffffff8473ffffffffffffffffffffffffffffffffffffffff1616905060008103611ff957611ff8632e07630060e01b611a0e565b5b60008383019050600083905061200d611b4c565b600183031115612028576120276381647e3a60e01b611a0e565b5b5b808360007fddf252ad1be2c89b69c2b068fc378daa952ba7f163c4a11628f55a4df523b3ef600080a481816001019150810361202957816000819055505050506120766000848385611d59565b505050565b600067ffffffffffffffff6040600560008573ffffffffffffffffffffffffffffffffffffffff1673ffffffffffffffffffffffffffffffffffffffff16815260200190815260200160002054901c169050919050565b60008373ffffffffffffffffffffffffffffffffffffffff1663150b7a026120f8611cb4565b8786866040518563ffffffff1660e01b815260040161211a9493929190613657565b6020604051808303816000875af192505050801561215657506040513d601f19601f8201168201806040525081019061215391906136b8565b60015b6121ae573d8060008114612186576040519150601f19603f3d011682016040523d82523d6000602084013e61218b565b606091505b5060008151036121a6576121a563d1a57ed660e01b611a0e565b5b805181602001fd5b63150b7a0260e01b7bffffffffffffffffffffffffffffffffffffffffffffffffffffffff1916817bffffffffffffffffffffffffffffffffffffffffffffffffffffffff191614915050949350505050565b6060600e805461221090612c78565b80601f016020809104026020016040519081016040528092919081815260200182805461223c90612c78565b80156122895780601f1061225e57610100808354040283529160200191612289565b820191906000526020600020905b81548152906001019060200180831161226c57829003601f168201915b5050505050905090565b606060a060405101806040526020810391506000825281835b6001156122ce57600184039350600a81066030018453600a81049050806122ac575b50828103602084039350808452505050919050565b60007c0100000000000000000000000000000000000000000000000000000000821673ffffffffffffffffffffffffffffffffffffffff8316119050919050565b60009392505050565b600033905090565b60006001821460e11b9050919050565b6000604051905090565b600080fd5b600080fd5b60007fffffffff0000000000000000000000000000000000000000000000000000000082169050919050565b61238e81612359565b811461239957600080fd5b50565b6000813590506123ab81612385565b92915050565b6000602082840312156123c7576123c661234f565b5b60006123d58482850161239c565b91505092915050565b60008115159050919050565b6123f3816123de565b82525050565b600060208201905061240e60008301846123ea565b92915050565b600081519050919050565b600082825260208201905092915050565b60005b8381101561244e578082015181840152602081019050612433565b60008484015250505050565b6000601f19601f8301169050919050565b600061247682612414565b612480818561241f565b9350612490818560208601612430565b6124998161245a565b840191505092915050565b600060208201905081810360008301526124be818461246b565b905092915050565b6000819050919050565b6124d9816124c6565b81146124e457600080fd5b50565b6000813590506124f6816124d0565b92915050565b6000602082840312156125125761251161234f565b5b6000612520848285016124e7565b91505092915050565b600073ffffffffffffffffffffffffffffffffffffffff82169050919050565b600061255482612529565b9050919050565b61256481612549565b82525050565b600060208201905061257f600083018461255b565b92915050565b61258e81612549565b811461259957600080fd5b50565b6000813590506125ab81612585565b92915050565b600080604083850312156125c8576125c761234f565b5b60006125d68582860161259c565b92505060206125e7858286016124e7565b9150509250929050565b6125fa816124c6565b82525050565b600060208201905061261560008301846125f1565b92915050565b6000806000606084860312156126345761263361234f565b5b60006126428682870161259c565b93505060206126538682870161259c565b9250506040612664868287016124e7565b9150509250925092565b600067ffffffffffffffff82169050919050565b61268b8161266e565b82525050565b60006020820190506126a66000830184612682565b92915050565b60006bffffffffffffffffffffffff82169050919050565b6126cd816126ac565b82525050565b60006020820190506126e860008301846126c4565b92915050565b600080fd5b600080fd5b7f4e487b7100000000000000000000000000000000000000000000000000000000600052604160045260246000fd5b6127308261245a565b810181811067ffffffffffffffff8211171561274f5761274e6126f8565b5b80604052505050565b6000612762612345565b905061276e8282612727565b919050565b600067ffffffffffffffff82111561278e5761278d6126f8565b5b6127978261245a565b9050602081019050919050565b82818337600083830152505050565b60006127c66127c184612773565b612758565b9050828152602081018484840111156127e2576127e16126f3565b5b6127ed8482856127a4565b509392505050565b600082601f83011261280a576128096126ee565b5b813561281a8482602086016127b3565b91505092915050565b6000602082840312156128395761283861234f565b5b600082013567ffffffffffffffff81111561285757612856612354565b5b612863848285016127f5565b91505092915050565b6000602082840312156128825761288161234f565b5b60006128908482850161259c565b91505092915050565b600080fd5b600080fd5b60008083601f8401126128b9576128b86126ee565b5b8235905067ffffffffffffffff8111156128d6576128d5612899565b5b6020830191508360208202830111156128f2576128f161289e565b5b9250929050565b600080602083850312156129105761290f61234f565b5b600083013567ffffffffffffffff81111561292e5761292d612354565b5b61293a858286016128a3565b92509250509250929050565b6000806000806000806000806000806101408b8d03121561296a5761296961234f565b5b60008b013567ffffffffffffffff81111561298857612987612354565b5b6129948d828e016127f5565b9a505060208b013567ffffffffffffffff8111156129b5576129b4612354565b5b6129c18d828e016127f5565b99505060408b013567ffffffffffffffff8111156129e2576129e1612354565b5b6129ee8d828e016127f5565b98505060606129ff8d828e016124e7565b9750506080612a108d828e016124e7565b96505060a0612a218d828e016124e7565b95505060c0612a328d828e016124e7565b94505060e0612a438d828e016124e7565b935050610100612a558d828e0161259c565b925050610120612a678d828e0161259c565b9150509295989b9194979a5092959850565b612a82816123de565b8114612a8d57600080fd5b50565b600081359050612a9f81612a79565b92915050565b60008060408385031215612abc57612abb61234f565b5b6000612aca8582860161259c565b9250506020612adb85828601612a90565b9150509250929050565b600067ffffffffffffffff821115612b0057612aff6126f8565b5b612b098261245a565b9050602081019050919050565b6000612b29612b2484612ae5565b612758565b905082815260208101848484011115612b4557612b446126f3565b5b612b508482856127a4565b509392505050565b600082601f830112612b6d57612b6c6126ee565b5b8135612b7d848260208601612b16565b91505092915050565b60008060008060808587031215612ba057612b9f61234f565b5b6000612bae8782880161259c565b9450506020612bbf8782880161259c565b9350506040612bd0878288016124e7565b925050606085013567ffffffffffffffff811115612bf157612bf0612354565b5b612bfd87828801612b58565b91505092959194509250565b60008060408385031215612c2057612c1f61234f565b5b6000612c2e8582860161259c565b9250506020612c3f8582860161259c565b9150509250929050565b7f4e487b7100000000000000000000000000000000000000000000000000000000600052602260045260246000fd5b60006002820490506001821680612c9057607f821691505b602082108103612ca357612ca2612c49565b5b50919050565b7f4e6f2062616c616e636520746f20776974686472617700000000000000000000600082015250565b6000612cdf60168361241f565b9150612cea82612ca9565b602082019050919050565b60006020820190508181036000830152612d0e81612cd2565b9050919050565b7f4e487b7100000000000000000000000000000000000000000000000000000000600052601160045260246000fd5b6000612d4f826124c6565b9150612d5a836124c6565b9250828202612d68816124c6565b91508282048414831517612d7f57612d7e612d15565b5b5092915050565b7f4e487b7100000000000000000000000000000000000000000000000000000000600052601260045260246000fd5b6000612dc0826124c6565b9150612dcb836124c6565b925082612ddb57612dda612d86565b5b828204905092915050565b6000612df1826124c6565b9150612dfc836124c6565b9250828203905081811115612e1457612e13612d15565b5b92915050565b600081905092915050565b50565b6000612e35600083612e1a565b9150612e4082612e25565b600082019050919050565b6000612e5682612e28565b9150819050919050565b7f506c6174666f726d20666565207472616e73666572206661696c656400000000600082015250565b6000612e96601c8361241f565b9150612ea182612e60565b602082019050919050565b60006020820190508181036000830152612ec581612e89565b9050919050565b7f4f776e6572207472616e73666572206661696c65640000000000000000000000600082015250565b6000612f0260158361241f565b9150612f0d82612ecc565b602082019050919050565b60006020820190508181036000830152612f3181612ef5565b9050919050565b60008190508160005260206000209050919050565b60006020601f8301049050919050565b600082821b905092915050565b600060088302612f9a7fffffffffffffffffffffffffffffffffffffffffffffffffffffffffffffffff82612f5d565b612fa48683612f5d565b95508019841693508086168417925050509392505050565b6000819050919050565b6000612fe1612fdc612fd7846124c6565b612fbc565b6124c6565b9050919050565b6000819050919050565b612ffb83612fc6565b61300f61300782612fe8565b848454612f6a565b825550505050565b600090565b613024613017565b61302f818484612ff2565b505050565b5b818110156130535761304860008261301c565b600181019050613035565b5050565b601f8211156130985761306981612f38565b61307284612f4d565b81016020851015613081578190505b61309561308d85612f4d565b830182613034565b50505b505050565b600082821c905092915050565b60006130bb6000198460080261309d565b1980831691505092915050565b60006130d483836130aa565b9150826002028217905092915050565b6130ed82612414565b67ffffffffffffffff811115613106576131056126f8565b5b6131108254612c78565b61311b828285613057565b600060209050601f83116001811461314e576000841561313c578287015190505b61314685826130c8565b8655506131ae565b601f19841661315c86612f38565b60005b828110156131845784890151825560018201915060208501945060208101905061315f565b868310156131a1578489015161319d601f8916826130aa565b8355505b6001600288020188555050505b505050505050565b60006131c1826124c6565b91506131cc836124c6565b92508282019050808211156131e4576131e3612d15565b5b92915050565b7f4d617820737570706c7920726561636865640000000000000000000000000000600082015250565b600061322060128361241f565b915061322b826131ea565b602082019050919050565b6000602082019050818103600083015261324f81613213565b9050919050565b7f4e487b7100000000000000000000000000000000000000000000000000000000600052603260045260246000fd5b7f416c726561647920696e697469616c697a656400000000000000000000000000600082015250565b60006132bb60138361241f565b91506132c682613285565b602082019050919050565b600060208201905081810360008301526132ea816132ae565b9050919050565b7f5175616e74697479206d757374206265203e2030000000000000000000000000600082015250565b600061332760148361241f565b9150613332826132f1565b602082019050919050565b600060208201905081810360008301526133568161331a565b9050919050565b7f45786365656473206d617820737570706c790000000000000000000000000000600082015250565b600061339360128361241f565b915061339e8261335d565b602082019050919050565b600060208201905081810360008301526133c281613386565b9050919050565b7f45786365656473206d6178207065722077616c6c657400000000000000000000600082015250565b60006133ff60168361241f565b915061340a826133c9565b602082019050919050565b6000602082019050818103600083015261342e816133f2565b9050919050565b7f496e73756666696369656e74207061796d656e74000000000000000000000000600082015250565b600061346b60148361241f565b915061347682613435565b602082019050919050565b6000602082019050818103600083015261349a8161345e565b9050919050565b7f4d696e74206e6f74207374617274656400000000000000000000000000000000600082015250565b60006134d760108361241f565b91506134e2826134a1565b602082019050919050565b60006020820190508181036000830152613506816134ca565b9050919050565b7f4d696e7420656e64656400000000000000000000000000000000000000000000600082015250565b6000613543600a8361241f565b915061354e8261350d565b602082019050919050565b6000602082019050818103600083015261357281613536565b9050919050565b600081905092915050565b600061358f82612414565b6135998185613579565b93506135a9818560208601612430565b80840191505092915050565b60006135c18285613584565b91506135cd8284613584565b91508190509392505050565b60006135e4826124c6565b9150600082036135f7576135f6612d15565b5b600182039050919050565b600081519050919050565b600082825260208201905092915050565b600061362982613602565b613633818561360d565b9350613643818560208601612430565b61364c8161245a565b840191505092915050565b600060808201905061366c600083018761255b565b613679602083018661255b565b61368660408301856125f1565b8181036060830152613698818461361e565b905095945050505050565b6000815190506136b281612385565b92915050565b6000602082840312156136ce576136cd61234f565b5b60006136dc848285016136a3565b9150509291505056fea2646970667358221220dcb2a3c4e9f1bc97ca7be07145649e5744cb6ec1f56cc453f031bac975a1bd9464736f6c63430008140033",
  "linkReferences": {},
  "deployedLinkReferences": {}
}