{
  "_format": "hh-sol-artifact-1",
  "contractName": "NFTFactory",
  "sourceName": "contracts/NFTFactory.sol",
  "abi": [
    {
      "inputs": [],
      "stateMutability": "nonpayable",
      "type": "constructor"
    },
    {
      "inputs": [],
      "name": "FailedDeployment",
      "type": "error"
    },
    {
      "inputs": [
        {
          "internalType": "uint256",
          "name": "balance",
          "type": "uint256"
        },
        {
          "internalType": "uint256",
          "name": "needed",
          "type": "uint256"
        }
      ],
      "name": "InsufficientBalance",
      "type": "error"
    },
    {
      "anonymous": false,
      "inputs": [
        {
          "indexed": true,
          "internalType": "address",
          "name": "collection",
          "type": "address"
        },
        {
          "indexed": true,
          "internalType": "address",
          "name": "owner",
          "type": "address"
        },
        {
          "indexed": false,
          "internalType": "string",
          "name": "name",
          "type": "string"
        },
        {
          "indexed": false,
          "internalType": "string",
          "name": "symbol",
          "type": "string"
        }
      ],
      "name": "CollectionDeployed",
      "type": "event"
    },
    {
      "inputs": [
        {
          "internalType": "uint256",
          "name": "",
          "type": "uint256"
        }
      ],
      "name": "allCollections",
      "outputs": [
        {
          "internalType": "address",
          "name": "",
          "type": "address"
        }
      ],
      "stateMutability": "view",
      "type": "function"
    },
    {
      "inputs": [
        {
          "internalType": "string",
          "name": "name",
          "type": "string"
        },
        {
          "internalType": "string",
          "name": "symbol",
          "type": "string"
        },
        {
          "internalType": "string",
          "name": "baseTokenURI",
          "type": "string"
        },
        {
          "internalType": "uint256",
          "name": "maxSupply",
          "type": "uint256"
        },
        {
          "internalType": "uint256",
          "name": "mintPrice",
          "type": "uint256"
        },
        {
          "internalType": "uint256",
          "name": "maxPerWallet",
          "type": "uint256"
        }
      ],
      "name": "deployCollection",
      "outputs": [
        {
          "internalType": "address",
          "name": "",
          "type": "address"
        }
      ],
      "stateMutability": "nonpayable",
      "type": "function"
    },
    {
      "inputs": [],
      "name": "getAllCollections",
      "outputs": [
        {
          "internalType": "address[]",
          "name": "",
          "type": "address[]"
        }
      ],
      "stateMutability": "view",
      "type": "function"
    },
    {
      "inputs": [],
      "name": "implementation",
      "outputs": [
        {
          "internalType": "address",
          "name": "",
          "type": "address"
        }
      ],
      "stateMutability": "view",
      "type": "function"
    }
  ],
  "bytecode": "0x608060405234801561001057600080fd5b5060405161001d9061007f565b604051809103906000f080158015610039573d6000803e3d6000fd5b50600160006101000a81548173ffffffffffffffffffffffffffffffffffffffff021916908373ffffffffffffffffffffffffffffffffffffffff16021790555061008c565b613bf580610a8883390190565b6109ed8061009b6000396000f3fe608060405234801561001057600080fd5b506004361061004c5760003560e01c8063167ef495146100515780635c60da1b146100815780636804a9581461009f578063be130928146100bd575b600080fd5b61006b600480360381019061006691906104b5565b6100ed565b6040516100789190610523565b60405180910390f35b61008961012c565b6040516100969190610523565b60405180910390f35b6100a7610152565b6040516100b491906105fc565b60405180910390f35b6100d760048036038101906100d29190610764565b6101e0565b6040516100e49190610523565b60405180910390f35b600081815481106100fd57600080fd5b906000526020600020016000915054906101000a900473ffffffffffffffffffffffffffffffffffffffff1681565b600160009054906101000a900473ffffffffffffffffffffffffffffffffffffffff1681565b606060008054806020026020016040519081016040528092919081815260200182805480156101d657602002820191906000526020600020905b8160009054906101000a900473ffffffffffffffffffffffffffffffffffffffff1673ffffffffffffffffffffffffffffffffffffffff168152602001906001019080831161018c575b5050505050905090565b60008061020e600160009054906101000a900473ffffffffffffffffffffffffffffffffffffffff1661035f565b90508073ffffffffffffffffffffffffffffffffffffffff16637ed52cf1898989898989336040518863ffffffff1660e01b815260040161025597969594939291906108d3565b600060405180830381600087803b15801561026f57600080fd5b505af1158015610283573d6000803e3d6000fd5b505050506000819080600181540180825580915050600190039060005260206000200160009091909190916101000a81548173ffffffffffffffffffffffffffffffffffffffff021916908373ffffffffffffffffffffffffffffffffffffffff1602179055503373ffffffffffffffffffffffffffffffffffffffff168173ffffffffffffffffffffffffffffffffffffffff167f42805f304977dde16425c6a05d5bec1836888a4efc9a847f2ab450923d350c268a8a604051610349929190610957565b60405180910390a3809150509695505050505050565b600061036c826000610373565b9050919050565b6000814710156103bc5747826040517fcf4791810000000000000000000000000000000000000000000000000000000081526004016103b392919061098e565b60405180910390fd5b763d602d80600a3d3981f3363d3d373d3d3d363d730000008360601b60e81c176000526e5af43d82803e903d91602b57fd5bf38360781b176020526037600983f09050600073ffffffffffffffffffffffffffffffffffffffff168173ffffffffffffffffffffffffffffffffffffffff1603610465576040517fb06ebf3d00000000000000000000000000000000000000000000000000000000815260040160405180910390fd5b92915050565b6000604051905090565b600080fd5b600080fd5b6000819050919050565b6104928161047f565b811461049d57600080fd5b50565b6000813590506104af81610489565b92915050565b6000602082840312156104cb576104ca610475565b5b60006104d9848285016104a0565b91505092915050565b600073ffffffffffffffffffffffffffffffffffffffff82169050919050565b600061050d826104e2565b9050919050565b61051d81610502565b82525050565b60006020820190506105386000830184610514565b92915050565b600081519050919050565b600082825260208201905092915050565b6000819050602082019050919050565b61057381610502565b82525050565b6000610585838361056a565b60208301905092915050565b6000602082019050919050565b60006105a98261053e565b6105b38185610549565b93506105be8361055a565b8060005b838110156105ef5781516105d68882610579565b97506105e183610591565b9250506001810190506105c2565b5085935050505092915050565b60006020820190508181036000830152610616818461059e565b905092915050565b600080fd5b600080fd5b6000601f19601f8301169050919050565b7f4e487b7100000000000000000000000000000000000000000000000000000000600052604160045260246000fd5b61067182610628565b810181811067ffffffffffffffff821117156106905761068f610639565b5b80604052505050565b60006106a361046b565b90506106af8282610668565b919050565b600067ffffffffffffffff8211156106cf576106ce610639565b5b6106d882610628565b9050602081019050919050565b82818337600083830152505050565b6000610707610702846106b4565b610699565b90508281526020810184848401111561072357610722610623565b5b61072e8482856106e5565b509392505050565b600082601f83011261074b5761074a61061e565b5b813561075b8482602086016106f4565b91505092915050565b60008060008060008060c0878903121561078157610780610475565b5b600087013567ffffffffffffffff81111561079f5761079e61047a565b5b6107ab89828a01610736565b965050602087013567ffffffffffffffff8111156107cc576107cb61047a565b5b6107d889828a01610736565b955050604087013567ffffffffffffffff8111156107f9576107f861047a565b5b61080589828a01610736565b945050606061081689828a016104a0565b935050608061082789828a016104a0565b92505060a061083889828a016104a0565b9150509295509295509295565b600081519050919050565b600082825260208201905092915050565b60005b8381101561087f578082015181840152602081019050610864565b60008484015250505050565b600061089682610845565b6108a08185610850565b93506108b0818560208601610861565b6108b981610628565b840191505092915050565b6108cd8161047f565b82525050565b600060e08201905081810360008301526108ed818a61088b565b90508181036020830152610901818961088b565b90508181036040830152610915818861088b565b905061092460608301876108c4565b61093160808301866108c4565b61093e60a08301856108c4565b61094b60c0830184610514565b98975050505050505050565b60006040820190508181036000830152610971818561088b565b90508181036020830152610985818461088b565b90509392505050565b60006040820190506109a360008301856108c4565b6109b060208301846108c4565b939250505056fea26469706673582212204bbf8f726749067d842a4bd754cab546ebad57be0af7d5f58282f10d879621b164736f6c6343000814003360806040523480156200001157600080fd5b50336040518060200160405280600081525060405180602001604052806000815250816000908162000044919062000426565b50806001908162000056919062000426565b505050600073ffffffffffffffffffffffffffffffffffffffff168173ffffffffffffffffffffffffffffffffffffffff1603620000ce5760006040517f1e4fbdf7000000000000000000000000000000000000000000000000000000008152600401620000c5919062000552565b60405180910390fd5b620000df81620000e660201b60201c565b506200056f565b6000600660009054906101000a900473ffffffffffffffffffffffffffffffffffffffff16905081600660006101000a81548173ffffffffffffffffffffffffffffffffffffffff021916908373ffffffffffffffffffffffffffffffffffffffff1602179055508173ffffffffffffffffffffffffffffffffffffffff168173ffffffffffffffffffffffffffffffffffffffff167f8be0079c531659141344cd1fd0a4f28419497f9722a3daafe3b4186f6b6457e060405160405180910390a35050565b600081519050919050565b7f4e487b7100000000000000000000000000000000000000000000000000000000600052604160045260246000fd5b7f4e487b7100000000000000000000000000000000000000000000000000000000600052602260045260246000fd5b600060028204905060018216806200022e57607f821691505b602082108103620002445762000243620001e6565b5b50919050565b60008190508160005260206000209050919050565b60006020601f8301049050919050565b600082821b905092915050565b600060088302620002ae7fffffffffffffffffffffffffffffffffffffffffffffffffffffffffffffffff826200026f565b620002ba86836200026f565b95508019841693508086168417925050509392505050565b6000819050919050565b6000819050919050565b60006200030762000301620002fb84620002d2565b620002dc565b620002d2565b9050919050565b6000819050919050565b6200032383620002e6565b6200033b62000332826200030e565b8484546200027c565b825550505050565b600090565b6200035262000343565b6200035f81848462000318565b505050565b5b8181101562000387576200037b60008262000348565b60018101905062000365565b5050565b601f821115620003d657620003a0816200024a565b620003ab846200025f565b81016020851015620003bb578190505b620003d3620003ca856200025f565b83018262000364565b50505b505050565b600082821c905092915050565b6000620003fb60001984600802620003db565b1980831691505092915050565b6000620004168383620003e8565b9150826002028217905092915050565b6200043182620001ac565b67ffffffffffffffff8111156200044d576200044c620001b7565b5b62000459825462000215565b620004668282856200038b565b600060209050601f8311600181146200049e576000841562000489578287015190505b62000495858262000408565b86555062000505565b601f198416620004ae866200024a565b60005b82811015620004d857848901518255600182019150602085019450602081019050620004b1565b86831015620004f85784890151620004f4601f891682620003e8565b8355505b6001600288020188555050505b505050505050565b600073ffffffffffffffffffffffffffffffffffffffff82169050919050565b60006200053a826200050d565b9050919050565b6200054c816200052d565b82525050565b600060208201905062000569600083018462000541565b92915050565b613676806200057f6000396000f3fe6080604052600436106101b75760003560e01c8063729ad39e116100ec578063abbb5a551161008a578063d5abeb0111610064578063d5abeb01146105b6578063e985e9c5146105e1578063f2fde38b1461061e578063f4a0a52814610647576101b7565b8063abbb5a5514610534578063b88d4fde14610550578063c87b56dd14610579576101b7565b806395d89b41116100c657806395d89b411461048a578063a22cb465146104b5578063a2309ff8146104de578063a5097ebf14610509576101b7565b8063729ad39e1461040d5780637ed52cf1146104365780638da5cb5b1461045f576101b7565b806342842e0e116101595780636352211e116101335780636352211e146103515780636817c76c1461038e57806370a08231146103b9578063715018a6146103f6576101b7565b806342842e0e146102d4578063453c2310146102fd57806355f804b314610328576101b7565b8063095ea7b311610195578063095ea7b3146102615780631249c58b1461028a57806323b872dd146102945780633ccfd60b146102bd576101b7565b806301ffc9a7146101bc57806306fdde03146101f9578063081812fc14610224575b600080fd5b3480156101c857600080fd5b506101e360048036038101906101de91906124f9565b610670565b6040516101f09190612541565b60405180910390f35b34801561020557600080fd5b5061020e610752565b60405161021b91906125ec565b60405180910390f35b34801561023057600080fd5b5061024b60048036038101906102469190612644565b6107e4565b60405161025891906126b2565b60405180910390f35b34801561026d57600080fd5b50610288600480360381019061028391906126f9565b610800565b005b610292610816565b005b3480156102a057600080fd5b506102bb60048036038101906102b69190612739565b6109f1565b005b3480156102c957600080fd5b506102d2610af3565b005b3480156102e057600080fd5b506102fb60048036038101906102f69190612739565b610bb1565b005b34801561030957600080fd5b50610312610bd1565b60405161031f91906127b3565b60405180910390f35b34801561033457600080fd5b5061034f600480360381019061034a9190612903565b610bef565b005b34801561035d57600080fd5b5061037860048036038101906103739190612644565b610c0a565b60405161038591906126b2565b60405180910390f35b34801561039a57600080fd5b506103a3610c1c565b6040516103b091906127b3565b60405180910390f35b3480156103c557600080fd5b506103e060048036038101906103db919061294c565b610c3a565b6040516103ed9190612988565b60405180910390f35b34801561040257600080fd5b5061040b610cf4565b005b34801561041957600080fd5b50610434600480360381019061042f9190612a03565b610d08565b005b34801561044257600080fd5b5061045d60048036038101906104589190612a50565b610e68565b005b34801561046b57600080fd5b50610474610fa8565b60405161048191906126b2565b60405180910390f35b34801561049657600080fd5b5061049f610fd2565b6040516104ac91906125ec565b60405180910390f35b3480156104c157600080fd5b506104dc60048036038101906104d79190612b72565b611064565b005b3480156104ea57600080fd5b506104f361107a565b60405161050091906127b3565b60405180910390f35b34801561051557600080fd5b5061051e611098565b60405161052b91906125ec565b60405180910390f35b61054e60048036038101906105499190612644565b61112a565b005b34801561055c57600080fd5b5061057760048036038101906105729190612c53565b611388565b005b34801561058557600080fd5b506105a0600480360381019061059b9190612644565b6113ad565b6040516105ad91906125ec565b60405180910390f35b3480156105c257600080fd5b506105cb611416565b6040516105d891906127b3565b60405180910390f35b3480156105ed57600080fd5b5061060860048036038101906106039190612cd6565b611434565b6040516106159190612541565b60405180910390f35b34801561062a57600080fd5b506106456004803603810190610640919061294c565b6114c8565b005b34801561065357600080fd5b5061066e60048036038101906106699190612644565b61154e565b005b60007f80ac58cd000000000000000000000000000000000000000000000000000000007bffffffffffffffffffffffffffffffffffffffffffffffffffffffff1916827bffffffffffffffffffffffffffffffffffffffffffffffffffffffff1916148061073b57507f5b5e139f000000000000000000000000000000000000000000000000000000007bffffffffffffffffffffffffffffffffffffffffffffffffffffffff1916827bffffffffffffffffffffffffffffffffffffffffffffffffffffffff1916145b8061074b575061074a8261158a565b5b9050919050565b60606009805461076190612d45565b80601f016020809104026020016040519081016040528092919081815260200182805461078d90612d45565b80156107da5780601f106107af576101008083540402835291602001916107da565b820191906000526020600020905b8154815290600101906020018083116107bd57829003601f168201915b5050505050905090565b60006107ef826115f4565b506107f98261167c565b9050919050565b610812828261080d6116b9565b6116c1565b5050565b6007600c9054906101000a90046bffffffffffffffffffffffff166bffffffffffffffffffffffff16600760009054906101000a90046bffffffffffffffffffffffff166bffffffffffffffffffffffff16106108a8576040517f08c379a000000000000000000000000000000000000000000000000000000000815260040161089f90612dc2565b60405180910390fd5b600860009054906101000a90046bffffffffffffffffffffffff166bffffffffffffffffffffffff16341015610913576040517f08c379a000000000000000000000000000000000000000000000000000000000815260040161090a90612e2e565b60405180910390fd5b6008600c9054906101000a90046bffffffffffffffffffffffff166bffffffffffffffffffffffff1661094533610c3a565b10610985576040517f08c379a000000000000000000000000000000000000000000000000000000000815260040161097c90612e9a565b60405180910390fd5b60006007600081819054906101000a90046bffffffffffffffffffffffff1660010191906101000a8154816bffffffffffffffffffffffff02191690836bffffffffffffffffffffffff16021790556bffffffffffffffffffffffff1690506109ee33826116d3565b50565b600073ffffffffffffffffffffffffffffffffffffffff168273ffffffffffffffffffffffffffffffffffffffff1603610a635760006040517f64a0ae92000000000000000000000000000000000000000000000000000000008152600401610a5a91906126b2565b60405180910390fd5b6000610a778383610a726116b9565b6117cc565b90508373ffffffffffffffffffffffffffffffffffffffff168173ffffffffffffffffffffffffffffffffffffffff1614610aed578382826040517f64283d7b000000000000000000000000000000000000000000000000000000008152600401610ae493929190612eba565b60405180910390fd5b50505050565b610afb6119e6565b6000610b05610fa8565b73ffffffffffffffffffffffffffffffffffffffff1647604051610b2890612f22565b60006040518083038185875af1925050503d8060008114610b65576040519150601f19603f3d011682016040523d82523d6000602084013e610b6a565b606091505b5050905080610bae576040517f08c379a0000000000000000000000000000000000000000000000000000000008152600401610ba590612f83565b60405180910390fd5b50565b610bcc83838360405180602001604052806000815250611388565b505050565b6008600c9054906101000a90046bffffffffffffffffffffffff1681565b610bf76119e6565b80600b9081610c06919061314f565b5050565b6000610c15826115f4565b9050919050565b600860009054906101000a90046bffffffffffffffffffffffff1681565b60008073ffffffffffffffffffffffffffffffffffffffff168273ffffffffffffffffffffffffffffffffffffffff1603610cad5760006040517f89c62b64000000000000000000000000000000000000000000000000000000008152600401610ca491906126b2565b60405180910390fd5b600360008373ffffffffffffffffffffffffffffffffffffffff1673ffffffffffffffffffffffffffffffffffffffff168152602001908152602001600020549050919050565b610cfc6119e6565b610d066000611a6d565b565b610d106119e6565b60008282905090506007600c9054906101000a90046bffffffffffffffffffffffff166bffffffffffffffffffffffff1681600760009054906101000a90046bffffffffffffffffffffffff166bffffffffffffffffffffffff16610d759190613250565b1115610db6576040517f08c379a0000000000000000000000000000000000000000000000000000000008152600401610dad90612dc2565b60405180910390fd5b6000600760009054906101000a90046bffffffffffffffffffffffff166bffffffffffffffffffffffff16905060005b82811015610e3057610e25858583818110610e0457610e03613284565b5b9050602002016020810190610e19919061294c565b836001019350836116d3565b806001019050610de6565b5080600760006101000a8154816bffffffffffffffffffffffff02191690836bffffffffffffffffffffffff16021790555050505050565b600660149054906101000a900460ff1615610eb8576040517f08c379a0000000000000000000000000000000000000000000000000000000008152600401610eaf906132ff565b60405180910390fd5b6001600660146101000a81548160ff0219169083151502179055508660099081610ee2919061314f565b5085600a9081610ef2919061314f565b50610efc81611a6d565b84600b9081610f0b919061314f565b50836007600c6101000a8154816bffffffffffffffffffffffff02191690836bffffffffffffffffffffffff16021790555082600860006101000a8154816bffffffffffffffffffffffff02191690836bffffffffffffffffffffffff160217905550816008600c6101000a8154816bffffffffffffffffffffffff02191690836bffffffffffffffffffffffff16021790555050505050505050565b6000600660009054906101000a900473ffffffffffffffffffffffffffffffffffffffff16905090565b6060600a8054610fe190612d45565b80601f016020809104026020016040519081016040528092919081815260200182805461100d90612d45565b801561105a5780601f1061102f5761010080835404028352916020019161105a565b820191906000526020600020905b81548152906001019060200180831161103d57829003601f168201915b5050505050905090565b61107661106f6116b9565b8383611b33565b5050565b600760009054906101000a90046bffffffffffffffffffffffff1681565b6060600b80546110a790612d45565b80601f01602080910402602001604051908101604052809291908181526020018280546110d390612d45565b80156111205780601f106110f557610100808354040283529160200191611120565b820191906000526020600020905b81548152906001019060200180831161110357829003601f168201915b5050505050905090565b6000811161116d576040517f08c379a00000000000000000000000000000000000000000000000000000000081526004016111649061336b565b60405180910390fd5b6007600c9054906101000a90046bffffffffffffffffffffffff166bffffffffffffffffffffffff1681600760009054906101000a90046bffffffffffffffffffffffff166bffffffffffffffffffffffff166111ca9190613250565b111561120b576040517f08c379a0000000000000000000000000000000000000000000000000000000008152600401611202906133d7565b60405180910390fd5b6008600c9054906101000a90046bffffffffffffffffffffffff166bffffffffffffffffffffffff168161123e33610c3a565b6112489190613250565b1115611289576040517f08c379a000000000000000000000000000000000000000000000000000000000815260040161128090613443565b60405180910390fd5b80600860009054906101000a90046bffffffffffffffffffffffff166bffffffffffffffffffffffff166112bd9190613463565b3410156112ff576040517f08c379a00000000000000000000000000000000000000000000000000000000081526004016112f690612e2e565b60405180910390fd5b6000600760009054906101000a90046bffffffffffffffffffffffff166bffffffffffffffffffffffff16905060005b828110156113525761134733836001019350836116d3565b80600101905061132f565b5080600760006101000a8154816bffffffffffffffffffffffff02191690836bffffffffffffffffffffffff1602179055505050565b6113938484846109f1565b6113a761139e6116b9565b85858585611ca2565b50505050565b60606113b8826115f4565b5060006113c3611e53565b905060008151116113e3576040518060200160405280600081525061140e565b806113ed84611ee5565b6040516020016113fe9291906134e1565b6040516020818303038152906040525b915050919050565b6007600c9054906101000a90046bffffffffffffffffffffffff1681565b6000600560008473ffffffffffffffffffffffffffffffffffffffff1673ffffffffffffffffffffffffffffffffffffffff16815260200190815260200160002060008373ffffffffffffffffffffffffffffffffffffffff1673ffffffffffffffffffffffffffffffffffffffff16815260200190815260200160002060009054906101000a900460ff16905092915050565b6114d06119e6565b600073ffffffffffffffffffffffffffffffffffffffff168173ffffffffffffffffffffffffffffffffffffffff16036115425760006040517f1e4fbdf700000000000000000000000000000000000000000000000000000000815260040161153991906126b2565b60405180910390fd5b61154b81611a6d565b50565b6115566119e6565b80600860006101000a8154816bffffffffffffffffffffffff02191690836bffffffffffffffffffffffff16021790555050565b60007f01ffc9a7000000000000000000000000000000000000000000000000000000007bffffffffffffffffffffffffffffffffffffffffffffffffffffffff1916827bffffffffffffffffffffffffffffffffffffffffffffffffffffffff1916149050919050565b60008061160083611fb3565b9050600073ffffffffffffffffffffffffffffffffffffffff168173ffffffffffffffffffffffffffffffffffffffff160361167357826040517f7e27328900000000000000000000000000000000000000000000000000000000815260040161166a9190612988565b60405180910390fd5b80915050919050565b60006004600083815260200190815260200160002060009054906101000a900473ffffffffffffffffffffffffffffffffffffffff169050919050565b600033905090565b6116ce8383836001611ff0565b505050565b600073ffffffffffffffffffffffffffffffffffffffff168273ffffffffffffffffffffffffffffffffffffffff16036117455760006040517f64a0ae9200000000000000000000000000000000000000000000000000000000815260040161173c91906126b2565b60405180910390fd5b6000611753838360006117cc565b9050600073ffffffffffffffffffffffffffffffffffffffff168173ffffffffffffffffffffffffffffffffffffffff16146117c75760006040517f73c6ac6e0000000000000000000000000000000000000000000000000000000081526004016117be91906126b2565b60405180910390fd5b505050565b6000806117d884611fb3565b9050600073ffffffffffffffffffffffffffffffffffffffff168373ffffffffffffffffffffffffffffffffffffffff161461181a576118198184866121b5565b5b600073ffffffffffffffffffffffffffffffffffffffff168173ffffffffffffffffffffffffffffffffffffffff16146118ab5761185c600085600080611ff0565b6001600360008373ffffffffffffffffffffffffffffffffffffffff1673ffffffffffffffffffffffffffffffffffffffff168152602001908152602001600020600082825403925050819055505b600073ffffffffffffffffffffffffffffffffffffffff168573ffffffffffffffffffffffffffffffffffffffff161461192e576001600360008773ffffffffffffffffffffffffffffffffffffffff1673ffffffffffffffffffffffffffffffffffffffff168152602001908152602001600020600082825401925050819055505b846002600086815260200190815260200160002060006101000a81548173ffffffffffffffffffffffffffffffffffffffff021916908373ffffffffffffffffffffffffffffffffffffffff160217905550838573ffffffffffffffffffffffffffffffffffffffff168273ffffffffffffffffffffffffffffffffffffffff167fddf252ad1be2c89b69c2b068fc378daa952ba7f163c4a11628f55a4df523b3ef60405160405180910390a4809150509392505050565b6119ee6116b9565b73ffffffffffffffffffffffffffffffffffffffff16611a0c610fa8565b73ffffffffffffffffffffffffffffffffffffffff1614611a6b57611a2f6116b9565b6040517f118cdaa7000000000000000000000000000000000000000000000000000000008152600401611a6291906126b2565b60405180910390fd5b565b6000600660009054906101000a900473ffffffffffffffffffffffffffffffffffffffff16905081600660006101000a81548173ffffffffffffffffffffffffffffffffffffffff021916908373ffffffffffffffffffffffffffffffffffffffff1602179055508173ffffffffffffffffffffffffffffffffffffffff168173ffffffffffffffffffffffffffffffffffffffff167f8be0079c531659141344cd1fd0a4f28419497f9722a3daafe3b4186f6b6457e060405160405180910390a35050565b600073ffffffffffffffffffffffffffffffffffffffff168273ffffffffffffffffffffffffffffffffffffffff1603611ba457816040517f5b08ba18000000000000000000000000000000000000000000000000000000008152600401611b9b91906126b2565b60405180910390fd5b80600560008573ffffffffffffffffffffffffffffffffffffffff1673ffffffffffffffffffffffffffffffffffffffff16815260200190815260200160002060008473ffffffffffffffffffffffffffffffffffffffff1673ffffffffffffffffffffffffffffffffffffffff16815260200190815260200160002060006101000a81548160ff0219169083151502179055508173ffffffffffffffffffffffffffffffffffffffff168373ffffffffffffffffffffffffffffffffffffffff167f17307eab39ab6107e8899845ad3d59bd9653f200f220920489ca2b5937696c3183604051611c959190612541565b60405180910390a3505050565b60008373ffffffffffffffffffffffffffffffffffffffff163b1115611e4c578273ffffffffffffffffffffffffffffffffffffffff1663150b7a02868685856040518563ffffffff1660e01b8152600401611d01949392919061355a565b6020604051808303816000875af1925050508015611d3d57506040513d601f19601f82011682018060405250810190611d3a91906135bb565b60015b611dc1573d8060008114611d6d576040519150601f19603f3d011682016040523d82523d6000602084013e611d72565b606091505b506000815103611db957836040517f64a0ae92000000000000000000000000000000000000000000000000000000008152600401611db091906126b2565b60405180910390fd5b805160208201fd5b63150b7a0260e01b7bffffffffffffffffffffffffffffffffffffffffffffffffffffffff1916817bffffffffffffffffffffffffffffffffffffffffffffffffffffffff191614611e4a57836040517f64a0ae92000000000000000000000000000000000000000000000000000000008152600401611e4191906126b2565b60405180910390fd5b505b5050505050565b6060600b8054611e6290612d45565b80601f0160208091040260200160405190810160405280929190818152602001828054611e8e90612d45565b8015611edb5780601f10611eb057610100808354040283529160200191611edb565b820191906000526020600020905b815481529060010190602001808311611ebe57829003601f168201915b5050505050905090565b606060006001611ef484612279565b01905060008167ffffffffffffffff811115611f1357611f126127d8565b5b6040519080825280601f01601f191660200182016040528015611f455781602001600182028036833780820191505090505b509050600082602083010190505b600115611fa8578080600190039150507f3031323334353637383961626364656600000000000000000000000000000000600a86061a8153600a8581611f9c57611f9b6135e8565b5b04945060008503611f53575b819350505050919050565b60006002600083815260200190815260200160002060009054906101000a900473ffffffffffffffffffffffffffffffffffffffff169050919050565b80806120295750600073ffffffffffffffffffffffffffffffffffffffff168273ffffffffffffffffffffffffffffffffffffffff1614155b1561215d576000612039846115f4565b9050600073ffffffffffffffffffffffffffffffffffffffff168373ffffffffffffffffffffffffffffffffffffffff16141580156120a457508273ffffffffffffffffffffffffffffffffffffffff168173ffffffffffffffffffffffffffffffffffffffff1614155b80156120b757506120b58184611434565b155b156120f957826040517fa9fbf51f0000000000000000000000000000000000000000000000000000000081526004016120f091906126b2565b60405180910390fd5b811561215b57838573ffffffffffffffffffffffffffffffffffffffff168273ffffffffffffffffffffffffffffffffffffffff167f8c5be1e5ebec7d5bd14f71427d1e84f3dd0314c0f7b2291e5b200ac8c7c3b92560405160405180910390a45b505b836004600085815260200190815260200160002060006101000a81548173ffffffffffffffffffffffffffffffffffffffff021916908373ffffffffffffffffffffffffffffffffffffffff16021790555050505050565b6121c08383836123cc565b61227457600073ffffffffffffffffffffffffffffffffffffffff168373ffffffffffffffffffffffffffffffffffffffff160361223557806040517f7e27328900000000000000000000000000000000000000000000000000000000815260040161222c9190612988565b60405180910390fd5b81816040517f177e802f00000000000000000000000000000000000000000000000000000000815260040161226b929190613617565b60405180910390fd5b505050565b600080600090507a184f03e93ff9f4daa797ed6e38ed64bf6a1f01000000000000000083106122d7577a184f03e93ff9f4daa797ed6e38ed64bf6a1f01000000000000000083816122cd576122cc6135e8565b5b0492506040810190505b6d04ee2d6d415b85acef81000000008310612314576d04ee2d6d415b85acef8100000000838161230a576123096135e8565b5b0492506020810190505b662386f26fc10000831061234357662386f26fc100008381612339576123386135e8565b5b0492506010810190505b6305f5e100831061236c576305f5e1008381612362576123616135e8565b5b0492506008810190505b6127108310612391576127108381612387576123866135e8565b5b0492506004810190505b606483106123b457606483816123aa576123a96135e8565b5b0492506002810190505b600a83106123c3576001810190505b80915050919050565b60008073ffffffffffffffffffffffffffffffffffffffff168373ffffffffffffffffffffffffffffffffffffffff161415801561248457508273ffffffffffffffffffffffffffffffffffffffff168473ffffffffffffffffffffffffffffffffffffffff16148061244557506124448484611434565b5b8061248357508273ffffffffffffffffffffffffffffffffffffffff1661246b8361167c565b73ffffffffffffffffffffffffffffffffffffffff16145b5b90509392505050565b6000604051905090565b600080fd5b600080fd5b60007fffffffff0000000000000000000000000000000000000000000000000000000082169050919050565b6124d6816124a1565b81146124e157600080fd5b50565b6000813590506124f3816124cd565b92915050565b60006020828403121561250f5761250e612497565b5b600061251d848285016124e4565b91505092915050565b60008115159050919050565b61253b81612526565b82525050565b60006020820190506125566000830184612532565b92915050565b600081519050919050565b600082825260208201905092915050565b60005b8381101561259657808201518184015260208101905061257b565b60008484015250505050565b6000601f19601f8301169050919050565b60006125be8261255c565b6125c88185612567565b93506125d8818560208601612578565b6125e1816125a2565b840191505092915050565b6000602082019050818103600083015261260681846125b3565b905092915050565b6000819050919050565b6126218161260e565b811461262c57600080fd5b50565b60008135905061263e81612618565b92915050565b60006020828403121561265a57612659612497565b5b60006126688482850161262f565b91505092915050565b600073ffffffffffffffffffffffffffffffffffffffff82169050919050565b600061269c82612671565b9050919050565b6126ac81612691565b82525050565b60006020820190506126c760008301846126a3565b92915050565b6126d681612691565b81146126e157600080fd5b50565b6000813590506126f3816126cd565b92915050565b600080604083850312156127105761270f612497565b5b600061271e858286016126e4565b925050602061272f8582860161262f565b9150509250929050565b60008060006060848603121561275257612751612497565b5b6000612760868287016126e4565b9350506020612771868287016126e4565b92505060406127828682870161262f565b9150509250925092565b60006bffffffffffffffffffffffff82169050919050565b6127ad8161278c565b82525050565b60006020820190506127c860008301846127a4565b92915050565b600080fd5b600080fd5b7f4e487b7100000000000000000000000000000000000000000000000000000000600052604160045260246000fd5b612810826125a2565b810181811067ffffffffffffffff8211171561282f5761282e6127d8565b5b80604052505050565b600061284261248d565b905061284e8282612807565b919050565b600067ffffffffffffffff82111561286e5761286d6127d8565b5b612877826125a2565b9050602081019050919050565b82818337600083830152505050565b60006128a66128a184612853565b612838565b9050828152602081018484840111156128c2576128c16127d3565b5b6128cd848285612884565b509392505050565b600082601f8301126128ea576128e96127ce565b5b81356128fa848260208601612893565b91505092915050565b60006020828403121561291957612918612497565b5b600082013567ffffffffffffffff8111156129375761293661249c565b5b612943848285016128d5565b91505092915050565b60006020828403121561296257612961612497565b5b6000612970848285016126e4565b91505092915050565b6129828161260e565b82525050565b600060208201905061299d6000830184612979565b92915050565b600080fd5b600080fd5b60008083601f8401126129c3576129c26127ce565b5b8235905067ffffffffffffffff8111156129e0576129df6129a3565b5b6020830191508360208202830111156129fc576129fb6129a8565b5b9250929050565b60008060208385031215612a1a57612a19612497565b5b600083013567ffffffffffffffff811115612a3857612a3761249c565b5b612a44858286016129ad565b92509250509250929050565b600080600080600080600060e0888a031215612a6f57612a6e612497565b5b600088013567ffffffffffffffff811115612a8d57612a8c61249c565b5b612a998a828b016128d5565b975050602088013567ffffffffffffffff811115612aba57612ab961249c565b5b612ac68a828b016128d5565b965050604088013567ffffffffffffffff811115612ae757612ae661249c565b5b612af38a828b016128d5565b9550506060612b048a828b0161262f565b9450506080612b158a828b0161262f565b93505060a0612b268a828b0161262f565b92505060c0612b378a828b016126e4565b91505092959891949750929550565b612b4f81612526565b8114612b5a57600080fd5b50565b600081359050612b6c81612b46565b92915050565b60008060408385031215612b8957612b88612497565b5b6000612b97858286016126e4565b9250506020612ba885828601612b5d565b9150509250929050565b600067ffffffffffffffff821115612bcd57612bcc6127d8565b5b612bd6826125a2565b9050602081019050919050565b6000612bf6612bf184612bb2565b612838565b905082815260208101848484011115612c1257612c116127d3565b5b612c1d848285612884565b509392505050565b600082601f830112612c3a57612c396127ce565b5b8135612c4a848260208601612be3565b91505092915050565b60008060008060808587031215612c6d57612c6c612497565b5b6000612c7b878288016126e4565b9450506020612c8c878288016126e4565b9350506040612c9d8782880161262f565b925050606085013567ffffffffffffffff811115612cbe57612cbd61249c565b5b612cca87828801612c25565b91505092959194509250565b60008060408385031215612ced57612cec612497565b5b6000612cfb858286016126e4565b9250506020612d0c858286016126e4565b9150509250929050565b7f4e487b7100000000000000000000000000000000000000000000000000000000600052602260045260246000fd5b60006002820490506001821680612d5d57607f821691505b602082108103612d7057612d6f612d16565b5b50919050565b7f4d617820737570706c7920726561636865640000000000000000000000000000600082015250565b6000612dac601283612567565b9150612db782612d76565b602082019050919050565b60006020820190508181036000830152612ddb81612d9f565b9050919050565b7f496e73756666696369656e74207061796d656e74000000000000000000000000600082015250565b6000612e18601483612567565b9150612e2382612de2565b602082019050919050565b60006020820190508181036000830152612e4781612e0b565b9050919050565b7f4d6178207065722077616c6c6574207265616368656400000000000000000000600082015250565b6000612e84601683612567565b9150612e8f82612e4e565b602082019050919050565b60006020820190508181036000830152612eb381612e77565b9050919050565b6000606082019050612ecf60008301866126a3565b612edc6020830185612979565b612ee960408301846126a3565b949350505050565b600081905092915050565b50565b6000612f0c600083612ef1565b9150612f1782612efc565b600082019050919050565b6000612f2d82612eff565b9150819050919050565b7f5769746864726177206661696c65640000000000000000000000000000000000600082015250565b6000612f6d600f83612567565b9150612f7882612f37565b602082019050919050565b60006020820190508181036000830152612f9c81612f60565b9050919050565b60008190508160005260206000209050919050565b60006020601f8301049050919050565b600082821b905092915050565b6000600883026130057fffffffffffffffffffffffffffffffffffffffffffffffffffffffffffffffff82612fc8565b61300f8683612fc8565b95508019841693508086168417925050509392505050565b6000819050919050565b600061304c6130476130428461260e565b613027565b61260e565b9050919050565b6000819050919050565b61306683613031565b61307a61307282613053565b848454612fd5565b825550505050565b600090565b61308f613082565b61309a81848461305d565b505050565b5b818110156130be576130b3600082613087565b6001810190506130a0565b5050565b601f821115613103576130d481612fa3565b6130dd84612fb8565b810160208510156130ec578190505b6131006130f885612fb8565b83018261309f565b50505b505050565b600082821c905092915050565b600061312660001984600802613108565b1980831691505092915050565b600061313f8383613115565b9150826002028217905092915050565b6131588261255c565b67ffffffffffffffff811115613171576131706127d8565b5b61317b8254612d45565b6131868282856130c2565b600060209050601f8311600181146131b957600084156131a7578287015190505b6131b18582613133565b865550613219565b601f1984166131c786612fa3565b60005b828110156131ef578489015182556001820191506020850194506020810190506131ca565b8683101561320c5784890151613208601f891682613115565b8355505b6001600288020188555050505b505050505050565b7f4e487b7100000000000000000000000000000000000000000000000000000000600052601160045260246000fd5b600061325b8261260e565b91506132668361260e565b925082820190508082111561327e5761327d613221565b5b92915050565b7f4e487b7100000000000000000000000000000000000000000000000000000000600052603260045260246000fd5b7f416c726561647920696e697469616c697a656400000000000000000000000000600082015250565b60006132e9601383612567565b91506132f4826132b3565b602082019050919050565b60006020820190508181036000830152613318816132dc565b9050919050565b7f5175616e74697479206d757374206265203e2030000000000000000000000000600082015250565b6000613355601483612567565b91506133608261331f565b602082019050919050565b6000602082019050818103600083015261338481613348565b9050919050565b7f45786365656473206d617820737570706c790000000000000000000000000000600082015250565b60006133c1601283612567565b91506133cc8261338b565b602082019050919050565b600060208201905081810360008301526133f0816133b4565b9050919050565b7f45786365656473206d6178207065722077616c6c657400000000000000000000600082015250565b600061342d601683612567565b9150613438826133f7565b602082019050919050565b6000602082019050818103600083015261345c81613420565b9050919050565b600061346e8261260e565b91506134798361260e565b92508282026134878161260e565b9150828204841483151761349e5761349d613221565b5b5092915050565b600081905092915050565b60006134bb8261255c565b6134c581856134a5565b93506134d5818560208601612578565b80840191505092915050565b60006134ed82856134b0565b91506134f982846134b0565b91508190509392505050565b600081519050919050565b600082825260208201905092915050565b600061352c82613505565b6135368185613510565b9350613546818560208601612578565b61354f816125a2565b840191505092915050565b600060808201905061356f60008301876126a3565b61357c60208301866126a3565b6135896040830185612979565b818103606083015261359b8184613521565b905095945050505050565b6000815190506135b5816124cd565b92915050565b6000602082840312156135d1576135d0612497565b5b60006135df848285016135a6565b91505092915050565b7f4e487b7100000000000000000000000000000000000000000000000000000000600052601260045260246000fd5b600060408201905061362c60008301856126a3565b6136396020830184612979565b939250505056fea2646970667358221220a5ff670db1f5a1095ecf6ff29a4d6f7a5504c8e76c6c860daf542ac0189f690564736f6c63430008140033",
  "linkReferences": {},
  "deployedLinkReferences": {}
}