{
  "_format": "hh-sol-artifact-1",
  "contractName": "NFTFactory",
  "sourceName": "contracts/NFTFactory.sol",
  "abi": [
    {
      "inputs": [],
      "stateMutability": "nonpayable",
      "type": "constructor"
    },
    {
      "inputs": [],
      "name": "FailedDeployment",
      "type": "error"
    },
    {
      "inputs": [
        {
          "internalType": "uint256",
          "name": "balance",
          "type": "uint256"
        },
        {
          "internalType": "uint256",
          "name": "needed",
          "type": "uint256"
        }
      ],
      "name": "InsufficientBalance",
      "type": "error"
    },
    {
      "anonymous": false,
      "inputs": [
        {
          "indexed": true,
          "internalType": "address",
          "name": "collection",
          "type": "address"
        },
        {
          "indexed": true,
          "internalType": "address",
          "name": "owner",
          "type": "address"
        },
        {
          "indexed": false,
          "internalType": "string",
          "name": "name",
          "type": "string"
        },
        {
          "indexed": false,
          "internalType": "string",
          "name": "symbol",
          "type": "string"
        }
      ],
      "name": "CollectionDeployed",
      "type": "event"
    },
    {
      "inputs": [
        {
          "internalType": "uint256",
          "name": "",
          "type": "uint256"
        }
      ],
      "name": "allCollections",
      "outputs": [
        {
          "internalType": "address",
          "name": "",
          "type": "address"
        }
      ],
      "stateMutability": "view",
      "type": "function"
    },
    {
      "inputs": [
        {
          "internalType": "string",
          "name": "name",
          "type": "string"
        },
        {
          "internalType": "string",
          "name": "symbol",
          "type": "string"
        },
        {
          "internalType": "string",
          "name": "baseTokenURI",
          "type": "string"
        },
        {
          "internalType": "uint256",
          "name": "maxSupply",
          "type": "uint256"
        },
        {
          "internalType": "uint256",
          "name": "mintPrice",
          "type": "uint256"
        },
        {
          "internalType": "uint256",
          "name": "maxPerWallet",
          "type": "uint256"
        }
      ],
      "name": "deployCollection",
      "outputs": [
        {
          "internalType": "address",
          "name": "",
          "type": "address"
        }
      ],
      "stateMutability": "nonpayable",
      "type": "function"
    },
    {
      "inputs": [],
      "name": "getAllCollections",
      "outputs": [
        {
          "internalType": "address[]",
          "name": "",
          "type": "address[]"
        }
      ],
      "stateMutability": "view",
      "type": "function"
    },
    {
      "inputs": [],
      "name": "implementation",
      "outputs": [
        {
          "internalType": "address",
          "name": "",
          "type": "address"
        }
      ],
      "stateMutability": "view",
      "type": "function"
    }
  ],
  "bytecode": "0x608060405234801561001057600080fd5b5060405161001d9061007f565b604051809103906000f080158015610039573d6000803e3d6000fd5b50600160006101000a81548173ffffffffffffffffffffffffffffffffffffffff021916908373ffffffffffffffffffffffffffffffffffffffff16021790555061008c565b6137da80610a8883390190565b6109ed8061009b6000396000f3fe608060405234801561001057600080fd5b506004361061004c5760003560e01c8063167ef495146100515780635c60da1b146100815780636804a9581461009f578063be130928146100bd575b600080fd5b61006b600480360381019061006691906104b5565b6100ed565b6040516100789190610523565b60405180910390f35b61008961012c565b6040516100969190610523565b60405180910390f35b6100a7610152565b6040516100b491906105fc565b60405180910390f35b6100d760048036038101906100d29190610764565b6101e0565b6040516100e49190610523565b60405180910390f35b600081815481106100fd57600080fd5b906000526020600020016000915054906101000a900473ffffffffffffffffffffffffffffffffffffffff1681565b600160009054906101000a900473ffffffffffffffffffffffffffffffffffffffff1681565b606060008054806020026020016040519081016040528092919081815260200182805480156101d657602002820191906000526020600020905b8160009054906101000a900473ffffffffffffffffffffffffffffffffffffffff1673ffffffffffffffffffffffffffffffffffffffff168152602001906001019080831161018c575b5050505050905090565b60008061020e600160009054906101000a900473ffffffffffffffffffffffffffffffffffffffff1661035f565b90508073ffffffffffffffffffffffffffffffffffffffff16637ed52cf1898989898989336040518863ffffffff1660e01b815260040161025597969594939291906108d3565b600060405180830381600087803b15801561026f57600080fd5b505af1158015610283573d6000803e3d6000fd5b505050506000819080600181540180825580915050600190039060005260206000200160009091909190916101000a81548173ffffffffffffffffffffffffffffffffffffffff021916908373ffffffffffffffffffffffffffffffffffffffff1602179055503373ffffffffffffffffffffffffffffffffffffffff168173ffffffffffffffffffffffffffffffffffffffff167f42805f304977dde16425c6a05d5bec1836888a4efc9a847f2ab450923d350c268a8a604051610349929190610957565b60405180910390a3809150509695505050505050565b600061036c826000610373565b9050919050565b6000814710156103bc5747826040517fcf4791810000000000000000000000000000000000000000000000000000000081526004016103b392919061098e565b60405180910390fd5b763d602d80600a3d3981f3363d3d373d3d3d363d730000008360601b60e81c176000526e5af43d82803e903d91602b57fd5bf38360781b176020526037600983f09050600073ffffffffffffffffffffffffffffffffffffffff168173ffffffffffffffffffffffffffffffffffffffff1603610465576040517fb06ebf3d00000000000000000000000000000000000000000000000000000000815260040160405180910390fd5b92915050565b6000604051905090565b600080fd5b600080fd5b6000819050919050565b6104928161047f565b811461049d57600080fd5b50565b6000813590506104af81610489565b92915050565b6000602082840312156104cb576104ca610475565b5b60006104d9848285016104a0565b91505092915050565b600073ffffffffffffffffffffffffffffffffffffffff82169050919050565b600061050d826104e2565b9050919050565b61051d81610502565b82525050565b60006020820190506105386000830184610514565b92915050565b600081519050919050565b600082825260208201905092915050565b6000819050602082019050919050565b61057381610502565b82525050565b6000610585838361056a565b60208301905092915050565b6000602082019050919050565b60006105a98261053e565b6105b38185610549565b93506105be8361055a565b8060005b838110156105ef5781516105d68882610579565b97506105e183610591565b9250506001810190506105c2565b5085935050505092915050565b60006020820190508181036000830152610616818461059e565b905092915050565b600080fd5b600080fd5b6000601f19601f8301169050919050565b7f4e487b7100000000000000000000000000000000000000000000000000000000600052604160045260246000fd5b61067182610628565b810181811067ffffffffffffffff821117156106905761068f610639565b5b80604052505050565b60006106a361046b565b90506106af8282610668565b919050565b600067ffffffffffffffff8211156106cf576106ce610639565b5b6106d882610628565b9050602081019050919050565b82818337600083830152505050565b6000610707610702846106b4565b610699565b90508281526020810184848401111561072357610722610623565b5b61072e8482856106e5565b509392505050565b600082601f83011261074b5761074a61061e565b5b813561075b8482602086016106f4565b91505092915050565b60008060008060008060c0878903121561078157610780610475565b5b600087013567ffffffffffffffff81111561079f5761079e61047a565b5b6107ab89828a01610736565b965050602087013567ffffffffffffffff8111156107cc576107cb61047a565b5b6107d889828a01610736565b955050604087013567ffffffffffffffff8111156107f9576107f861047a565b5b61080589828a01610736565b945050606061081689828a016104a0565b935050608061082789828a016104a0565b92505060a061083889828a016104a0565b9150509295509295509295565b600081519050919050565b600082825260208201905092915050565b60005b8381101561087f578082015181840152602081019050610864565b60008484015250505050565b600061089682610845565b6108a08185610850565b93506108b0818560208601610861565b6108b981610628565b840191505092915050565b6108cd8161047f565b82525050565b600060e08201905081810360008301526108ed818a61088b565b90508181036020830152610901818961088b565b90508181036040830152610915818861088b565b905061092460608301876108c4565b61093160808301866108c4565b61093e60a08301856108c4565b61094b60c0830184610514565b98975050505050505050565b60006040820190508181036000830152610971818561088b565b90508181036020830152610985818461088b565b90509392505050565b60006040820190506109a360008301856108c4565b6109b060208301846108c4565b939250505056fea2646970667358221220751be65f8f2a9b697f928152c5bb82ced36256e2639292733ac7d4c35cc8d79f64736f6c6343000814003360806040523480156200001157600080fd5b50336040518060200160405280600081525060405180602001604052806000815250816000908162000044919062000426565b50806001908162000056919062000426565b505050600073ffffffffffffffffffffffffffffffffffffffff168173ffffffffffffffffffffffffffffffffffffffff1603620000ce5760006040517f1e4fbdf7000000000000000000000000000000000000000000000000000000008152600401620000c5919062000552565b60405180910390fd5b620000df81620000e660201b60201c565b506200056f565b6000600660009054906101000a900473ffffffffffffffffffffffffffffffffffffffff16905081600660006101000a81548173ffffffffffffffffffffffffffffffffffffffff021916908373ffffffffffffffffffffffffffffffffffffffff1602179055508173ffffffffffffffffffffffffffffffffffffffff168173ffffffffffffffffffffffffffffffffffffffff167f8be0079c531659141344cd1fd0a4f28419497f9722a3daafe3b4186f6b6457e060405160405180910390a35050565b600081519050919050565b7f4e487b7100000000000000000000000000000000000000000000000000000000600052604160045260246000fd5b7f4e487b7100000000000000000000000000000000000000000000000000000000600052602260045260246000fd5b600060028204905060018216806200022e57607f821691505b602082108103620002445762000243620001e6565b5b50919050565b60008190508160005260206000209050919050565b60006020601f8301049050919050565b600082821b905092915050565b600060088302620002ae7fffffffffffffffffffffffffffffffffffffffffffffffffffffffffffffffff826200026f565b620002ba86836200026f565b95508019841693508086168417925050509392505050565b6000819050919050565b6000819050919050565b60006200030762000301620002fb84620002d2565b620002dc565b620002d2565b9050919050565b6000819050919050565b6200032383620002e6565b6200033b62000332826200030e565b8484546200027c565b825550505050565b600090565b6200035262000343565b6200035f81848462000318565b505050565b5b8181101562000387576200037b60008262000348565b60018101905062000365565b5050565b601f821115620003d657620003a0816200024a565b620003ab846200025f565b81016020851015620003bb578190505b620003d3620003ca856200025f565b83018262000364565b50505b505050565b600082821c905092915050565b6000620003fb60001984600802620003db565b1980831691505092915050565b6000620004168383620003e8565b9150826002028217905092915050565b6200043182620001ac565b67ffffffffffffffff8111156200044d576200044c620001b7565b5b62000459825462000215565b620004668282856200038b565b600060209050601f8311600181146200049e576000841562000489578287015190505b62000495858262000408565b86555062000505565b601f198416620004ae866200024a565b60005b82811015620004d857848901518255600182019150602085019450602081019050620004b1565b86831015620004f85784890151620004f4601f891682620003e8565b8355505b6001600288020188555050505b505050505050565b600073ffffffffffffffffffffffffffffffffffffffff82169050919050565b60006200053a826200050d565b9050919050565b6200054c816200052d565b82525050565b600060208201905062000569600083018462000541565b92915050565b61325b806200057f6000396000f3fe60806040526004361061019c5760003560e01c8063715018a6116100ec578063a5097ebf1161008a578063d5abeb0111610064578063d5abeb011461057f578063e985e9c5146105aa578063f2fde38b146105e7578063f4a0a528146106105761019c565b8063a5097ebf146104ee578063b88d4fde14610519578063c87b56dd146105425761019c565b80638da5cb5b116100c65780638da5cb5b1461044457806395d89b411461046f578063a22cb4651461049a578063a2309ff8146104c35761019c565b8063715018a6146103db578063729ad39e146103f25780637ed52cf11461041b5761019c565b80633ccfd60b1161015957806355f804b31161013357806355f804b31461030d5780636352211e146103365780636817c76c1461037357806370a082311461039e5761019c565b80633ccfd60b146102a257806342842e0e146102b9578063453c2310146102e25761019c565b806301ffc9a7146101a157806306fdde03146101de578063081812fc14610209578063095ea7b3146102465780631249c58b1461026f57806323b872dd14610279575b600080fd5b3480156101ad57600080fd5b506101c860048036038101906101c39190612264565b610639565b6040516101d591906122ac565b60405180910390f35b3480156101ea57600080fd5b506101f361071b565b6040516102009190612357565b60405180910390f35b34801561021557600080fd5b50610230600480360381019061022b91906123af565b6107ad565b60405161023d919061241d565b60405180910390f35b34801561025257600080fd5b5061026d60048036038101906102689190612464565b6107c9565b005b6102776107df565b005b34801561028557600080fd5b506102a0600480360381019061029b91906124a4565b6109ba565b005b3480156102ae57600080fd5b506102b7610abc565b005b3480156102c557600080fd5b506102e060048036038101906102db91906124a4565b610b7a565b005b3480156102ee57600080fd5b506102f7610b9a565b604051610304919061251e565b60405180910390f35b34801561031957600080fd5b50610334600480360381019061032f919061266e565b610bb8565b005b34801561034257600080fd5b5061035d600480360381019061035891906123af565b610bd3565b60405161036a919061241d565b60405180910390f35b34801561037f57600080fd5b50610388610be5565b604051610395919061251e565b60405180910390f35b3480156103aa57600080fd5b506103c560048036038101906103c091906126b7565b610c03565b6040516103d291906126f3565b60405180910390f35b3480156103e757600080fd5b506103f0610cbd565b005b3480156103fe57600080fd5b506104196004803603810190610414919061276e565b610cd1565b005b34801561042757600080fd5b50610442600480360381019061043d91906127bb565b610e31565b005b34801561045057600080fd5b50610459610f71565b604051610466919061241d565b60405180910390f35b34801561047b57600080fd5b50610484610f9b565b6040516104919190612357565b60405180910390f35b3480156104a657600080fd5b506104c160048036038101906104bc91906128dd565b61102d565b005b3480156104cf57600080fd5b506104d8611043565b6040516104e5919061251e565b60405180910390f35b3480156104fa57600080fd5b50610503611061565b6040516105109190612357565b60405180910390f35b34801561052557600080fd5b50610540600480360381019061053b91906129be565b6110f3565b005b34801561054e57600080fd5b50610569600480360381019061056491906123af565b611118565b6040516105769190612357565b60405180910390f35b34801561058b57600080fd5b50610594611181565b6040516105a1919061251e565b60405180910390f35b3480156105b657600080fd5b506105d160048036038101906105cc9190612a41565b61119f565b6040516105de91906122ac565b60405180910390f35b3480156105f357600080fd5b5061060e600480360381019061060991906126b7565b611233565b005b34801561061c57600080fd5b50610637600480360381019061063291906123af565b6112b9565b005b60007f80ac58cd000000000000000000000000000000000000000000000000000000007bffffffffffffffffffffffffffffffffffffffffffffffffffffffff1916827bffffffffffffffffffffffffffffffffffffffffffffffffffffffff1916148061070457507f5b5e139f000000000000000000000000000000000000000000000000000000007bffffffffffffffffffffffffffffffffffffffffffffffffffffffff1916827bffffffffffffffffffffffffffffffffffffffffffffffffffffffff1916145b806107145750610713826112f5565b5b9050919050565b60606009805461072a90612ab0565b80601f016020809104026020016040519081016040528092919081815260200182805461075690612ab0565b80156107a35780601f10610778576101008083540402835291602001916107a3565b820191906000526020600020905b81548152906001019060200180831161078657829003601f168201915b5050505050905090565b60006107b88261135f565b506107c2826113e7565b9050919050565b6107db82826107d6611424565b61142c565b5050565b6007600c9054906101000a90046bffffffffffffffffffffffff166bffffffffffffffffffffffff16600760009054906101000a90046bffffffffffffffffffffffff166bffffffffffffffffffffffff1610610871576040517f08c379a000000000000000000000000000000000000000000000000000000000815260040161086890612b2d565b60405180910390fd5b600860009054906101000a90046bffffffffffffffffffffffff166bffffffffffffffffffffffff163410156108dc576040517f08c379a00000000000000000000000000000000000000000000000000000000081526004016108d390612b99565b60405180910390fd5b6008600c9054906101000a90046bffffffffffffffffffffffff166bffffffffffffffffffffffff1661090e33610c03565b1061094e576040517f08c379a000000000000000000000000000000000000000000000000000000000815260040161094590612c05565b60405180910390fd5b60006007600081819054906101000a90046bffffffffffffffffffffffff1660010191906101000a8154816bffffffffffffffffffffffff02191690836bffffffffffffffffffffffff16021790556bffffffffffffffffffffffff1690506109b7338261143e565b50565b600073ffffffffffffffffffffffffffffffffffffffff168273ffffffffffffffffffffffffffffffffffffffff1603610a2c5760006040517f64a0ae92000000000000000000000000000000000000000000000000000000008152600401610a23919061241d565b60405180910390fd5b6000610a408383610a3b611424565b611537565b90508373ffffffffffffffffffffffffffffffffffffffff168173ffffffffffffffffffffffffffffffffffffffff1614610ab6578382826040517f64283d7b000000000000000000000000000000000000000000000000000000008152600401610aad93929190612c25565b60405180910390fd5b50505050565b610ac4611751565b6000610ace610f71565b73ffffffffffffffffffffffffffffffffffffffff1647604051610af190612c8d565b60006040518083038185875af1925050503d8060008114610b2e576040519150601f19603f3d011682016040523d82523d6000602084013e610b33565b606091505b5050905080610b77576040517f08c379a0000000000000000000000000000000000000000000000000000000008152600401610b6e90612cee565b60405180910390fd5b50565b610b95838383604051806020016040528060008152506110f3565b505050565b6008600c9054906101000a90046bffffffffffffffffffffffff1681565b610bc0611751565b80600b9081610bcf9190612eba565b5050565b6000610bde8261135f565b9050919050565b600860009054906101000a90046bffffffffffffffffffffffff1681565b60008073ffffffffffffffffffffffffffffffffffffffff168273ffffffffffffffffffffffffffffffffffffffff1603610c765760006040517f89c62b64000000000000000000000000000000000000000000000000000000008152600401610c6d919061241d565b60405180910390fd5b600360008373ffffffffffffffffffffffffffffffffffffffff1673ffffffffffffffffffffffffffffffffffffffff168152602001908152602001600020549050919050565b610cc5611751565b610ccf60006117d8565b565b610cd9611751565b60008282905090506007600c9054906101000a90046bffffffffffffffffffffffff166bffffffffffffffffffffffff1681600760009054906101000a90046bffffffffffffffffffffffff166bffffffffffffffffffffffff16610d3e9190612fbb565b1115610d7f576040517f08c379a0000000000000000000000000000000000000000000000000000000008152600401610d7690612b2d565b60405180910390fd5b6000600760009054906101000a90046bffffffffffffffffffffffff166bffffffffffffffffffffffff16905060005b82811015610df957610dee858583818110610dcd57610dcc612fef565b5b9050602002016020810190610de291906126b7565b8360010193508361143e565b806001019050610daf565b5080600760006101000a8154816bffffffffffffffffffffffff02191690836bffffffffffffffffffffffff16021790555050505050565b600660149054906101000a900460ff1615610e81576040517f08c379a0000000000000000000000000000000000000000000000000000000008152600401610e789061306a565b60405180910390fd5b6001600660146101000a81548160ff0219169083151502179055508660099081610eab9190612eba565b5085600a9081610ebb9190612eba565b50610ec5816117d8565b84600b9081610ed49190612eba565b50836007600c6101000a8154816bffffffffffffffffffffffff02191690836bffffffffffffffffffffffff16021790555082600860006101000a8154816bffffffffffffffffffffffff02191690836bffffffffffffffffffffffff160217905550816008600c6101000a8154816bffffffffffffffffffffffff02191690836bffffffffffffffffffffffff16021790555050505050505050565b6000600660009054906101000a900473ffffffffffffffffffffffffffffffffffffffff16905090565b6060600a8054610faa90612ab0565b80601f0160208091040260200160405190810160405280929190818152602001828054610fd690612ab0565b80156110235780601f10610ff857610100808354040283529160200191611023565b820191906000526020600020905b81548152906001019060200180831161100657829003601f168201915b5050505050905090565b61103f611038611424565b838361189e565b5050565b600760009054906101000a90046bffffffffffffffffffffffff1681565b6060600b805461107090612ab0565b80601f016020809104026020016040519081016040528092919081815260200182805461109c90612ab0565b80156110e95780601f106110be576101008083540402835291602001916110e9565b820191906000526020600020905b8154815290600101906020018083116110cc57829003601f168201915b5050505050905090565b6110fe8484846109ba565b611112611109611424565b85858585611a0d565b50505050565b60606111238261135f565b50600061112e611bbe565b9050600081511161114e5760405180602001604052806000815250611179565b8061115884611c50565b6040516020016111699291906130c6565b6040516020818303038152906040525b915050919050565b6007600c9054906101000a90046bffffffffffffffffffffffff1681565b6000600560008473ffffffffffffffffffffffffffffffffffffffff1673ffffffffffffffffffffffffffffffffffffffff16815260200190815260200160002060008373ffffffffffffffffffffffffffffffffffffffff1673ffffffffffffffffffffffffffffffffffffffff16815260200190815260200160002060009054906101000a900460ff16905092915050565b61123b611751565b600073ffffffffffffffffffffffffffffffffffffffff168173ffffffffffffffffffffffffffffffffffffffff16036112ad5760006040517f1e4fbdf70000000000000000000000000000000000000000000000000000000081526004016112a4919061241d565b60405180910390fd5b6112b6816117d8565b50565b6112c1611751565b80600860006101000a8154816bffffffffffffffffffffffff02191690836bffffffffffffffffffffffff16021790555050565b60007f01ffc9a7000000000000000000000000000000000000000000000000000000007bffffffffffffffffffffffffffffffffffffffffffffffffffffffff1916827bffffffffffffffffffffffffffffffffffffffffffffffffffffffff1916149050919050565b60008061136b83611d1e565b9050600073ffffffffffffffffffffffffffffffffffffffff168173ffffffffffffffffffffffffffffffffffffffff16036113de57826040517f7e2732890000000000000000000000000000000000000000000000000000000081526004016113d591906126f3565b60405180910390fd5b80915050919050565b60006004600083815260200190815260200160002060009054906101000a900473ffffffffffffffffffffffffffffffffffffffff169050919050565b600033905090565b6114398383836001611d5b565b505050565b600073ffffffffffffffffffffffffffffffffffffffff168273ffffffffffffffffffffffffffffffffffffffff16036114b05760006040517f64a0ae920000000000000000000000000000000000000000000000000000000081526004016114a7919061241d565b60405180910390fd5b60006114be83836000611537565b9050600073ffffffffffffffffffffffffffffffffffffffff168173ffffffffffffffffffffffffffffffffffffffff16146115325760006040517f73c6ac6e000000000000000000000000000000000000000000000000000000008152600401611529919061241d565b60405180910390fd5b505050565b60008061154384611d1e565b9050600073ffffffffffffffffffffffffffffffffffffffff168373ffffffffffffffffffffffffffffffffffffffff161461158557611584818486611f20565b5b600073ffffffffffffffffffffffffffffffffffffffff168173ffffffffffffffffffffffffffffffffffffffff1614611616576115c7600085600080611d5b565b6001600360008373ffffffffffffffffffffffffffffffffffffffff1673ffffffffffffffffffffffffffffffffffffffff168152602001908152602001600020600082825403925050819055505b600073ffffffffffffffffffffffffffffffffffffffff168573ffffffffffffffffffffffffffffffffffffffff1614611699576001600360008773ffffffffffffffffffffffffffffffffffffffff1673ffffffffffffffffffffffffffffffffffffffff168152602001908152602001600020600082825401925050819055505b846002600086815260200190815260200160002060006101000a81548173ffffffffffffffffffffffffffffffffffffffff021916908373ffffffffffffffffffffffffffffffffffffffff160217905550838573ffffffffffffffffffffffffffffffffffffffff168273ffffffffffffffffffffffffffffffffffffffff167fddf252ad1be2c89b69c2b068fc378daa952ba7f163c4a11628f55a4df523b3ef60405160405180910390a4809150509392505050565b611759611424565b73ffffffffffffffffffffffffffffffffffffffff16611777610f71565b73ffffffffffffffffffffffffffffffffffffffff16146117d65761179a611424565b6040517f118cdaa70000000000000000000000000000000000000000000000000000000081526004016117cd919061241d565b60405180910390fd5b565b6000600660009054906101000a900473ffffffffffffffffffffffffffffffffffffffff16905081600660006101000a81548173ffffffffffffffffffffffffffffffffffffffff021916908373ffffffffffffffffffffffffffffffffffffffff1602179055508173ffffffffffffffffffffffffffffffffffffffff168173ffffffffffffffffffffffffffffffffffffffff167f8be0079c531659141344cd1fd0a4f28419497f9722a3daafe3b4186f6b6457e060405160405180910390a35050565b600073ffffffffffffffffffffffffffffffffffffffff168273ffffffffffffffffffffffffffffffffffffffff160361190f57816040517f5b08ba18000000000000000000000000000000000000000000000000000000008152600401611906919061241d565b60405180910390fd5b80600560008573ffffffffffffffffffffffffffffffffffffffff1673ffffffffffffffffffffffffffffffffffffffff16815260200190815260200160002060008473ffffffffffffffffffffffffffffffffffffffff1673ffffffffffffffffffffffffffffffffffffffff16815260200190815260200160002060006101000a81548160ff0219169083151502179055508173ffffffffffffffffffffffffffffffffffffffff168373ffffffffffffffffffffffffffffffffffffffff167f17307eab39ab6107e8899845ad3d59bd9653f200f220920489ca2b5937696c3183604051611a0091906122ac565b60405180910390a3505050565b60008373ffffffffffffffffffffffffffffffffffffffff163b1115611bb7578273ffffffffffffffffffffffffffffffffffffffff1663150b7a02868685856040518563ffffffff1660e01b8152600401611a6c949392919061313f565b6020604051808303816000875af1925050508015611aa857506040513d601f19601f82011682018060405250810190611aa591906131a0565b60015b611b2c573d8060008114611ad8576040519150601f19603f3d011682016040523d82523d6000602084013e611add565b606091505b506000815103611b2457836040517f64a0ae92000000000000000000000000000000000000000000000000000000008152600401611b1b919061241d565b60405180910390fd5b805160208201fd5b63150b7a0260e01b7bffffffffffffffffffffffffffffffffffffffffffffffffffffffff1916817bffffffffffffffffffffffffffffffffffffffffffffffffffffffff191614611bb557836040517f64a0ae92000000000000000000000000000000000000000000000000000000008152600401611bac919061241d565b60405180910390fd5b505b5050505050565b6060600b8054611bcd90612ab0565b80601f0160208091040260200160405190810160405280929190818152602001828054611bf990612ab0565b8015611c465780601f10611c1b57610100808354040283529160200191611c46565b820191906000526020600020905b815481529060010190602001808311611c2957829003601f168201915b5050505050905090565b606060006001611c5f84611fe4565b01905060008167ffffffffffffffff811115611c7e57611c7d612543565b5b6040519080825280601f01601f191660200182016040528015611cb05781602001600182028036833780820191505090505b509050600082602083010190505b600115611d13578080600190039150507f3031323334353637383961626364656600000000000000000000000000000000600a86061a8153600a8581611d0757611d066131cd565b5b04945060008503611cbe575b819350505050919050565b60006002600083815260200190815260200160002060009054906101000a900473ffffffffffffffffffffffffffffffffffffffff169050919050565b8080611d945750600073ffffffffffffffffffffffffffffffffffffffff168273ffffffffffffffffffffffffffffffffffffffff1614155b15611ec8576000611da48461135f565b9050600073ffffffffffffffffffffffffffffffffffffffff168373ffffffffffffffffffffffffffffffffffffffff1614158015611e0f57508273ffffffffffffffffffffffffffffffffffffffff168173ffffffffffffffffffffffffffffffffffffffff1614155b8015611e225750611e20818461119f565b155b15611e6457826040517fa9fbf51f000000000000000000000000000000000000000000000000000000008152600401611e5b919061241d565b60405180910390fd5b8115611ec657838573ffffffffffffffffffffffffffffffffffffffff168273ffffffffffffffffffffffffffffffffffffffff167f8c5be1e5ebec7d5bd14f71427d1e84f3dd0314c0f7b2291e5b200ac8c7c3b92560405160405180910390a45b505b836004600085815260200190815260200160002060006101000a81548173ffffffffffffffffffffffffffffffffffffffff021916908373ffffffffffffffffffffffffffffffffffffffff16021790555050505050565b611f2b838383612137565b611fdf57600073ffffffffffffffffffffffffffffffffffffffff168373ffffffffffffffffffffffffffffffffffffffff1603611fa057806040517f7e273289000000000000000000000000000000000000000000000000000000008152600401611f9791906126f3565b60405180910390fd5b81816040517f177e802f000000000000000000000000000000000000000000000000000000008152600401611fd69291906131fc565b60405180910390fd5b505050565b600080600090507a184f03e93ff9f4daa797ed6e38ed64bf6a1f0100000000000000008310612042577a184f03e93ff9f4daa797ed6e38ed64bf6a1f0100000000000000008381612038576120376131cd565b5b0492506040810190505b6d04ee2d6d415b85acef8100000000831061207f576d04ee2d6d415b85acef81000000008381612075576120746131cd565b5b0492506020810190505b662386f26fc1000083106120ae57662386f26fc1000083816120a4576120a36131cd565b5b0492506010810190505b6305f5e10083106120d7576305f5e10083816120cd576120cc6131cd565b5b0492506008810190505b61271083106120fc5761271083816120f2576120f16131cd565b5b0492506004810190505b6064831061211f5760648381612115576121146131cd565b5b0492506002810190505b600a831061212e576001810190505b80915050919050565b60008073ffffffffffffffffffffffffffffffffffffffff168373ffffffffffffffffffffffffffffffffffffffff16141580156121ef57508273ffffffffffffffffffffffffffffffffffffffff168473ffffffffffffffffffffffffffffffffffffffff1614806121b057506121af848461119f565b5b806121ee57508273ffffffffffffffffffffffffffffffffffffffff166121d6836113e7565b73ffffffffffffffffffffffffffffffffffffffff16145b5b90509392505050565b6000604051905090565b600080fd5b600080fd5b60007fffffffff0000000000000000000000000000000000000000000000000000000082169050919050565b6122418161220c565b811461224c57600080fd5b50565b60008135905061225e81612238565b92915050565b60006020828403121561227a57612279612202565b5b60006122888482850161224f565b91505092915050565b60008115159050919050565b6122a681612291565b82525050565b60006020820190506122c1600083018461229d565b92915050565b600081519050919050565b600082825260208201905092915050565b60005b838110156123015780820151818401526020810190506122e6565b60008484015250505050565b6000601f19601f8301169050919050565b6000612329826122c7565b61233381856122d2565b93506123438185602086016122e3565b61234c8161230d565b840191505092915050565b60006020820190508181036000830152612371818461231e565b905092915050565b6000819050919050565b61238c81612379565b811461239757600080fd5b50565b6000813590506123a981612383565b92915050565b6000602082840312156123c5576123c4612202565b5b60006123d38482850161239a565b91505092915050565b600073ffffffffffffffffffffffffffffffffffffffff82169050919050565b6000612407826123dc565b9050919050565b612417816123fc565b82525050565b6000602082019050612432600083018461240e565b92915050565b612441816123fc565b811461244c57600080fd5b50565b60008135905061245e81612438565b92915050565b6000806040838503121561247b5761247a612202565b5b60006124898582860161244f565b925050602061249a8582860161239a565b9150509250929050565b6000806000606084860312156124bd576124bc612202565b5b60006124cb8682870161244f565b93505060206124dc8682870161244f565b92505060406124ed8682870161239a565b9150509250925092565b60006bffffffffffffffffffffffff82169050919050565b612518816124f7565b82525050565b6000602082019050612533600083018461250f565b92915050565b600080fd5b600080fd5b7f4e487b7100000000000000000000000000000000000000000000000000000000600052604160045260246000fd5b61257b8261230d565b810181811067ffffffffffffffff8211171561259a57612599612543565b5b80604052505050565b60006125ad6121f8565b90506125b98282612572565b919050565b600067ffffffffffffffff8211156125d9576125d8612543565b5b6125e28261230d565b9050602081019050919050565b82818337600083830152505050565b600061261161260c846125be565b6125a3565b90508281526020810184848401111561262d5761262c61253e565b5b6126388482856125ef565b509392505050565b600082601f83011261265557612654612539565b5b81356126658482602086016125fe565b91505092915050565b60006020828403121561268457612683612202565b5b600082013567ffffffffffffffff8111156126a2576126a1612207565b5b6126ae84828501612640565b91505092915050565b6000602082840312156126cd576126cc612202565b5b60006126db8482850161244f565b91505092915050565b6126ed81612379565b82525050565b600060208201905061270860008301846126e4565b92915050565b600080fd5b600080fd5b60008083601f84011261272e5761272d612539565b5b8235905067ffffffffffffffff81111561274b5761274a61270e565b5b60208301915083602082028301111561276757612766612713565b5b9250929050565b6000806020838503121561278557612784612202565b5b600083013567ffffffffffffffff8111156127a3576127a2612207565b5b6127af85828601612718565b92509250509250929050565b600080600080600080600060e0888a0312156127da576127d9612202565b5b600088013567ffffffffffffffff8111156127f8576127f7612207565b5b6128048a828b01612640565b975050602088013567ffffffffffffffff81111561282557612824612207565b5b6128318a828b01612640565b965050604088013567ffffffffffffffff81111561285257612851612207565b5b61285e8a828b01612640565b955050606061286f8a828b0161239a565b94505060806128808a828b0161239a565b93505060a06128918a828b0161239a565b92505060c06128a28a828b0161244f565b91505092959891949750929550565b6128ba81612291565b81146128c557600080fd5b50565b6000813590506128d7816128b1565b92915050565b600080604083850312156128f4576128f3612202565b5b60006129028582860161244f565b9250506020612913858286016128c8565b9150509250929050565b600067ffffffffffffffff82111561293857612937612543565b5b6129418261230d565b9050602081019050919050565b600061296161295c8461291d565b6125a3565b90508281526020810184848401111561297d5761297c61253e565b5b6129888482856125ef565b509392505050565b600082601f8301126129a5576129a4612539565b5b81356129b584826020860161294e565b91505092915050565b600080600080608085870312156129d8576129d7612202565b5b60006129e68782880161244f565b94505060206129f78782880161244f565b9350506040612a088782880161239a565b925050606085013567ffffffffffffffff811115612a2957612a28612207565b5b612a3587828801612990565b91505092959194509250565b60008060408385031215612a5857612a57612202565b5b6000612a668582860161244f565b9250506020612a778582860161244f565b9150509250929050565b7f4e487b7100000000000000000000000000000000000000000000000000000000600052602260045260246000fd5b60006002820490506001821680612ac857607f821691505b602082108103612adb57612ada612a81565b5b50919050565b7f4d617820737570706c7920726561636865640000000000000000000000000000600082015250565b6000612b176012836122d2565b9150612b2282612ae1565b602082019050919050565b60006020820190508181036000830152612b4681612b0a565b9050919050565b7f496e73756666696369656e74207061796d656e74000000000000000000000000600082015250565b6000612b836014836122d2565b9150612b8e82612b4d565b602082019050919050565b60006020820190508181036000830152612bb281612b76565b9050919050565b7f4d6178207065722077616c6c6574207265616368656400000000000000000000600082015250565b6000612bef6016836122d2565b9150612bfa82612bb9565b602082019050919050565b60006020820190508181036000830152612c1e81612be2565b9050919050565b6000606082019050612c3a600083018661240e565b612c4760208301856126e4565b612c54604083018461240e565b949350505050565b600081905092915050565b50565b6000612c77600083612c5c565b9150612c8282612c67565b600082019050919050565b6000612c9882612c6a565b9150819050919050565b7f5769746864726177206661696c65640000000000000000000000000000000000600082015250565b6000612cd8600f836122d2565b9150612ce382612ca2565b602082019050919050565b60006020820190508181036000830152612d0781612ccb565b9050919050565b60008190508160005260206000209050919050565b60006020601f8301049050919050565b600082821b905092915050565b600060088302612d707fffffffffffffffffffffffffffffffffffffffffffffffffffffffffffffffff82612d33565b612d7a8683612d33565b95508019841693508086168417925050509392505050565b6000819050919050565b6000612db7612db2612dad84612379565b612d92565b612379565b9050919050565b6000819050919050565b612dd183612d9c565b612de5612ddd82612dbe565b848454612d40565b825550505050565b600090565b612dfa612ded565b612e05818484612dc8565b505050565b5b81811015612e2957612e1e600082612df2565b600181019050612e0b565b5050565b601f821115612e6e57612e3f81612d0e565b612e4884612d23565b81016020851015612e57578190505b612e6b612e6385612d23565b830182612e0a565b50505b505050565b600082821c905092915050565b6000612e9160001984600802612e73565b1980831691505092915050565b6000612eaa8383612e80565b9150826002028217905092915050565b612ec3826122c7565b67ffffffffffffffff811115612edc57612edb612543565b5b612ee68254612ab0565b612ef1828285612e2d565b600060209050601f831160018114612f245760008415612f12578287015190505b612f1c8582612e9e565b865550612f84565b601f198416612f3286612d0e565b60005b82811015612f5a57848901518255600182019150602085019450602081019050612f35565b86831015612f775784890151612f73601f891682612e80565b8355505b6001600288020188555050505b505050505050565b7f4e487b7100000000000000000000000000000000000000000000000000000000600052601160045260246000fd5b6000612fc682612379565b9150612fd183612379565b9250828201905080821115612fe957612fe8612f8c565b5b92915050565b7f4e487b7100000000000000000000000000000000000000000000000000000000600052603260045260246000fd5b7f416c726561647920696e697469616c697a656400000000000000000000000000600082015250565b60006130546013836122d2565b915061305f8261301e565b602082019050919050565b6000602082019050818103600083015261308381613047565b9050919050565b600081905092915050565b60006130a0826122c7565b6130aa818561308a565b93506130ba8185602086016122e3565b80840191505092915050565b60006130d28285613095565b91506130de8284613095565b91508190509392505050565b600081519050919050565b600082825260208201905092915050565b6000613111826130ea565b61311b81856130f5565b935061312b8185602086016122e3565b6131348161230d565b840191505092915050565b6000608082019050613154600083018761240e565b613161602083018661240e565b61316e60408301856126e4565b81810360608301526131808184613106565b905095945050505050565b60008151905061319a81612238565b92915050565b6000602082840312156131b6576131b5612202565b5b60006131c48482850161318b565b91505092915050565b7f4e487b7100000000000000000000000000000000000000000000000000000000600052601260045260246000fd5b6000604082019050613211600083018561240e565b61321e60208301846126e4565b939250505056fea26469706673582212203c19691338102ba027106d0bf79aad14bfb4621c1c90a150e7929f95cb14e51b64736f6c63430008140033",
  "linkReferences": {},
  "deployedLinkReferences": {}
}